:020000040800F2
:100000000000022049E20808DDE2080825A10308F3
:10001000DDE20808DDE20808DDE208080000000073
:10002000000000000000000000000000DDE2080801
:10003000DDE2080800000000DDE2080801270208F0
:10004000DDE20808DDE20808DDE20808DDE2080874
:10005000DDE20808DDE2080829FE01082DFE01089E
:1000600031FE010835FE010839FE0108A5490108E5
:10007000B9490108CD490108E1490108F5490108DC
:10008000094A01081D4A0108DDE20808DDE2080806
:10009000DDE20808DDE20808DDE208083DFE0108AF
:1000A000DD53010801530108F1530108ED52010825
:1000B000295301083D53010851530108C13C01086F
:1000C000B53C0108F53C0108E93C0108DDE20808FF
:1000D000DDE2080805560108115601081D56010801
:1000E00041FE0108DDE20808DDE2080805540108C8
:1000F0008D530108B553010879530108314A0108AD
:10010000DDE208084D66010865530108DDE20808D4
:100110002956010835560108DDE20808B9770108BB
:10012000454A0108594A01086D4A0108814A0108F7
:10013000954A0108DDE20808DDE20808DDE208086A
:10014000DDE20808DDE20808DDE208088166010852
:10015000A94A0108BD4A0108D14A010841560108CF
:10016000293D01081D3D0108DDE20808DDE208081F
:10017000DDE20808DDE20808DDE208080000000012
:10018000DDE20808DDE208084D560108595601086D
:10019000DDE20808DDE20808DDE20808DDE2080823
:1001A0000000000000000000DDE20808DDE20808B1
:1001B000DDE20808DDE20808DDE20808DDE2080803
:1001C000DDE20808DDE2080800000000DDE20808C2
:1001D000DDE20808DDE20808DDE2080851660108F2
:1001E000DDE20808DDE20808DDE20808DDE20808D3
:0801F00000000000DDE2080838
:0801F80090D208000100000094
:1002000080B603200201000006003400A0B60320DF
:100210000202000108024700C0B60320010C0000E2
:1002200000017600E0B60320011000000001760016
:1002300000B70320010D01000001770020B7032063
:10024000011200000001760040B7032001140000F5
:1002500000001E0060B70320011A000000000D001E
:1002600080B70320011B000000002C00A0B7032072
:100270000115000000000C00C0B7032001160000AB
:1002800000000C00E0B70320011C000000000E007D
:1002900000B80320011D000000001E0020B803204C
:1002A0000117000000000C0040B8032001180000F6
:1002B00000000E0060B803200119000000000C00CF
:1002C00080B80320011F000000000C00A0B803202C
:1002D0000120000000000C00C0B80320012901002B
:1002E00000011800E0B803200121000000014800CF
:1002F00000B90320012200000001490020B90320B9
:100300000123000000014A0040B90320012400003D
:1003100000014B0060B903200125000000014C00E2
:1003200080B903200126000000014D00A0B9032080
:100330000127000000014E00C0B903200128000081
:1003400000014F00E0B90320012C0000000129004A
:1003500000BA0320012D01000001290020BA03206A
:10036000012E01000001700040BA0320013000009E
:100370000001310060BA0320012F0100000152008A
:1003800080BA03200131010000012800A0BA032037
:100390000132010000012800C0BA0320022A050032
:1003A00000012C00E0BA03200135000000003C00F1
:0C03B00000BB032001380000000020000A
:020000040801F1
:10000000836B1A6C12F0500F1A6C20D142F40072FC
:1000100019681A648A6812F0405F1AD19A69C2B9E5
:10002000CA6A12F4700F02D08A68500511D44A6867
:1000300022F020024A601A6C22F480721A641A6C50
:10004000D10406D41A6C42F001021A647047D20639
:1000500000D570479B6BDB6C184700BF704700BF33
:10006000836B40221A645A6C42F004025A6470474F
:10007000016800220B6880F842205A0410B40ED5A3
:100080000B6823F480430B6090F84130292B10D08B
:1000900090F841302A2B24D05DF8044B70471B04A4
:1000A000F2D50B6823F400430B6090F84130292B04
:1000B000EED12822212380F841200022036390F80A
:1000C00041300C6803F02803282B14BF6FF0F203B3
:1000D0006FF0420323405DF8044B0B6080F8402032
:1000E00070472822222380F841200022036390F8E1
:1000F00041300C6803F02803282B14BF6FF0F40381
:100100006FF0440323405DF8044B0B6080F84020FF
:10011000704700BF0023202210B4174C4363C46211
:10012000036380F8412080F842304B07026811D504
:10013000526A436A1A70436A028D013343624AB1BC
:10014000438D013A013B02859BB24385436C43F0EA
:10015000040343640368102490F84120002190F8C0
:1001600041201A6822F0FE021A60DC615DF8044B3F
:1001700080F84010704700BF0000FFFF10B4524BE2
:10018000002490F8412080F84240283AC362448518
:10019000436C022A41EA03010368416432D890F8B3
:1001A00041104FF0280C90F8412001F02801474CF5
:1001B00002F02802282914BFF6214621282A1A68AD
:1001C0000CBFC9436FF0F6010A401A6080F841C0C5
:1001D000826B016B44631AB1112946D0212944D0A6
:1001E000C26B1AB1122956D0222954D090F841304E
:1001F000602B4FF000032FD080F840305DF8044BA7
:100200000363704790F8412090F841201A6822F06B
:10021000FE021A609A69920700D59C629A69D40717
:1002200003D49A6942F001029A6190F84120602A51
:1002300010D0202280F841209A6991060AD59A6947
:10024000D20605D51022DA61426C42F00402426403
:100250002022DA610024BBE7202280F8403080F8B9
:1002600041205DF8044B0363704719684C0425D4A2
:1002700092F83530012BB9D000231549116580F86B
:10028000403092F83530022B0DD0802310465DF8B7
:10029000044B536504E219680904E9D5196821F48F
:1002A00000411960E4E71168052382F835300B68D6
:1002B0005DF8044B23F001030B607047196821F4CB
:1002C00080411960D4E700BF0000FFFF4D03010823
:1002D000A106010803689A69196810B4D40528D5E5
:1002E0000C0606D4416C11F00B0F1FD15DF8044BC6
:1002F0007047416C4FF4807441F001014164510535
:10030000DC6120D5416C4FF48064920541F0080116
:100310004164DC61E6D5426C4FF4007142F00202A8
:100320004264D961416C11F00B0FDFD05DF8044BD2
:1003300024E7540502D50906E4D4D3E79405D1D5C2
:100340000906E8D4CEE79205E5D4CBE770B590F87E
:1003500040300D46C16A012B00F009810123AE0631
:10036000044680F8403001D5900655D4EE0618D5E5
:10037000D00616D5638D9BB2002B40F0FA8094F81E
:100380004130282B40F0D780B1F1007F40F0D3807E
:1003900029462046FFF7BEFE0023184684F8403069
:1003A00070BD6E071AD42B0701D516074AD4A807CB
:1003B000F2D59307F0D5638D9BB2002B00F0FD8042
:1003C000616A236811F8010B228D9862638D013AEE
:1003D0006162013B22859BB26385DDE75007E2D570
:1003E000638D9BB26BB12268636A526A1A70638D27
:1003F000606A228D013B0130013A9BB26062228526
:100400006385638D9BB2002BC6D111F5803FC3D0AD
:100410002046FFF72DFEBFE7236820261968E06A13
:1004200094F84120DE61213A092A1ED8DFE812F053
:10043000CA0015001D001D001D001D001D00F30059
:10044000CA00150094F84130226803F02803282BD5
:1004500000F0C8800823D3619EE794F841201A6811
:1004600022F0FC021A60222222635A688A4E42F469
:1004700000425A605A6832405A609A69920701D520
:1004800000229A629A69D60703D49A6942F001025F
:100490009A614A047DD51A6822F480421A60A26BE0
:1004A0001AB11268526892B262856A070BD55A6A0D
:1004B00025F00405636A1A70636A01336362238D51
:1004C000002B40F08880638D9BB21BB1636C43F0BE
:1004D00004036364EB061BD5CE0619D5638D9BB26E
:1004E000002B40F0AD8094F84130B0F1007FDBB2DA
:1004F00002D1282B00F0CB8094F8413010F5803FDA
:100500002268DBB202D0292B00F0AF801023D36128
:10051000002384F84230666C6363002E40F08680CE
:10052000E36A5E4DAB423FD194F84130202384F81A
:100530004130266330E794F8413011F5803F22685E
:10054000DBB211D0292B0FD11023D3619369990706
:1005500001D5002393629369DB073FF559AF936997
:1005600043F00103936153E71023D36114E70220A2
:1005700070BD23681022DA61636C43F00403636486
:1005800031F080737FF408AF616C2046FFF7F6FD11
:1005900002E70E0489D51A6822F400421A60E26B61
:1005A000002A7FF47EAF80E72046FFF761FD20231D
:1005B000E56284F841302663EEE631F080737FF423
:1005C000EBAE25E794F841201A6822F0FA021A608F
:1005D0002122226349E7013B2385638D013B9BB2C6
:1005E000638570E7E1689369022990699368D5682B
:1005F00036D1C3F3C21383EA104313F006032FD19D
:10060000A16C0131A164A16C02297FF4C5AE08215F
:10061000A364D161C0E694F8412094F841201A689F
:1006200022F0FE021A60002222631EE7616C20465F
:10063000FFF7A4FD94F84130282B7FF4ADAEA7E678
:1006400023681022DA61636C43F00403636430F0C2
:1006500080737FF45DAF616C2046FFF78FFD57E735
:10066000136823F0B803136096E61023D3619369EF
:10067000990701D5002393629369DB0703D493693B
:1006800043F0010393612046FFF7F2FC40E729465F
:100690002046FFF73FFD3BE700E800FE0000FFFFBC
:1006A000836B9A6B0AB100211165DA6B0AB10021E4
:1006B000116593F84120602A05D000221A630022B8
:1006C00083F8402070470022202183F841101A63EC
:1006D000002283F84020704703682DE9F04F13F0A3
:1006E000010787B000F097819B4A916821F40001CF
:1006F0009160416B94680C43B1FA81F1946013F4FA
:1007000000244FEA511100F08B81934EC56BD6F84F
:100710008C20B5F5801F22F4401242EA0502C6F88B
:100720008C2000F06082B5FA85FC13F4801E4FEA3D
:100730005C1C40F07A8113F0807518BF01219A0685
:1007400000F18C81DA060DD5DFF80C82D8F88C2008
:1007500022F08072C8F88C20D8F88C20866B324347
:10076000C8F88C205E0409D5DFF8EC81426ED8F819
:10077000906026F440363243C8F890201A0409D518
:10078000DFF8D481826ED8F8906026F44026324398
:10079000C8F89020DE0309D5DFF8BC81C26ED8F816
:1007A000906026F440163243C8F890209A0309D589
:1007B000DFF8A481026FD8F8906026F44006324337
:1007C000C8F890205E0609D5DFF88C81426CD8F815
:1007D000906026F003063243C8F890201A0609D527
:1007E000DFF87481826CD8F8906026F00C063243F2
:1007F000C8F89020DE0509D5DFF85C81C26CD8F816
:10080000906026F030063243C8F890209A0509D54A
:10081000DFF84481026DD8F8906026F0C0063243BC
:10082000C8F890205E0509D5DFF82C81426DD8F814
:10083000906026F440763243C8F890201A0509D516
:10084000DFF81481826DD8F8906026F44066324358
:10085000C8F89020DE0409D5DFF8FC80C26DD8F816
:10086000906026F440563243C8F890209A0409D587
:10087000DFF8E480026ED8F8906026F440463243F8
:10088000C8F890205E0209D5DFF8CC80826FD8F8D6
:10089000906026F080663243C8F8902013F400166A
:1008A00010D0DFF8B480D0F87C90D8F89020B9F15F
:1008B000006F22F0006208BF4FF0010C42EA09020B
:1008C000C8F890205A030AD5DFF88C90D9F8902008
:1008D00022F04078426F48EA0202C9F890201A02DA
:1008E0000BD5DFF87490D9F8902022F08058D0F81A
:1008F000802048EA0202C9F890205A010BD5DFF89F
:100900005890D9F8902022F00058D0F8842048EA76
:100910000202C9F890201A010BD5DFF83C90D9F8F3
:100920008C2022F00078D0F8882048EA0202C9F82A
:100930008C20DA0000F1EF80012901D09A0162D504
:10094000DFF81480054AD8F8001021F08061C8F85B
:100950000010D2F8009009E000380240F82F022081
:100960001168A1EB0901642900F23981D8F800105F
:100970000901F5D497B1416B81B9D8F88470D8F8E2
:10098000841007F4403701F070610F43416847EA73
:100990008117816847EA0171C8F8841024B1C16BDE
:1009A000B1F5801F00F03481BEF1000F04D0016C5E
:1009B000B1F5800F00F02C819DB1DFF8F082456821
:1009C000D8F88470D8F8841007F0706701F0E04917
:1009D000016947EA090747EA851545EA0141C8F870
:1009E0008410990100F10581B0490B6843F08063E0
:1009F0000B60156804E013685B1B642B00F2EF804A
:100A00000B681B01F7D5BCF1010F00F091800020AD
:100A100007B0BDE8F08F13F4002439467FF475AEBB
:100A2000A44613F4801E3FF486AEA04E056CD6F8A3
:100A30008C20B5F5800F22F4400242EA0502C6F888
:100A40008C2000F0D480002D08BF4FF0010C13F073
:100A5000807518BF01219A067FF574AE934EDFF8BA
:100A60005482D6F84090924A49F08059C6F8409096
:100A7000366C06F080560596059ED8F8006046F460
:100A80008076C8F80060D2F8009005E01668A6EB02
:100A90000906642E00F2A380D8F80060F605F5D5AB
:100AA000DFF80882066BD8F8709006F4407A019659
:100AB00019F4407919D0CA4517D0D8F87090D8F8F1
:100AC00070B029F440794BF4803BC8F870B0D8F886
:100AD00070B02BF4803BC8F870B0C8F87090D8F8AC
:100AE000709019F0010F40F0C480BAF5407F00F01B
:100AF000B080DFF8B881D8F8082022F4F812C8F8DE
:100B00000820019AC2F30B06684AD2F8708046EAC0
:100B10000806166716E6DFF89491D9F88C2022F0C3
:100B20008068D0F88C2048EA0202C9F88C2003E7DC
:100B30005E495F4A0B6823F080530B60156803E041
:100B400013685B1B642B4AD80B689F00F8D4002CF9
:100B500000F0A380C36B002B40F09F805349D1F875
:100B60008830D1F8884003F4403304F0E044234354
:100B7000446943EA8413846943EA0463C1F8883012
:100B8000D1F88C30846A23F4F853013C43EA0423FF
:100B9000C1F88C30AEB1C36FB3F1006F11D14349CE
:100BA000D1F88830D1F8884003F0706304F0E04455
:100BB00023434469006A43EA841343EA0043C1F8CB
:100BC00088303A490B6843F080530B6010680B681B
:100BD0009B003FF51CAF13681B1A642BF7D9032049
:100BE00007B0BDE8F08F4FF0000C012119E701219B
:100BF000A1E5036941681B0443EA8113C16843EA24
:100C00000163816843EA01732849C1F88430EBE647
:100C1000DFF89880D8F88470D8F8841007F440374B
:100C200001F0E049416847EA090747EA8117C168CE
:100C300047EA0161C8F88410D8F88C70416A27F03F
:100C40001F0701393943C8F88C10002D3FF4C9AE95
:100C5000B3E6019ADFF85490DFF85C8002EA0808F6
:100C6000D9F8082022F4F81242EA0802C9F808204C
:100C700047E7166841F2883B03930296DDE9016974
:100C800004E01368A3EB09035B45A8D8D8F87030DB
:100C90009B07F6D5039B019627E7BEF1000F3FF4B3
:100CA00079AF036C002B7FF475AF57E70038024033
:100CB000F82F022000700040FFFCFF0FF0B5364A0D
:100CC000B0F1804F354DA0EB02020368A0EB050E9A
:100CD0004C69B2FA82F28F68BEFA8EFE0E684FEA55
:100CE00052124FEA5E1E2BD052BBDFF8BCC06045EB
:100CF00043D00CF5806C60453FD00CF5806C6045AE
:100D00001ED0BEF1000F1BD1254A904239D002F50A
:100D10008062904235D0234A904232D0A2F5983278
:100D200090422ED002F5806290422AD002F5806275
:100D3000904226D023F08003C76286621C4314E0F1
:100D40004D6823F07003D1F80CC02B43C762866254
:100D500023F4407343EA0C0323F080031C4312B9CD
:100D6000BEF1000F01D00B6903630368012243F059
:100D70000403036042610460F0BD23F070034A681D
:100D80001343CA6823F44073C7621343866223F097
:100D900080031C43E9E700BF00000140000401405C
:100DA000004001400048014000040040436A1A0727
:100DB00010B406D50168446B4A6822F4004222430D
:100DC0004A60DC0706D50168846A4A6822F400326A
:100DD00022434A60990706D50168C46A4A6822F42A
:100DE000803222434A605A0706D50168046B4A687C
:100DF00022F4802222434A60DC0606D50168846B17
:100E00008A6822F4805222438A60990606D50168D6
:100E1000C46B8A6822F4005222438A605A060AD5BB
:100E20000168046C4A68B4F5801F22F4801242EA1B
:100E300004024A600BD01B0606D50268816C536819
:100E400023F400230B4353605DF8044B70474A685A
:100E5000446C22F4C00222434A60ECE7704700BFB2
:100E6000836B1A68D36B43F48073D363704700BFFE
:100E7000124B41F2883C124A01461B68A2FB032335
:100E80005B0A0CFB03F33BB14A6B12F0450F01D038
:100E9000120504D5013BF7D14FF0004070474B6B72
:100EA0005B0707D4486B10F0010014BF0123C52372
:100EB0008B637047042318468B6370470000022041
:100EC000D34D6210036942681F2B70B430D9A3F16F
:100ED000200520215468A940214227D08169087C3F
:100EE000022835D048681F2BC9681B4D4E68016920
:100EF000C1F30324194951F8244015F804C00568CA
:100F000056F80C4024F0010446F80C40407901EBFF
:100F10004001088CE96800F4F05021EA0001E96022
:100F200010D9A3F1200120238B40D36070BC7047FF
:100F30002021146899402142F8D08169087C022858
:100F4000D0D105E0202101FA03F370BC9360704713
:100F500000200874C6E700BFB86D0908586C09087E
:100F6000D0E907239A423CBFC1685218D01A704793
:100F7000D0E9092300699A4238BF12180138D31A00
:100F8000C01A7047D0E90902101AB0FA80F040097F
:100F9000704700BF016A034640694A1C405CD9683B
:100FA0008A4228BF00221A62704700BF436A8269E2
:100FB00010B4D154436A416B046901330A68A342F7
:100FC00028BF00235DF8044B42F0800243620A60B0
:100FD000704700BF436BD86910F0100002D0102298
:100FE00001201A62704700BFF0B50022664C674BC3
:100FF00083B0E76D019208221E68236E3D689A4017
:10100000154204D061680868400700F1978001220A
:101010009A40154204D061684969080600F1888049
:1010200004229A40154203D061680968890779D47F
:1010300010229A40154203D06168086800075ED408
:1010400020229A40154214D061680868C00610D565
:10105000BA6094F83920052A33D00B6813F4802F36
:101060000B687BD0190340F18680236C0BB1484894
:101070009847A36D002B40D0A36DDA071AD562689C
:101080000521444B84F83910A3FB0636136823F07E
:101090000103B60A136002E01368DB0704D5019B65
:1010A00001339E420193F7D20122002384F83920B4
:1010B00084F83830236D03B3354803B0BDE8F04001
:1010C00018470A6822F016020A604A6922F0800274
:1010D0004A61626C002A53D00A6822F008020A6052
:1010E0003F22012102FA03F30022BB60636D84F802
:1010F000391084F83820002BDED103B0F0BDBA607F
:101100000A6812F4802F0A6822D1D20503D40A6833
:1011100022F008020A60626C002A91D01C489047B5
:10112000236E8DE7BA60A26D42F00402A2657FE7EC
:10113000BA60A26D42F00202A26571E7086820F071
:1011400004000860BA60A26D42F00102A2655EE789
:101150001103E0D5E26C002AE0D171E713F480734B
:1011600083D10A6822F010020A60012284F8383024
:1011700084F8392079E7A36C002B7FF478AF78E707
:10118000E26C002AA8D1ABE7F82F02200000022071
:10119000FC2F0220B5814E1B704700BF704700BF77
:1011A000704700BF01207047014B586E704700BF69
:1011B000F82F0220044B93F86402A0F10300B0FA68
:1011C00080F04009704700BFF82F0220012380F80B
:1011D00049307047EFF31182702383F31288084976
:1011E000D2B2D1E9A73182F31188581E8B42A0EB0D
:1011F00001008CBF0023012300EB0330704700BFC8
:10120000F82F0220D0F8183223B100221046C3F87C
:10121000142270470220704701F00F01D0F83022ED
:1012200001EBC10102EB8102D0E98630D2F86822DD
:1012300003F5037110B5C468D3F80402C3F80C2297
:10124000A047002010BD00BFD0F81C3283B110B5FC
:10125000D0F8184294F80002FF2807D09B68214676
:1012600094F801229847FF2384F80032002010BD33
:10127000002070470346432201481A80704700BF90
:10128000040002200346432201481A80704700BF31
:10129000480002200346432201481A80704700BFDD
:1012A0008C00022003460A2201481A80704700BFC2
:1012B000D00002200346202201481A80704700BF58
:1012C000DC0002200346202201481A80704700BF3C
:1012D000FC0002200346202201481A80704700BF0C
:1012E0001C01022003460A2201481A80704700BFF1
:1012F0003C010220064B4FF0120C064AA3F11400E9
:10130000D2F85428A1F800C0022A18BF1846704726
:101310005C01022000200040042301480B8070473C
:10132000700102201D48D0F82034D0F8282430B5B0
:101330009B184FF01A040C8001D1194830BD184A8F
:101340000024D0F8240402F1100511464FEA137E60
:10135000B3F1204FCC7001F102010EF1370C38BF10
:101360000EF1300C8D424FEA031381F800C0EDD12D
:1013700002F108050024010FB0F1204FD47402F1EE
:10138000020201F1370338BF01F1300395424FEA01
:1013900000101374EFD1024830BD00BF00F0F01F01
:1013A0007401022000207047212808B527D0222888
:1013B00018D0202814D199B1072A11D1184A194BF5
:1013C0000868B1F804C0D2F8A4228979C3F8900162
:1013D000A3F894C183F8961112B1014600209047FA
:1013E000002008BD0029FBD0022AF9D10C4BD3F80C
:1013F000A832002BF4D0098800209847F0E7002994
:10140000EED0072AECD1074BD3F89001B3F8942122
:1014100093F89631086000208A808B7108BD00BF68
:10142000F82F022000000220514B0021514A1B6876
:101430005148A2FB032330B5DB0C504C83B0013B79
:10144000C4F8BC12C4F8B41242F20F7194F8E92245
:10145000C4F8AC02C4F8B812C4F8B032002A00F0E4
:10146000818002254649444884F8E952FFF726FC6A
:101470000123444A0621372084F8F43284F8EA3202
:1014800084F8EB3284F8EC3284F8ED3284F8EE32F2
:1014900084F8EF3284F8F03284F8F13284F8F232D2
:1014A00084F8F33284F8E932136C43F020031364B8
:1014B000136C03F020030193019B73F0DBF9324BB3
:1014C0004FF400025A6094F8E932012B3BD1D4F872
:1014D000AC222E4B2E48B2F1804F18BF9A4284F8AE
:1014E000E952D1680CBF0123002341F0010182427F
:1014F00008BF43F0010300F58060D160824208BF5D
:1015000043F0010300F580602249824208BF43F0A6
:10151000010300F57840824208BF43F001038A428C
:1015200008BF43F0010313B91B4B9A4207D19168DE
:101530001A4B0B40062B06D0B3F5803F03D013683F
:1015400043F0010313600020D4F880321449154A97
:10155000C3F81002C4F8A802C4F8A402C3E98121A8
:1015600003B030BD02F0FF0084F8E80279E700BF65
:101570000000022083DE1B4300140040F82F0220ED
:10158000A83202200038024000E100E000000140E3
:101590000004004000400140001800400700010026
:1015A0008C4F02208C3F02202DE9F047046982B065
:1015B000C3681C4046D0814688464FF0004501F183
:1015C000500701F13806B4FA84F325FA03F21B3B05
:1015D000D2431440C9F81020B8F1000F5FD0042B9B
:1015E0002ED8DFE803F052483D320300D8F810301F
:1015F000D9F82CA033B19B6823B11FFA8AF108F106
:1016000008009847D8F8283033B19B6823B11FFAF7
:101610008AF108F120009847D8F8403033B19B6830
:1016200023B11FFA8AF108F138009847D8F85830EA
:1016300033B19B6823B11FFA8AF108F15000984733
:10164000002CC0D102B0BDE8F087D8F8103008F106
:101650000800D9F834105B689847002CB3D1F1E743
:10166000D8F8283008F12000D9F838105B6898477E
:10167000002CA8D1E6E7D8F840303046D9F83C1025
:101680005B689847002C9ED1DCE7D8F85830384684
:10169000D9F840105B689847002C94D1D2E7042B0E
:1016A00007D8DFE803F01903140F0A00D9F83C301B
:1016B0000193019B002C86D1C4E7D9F82C3001930B
:1016C000019BF7E7D9F834300193019BF2E7D9F891
:1016D00038300193019BEDE7D9F840300193019B2D
:1016E000E8E700BF1F4AD2F8F832516E5BB100291B
:1016F000FCD0013970B513F8014B5166C2F8F832CD
:1017000011B1204670BDFEE7D2F88032002BF8D030
:1017100092F87800D3F80452D2F8983290B99A79B6
:1017200001214FF40076C3F88C02012AA3F8781245
:1017300003F51E71C3E9A15611D018687BF086F934
:10174000204670BD01209A794026C3F88C1282424F
:1017500003F51E71A3F87802C3E9A156EDD1C3F8D1
:101760009452EAE7F82F022070B50B780D46044634
:10177000D0F8186213F0600224D0202A01D0002093
:1017800070BDCA884878002A39D01B063DD5D4F8E8
:101790001C3231469B689847EA88D4F830320221DF
:1017A0000020C4F8F4114FF48071C4E90622C3E9A3
:1017B00008629A79998203F11401012A986219D179
:1017C0001E6317E04B780A2BD9D1D0F830320121B3
:1017D0000220C4E90611C4F8F4014FF480741A48D9
:1017E0009A629A799C82012AC3E9080103F11401E3
:1017F00008BF186318687BF029F9002070BDD4F881
:101800001C329B689847002070BD86F80122032196
:1018100086F80002D4F83032C4F8F4110021C4E98B
:1018200042229879C3F868120128A3F8541203F5EC
:10183000157108BFC3F87062C3E998620246186860
:101840007BF004F99BE700BFF432022038B5002298
:10185000D0F82842194B054684F83812C4F82C32C7
:101860002272D0F8303204F50B7004F50374DA6498
:1018700040F2011203F1380158641A870D229A646C
:101880009A79012A08BF586518687BF0DFF8D5F807
:10189000303200221F200121C3F88C229A79A3F84C
:1018A000781203F51E71012AC3E9A14008BFC3F8ED
:1018B00094421868BDE838407BF0C8B8555342538D
:1018C0002DE9F043177883B0164605468846D0F8D0
:1018D00028425A2F5CD8DFE817F076005B005B00E7
:1018E00085005B005B005B005B005B005B005B00F6
:1018F0005B005B005B005B005B005B005B00B300B8
:101900005B005B005B005B005B005B005B00C60094
:1019100070005B005B0070005B005B005B005B00C5
:101920006D015B00D7005B005B00FA005B00C40147
:101930005B005B005B005B00A3015B005B005B0086
:101940005B005B005B005B005B005B005B005B00BF
:101950005B005B005B005B005B005B005B005B00AF
:101960005B005B005B005B005B005B005B005B009F
:101970005B005B005B005B005B005B005B005B008F
:101980005B005B005B005B005B005B005B00900149
:1019900094F85D3205204FF400515A1C04EBC30348
:1019A000D2B283F83C02C3F84012042A00F0EE8160
:1019B00084F85D224FF0FF3002E0002363810020B5
:1019C00003B0BDE8F083D4F81432002B40F0CD8191
:1019D000D0F82C3208469B689847002840F0AC822B
:1019E0006081ECE77022002194F85C3222730C22B3
:1019F000C4F81110E27494F85D22C4F80D109A42F4
:101A0000C4F81510C4F81910617713D004EBC302A1
:101A1000013392F83C02DBB2A073042B92F841022E
:101A2000207692F8402218BF84F85C32627608BFB4
:101A300084F85C12122363813379122BBFD8BDE77F
:101A40005378DB0740F169810722D1481346628150
:101A500003F10C020344224413F8011D834202F8EF
:101A6000011DF9D1ABE7002308220846E36023619A
:101A7000D5F82C326281DB68984700289FD0A37B81
:101A800063F07F03A3739AE7D0F82C3204F25E224E
:101A9000084604F518715B689847002840F0E28119
:101AA000D4F8603208222082013B6281190E1A0CA0
:101AB00061F30700190A62F30F20B4F85E2261F3A4
:101AC000174052BA63F31F606282E06077E7277ABB
:101AD000002F40F0618194F91832002B80F244828B
:101AE000D0F82C3208469B689847002840F02781A0
:101AF000D6F8022012BAC4F86422B6F80730D5F836
:101B000028625BBAD6F860129BB29F18C4F868329C
:101B10008F4200F23D82B4F85E1201FB02F201FB3B
:101B200003F3C4E9992302222272D4F814229342C7
:101B300040F0EF814FF40073D6F86422D5F82C12F0
:101B400006F10C0763814046D6F86842D1F8108050
:101B500039469C4228BF1C46B6F85E32B2FBF3F20F
:101B6000B4FBF3F39BB2C0470028C0F2BF81D5F8A5
:101B700030320022DA6440F2011203F138011868B1
:101B80001A879A79012AC3E9117408BF5F657AF050
:101B90005DFFD6F83422D6E99913121B21441B1B92
:101BA000C6F83422C6E99913002B7FF408AF03234B
:101BB000337204E7002308460DF1020201A9E36035
:101BC00023616361D5F82C325B689847002840F0A8
:101BD0005D81BDF802200821019B52BAE173013BEF
:101BE000E2820C22190EE37462811A0C1B0A217422
:101BF00062740222A374A282E2E6664B082203CB3F
:101C00006281E06040462161D5F82C32DB6898475C
:101C100000283FF4D4AEE37B63F07F03E373CEE6AA
:101C2000537813F0020340F01781B4F86822D4E926
:101C3000981002448A427FF6C1AE94F85D220520D6
:101C40001146013204EBC101D2B281F83C024FF4DB
:101C50000450042AC1F840027FF4AAAE84F85D3231
:101C6000A8E694F80890B9F1000F40F0978094F935
:101C70001832002BC0F2B581D0F82C3208469B6890
:101C800098470746002840F09581D5F82C32404609
:101C9000DB6898470146002840F00F81D6F8022003
:101CA00012BAC4F86422B6F80730D5F828625BBAD5
:101CB000D6F860029BB2D718C4F86832874200F2A7
:101CC0000281B4F85E0200FB02F200FB03F3C4E9F8
:101CD0009923D4F81422934240F0AC800120B3F54C
:101CE000007F04F10C0404F8040C28BF4FF40073C7
:101CF000D5F83052AA79C5F88C1205F51E718242CA
:101D0000A5F87802C5F888322868C5F8844208BF6B
:101D1000C5F894427AF09AFE51E6D0F82C3201EBE5
:101D2000C1011279D86900EB810003790533934230
:101D300028BF13466381002B7FF48AAE3FE6D5F8B7
:101D4000282202244FF4685092F85D32591C02EBAD
:101D5000C303C9B283F83C42C3F84002042914BF4C
:101D600082F85D1282F85D7224E694F85D320520F7
:101D70004FF400511A460133DBB204EBC202042BCC
:101D800082F83C02C2F840127FF468AF002365E796
:101D9000806C0908886C09082646CBE6D4F868628E
:101DA0000846B4F85E3204F10C07B6F5007FD4F8AB
:101DB0006422D5F82C1228BF4FF40076D1F8148095
:101DC0003946B2FBF3F2B6FBF3F39BB2C0470028EF
:101DD000C0F21B81D4F86432D4F834223344921B0D
:101DE000C4F86432D4F86832C4F83422991BC4F8B9
:101DF000681219B92846FFF729FDE0E5D5F8300249
:101E00000022B1F5007F0B46C0F88C224FF0010193
:101E1000827928BF4FF40073A0F8781200F51E7184
:101E2000012AC0E9A17308BFC0F8947200687AF073
:101E30000DFEC4E596F85D3205244FF4005006EB24
:101E4000C3020133DBB282F83C42C2F84002042BE9
:101E500049D086F85D32ADE594F85D3205204FF447
:101E600010519AE5D5F8282202244FF4685092F8D0
:101E70005D3202EBC3010133DBB281F83C42C1F8B1
:101E80004002042B43D082F85D3293E5D5F8281246
:101E90004FF4685402254FF0FF3091F85D22531C37
:101EA00001EBC202DBB282F83C52C2F84042042B82
:101EB00008BF002381F85D3282E5D5F8282202248C
:101EC0004FF41C5040E796F85D3205201A46013366
:101ED00006EBC202DBB282F83C024FF40450042B42
:101EE000C2F84002B5D186F85D1263E5D5F8282224
:101EF00004244FF4885092F85D3202EBC3010133A1
:101F0000DBB281F83C42C1F84002A342BBD10023BE
:101F1000B9E796F85D3205211A46013306EBC20295
:101F2000DBB282F83C124FF40051042BC2F840128D
:101F30008FD186F85D023DE5D5F8282202250520DF
:101F400092F85D321946013302EBC101DBB281F830
:101F50003C524FF46855042B08BF3B46C1F8405231
:101F600082F85D32207225E594F85D3205211A462B
:101F7000013304EBC202DBB282F83C124FF4005191
:101F8000042BC2F840127FF469AE84F85D7211E54B
:101F900096F85D3205211A46013306EBC202DBB228
:101FA00082F83C124FF40451042BC2F840127FF423
:101FB00050AFBEE7D5F8282202244FF4685092F8BB
:101FC0005D3292F85D12013302EBC101DBB281F8A0
:101FD0003C42042BC1F840027FF455AF82F85D9279
:101FE000E8E494F85D3205211A46013304EBC2029D
:101FF000DBB282F83C124FF40051042BC2F84012BD
:102000007FF42CAE84F85D92D4E4D5F82822042421
:102010004FF4407092F85D321946013302EBC10172
:102020006EE700BFD0F8281210B50B7A022B07D04C
:10203000033B012B02D80021FFF708FC002010BD54
:1020400001F21B2291F819120446FFF739FC00280F
:10205000F4DA01212046FFF7F9FBEFE7F8B50C4E63
:1020600096F86432032B00D0F8BD0D461446D6F81E
:10207000007308E007F070FAD6F80033241A05441C
:10208000DB1B322BF0D8002C21462846F2DCF8BDB1
:10209000F82F0220F8B590F848305D1C0344EDB2EB
:1020A00080F8485083F8341090F8493053B1132D1C
:1020B00007D9002380F848300E4F97F86432032B7D
:1020C00005D0F8BD80F84830002DF5D1F8BDD7F81F
:1020D000006300F134042946204607F03DFAD7F8A2
:1020E00000332D1A04449B1B322BEAD8002DF2D169
:1020F000F8BD00BFF82F0220F8B5002390F8485033
:10210000A0F8483005B9F8BD0B4F97F86432032B9F
:10211000F9D1D7F8006300F134042946204607F0CE
:102120001BFAD7F800332D1A04449B1B322BEAD834
:10213000002DF2D1F8BD00BFF82F022038B5037C86
:102140000446D0F83002002B4FD14FF40073022226
:1021500081217AF025FB4FF4007302220121D4F88B
:1021600030027AF01DFB082303228221D4F83002CA
:102170007AF016FB4FF4077083F068FF0546C4F849
:10218000180200283ED0D4F81C321B689847002261
:10219000217CC5F81422D4F83032D5F80402C5F8F1
:1021A000182289B140240121C3F88402A3F87812CF
:1021B00003F51E71C3E9A2429A79012A12D0186868
:1021C0007AF044FC002038BD4FF400720124C3F8BB
:1021D0008402A3F87842C3E9A2219A7903F51E711B
:1021E000A242ECD1C3F89402E9E740230222812104
:1021F0007AF0D6FA402302220121D4F830027AF094
:10220000CFFAB0E7012038BD38B5D0F8305240F2EF
:102210000112044695F894342A87012B09D0012233
:102220002868114685F894247AF020FD002385F86B
:102230009434D4F83052012195F89434A5F87812EA
:102240008B4208D00022286885F894147AF00EFD9D
:10225000002385F89434D4F830524FF4817295F805
:102260009434A5F85C20012B09D0012202212868B2
:1022700085F894247AF0FAFC002385F89434D4F895
:10228000183253B1D4F81C325B689847D4F818025E
:1022900083F0E4FE0023C4F81832002038BD00BFEC
:1022A00038B5D0F830520121044695F89434A5F899
:1022B00078128B4208D00022286885F894147AF0AE
:1022C000D5FC002385F89434D4F8305240F2011242
:1022D00095F894342A87012B09D0012228681146E9
:1022E00085F894247AF0C2FC002385F89434D4F85D
:1022F000280283F0B3FE0020C4F8280238BD00BFD6
:10230000F8B5D0F828620546D0F8304296F8183271
:10231000217913B9D6F81432BBB991B140F2011347
:102320000122238794F8943484F83A20934208D009
:102330001146206884F894247AF0D8FA002384F8AF
:102340009434737A022B1CD0F8BD777A002FE4D135
:102350000029F9D0012194F894348B4284F87A1240
:10236000A4F8781207D03A46206884F894147AF0DA
:10237000BDFA84F89474D5F830422379002BCDD17E
:10238000F8BDD5F83032002206F503761F20C3F8D9
:102390008C2201219A79A3F8781203F51E71012A83
:1023A000C3E9A16008BFC3F894621868BDE8F840AB
:1023B0007AF04CBB70B5D0F828420546267A86B133
:1023C000012E01D0002070BD04F21B2294F81912D6
:1023D000FFF776FA0028F5DA01212846FFF736FAEA
:1023E000F0E7D4F81432D4F81022C4F83432D0F81C
:1023F0003032C4F83022D3F88C321F2B08D1304B46
:10240000D4F80C229A4203D194F81912012918D950
:1024100094F85D324FF400510526284604EBC302C0
:102420000133DBB282F83C62C2F840120222042B74
:10243000627208BF002384F85D32FFF761FF00205D
:1024400070BD94F81A32013B0F2BE1D804F21B2225
:10245000FFF736FA0028237A27DB013B022BB1D99C
:10246000618941B3D5F828320C3440F20110D3F819
:10247000142283F83862914228BF1146D3F83422DF
:10248000521AC3F8342204221A72D5F830329A79DB
:102490001887012A1868DE6408BF5C65C3E911412A
:1024A00003F138017AF0D2FA8CE7052B94D0284654
:1024B000FFF726FF86E72846FFF7C8F982E700BF47
:1024C0005553424308B520B9044871F05BFD0448F8
:1024D00008BD044871F056FD014808BD78150A088A
:1024E000FC3202209C150A08024808B571F04AFD2A
:1024F000014808BDC0150A08FC320220024808B590
:1025000071F040FD014808BDC8150A08FC320220E0
:10251000024808B571F036FD014808BDD4150A0817
:10252000FC32022001460022022330B481F834201C
:10253000444C0A68206881F83530136823F00103A1
:10254000136003E023681B1A052B3DD81368DD07D1
:10255000F8D4D1E90135C8682B438C691568034369
:102560000869034348690343C86923430343364862
:1025700028400D6A2B430343486A04282CD013607B
:10258000536923F007031843D3B250612F486FF308
:102590000902103B2E4CA0FB03505F2B4FF03F0372
:1025A0004FF0010504EB10104FF0000488BF043217
:1025B00090F838008A658340C865204693604C6572
:1025C00081F8355030BC70470323202218464A65F5
:1025D00081F8353030BC7047D1E90B50284318439F
:1025E0008B6A1060506920F00700184340F0040027
:1025F000002DC9D06CB9012B20D033F00203C3D118
:10260000EB01C1D54022002301204A6581F8353015
:10261000D8E7B4F5005F04D0022BF3D9032BEFD039
:10262000B2E7032BB0D801A454F823F00526010823
:1026300001260108052601083D260108B5F1C07FE5
:10264000A2D1DFE7F82F02203F8010E0ABAAAAAAB0
:10265000586C090870B490F834C0866DBCF1010F55
:1026600009D0012480F8344090F83540012C05D081
:10267000002380F83430022070BC704702250468C3
:1026800080F8355000254565256825F480252560AE
:1026900063608368402B16D0A160E260C16D3F2368
:1026A000026C8B40B360236843F0160323601AB1B9
:1026B000236843F0080323602368002043F00103EC
:1026C000236070BC7047A260E160E7E7F0B50C469C
:1026D000114602688646936913F0100C72D04FF0D1
:1026E000000C102338486546D36193699E065FD479
:1026F00045B903685B1AA3423DD893699F06F8D594
:102700002023D3614CF0040C01209369D90552D5E4
:102710004FF480715F054CF0010CD16104D54FF48A
:1027200080614CF0080CD1619D0504D54FF4007315
:102730004CF0020CD3619369990701D50023936291
:102740009369DB0703D4936943F0010393615368F2
:1027500020241E4901200B4000215360DEF8443044
:102760008EF8401043EA0C03CEF844308EF8414016
:102770008EF84210F0BD57689EF842309669DBB281
:10278000360408D57E0406D4202B04D0536843F4C5
:1027900080435360016893699F06A6D403685B1A5F
:1027A000192BF8D993694FF0200C01259E069FD56F
:1027B000002DA5D0A6E75E05B1D49C05B6D40028AF
:1027C000B9D1F0BD6046A0E7F82F022000E800FE76
:1027D0002DE9F04707689A46089EBB6931EA030372
:1027E0000CBF01230023934220D180460C4615469E
:1027F000DFF85C90324651464046FFF767FF20BB4A
:10280000D9F80030A3EB060CD44507D9BB6934EAEC
:1028100003030CBF01230023AB420AD0BB6934EA97
:1028200003030CBF01230023AB42E3D00020BDE82B
:10283000F087D8F84430202288F840001343C8F8C5
:10284000443088F8412088F842000120BDE8F08734
:10285000F82F0220164908B58B6803F00C03042BEF
:102860001BD0082B01D0134808BD4A684B6802F002
:102870003F02496813F4800311D10E48C1F3881157
:10288000A1FB00017BF0C6FC094B5B68C3F301436D
:1028900001335B00B0FBF3F008BD074808BD0648F4
:1028A000C1F388110023A1FB00017BF0B3FCEBE72F
:1028B000003802400024F40000127A000269C16965
:1028C00038B5836804460568134342692868134392
:1028D0009C4A0B430240E06813432B606A68A3697B
:1028E00022F4405202436A60226A1343AA6822F427
:1028F00030621343944A9542AB6043D0934B9D4260
:102900001AD0934B9D4200F0C080924B9D4200F044
:10291000C980914B9D427DD0904B9D424ED0904BB3
:102920009D4200F0F9808F4B9D4200F0E080012035
:102930000023C4E91A3338BD03F5FA33D3F89030D5
:1029400003F00C030C2BF2D801A252F823F000BFC5
:102950002D2A01082F2901082F2901082F290108F4
:10296000DF2901082F2901082F2901082F29010833
:10297000CF2901082F2901082F2901082F29010833
:1029800097290108784BD3F8903003F00303022B0A
:102990001DD0032B2BD1B1F5004F6DD04FF400406B
:1029A000636800EB5300B0FBF3F04FF6EF73A0F158
:1029B00010029A42BBD8E8600020B9E703F59233D1
:1029C000D3F8903003F44063B3F5006F04D1B1F550
:1029D000004F3CD06548E3E700F2AF804BB1B1F562
:1029E000004F4CD0FFF736FF0028E5D0D8E7012B89
:1029F000F5D0B1F5004F6ED05B4A5D4B92685D49F2
:102A0000C2F342320868134493F84030D84000289B
:102A1000D2D0C5E703F5F433D3F8903003F4407314
:102A2000B3F5007FD3D072D8002BD8D1B1F5004FC9
:102A300045D04D4A4E4B92684E49C2F382220868F7
:102A4000134493F84030D8400028B5D0A8E74A484E
:102A500063684FF6EF7200EB5300B0FBF3F3A3F1A2
:102A6000100191423FF663AF23F00F02C3F342031C
:102A700092B21343EB609FE74FF48030E8E7FFF733
:102A8000E9FE002898D04000E2E703F5F833D3F8D8
:102A9000903003F03003202B99D0C5D9302B3FF470
:102AA0007AAF44E703F5F633D3F8903003F0C00370
:102AB000802B8CD0B8D9C02B3FF46DAF37E72A4AB2
:102AC0002B4B92682B49C2F382220868134493F877
:102AD0004030D840D5E7244A254B92682549C2F3B7
:102AE00042320868134493F84030D840C9E703F5F0
:102AF000DE33D3F8903003F44043B3F5004F3FF496
:102B000066AF91D9B3F5404F3FF445AF0FE7B3F54A
:102B1000407F3FF440AF0AE703F5E033D3F890304D
:102B200003F44053B3F5005F3FF451AF7FF67CAF41
:102B3000B3F5405F3FF42FAFF9E6B3F5406F3FF4D4
:102B40002AAFF4E6F369FFEF0010014000440040B3
:102B500000480040004C004000500040001401407C
:102B600000780040007C0040003802400024F4005F
:102B7000586C0908000002200048E801026852E889
:102B8000003F23F4907342E800310029F7D102F1AD
:102B9000080353E8003F23F0010302F1080C4CE85E
:102BA00000310029F3D1036E012B06D0002320222F
:102BB0008366C0F880200366704752E8003F23F028
:102BC000100342E800310029F0D052E8003F23F022
:102BD000100342E800310029EFD1E7E7436BDA69DF
:102BE0009106F0B5044683B042D5586AE36AC0B294
:102BF000002B00F08B80216B9847636B1A681D4691
:102C000022F480721A609A6822F001029A609A692E
:102C100042F008029A61DA69D2072DD4DA6997077F
:102C200001D502221A62DA69560701D504221A6216
:102C3000DA69100701D508221A62DA69110612D57D
:102C4000D4F8B020212A0ED0D4E909128A4269D0E2
:102C5000A169895C0132C9B299622169B2FBF1F0C4
:102C600001FB1022A262DA69520608D403B0F0BD5B
:102C7000DA691D46D207D1D501221A62CEE7DA6998
:102C800040F60F0C196804F1340012EA0C0F9E682C
:102C900030D016F0010C40F0B180A24F394240F024
:102CA0002581D4F89450012D44D0D50202D5770265
:102CB00000F15681160602D50D0600F12481520658
:102CC000D4D54F06D2D553E8002F22F0400243E876
:102CD000002141B1626B52E8003F23F0400342E81B
:102CE00000310029F7D120220023C4F8B020C4F815
:102CF000A030BBE79706D4D58D06D2D5D4F89C304A
:102D0000002BB3D003B0BDE8F0401847E369626917
:102D1000D054E369E2680133B3FBF2F102FB1133F3
:102D2000E3616AE70022A4F886201A6822F0800294
:102D30001A6098E7D506B8D5CF06B6D51022B4F8F4
:102D40008C101A629A68560640F11181D4F8A800D6
:102D50000268526892B2002A00F04D818A4280F0E7
:102D60004A81C169A4F88E20B1F5807F40D053E834
:102D7000002F22F4807243E8002141B1626B52E8D7
:102D8000001F21F4807142E80015002DF7D103F1F6
:102D9000080252E8002F22F0010203F1080545E87D
:102DA00000210029F3D103F1080252E8002F22F09C
:102DB000400203F1080545E800210029F3D1202253
:102DC000C4F8B420C4F8941053E8002F22F0100285
:102DD00043E800210029F7D1534D876D2E6890F804
:102DE0003530022B00F01081802380F834104365C9
:102DF0000223C4F89830B4F88E3037E7D70761D48F
:102E0000960700F1A280560765D4160707D5082655
:102E10001E62D4F8B86046F00806C4F8B86017051A
:102E20000AD54E0108D54FF400661E62D4F8B830BA
:102E300043F02003C4F8B830D4F8B830002B3FF486
:102E400015AF930608D58F0606D5D4F89C301BB174
:102E500001909847656B0198D4F8B820AB6802F0F0
:102E6000280203F0400313437ED0FFF787FEAB68D0
:102E70005E067FF5FBAE05F1080353E8003F23F043
:102E8000400305F1080141E8003262B1626B02F1D2
:102E9000080353E8003F23F0400302F1080040E834
:102EA00000310029F3D1D4F8A830002B3FF4DEAE76
:102EB00093F835201D49022A196500F0938080227D
:102EC0005A65D3E6CF0533D496073ED4570720D5AD
:102ED000BCF1000F12D004261E62D4F8B86046F090
:102EE0000206C4F8B860160791D498E7D60703D550
:102EF000CF051DD49607E9D557070AD516078ED5F5
:102F00008F0684D48BE7D4F8A030002B7FF4FAAE80
:102F1000ACE6160783D501F0200656EA0C063FF40E
:102F20007EAF74E720010004F82F02205D0E010837
:102F3000012697071E62D4F8B86046F00106C4F86F
:102F4000B860C3D5BCF1000FD6D0022657071E6269
:102F5000D4F8B86046F00406C4F8B860BBD454E7AF
:102F60004FF480121A6281E6C4F8B8307EE6B4F8F5
:102F70008E00B4F88E2080B292B2002A3FF476AE72
:102F800088423FF473AE53E8002F22F4907243E876
:102F9000002141B1626B52E8001F21F4907142E8B8
:102FA00000100028F7D103F1080252E8002F22F0A8
:102FB000010203F1080040E800210029F3D120229A
:102FC000C4F89C10C4F8B420C4F8941053E8002F3F
:102FD00022F0100243E800210029F7D10223C4F8AF
:102FE000983043E61A68052183F83510136823F0FA
:102FF000010313603AE68A427FF438AEC369B3F541
:10300000807F7FF433AEE9E70268016C136823F038
:1030100016031360536923F08003536119B31368D7
:1030200023F008031360136823F00103136003E027
:103030002B689B1B052B0DD8136813F00103F7D1E8
:10304000C16D3F228A40BA60012280F8343080F896
:103050003520CDE6202103220023416580F834305D
:1030600080F83520C4E6836C002BD8D1DBE700BFA5
:1030700082B00023019302E00369002B09DB019B6E
:1030800001330193019BB3F1706FF5D9032002B0B6
:1030900070478901002341F020010193016103E0A1
:1030A000036913F0200307D0019B01330193019BB7
:1030B000B3F1706FF4D9E9E7184602B0704700BF6A
:1030C00082B00023019302E00369002B09DB019B1E
:1030D00001330193019BB3F1706FF5D9032002B066
:1030E0007047002210230192036103E0036913F08B
:1030F000100307D0019B01330193019BB3F1706F63
:10310000F4D9EBE7184602B0704700BF2DE9F04153
:103110000B780446D0F8286213F0600526D0202DE5
:103120002BD14A78FE2A32D0FF2A28D14A88002A99
:1031300034D1CA8892BB1B0630D44FF4807301216E
:1031400006F503703381D4F830321F24C3E9A2425C
:103150009A79A3F8781203F51E71012AC3F8840244
:1031600000F0DF80186879F071FC06E04B780A2BDC
:1031700018D00B2B08D0012B29D0002002E079F0C9
:103180002BFC0220BDE8F0818B787360F5E74F8857
:1031900027B9CD88012D01D11A0673D4204679F0C4
:1031A0001BFCEEE7D0F83032012202210436C0F8D1
:1031B000F4114FF48071C0E906225A629A7999821B
:1031C00003F11401012A1E629D62CBD172E0D0F896
:1031D0003072B1F8048097F8942491F9041008F043
:1031E0000F08012A00F0A4800029386887F8943479
:1031F00062DBFFF765FF87F8945408EBC8039B0078
:1032000008EBC802002503F5157307EB8202F918D5
:1032100082F8548282F8555297F89424012A09D0F2
:103220000122386887F894244A78F95C79F01EFD09
:1032300087F89454237CD4F83002002B74D14FF4D7
:1032400000730222012179F0ABFA737A022B94D138
:10325000D4F83042237993B1012294F8943440F2A7
:103260000111934284F83A20218708D01146206842
:1032700084F8942479F03AFB002384F894340023F2
:1032800073727AE7D0F82C329B699847022330603A
:103290004FF48071C4F8F431D4F83032C4E90655E3
:1032A0009A79998203F11401012A5D621E629F627C
:1032B0007FF458AF1E6355E74146FFF7D9FE87F804
:1032C000945408EBC8039B0008EBC8020121143397
:1032D00007EB8202F81882F81480517597F894244D
:1032E0008A4209D087F894144278F95C386879F0FA
:1032F000BDFC002387F89434237CD4F83002ABB9AA
:103300004FF400730222812179F04AFA737A022B7A
:103310009ED0012B3FF431AF01212046FEF796FAF3
:103320002BE7C3F894021DE740238AE74023E9E72F
:1033300008EBC80300294FEA8303BFF661AFC3E778
:10334000F8B5037C0446D0F83002002B46D14FF488
:1033500000730222012179F023FA4FF40073022254
:103360008121D4F8300279F01BFA4FF41B7082F0FF
:103370006DFE0546C4F8280200283CD00026D4F88B
:103380002C320681A0F85C6230461B689847D4F85E
:10339000304294F894342768012B08D03846012134
:1033A000FFF78EFE3846FFF763FE84F8946405F558
:1033B00003751F220023384604F51E71C4F88C32B1
:1033C0000123C4E9A152A279A4F878329A4208BF35
:1033D000C4F8945279F03AFB0020F8BD4023022251
:1033E000012179F0DDF9402302228121D4F8300255
:1033F00079F0D6F9B9E70120F8BD00BF82B000230B
:10340000019302E00369002B09DB019B0133019367
:10341000019BB3F1706FF5D9032002B070470A2306
:103420000193019B2BB1019B013B0193019B002B5D
:10343000F9D1036943F00103036103E0036913F069
:10344000010307D0019B01330193019BB3F1706F1E
:10345000F4D9E1E71846E0E74B4B10B41B684B4C3E
:10346000A4FB03435B0A03FB02F25AB18446531EDA
:10347000DCF83420013B12F0450F01D0120506D5CF
:10348000581CF5D14FF000405DF8044B7047DCF854
:1034900034305C0741D4DCF83430D80709D4C52374
:1034A000CCF83830DCF81030DBB2994205D001207E
:1034B000EAE70123CCF83830F9E7DCF81430344877
:1034C00018400028E0D0002B2CDB5A002DD49C00A3
:1034D0002DD4D9002DD41A012ED45C012FD4D901BA
:1034E00030D41A0231D45C0232D499023CD4DA02CC
:1034F00037D45C0332D499032DD4DA0340D41C04AE
:103500003BD4590436D49A0431D413F0080F0CBFBD
:103510004FF480304FF40000B6E704231846CCF88F
:103520003830B1E74FF00070AEE74020ACE78020C4
:10353000AAE74FF48070A7E74FF40070A4E74FF4B8
:103540008060A1E74FF400609EE74FF480509BE756
:103550004FF4005098E74FF4802095E74FF4003087
:1035600092E74FF400408FE74FF480408CE74FF430
:10357000800089E74FF4001086E74FF4801083E75E
:103580004FF4002080E700BF00000220D34D6210FE
:1035900008E0FFFD38B50446006D40F24D4341F2AE
:1035A0008832256800040D21A860E8686FF30B00DD
:1035B00003432846EB60FFF74FFF28B1A26B034699
:1035C00000201343A36338BD6869C0F3432038BDAE
:1035D00038B5846B236B2568822B30D0EB6A40F2C0
:1035E0003A51214A002023F00803EB62A96301212C
:1035F000D2F82C3484F83410206323F01F01C2F871
:103600002404D2F83404D2F8302402FB00335B1ACD
:10361000BFF34F8F002B0DDD5A1E01F1200313481D
:1036200022F01F021A449342C0F85C12194603F1BB
:103630002003F8D1BFF34F8FBFF36F8F38BD002148
:1036400040F24C430A4A2846A960E9686FF30B012F
:103650000B430C21EB60FFF7FFFE0028BED0A36BED
:103660000343A363BAE700BFF82F022000ED00E098
:1036700000E1F50538B5436D022B08D0846BD4E921
:103680000F235B6D526D012B02D0012A00D038BD93
:1036900025682046134BAB63EB6B23F49D73EB6300
:1036A000A36B43F08043A363FFF774FF0538012841
:1036B00005D90122002384F83420236338BD00217A
:1036C00040F24C43084A2846A960E9686FF30B01B1
:1036D0000B430C21EB60FFF7BFFEA36B0343A36317
:1036E000E7E700BFFF05400000E1F50538B5846B52
:1036F00040F23A5325682046AB63FFF74BFF0122A7
:103700000538002384F834209042236307D9A36B43
:1037100023B90B4AC2F82834C2F8243438BDAB6050
:1037200040F24C43E9682846064A6FF30B010B430D
:103730000C21EB60FFF790FEA36B0343A363E6E766
:10374000F82F022000E1F50538B5846B40F23A53BA
:1037500025682046AB63FFF71DFF012205380023D3
:1037600084F834209042236307D9A36B23B90B4A12
:10377000C2F82834C2F8243438BDAB6040F24C4360
:10378000E9682846064A6FF30B010B430C21EB60F6
:10379000FFF762FEA36B0343A363E6E7F82F022063
:1037A00000E1F5058648874A8749121A70B5A8B026
:1037B0007FF0B6FF854A864B0021D2F888408548C5
:1037C00044F47004C2F888401C6844F001041C6092
:1037D00099601C682040804C18605C6018687F4CC1
:1037E00020F480201860D9609460BFF34F8FBFF33E
:1037F0006F8FC2F85012BFF34F8FBFF36F8F5169B5
:1038000041F400315161BFF34F8FBFF36F8F196CDB
:10381000734A41F080511964196C01F08051029192
:103820000299116841F440411160126802F440426B
:103830000192019A9A6802F00C02042A39D09A681F
:1038400002F00C02082A31D0614A664C136843F436
:1038500080331360216803E023685B1A642B24D84B
:1038600013689E03F8D55A4A936803F00C03082B9B
:1038700028D0136823F080731360216803E0236865
:103880005B1A022B11D813689D01F8D4564B50498E
:103890005360136843F08073136022680B689801CB
:1038A00028D423689B1A022BF8D9FEE75B685B02D9
:1038B000CAD5474B464A1B6893684A4C03F00C0331
:1038C000082BD6D153685A02EFD503F03F02082ADD
:1038D000EBD147F6C0721A40B2F5D84FE5D113F4D8
:1038E000403FE2D103F07062B2F1106FDDD113F00E
:1038F000E04FDAD1364B3A4A196C41F080511964E5
:103900001B6C03F080530393039B136843F48033D1
:103910001360216804E023685B1AB3F57A7F23D82B
:103920005368DE03F7D513682D4943F40033136061
:10393000226804E023689B1AB3F57A7F14D84B6899
:103940009D03F7D54FF400124FF000634FF4C071A0
:1039500004A80492072223930323CDE909120C93B0
:10396000FCF7BAFE08B1FEE7FEE7204A136803F051
:103970000F03062B0AD8136823F00F0343F0070345
:103980001360136803F00F03072B7BD1104B9A6869
:1039900042F4E0529A609A6842F460429A609A68EF
:1039A00022F0F0029A601A6890016BD59A6841F291
:1039B000883022F0030242F002029A6021681BE084
:1039C00000000000F837000030950A0800ED00E024
:1039D00000380240FFFFF6FE10300024000000080F
:1039E00000700040F82F0220086C4009003C0240A3
:1039F0002268521A824245D89A6802F00C02082ABC
:103A0000F6D1404A136819070AD5136823F00F034B
:103A100043F007031360136803F00F03072B31D142
:103A2000394C3A4EA3683A4D23F4E05343F4A05383
:103A3000A360A36823F4604343F40043A360FEF74C
:103A400009FFA368C3F30313334493F8483020FA03
:103A500003F3D5F898012B6079F088FC2D4B04A86E
:103A600004930023CDE91533CDE91733CDE919339C
:103A7000CDE91B33CDE91D33CDE91F33FCF72CFE17
:103A800008B1FEE7FEE7D4F88C3023F08073C4F869
:103A90008C30D4F88C3043F08073C4F88C30A36839
:103AA00003F00C03042B2AD0082B0FD01A4B164A14
:103AB0001A499268C2F30312164496F84820D3407C
:103AC0008B422B6000D0FEE728B070BD636862684F
:103AD0005B02636802F03F0248BF1149C3F38813D9
:103AE00058BF0D49B1FBF2F202FB03F3064A5268DC
:103AF000C2F3014201325200B3FBF2F3D7E7084BA5
:103B0000D5E700BF003C024000380240586C09086D
:103B100000000220C0FF03000024F40000E6DF0CD8
:103B200000127A002DE9F843046805460F46C4F3F5
:103B30000E09B9F1000F3DD0584ED1F8009096F81B
:103B40004C34012B09D0012386F84C3470F03CFE34
:103B5000074630B1002386F84C346FF00100BDE811
:103B6000F883DFF84C81D8F8103023F44073C8F89C
:103B70001030D8F8103043F40073C8F81030D8F87B
:103B8000103043F00103C8F81030C4F80090BFF3C0
:103B90004F8F70F019FED8F8103023F00103C8F8E9
:103BA000103086F84C740028D7D12B6804332B6072
:103BB000BDE8F8833A4B9C421CD33A4B9C4217D940
:103BC000394B9C4257D3394B9C4257D903F50033AC
:103BD0009C4256D903F580239C4255D903F5802396
:103BE0009C4254D9B4F1016F54D305200FF0EEF884
:103BF0004FF00109294E96F84C34012B38D001239F
:103C000086F84C3470F0E0FD804670BB284C236988
:103C100023F440732361236943F400732361236910
:103C200023F0F8032361236943EAC90343F0020345
:103C30002361236943F480332361BFF34F8F70F016
:103C4000C3FD236923F0FA03236186F84C8478B915
:103C50000123D7F800902C6886F84C3470F0B4FD3E
:103C6000074600283FF47DAF74E7002386F84C3404
:103C70004FF0FF3073E74FF00209BBE74FF0030945
:103C8000B8E74FF00409B5E74FF00509B2E74FF088
:103C90000609AFE74FF00709ACE700BFF82F022095
:103CA00000800008FFFF000800800108FFFF0108F6
:103CB000003C02400148FCF70DBB00BF503402201D
:103CC000084810B4D0F85834D0F88C4499691A6870
:103CD0002CB1234600F58B605DF8044B18475DF866
:103CE000044B7047F82F02200148FCF7F3BA00BFDD
:103CF000A8340220084810B4D0F8B034D0F8E44416
:103D000099691A682CB1234600F596605DF8044B5A
:103D100018475DF8044B7047F82F02200148FCF764
:103D2000D9BA00BF00350220084810B4D0F80835D1
:103D3000D0F83C4599691A682CB1234600F5A1607A
:103D40005DF8044B18475DF8044B7047F82F0220CC
:103D50002DE9F04F430083B000EB40050193BD4BCC
:103D600003EB8505D5F89C61002E00F0708181463B
:103D700095F8A20170F02EF995F8A0010CF0FAF870
:103D8000044695F8A1010CF0F5F809F1010380460D
:103D9000DBB2002C00F08A8140F60C12A18823725D
:103DA000E2802268002800F07281037240F60C2342
:103DB000C3809161D8F80030B8F804209A611121CD
:103DC000204609270CF094F8112140460CF090F899
:103DD0006525002C00F04A812268A38811690B42F6
:103DE00000F044811B0493610EF0DCFC05468B4619
:103DF0000EF0D8FC401B61EB0B01052871F10001AE
:103E0000F6D314B12368A2889A610EF0CBFC054664
:103E10008B460EF0C7FC401B61EB0B01052871F1CE
:103E20000001F6D3013FD3D11CB1A38822681B0443
:103E300093610EF0B7FC05460F460EF0B3FC401B35
:103E400061EB0701052871F10001F6D3B8F1000F0D
:103E500005D0B8F80430D8F800201B0493610EF0A8
:103E6000A1FC05460F460EF09DFC401B61EB0701CF
:103E7000052871F10001F6D314B12368A2889A6174
:103E80000EF090FC05460F460EF08CFC401B61EBDB
:103E90000701052871F10001F6D3B8F1000F04D035
:103EA000D8F80030B8F804209A61019B2046694F89
:103EB0003E2103EB090407EB840494F8A6512A463B
:103EC0000CF038F82A4640463E210CF033F894F8BE
:103ED000A3315822604C3868022B02FB0942C2F819
:103EE00058645E4A91685E4AC1F382210A4492F89E
:103EF000402020FA02F000F0D180032B00F0C980AE
:103F0000012B14BF4FF4C8714FF4487170F090F951
:103F100003465822002102FB0942C2F86014C2F88D
:103F20006814C2F86C14C2F87414C2F87814012131
:103F3000C2F85C34C2F8641492F8991401F0FF00DE
:103F4000002900F0B0805822242523F0706302FB82
:103F5000094282F89954316821F0010131603361DE
:103F6000B36823F40043B3604FF40043B360736855
:103F700023F4006373603B4B71680B437360D2F8AA
:103F80007034F1681B0221F40041F160F3600023FA
:103F90003360316841F0010131602021C2F89C3466
:103FA00082F89914C2F8883482F89A3492F89914F5
:103FB0002029C8B217D192F89814012913D082F899
:103FC0009954316821F001013160316821F4805148
:103FD000316031683160316841F00101316082F84F
:103FE000990482F89834019B02211A4A4B4402EB4F
:103FF000830393F9A56193F8A551304670F03AFC1C
:10400000002E07DB05F01F0201236D099340164ABD
:1040100042F82530019B02210E4A4B4402EB830AF1
:104020009AF9A4619AF8A451304670F023FC002E4E
:1040300007DB05F01F0201236D0993400A4A42F88D
:1040400025305822012302FB094484F8543403B07C
:10405000BDE8F08F00000220F82F02200038024057
:10406000586C09080080000200E100E0013D25D005
:104070000EF098FB83468A460EF094FBB0EB0B00E3
:1040800061EB0A01052871F10001F5D3A1E6916108
:1040900095E6C82170F0CCF803463AE7642170F049
:1040A000C7F8034635E782F898044CE700283FF448
:1040B00086AE037240F60C23C3807BE6002C3FF4EF
:1040C00093AEA38822688DE62DE9F04F441C85B09D
:1040D00017469DF83C202DD05824DFF8A8831E46B3
:1040E000054600FB04F408EB040393F85494B9F17B
:1040F000000F1FD044444900FF2F04F58B64039147
:1041000000D0EEB9002A40F0C680582303FB058397
:1041100093F89924202A04D1B6B94FF40072C3F859
:104120009C24B8F85C35284601339BB2A8F85C356E
:10413000FFF70EFE4FF00009484605B0BDE8F08FCE
:1041400093F89934202BECD14FF0580A0AFB058ADA
:104150009AF89834012BE4D00122D8F800B0192342
:104160004FF400418AF898242046CDF800B0FEF7BD
:104170002FFB0028D5D10E9BDAF85814CAF87C34EE
:104180002123BA4A8AF899344023CAF88C048AF861
:104190009A34CAF89C042046AAF882644B681340FB
:1041A000039A1343B24A1A434A60594670F0DEFA42
:1041B0000246002840F0FB80DAF85834802120467F
:1041C0009F620A23CDF800B0FEF702FB002840F002
:1041D000EE80BAF882349BB2FF2B40F21681DAF8F7
:1041E0005814FF23A348AAF880344B68A24A03401E
:1041F000039803431A434A605826DDF80CA05F4633
:10420000039506FB058605E0B6F882349BB2002BC9
:1042100000F010813946204670F0A8FA002840F0DE
:10422000F280D6F87C14D6F8585411F8012BB6F861
:104230008034AA62C6F87C14013BB6F882149BB2A3
:104240000139A6F8803489B2A6F88214B6F882142F
:1042500089B2002BD8D10029D6D002460A2380216A
:1042600020460097FEF7B4FAFF22002840F0CB80EA
:10427000B6F882349BB2934240F2A080D6F858142C
:10428000A6F880244B687B4A13407B4A43EA0A0322
:104290001A434A60B8E74FF0580A0AFB058A9AF8B1
:1042A0009934202B7FF43DAF9AF89834012B3FF4DA
:1042B00038AF0122D8F8007019234FF400418AF872
:1042C000982420460097FEF783FA00287FF429AF50
:1042D0000E9BCAF88C04CAF87C3421238AF89934DE
:1042E00010238AF89A34CAF89C04AAF88264BAF8AF
:1042F00082349BB2FF2B00F2C780BAF882349BB2A3
:10430000AAF88034002B40F0F180DAF858145748AE
:104310004B685A4A0340039803431A434A6058269D
:10432000AA4606FB0586B6F8823439469BB2002BB6
:1043300000F0D480204670F019FA002878D1D6F821
:104340007C14D6F8585411F8012BB6F88034AA62C0
:10435000C6F87C14013BB6F882149BB20139A6F86A
:10436000803489B2A6F88214B6F8821489B2002B80
:10437000D9D10029D7D002460A23802120460097B0
:10438000FEF726FAFF22002852D1B6F882349BB2FB
:10439000934225D9D6F85814A6F880244B68354A9C
:1043A0001340039A1343344A1A434A60BBE7582325
:1043B000002203FB058383F89824B2E6B6F8823422
:1043C000D6F858249BB22B485168A6F88034DBB24B
:1043D00001404AEA03430B4343F00073536013E781
:1043E000B6F88234D6F858149BB2039A2148A6F83E
:1043F0008034DBB242EA03434A680240134343F08D
:1044000000734B608FE7039D8BE6BAF88234DAF8CD
:1044100058149BB2039A1748AAF88034DBB242EAD8
:1044200003434A680240134343F000734B60E3E6E2
:10443000554676E639462046039D70F069F9002816
:104440007FF46FAED6F8583420210D4CD9615A68EC
:1044500022405A605823002286F8991403FB0583F2
:1044600086F89A0483F8982466E600BF009800FC5A
:1044700000200101009C00FC0000FF010020000260
:1044800000E800FEF82F0220FF234FF47F00FE22F9
:104490004FF08076AAF88034039BDDF838E01E43A5
:1044A00058231EF801AB03FB0583DFF850C0D3F897
:1044B0005814C1F828A0A3F88024B3F88224C3F8C4
:1044C0007CE4013A92B2A3F882244B6803EA0C031D
:1044D0003343034343F400534B6020E720465546E3
:1044E00070F016F900287FF41CAEABE7013B4FF0EB
:1044F00000769AB2501CC0B20004CDE7009800FCD0
:104500002DE9F04F441C85B099469DF83C3000F0F1
:1045100096805825C44C064600FB05F504EB050BB8
:104520009BF854A4BAF1000F00F089802544FF2ABB
:1045300090464FEA410705F58B6540F08680002BD9
:1045400000F083809BF89934202B6FD19BF898342E
:10455000012B6BD00122D4F8008019234FF40041C5
:104560008BF898242846CDF80080FEF731F9002812
:104570005CD10E9BCBF88C04CBF87C3422238BF8D7
:10458000993410238BF89A34CBF89C04ABF88294BE
:10459000BBF882349BB2FF2B00F21381BBF882344C
:1045A000DBF858149BB2A1484A68ABF88034DBB200
:1045B000024047EA034313439D4A1A434A604FF0BF
:1045C000580909FB0649B9F882349BB2002B00F068
:1045D0008681D9F858349A69520700F133814246EE
:1045E0000A212846FEF772F8002840F0F780D9F833
:1045F00058349A69910640F1FC809A699A6912F0E0
:10460000100200F0F480102220218A4DDA61042289
:10461000C9F89C24D9615A682A405A6089F89914CB
:1046200089F8980489F89A0422689B69B4F85C3583
:10463000304601339BB2A4F85C35FFF789FB4FF09D
:10464000000A504605B0BDE8F08F4FF0580B0BFB49
:10465000064B9BF89934202BE8D10E9B002B00F0E1
:10466000AB809BF89834012BE0D04FF0010301227E
:104670004FF4004128468BF8983423680393009345
:104680001923FEF7A5F80028D0D12223DBF858140F
:104690000E9A8BF899344023CBF87C248BF89A340B
:1046A000CBF89C04ABF88294DFF880914A68CBF891
:1046B0008C04284602EA09023A4342F490324A60E6
:1046C000039970F053F80246002840F034814023EB
:1046D00028461946DBF85834C3F82880039B00931A
:1046E0000A23FEF775F8002840F02581BBF88234D4
:1046F0009BB2FF2B40F226814FF00103DBF85814E8
:104700004D4AABF880344B6803EA09033B431A4334
:104710004A604FF05808B946039F08FB064805E079
:10472000B8F882349BB2002B00F01E810A230022CD
:10473000042128460097FEF74BF800287FF476AF57
:10474000D8F85834596AD8F87C341970B8F88214FB
:10475000D8F87C340139013389B2C8F87C34B8F810
:104760008034A8F88214013BB8F882149BB289B255
:10477000A8F880340029D3D0002BD1D102460A23D7
:10478000802128460097FEF723F8012200287FF4B5
:104790004DAFB8F882349BB2FF2B40F2BA80D8F804
:1047A0005814A8F880244B68244A1340244A43EA4A
:1047B00009031A434A60B3E74FF40073CBF89C3403
:1047C00034E7DBF85814012218484B68ABF8802412
:1047D0000340194A3B431A434A60F0E6582303FB5F
:1047E0000643D3F858349A6922689B691EE7C9F8D2
:1047F0009C242268A2EB08020A2A7FF6ECAE9A6992
:1048000012F004027FF4E7AE582101FB0641D1F813
:104810009C0481F89824202240F02000C1F89C04D8
:1048200081F899249B6901E7F82F0220009800FC89
:104830000024000200E800FE00240101009C00FCAE
:10484000000001015A6AD9F87C341A70B9F8823430
:10485000D9F87C24013B01329BB2C9F87C24A9F829
:104860008234B9F88034B9F88224013B92B29BB209
:10487000A9F88034002A3FF4A6AE002B7FF4A3AE43
:104880000A23002280212846CDF80080FDF7A0FFF2
:1048900000287FF4CBAEB9F882349BB2FF2B0CD941
:1048A000D9F85814FF233B48A9F880344B683A4A9A
:1048B00003403B431A434A6085E6B9F88234D9F88D
:1048C00058149BB233484A68A9F88034DBB20240DE
:1048D00047EA0343134343F000734B6073E64146DA
:1048E00028466FF015FF00287FF4A0AED9F85834A1
:1048F00020212A4DD9615A682A405A6089F89914B2
:1049000089F89A045822002302FB064484F898345C
:1049100097E6B8F88234D8F858249BB21D485168FD
:10492000A8F88034DBB2014049EA03430B4343F06B
:1049300000735360F4E65823002203FB064383F818
:10494000982473E6BBF88234DBF858149BB24A68AB
:10495000ABF88034DBB202EA090247EA03431343AF
:104960000F4A1A434A60D4E6039928466FF0D0FEF6
:10497000034600287FF45AAED8F858242020074D6B
:10498000D06151682940516088F8990488F89A34B8
:10499000B8E700BF009C00FC0000FF0100E800FE3B
:1049A000002400020348D0F8CC3113B100F5E070C8
:1049B00018477047000002200348D0F8EC3113B1CB
:1049C00000F5F07018477047000002200348D0F847
:1049D0000C3213B100F50070184770470000022038
:1049E0000348D0F82C3213B100F50870184770470F
:1049F000000002200348D0F84C3213B100F51070CB
:104A000018477047000002200348D0F86C3213B1F9
:104A100000F5187018477047000002200348D0F8CE
:104A20008C3213B100F52070184770470000022047
:104A30000348D0F8AC3213B100F52870184770471E
:104A4000000002200348D0F8CC3213B100F53070DA
:104A500018477047000002200348D0F8EC3213B129
:104A600000F5387018477047000002200348D0F85E
:104A70000C3313B100F54070184770470000022056
:104A80000348D0F82C3313B100F54870184770472D
:104A9000000002200348D0F84C3313B100F55070E9
:104AA00018477047000002200348D0F86C3313B158
:104AB00000F5587018477047000002200348D0F8EE
:104AC0008C3313B100F56070184770470000022066
:104AD0000348D0F8AC3313B100F56870184770473D
:104AE0000000022010B50C461146426842F4805284
:104AF0004260002B41D040F2E93C826892072DD5FC
:104B000000293CD00A4612F801EB114640F2E93C7C
:104B100080F80CE08268D20724D4BCF1010CF9D1F2
:104B20001B4B98420DD0A3F5784398422AD003F549
:104B30008063984229D003F5784398420CD14FF016
:104B4000030C144A0CEB8C0C02EB8C02B2F8D03341
:104B500001339BB2A2F8D033002010BDBCF1010C90
:104B6000CBD1DDE790F80CC05FFA8CFC1CB122467B
:104B700002F801CB1446013BBDD1012010BD4FF01E
:104B8000FF0EC3E74FF0010CDBE74FF0020CD8E754
:104B900000300140000002202DE9F84300242C4E93
:104BA0008046036856F83450AB4209D001340E2CCD
:104BB000F8D1284A0021052006F040FA002019E02B
:104BC000254B03EB8409D9F86075AFB198F805104F
:104BD00000204B1C01EB410203EB430307EBC20235
:104BE000DB00C2F80C80C2E90400F854182303FB70
:104BF00001700830BDE8F8830721682006F0A4FAA8
:104C00000146C9F86005F0B13946682280F0FEFD22
:104C1000D9F8601506EBC4043B4689600C60096254
:104C20008963096556F83320954205D001330E2B70
:104C3000F8D14F600F46C9E7084F4C2202FB0377BB
:104C40004F600F46C2E7064A052006F0F7F9B5E7C0
:104C5000B06C0908E4150A08F82F022090350220EC
:104C60000C160A08B0B1022330B4D0E900428D68B6
:104C70006468527903FA02F223684C685CB1DC681C
:104C800085B122438160DA60DA6842F00102DA60BD
:104C900030BC70477047DC6824EA0202DA604DB12C
:104CA0008160F1E724F00104DC60DC68816022436C
:104CB000DA60EDE7DA6822F00102DA608160E7E7A6
:104CC000674B07EE902ADFED676A93ED007AF8EE06
:104CD000677A0368B8EE477A1A6887EE270A70B5D4
:104CE0005C680E461568013EB6B230EE260A7CF0CE
:104CF00081F823680138AB4280B200F08980C4E9B2
:104D0000005000238022E660A360A261C4E904335E
:104D100094F83D3003F0FF02002B00F0988002234E
:104D2000211D284684F83D30FBF7C8FF4E4A012379
:104D3000B5F1804FA5EB020284F84830B2FA82F256
:104D400084F83E3084F83F304FEA521284F8403005
:104D500084F8413084F8423084F8433084F8443099
:104D600084F8453084F8463084F8473084F83D3084
:104D700053D0002A51D13D4B9D420FD003F58063A3
:104D80009D420BD03A4903F57C439D4218BF8D42AA
:104D900023D003F570539D421FD070BD94F83C3072
:104DA000012BFAD00222334B012184F83D20A86860
:104DB0000340AB6084F83D1084F83D206B68A9681F
:104DC00023F0700321F0800101226B600023A960B1
:104DD00084F83D2084F83C3070BD94F83C30012BC1
:104DE000DBD00221234B244884F83D10A968281AFF
:104DF0000B40B0FA80F00121AB600023400984F839
:104E00003D1084F83C301A4B9D4215D0A0B970BDBE
:104E1000636883421ED0606073E794F83C30012BD6
:104E2000BBD00221134B002084F83D10A9680B4031
:104E30000121AB6084F83D10022384F83D306B689B
:104E4000A9680AB90028BBD023F47003B8E784F836
:104E50003C2064E7E368B3427FF453AF70BD00BF0A
:104E6000000002200AD7233C00000140000400405B
:104E7000000C00408800FEFF00040140F0B44468CC
:104E8000A37913F0020256D002224FF0080C0368F7
:104E900064795B68A148204493F83C40012C90F869
:104EA000C80046D0012483F83C4014283ED8DFE8EF
:104EB00010F015003D003D003D006D003D003D003F
:104EC0003D00BD003D003D003D0096003D003D0021
:104ED0003D00E4003D003D003D0044001868904C5A
:104EE000056A904E25F00205B04242EA0502056AC5
:104EF00025F0010505624568876904EA070444F066
:104F0000600400F0E78006F58066B04200F0E280C1
:104F10004560846141630262826942F008028261F5
:104F2000826922F00402826182698261002283F830
:104F30003C20F0BC70479446A9E71868794E046A93
:104F4000B04224F4001444EA0252046A24F48014A7
:104F50000462754C4568476D04EA070444F4C04494
:104F600000F0B28006F58066B04200F0AD8045608A
:104F70004465C1650262426D42F400624265426D61
:104F800022F480624265426D4265CFE71868674C43
:104F9000056A644E25F02005B04245EA0212056A12
:104FA00025F0100505624568876904EA070444F4A2
:104FB000C04400F09D8006F58066B04200F0988005
:104FC0004560846181630262826942F400628261A9
:104FD000826922F48062826182698261A6E7186830
:104FE000504E046AB04224F4005444EA0232046A87
:104FF00024F4805404624D4C4568C76904EA0704F0
:1050000044F4C04471D006F58066B0426DD045606E
:10501000C46101640262C26942F40062C261C26991
:1050200022F48062C261C269C2617FE718683C4CA9
:10503000056A3C4E25F40075B04245EA0222056A35
:1050400025F4807505624568C76904EA070444F0E1
:10505000600458D006F58066B04254D04560C46103
:10506000C1630262C26942F00802C261C26922F0F1
:105070000402C261C269C26158E71868294E046A15
:10508000B04224F4003444EA0242046A24F4803436
:105090000462274C4568476D04EA070444F0600445
:1050A00015D006F58066B04211D045604465816533
:1050B0000262426D42F008024265426D22F0040233
:1050C0004265426D426531E745F480254FE745F47E
:1050D0008035EAE7066A22F0080245F4407526F0BA
:1050E00004064CEA0202066212E745F480458EE7A8
:1050F000066A22F0800245F4406526F0400642EA46
:105100000C1206625CE7066A22F4006245F4405520
:1051100026F4806642EA0C2206629FE7586C090872
:105120008CFFFEFF00000140FF8FFFFEFF8CFFFEA3
:105130008FFFFEFF42685379032B0FD8DFE803F09F
:105140000B08050210684030704710683C3070470B
:10515000106838307047106834307047002070474E
:10516000D0E90002064B517992790B44406893F8DC
:10517000C810530701D577F035BE77F0AFBE00BF3A
:10518000586C0908F0B54468374A2469C368C4F309
:1051900003245B6852F82460EFF31184102585F333
:1051A00012884568314F95F805E0D0F80CC002EB45
:1051B0004E02D5F800E0158CDEF80C2005F4F05511
:1051C00022EA0502CEF80C2017F806E0DCF81020E1
:1051D00053F80E501F2A25F0010543F80E5039D917
:1051E000203A2025DCF804C005FA02F2CCF80C20A5
:1051F000E2B282F31188BA5DDFF874C003EB020EED
:1052000046684569DEF8044004EA0C0C4CEA0101EA
:10521000CEF804107179032924D8DFE801F01815BD
:10522000120231684031CEF80C500124CEF808103B
:10523000995841F01001995099582143995004749C
:10524000F0BD31683C31EEE731683831EBE7316869
:105250003431E8E72025DCF804C005FA02F2CCF886
:105260000820C5E70021DEE7586C0908B86D090879
:105270000000FFFF03681A7E012A2ED0002293F857
:105280003010012909D093F8481001290ED093F865
:10529000601001291BD02ABB7047022142F48062B2
:1052A00083F8301093F84810012904D1022142F408
:1052B000006283F8481093F86010012907D01B683A
:1052C00000211B685962D9680A43DA6070470221DD
:1052D00042F4805283F86010F1E702214FF400722B
:1052E0001976CCE74FF40072E9E700BF024B0348A0
:1052F000D3F86015FCF758B9F82F022000000140E0
:1053000010B5064C0648D4F86015FCF74DF9D4F8F2
:1053100084150448BDE81040FCF746B9F82F022078
:105320000000014000440140034B4FF08040D3F89F
:105330006415FCF739B900BFF82F0220024B03486F
:10534000D3F86815FCF730B9F82F022000040040AC
:10535000024B0348D3F86C15FCF726B9F82F02204E
:1053600000080040024B0348D3F87015FCF71CB945
:10537000F82F0220000C0040024B0348D3F87C15A4
:10538000FCF712B9F82F02200004014010B5064CBA
:105390000648D4F87C15FCF707F9D4F890150448B2
:1053A000BDE81040FCF700B9F82F022000040140CE
:1053B000001C004010B5064C0648D4F87C15FCF7DC
:1053C000F3F8D4F894150448BDE81040FCF7ECB8A5
:1053D000F82F02200004014000200040024B034847
:1053E000D3F88015FCF7E0B8F82F02200040014008
:1053F000024B0348D3F88815FCF7D6B8F82F0220E3
:1054000000480140024B0348D3F88C15FCF7CCB898
:10541000F82F022000180040404B8EB01A6B42F467
:1054200080221A631A6B02F480220092009A1A6B8F
:1054300042F480121A631A6B02F480120192019AEC
:105440001A6B42F480021A631A6B02F48002029211
:10545000029A1A6B42F000521A631A6B02F0005261
:105460000392039A1A6B42F080421A631A6B02F09D
:1054700080420492049A1A6C42F400321A641A6C44
:1054800002F400320592059A1A6C42F480221A64E2
:105490001A6C02F480220692069A1A6C42F40022D8
:1054A0001A641A6C02F400220792079A1A6C42F4EA
:1054B00080121A641A6C02F480120892089A1A6C0C
:1054C00042F080421A641A6C02F080420992099AF2
:1054D0001A6C42F000421A641A6C02F000420A92FE
:1054E0000A9A5A6C42F010025A645A6C02F0100286
:1054F0000B920B9A5A6C42F020025A645A6C02F0DA
:1055000020020C920C9A5A6C42F400625A645B6C52
:1055100003F400630D930D9B0EB0704700380240FA
:105520002DE9F843354E984606EB8003D3F8CC407E
:10553000002C5FD004F1C603EC360546E160A361A0
:1055400004F5E37366601746E3614FF4807394F8E3
:10555000C500261DC4E904332368C4F8C030A36322
:105560000AF008FD18F0080F94F8C4901AD1BA0791
:1055700031D4FB0723D4D4F8D01294F9CF026FF0C2
:1055800079F994F9CF2294F8CF32002A07DB03F09F
:105590001F0001225B091A49824041F8232030464E
:1055A000BDE8F8830135EDB218B140F2067305721B
:1055B000C38094F8CE2202210AF0BCFCDBE701355F
:1055C00048460AF0D7FCEDB20028F2D040F206635C
:1055D0000572C380EDE76B1CDBB218B1037240F2B9
:1055E0000653C38094F8CE2202210AF0A3FCFB07E5
:1055F000C1D5E4E726463046BDE8F883586C090873
:1056000000E100E00148FDF7E9BA00BF1404022000
:105610000148FDF7E3BA00BFE80602200148FDF7A4
:10562000DDBA00BFBC0902200148FDF7D7BA00BFB0
:10563000900C02200148FDF7D1BA00BF640F022090
:105640000148FDF7CBBA00BF381202200148FDF730
:10565000C5BA00BF0C1502200148FDF7BFBA00BF54
:10566000E01702202422002370B5C0F8B0200446C1
:10567000826800F13406456B2B606B60AB6082631F
:105680008279C0F8B83080F8AC30C0F8B030C3646C
:10569000C0F8B4304365C0F89430C0F89830930235
:1056A000417903F48053C363130303F40053036489
:1056B000130203F480634364836D01F00200C907A1
:1056C00045D400287ED1A06412F0080254D0D4F84A
:1056D000B020002A00F08A802422C4F8B0202A6872
:1056E00022F001022A60002B7CD13046FDF7E6F85B
:1056F000012812D06B68304623F490436B60AB688E
:1057000023F02203AB60AB6843F00803AB602B6867
