:020000040800F2
:1000000000000120E9E105086DE2050885650208A8
:100010006DE205086DE205086DE2050800000000CC
:100020000000000000000000000000006DE2050874
:100030006DE20508000000006DE205086357010845
:100040006DE205086DE205086DE205086DE2050840
:100050006DE205086DE20508F9380108FD38010870
:1000600001390108053901080939010807B80008F4
:100070001DB8000831B8000845B8000859B8000894
:100080006DB8000881B800086DE205086DE205084A
:100090006DE205086DE205086DE205080D390108FD
:1000A00059C100087DC000086DC1000869C0000882
:1000B000A5C00008B9C00008CDC0000801AE000806
:1000C000F5AD000819AE00080DAE00086DE2050898
:1000D0006DE2050879C3000885C3000891C30008D4
:1000E000113901086DE205086DE2050881C10008BB
:1000F00009C1000831C10008F5C0000895B8000822
:100100006DE205086DE20508E1C000086DE2050832
:100110009DC30008A9C300086DE205081DD30008AF
:10012000A9B80008BDB80008D1B80008E5B80008B3
:10013000F9B8000800000000000000000000000006
:100140000000000000000000000000001DC50008C5
:100150000DB9000821B9000835B900086DE205089D
:1001600031AE000825AE00086DE205086DE2050815
:100170006DE205086DE205080000000000000000C7
:100180006DE205086DE205086DE205086DE20508FF
:100190006DE205086DE20508000000006DE205084B
:1001A0000000000000000000000000006DE20508F3
:1001B0006DE205086DE20508000000000000000087
:1001C000000000000000000000000000000000002F
:1001D0000000000000000000000000006DE20508C3
:0801E00048D2050001000000F7
:1001E800A07902200202000003003200C079022038
:1001F800010B000000007700E0790220010C0000EC
:1002080000007600007A022001100000000076004D
:10021800207A0220010D010000007700407A0220B8
:100228000112000000007600607A0220011400002C
:1002380000001E00807A0220011A000000000D0054
:10024800A07A0220011B000000002C00C07A0220C6
:100258000115000000000C00E07A022001160000E1
:1002680000000C00007B0220011C000000000E00B2
:10027800207B0220011D000000001E00407B0220A0
:100288000117000000000C00607B0220011800002C
:1002980000000E00807B02200119000000000C0005
:1002A800A07B0220011F000000000C00C07B022080
:1002B8000120000000000C00E07B02200129010061
:1002C80000001800007C0220012100000000480006
:1002D800207C02200122000000004900407C02200E
:1002E8000123000000004A00607C02200124000075
:1002F80000004B00807C02200125000000004C001B
:10030800A07C02200126000000004D00C07C0220D5
:100318000127000000004E00E07C022001280000B8
:1003280000004F00007D0220012C00000000290081
:10033800207D0220012D010000002900407D0220BF
:10034800012E010000007000607D022001300000D5
:1003580000003100807D0220012F010000005200C2
:10036800A07D02200131010000002800C07D02208C
:100378000132010000002800E07D0220022A050069
:1003880000012A00007E022002360400000231002B
:10039800207E02200135000000003C00407E022043
:0803A8000138000000002000F4
:10800000836B1A6C12F0500F1A6C20D142F400727C
:108010001A641A68916811F0405F1DD19969D9B945
:10802000D16A11F4700F02D09168480514D45168D8
:1080300021F0200151601A6C22F480721A641A6CCB
:10804000D10409D41A6C42F001021A647047D206B6
:1080500002D49B6BDB6C184770477047836B4022E0
:108060001A645A6C42F004025A64704790F8353032
:10807000022B03D08023436501207047026805234B
:1080800080F835300020136823F001031360704737
:108090000268436B9169126803B11847704790F802
:1080A0004130602B4FF0000302D1202280F84120A4
:1080B0000363002380F840307047806B836B0BB103
:1080C00000221A65C36B0BB100221A65E7E703684B
:1080D0009A69910701D500229A629A69D20703D45E
:1080E0009A6942F001029A61704730B5039D0468B5
:1080F0002B4360680B4343EA0243054A42EA555268
:1081000023F0004320EA02000343636030BD00BF58
:10811000FF63FF0311F0010307D090F8413003F033
:108120002803282B14BFF22342238A0709D590F88D
:10813000412002F02802282A0CBF43F0440343F0F8
:10814000F4030A04016848BF43F0B8030A6822EA4E
:1081500003030B60704708B5036800211A6880F8B4
:108160004210510413D51A6822F480421A6090F824
:108170004130292B11D12823012180F841302123BE
:108180000363FFF7C7FF002380F8403008BD1204E7
:10819000EDD51A6822F40042E8E790F841302A2B26
:1081A000F4D12823022180F8413022230363E8E739
:1081B00008B5154B2022C36200230363436380F894
:1081C000412080F842304B0712D503685A6A436A4F
:1081D0001A70436A01334362038D4BB1013B03853F
:1081E000438D013B9BB24385436C43F004034364DE
:1081F00048F20301FFF78EFF03681022DA610023C3
:1082000080F8403008BD00BF0000FFFF38B50022F5
:1082100090F84130344D044680F84220283BC56236
:108220004285022B426C42EA0102426429D80321B2
:10823000FFF770FF282380F841302C4BA16B63635C
:10824000236B00293FD0112B01D0212B3BD1236878
:108250001A68500403D51A6822F480421A6091F813
:108260003530012B2BD0224B08460B65002384F8B8
:108270004030FFF7FBFE002834D00846BDE8384008
:108280001BE748F20301FFF745FFFFF720FF90F8D7
:108290004130602B11D0202380F8413003689A6967
:1082A00092060AD59A69D50605D51022DA61426C84
:1082B00042F0040242642022DA610023BEE7204635
:1082C000BDE83840EBE6E16B0029F8D0122B01D075
:1082D000222BF4D123681A681204C0D51A6822F43C
:1082E0000042BBE738BD00BF0000FFFF538300081A
:1082F000BB800008036899691A6810B4CC0508D5DA
:10830000140606D5446C44F0010444644FF48074B0
:10831000DC614C0508D5140606D5446C44F008040D
:1083200044644FF48064DC61890508D5120606D5E3
:10833000426C42F0020242644FF40072DA61416C16
:1083400011F00B0F02D05DF8044B5FE75DF8044BB2
:1083500070472DE9F0410D4690F840100446C36A7D
:10836000012900F05D81012180F84010A80640F14C
:10837000C780910640F1C48026682022D6F800808C
:10838000E76A94F84130F261213B092B0DD8DFE810
:1083900003F0056B0C0C0C0C0C72056B48F2010120
:1083A0002046FFF7B7FE212323637368204643F47A
:1083B00000437360736823F0FF7323F48B3323F45B
:1083C000FF7323F001037360FFF781FE18F4804F01
:1083D00058D0336823F480433360A36B1BB11B6810
:1083E0005B689BB263856A070FD5636A25F0040555
:1083F000726A1A70636A01336362238D2BB1013B89
:108400002385638D013B9BB26385638D9BB21BB15A
:10841000636C43F004036364EB0611D518F0100F8E
:108420000ED0638D9BB2002B46D194F84130282B9F
:1084300031D1B7F1007F2ED129462046FFF7B8FE93
:10844000002384F84230666C6363002E43D0616C75
:108450002046FFF7DBFE94F84130282B48D129460F
:108460002046FFF7A5FE43E048F202012046FFF751
:1084700051FE222398E748F203012046FFF74AFE07
:10848000002391E718F4004FADD0336823F4004384
:108490003360E36BA2E794F841202368292A4FF068
:1084A0001002DA61CCD117F5803FC9D02046FFF722
:1084B0000EFEFFF750FEC3E723681022DA61636CFB
:1084C00043F00403636437F08073B9D1616C2046D4
:1084D000FFF79CFEB4E7E36A13F5803F0DD020461A
:1084E000FFF739FE4F4BE362202384F841302663C7
:1084F000002084F84000BDE8F08194F84130F3E7B3
:10850000EE062BD5D00629D5628D92B2BAB994F871
:108510004120282A02D1B3F1007FA0D094F8411065
:10852000226829294FF01001D161E1D113F5803F74
:10853000DED02046FFF7CBFDFFF70DFED8E722681F
:10854000102133F08073D161626C42F004026264E6
:10855000CED1616C2046FFF759FEC9E769071BD5EC
:10856000570719D5628D92B26AB12268516A626A60
:108570001170626A01326262228D013A2285628D37
:10858000013A92B26285628D92B2002AB0D113F59F
:10859000803FADD02046CFE72E0726D5100724D543
:1085A00094F84130226803F02803282B14D19369F2
:1085B00091699368D068E068022810D1C3F3C213B0
:1085C00083EA114313F0060309D1A16C0131A164C0
:1085D000A16C02298CD1A3640823D36188E74FF4EE
:1085E00000412046FFF796FD82E7A90780D5920754
:1085F0007FF57EAF628D92B26AB1636A226813F82A
:10860000011B91626362638D013B9BB26385238D85
:10861000013B23856CE733F080737FF469AFB9E7E2
:10862000022068E70000FFFF03682DE9F04F13F018
:10863000010885B000F08A81B24A916821F40001F6
:108640009160C16A94680C43B1FA81F14909946060
:1086500013F4002500F07C81AA4E426BD6F88C40C2
:10866000B2F5801F24F4401444EA0204C6F88C409A
:1086700000F07081B2FA82F2520913F4801401946E
:1086800011D0DFF880C2876BDCF88C40B7F5800F23
:1086900024F4400444EA0704CCF88C4000F05D81E7
:1086A000002F08BF01229F0638D5964CDFF85CC228
:1086B000276C47F080572764246C04F0805403949F
:1086C000039C914C276847F480772760DCF800E032
:1086D0002768FE0540F143818A4C876AD4F870E030
:1086E00007F440791EF4407E40F04481B9F5407FA4
:1086F000844C40F06B81D4F808C027F0704E2CF405
:10870000F81C2EF4407E4CEA0E0CC4F808C0C7F3E7
:108710000B07D4F870C047EA0C072767DF060CD5B3
:10872000784FD7F88C4024F08074C7F88C40D7F885
:108730008C40066B3443C7F88C405E0408D5714FFB
:10874000C66DD7F8904024F440343443C7F89040C5
:108750001C0408D56B4F066ED7F8904024F44024D3
:108760003443C7F89040DF0308D5664F466ED7F80C
:10877000904024F440143443C7F890405E0608D576
:10878000604FC66BD7F8904024F003043443C7F819
:1087900090401C0608D55B4F066CD7F8904024F03B
:1087A0000C043443C7F89040DF0508D5554F466C9C
:1087B000D7F8904024F030043443C7F890409E0529
:1087C00008D5504F866CD7F8904024F0C00434434D
:1087D000C7F890405C0508D54A4FC66CD7F8904062
:1087E00024F440743443C7F890401F0508D5454F22
:1087F000066DD7F8904024F440643443C7F89040A5
:10880000DE0408D53F4F466DD7F8904024F440541D
:108810003443C7F890409C0408D53A4F866DD7F88A
:10882000904024F440443443C7F8904013F40014BB
:108830000FD0DFF8D0E0D0F874C0DEF89070BCF153
:10884000006F27F0006708BF012247EA0C07CEF847
:1088500090705F030AD5DFF8ACE0DEF8907027F087
:10886000407CC76E4CEA0707CEF890701E020AD50E
:10887000DFF890E0DEF8907027F0805C876F4CEABC
:108880000707CEF890705F010AD5DFF878E0DEF8D0
:10889000907027F0005CC76F4CEA0707CEF8907025
:1088A000002940F098809E0100F19580012A4BD16B
:1088B000144B1A6822F080521A60144A176819681B
:1088C0008E0000F1EF800DB1436B1BB1019BFBB13A
:1088D000836BEBB90B49D0E90463D1F888501B06D0
:1088E00005F4403543EA86132B43C1F88830D1F8AC
:1088F0008C30056A23F4F853013D43EA0523C1F89F
:108900008C3005E000380240007000403026012025
:1089100084B1436FB3F1006F0CD1684C8369D4F814
:10892000881005691B0401F0706143EA85130B434D
:10893000C4F88830614B196841F0805119601068A3
:108940001968890040F1B480002010E041467FE6BC
:108950002A4692E6002201218FE60121A3E6DCF8F7
:108960000070A7EB0E07642F7FF6B2AE032005B0B0
:10897000BDE8F08FCE453FF4B9AED4F870E0D4F83E
:1089800070A02EF4407E4AF4803AC4F870A0D4F867
:1089900070A02AF4803AC4F870A0C4F870E0D4F84B
:1089A00070E01EF0010F3FF4A1AEDCF800A041F230
:1089B000883BD4F870E01EF0020F7FF497AEDCF82D
:1089C00000E0AEEB0A0EDE45F3D9CFE7D4F808C0DD
:1089D0002CF4F81C99E6DFF8E4E0DFF8E4C0DEF8F8
:1089E000001021F08061CEF80010DCF80070DEF895
:1089F0000010090150D4B8F1000F0DD0C16A59B967
:108A00008168DEF884704668090707F0706741EAFC
:108A100086113943CEF884101DB1416BB1F5801F2A
:108A200005D00199D1B1816BB1F5800F16D1DFF876
:108A30008CE0C168DEF884704668090607F0E047FC
:108A400041EA86113943CEF88410DEF88C70C16992
:108A500027F01F0701393943CEF88C109E010AD543
:108A6000C36841681B0643EA8113816843EA0173C6
:108A70001249C1F88430114B196841F080611960C6
:108A8000DCF80070196809013FF510AFDCF8001040
:108A9000C91B6429F6D969E7DCF80010C91B6429F1
:108AA000A5D963E71168C91B64297FF608AF5DE7A4
:108AB0001168091A64297FF643AF57E7003802406E
:108AC00030260120274A0368904212D0B0F1804F2F
:108AD0000FD0A2F57C4290420BD002F5806290420A
:108AE00007D002F58062904203D002F578429042AE
:108AF00008D123F070034A68134323F44073CA6813
:108B0000134316E0184A9042F7D002F58062904273
:108B1000F3D002F580629042EFD0A2F598329042F5
:108B2000EBD002F580629042E7D002F5806290427D
:108B3000E3D04A6923F0800313438A68C2620A685B
:108B40008262084A904203D002F58062904201D1CD
:108B50000A690263026842F0040202600122426173
:108B6000036070470000014000400140436A1A075B
:108B700010B506D50168446B4A6822F400422243CE
:108B80004A60DC0706D50168846A4A6822F400322C
:108B900022434A60990706D50168C46A4A6822F4EC
:108BA000803222434A605A0706D50168046B4A683E
:108BB00022F4802222434A60DC0606D50168846BD9
:108BC0008A6822F4805222438A60990606D5016899
:108BD000C46B8A6822F4005222438A605A0610D578
:108BE0000168046C4A68B4F5801F22F4801242EADE
:108BF00004024A6005D14A68446C22F4C002224350
:108C00004A601B0606D50268816C536823F4002372
:108C10000B43536010BD70470F4B984215D0A3F51E
:108C20007843984213D003F58063984211D003F53E
:108C30007843984208D10323084A142101FB0322F8
:108C4000138A01339BB2138270470023F4E7012398
:108C5000F2E70223F0E700BF0030014000000120EE
:108C6000D0E907239A423CBFC1685218D01A704716
:108C7000D0E9092300699A4238BF12180138D31A83
:108C8000C01A7047D0E90902131A58425841704778
:108C90000246036A4169C85C0133D1688B4228BF30
:108CA000002313627047436A8269D154436A0269A0
:108CB0000133934228BF0023426B4362136843F0A1
:108CC000800313607047436BD86910F0100002D026
:108CD000102201201A6270477047704770470120C8
:108CE0007047014B5868704730260120034B93F8BA
:108CF0000402C31E58425841704700BF302601206D
:108D0000012380F84930704708B5D0F8143233B1E8
:108D10001B689847003818BF0120400008BD02209A
:108D2000FCE7D0F818321BB10020C3F814027047DA
:108D300002207047D0F8302201F00F01D0F818322D
:108D400010B5242404FB012203F50371D2F8682234
:108D5000C3F80C22D0F81C22D3F80402D268904742
:108D6000002010BDD0F81C3210B56BB1D0F81842FD
:108D700094F80002FF2807D09B68214694F801224E
:108D80009847FF2384F80032002010BD432303805E
:108D9000004870475000012043230380004870477B
:108DA000940001204323038000487047D80001202D
:108DB0000A230380004870471C0101202023038000
:108DC0000048704728010120202303800048704795
:108DD00048010120202303800048704768010120DA
:108DE0000A230380004870478801012004230148BA
:108DF0000B80704794010120002370B54D1C1E4666
:108E0000040FB0F1204F4FEA001034BF3034373434
:108E100001F8134005F813600133DCB2A242EFD829
:108E200070BD1A2310B50B80094BD3F8100AD3F884
:108E3000182A80180AD0D3F8144A08220549FFF7E7
:108E4000DBFF042210312046FFF7D6FF024810BD99
:108E50000070F01F9A010120980101200020704746
:108E6000212808B50B461BD022282BD0202815D14D
:108E7000A1B1072A12D11A4A1879096882F8B801F3
:108E800058799B79C2F8B41182F8BA31154B82F83F
:108E9000B901D3F83C320BB100209847002008BD3F
:108EA0000029FBD0072AF9D10D4AD2F8B411196074
:108EB00092F8B811197192F8B91192F8BA21597152
:108EC0009A71EBE70029E9D0022AE7D1054AD2F8E6
:108ED0004022002AE2D0098800209047DEE700BF48
:108EE0000000012030260120EFF31182702383F36C
:108EF00012880849D2B2D1E9913182F311888B42AC
:108F000003F1FF338CBF002001205B1A03EB00301C
:108F1000704700BF30260120E6E7034B93F870024C
:108F2000003818BF0120704730260120034B93F80A
:108F30007002032894BF00200120704730260120D2
:108F400000487047A4280120837B042B0DD0074BD9
:108F5000D3F898200132C3F898204260042282732B
:108F6000D3F89C200132C3F89C2070479C44012018
:108F70000020704737B54A4B4A4C4B4AC4F8A432DC
:108F800042F20F73C4F8B032484BD3F8BC31B3FB94
:108F9000F2F3013BC4F8A8320023C4F8B432C4F899
:108FA000AC3294F8E13203F0FF020BB984F8E0220E
:108FB00002253F493A4884F8E152FFF783FD012337
:108FC0000621372084F8EC3284F8E23284F8E33268
:108FD00084F8E43284F8E53284F8E63284F8E73243
:108FE00084F8E83284F8E93284F8EA3284F8EB3223
:108FF00084F8E1322F4B1A6C42F020021A641B6C89
:1090000003F020030193019B4FF080FF2A4B4FF4A4
:1090100000025A6094F8E132012B31D1D4F8A43225
:1090200084F8E152DA6842F00102DA60234A93429E
:109030001AD0B3F1804F17D0A2F57C42934213D0DF
:1090400002F5806293420FD002F5806293420BD00A
:1090500002F57842934207D002F57052934203D052
:10906000A2F59432934207D19968154A0A40062A1C
:1090700006D0B2F5803F03D01A6842F001021A60B0
:10908000D4F8203200200F4AC3F81002C3F8082297
:109090000D4AC4E98F00C3F8042203B030BD00BFFD
:1090A000001400403026012080841E0000000120B2
:1090B000D82801200038024000E100E00000014013
:1090C00007000100C0560120C04601202DE9F341F0
:1090D00006690546C3680C464FF000481E4016B9A5
:1090E00002B0BDE8F081B6FA86F328FA03F21B3B22
:1090F000D24316402A61002C40D0042BEFD8DFE881
:1091000003F039332D2603002369EF6A2BB19B68E6
:109110001BB1B9B204F108009847A36A2BB19B6850
:109120001BB1B9B204F120009847236C2BB19B68A6
:109130001BB1B9B204F138009847A36D002BCED013
:109140009B68002BCBD0B9B204F1500004E0236936
:1091500004F10800696B5B689847C0E7A36A04F1F3
:109160002000A96B5B68F7E7236C04F13800E96B1A
:109170005B68F1E7A36D296C5B68E5E7042B06D813
:10918000DFE803F00D0B09070300EB6A0193019B75
:10919000A5E76B6BFAE7AB6BF8E7EB6BF6E72B6CCD
:1091A000F4E770B500260E4CD4F8F032002BFBD05B
:1091B00000250AE012F8016B013B4FF00105C4F8ED
:1091C000F022636007D153F059FA6368D4F8F022B3
:1091D0001BB1002DEED0304670BD002DE4D0FAE773
:1091E0003026012008B5054A0B68C2F8F00253602A
:1091F0000BB953F043FA002008BD00BF3026012010
:1092000090F84820531C0244DBB280F8483082F8C2
:10921000341090F849200AB1132B01D953F0A7BBA1
:109220007047002280F8492053F0A1BB38B50446AE
:10923000D0F83002237C93BB4FF4007302228121CB
:1092400053F0D0FA4FF4007302220121D4F8300217
:1092500053F0C8FA082303228221D4F8300253F0D5
:10926000C1FA4FF407705DF025F90546C4F81802FD
:10927000F0B1D4F81C321B6898470023C5F81432AB
:10928000C5F81832237C8BB94FF40073D4F8300240
:109290000121D5F8042253F0D5F9002038BD402330
:1092A0000222812153F09EFA4023CDE74023EDE7CF
:1092B0000120F3E710B504468121D0F8300253F0C5
:1092C00021FA0121D4F8300253F01CFA8221D4F89B
:1092D000300253F017FAD4F8183253B1D4F81C32D4
:1092E0005B689847D4F818025DF0ECF80023C4F8E6
:1092F0001832002010BD10B504460121D0F830020C
:1093000053F000FA8121D4F8300253F0FBF9D4F87D
:1093100028025DF0D7F80020C4F8280210BD70B50F
:109320000B7804460D46D0F8186213F0600228D07E
:10933000202A1FD1CA884878F2B11B060AD5D4F872
:109340001C3231469B689847EA883146204653F0E4
:1093500003FB0FE0032386F8012286F800020021B8
:10936000C4F8F4311346D4F83002C4E9422232463C
:1093700053F068F9002070BDD4F81C329B68984700
:10938000F8E74B780A2BF5D101220149DFE700BF4E
:109390002429012070B50446D0F83002237C93BB09
:1093A0004FF400730222012153F01CFA4FF40073B2
:1093B00002228121D4F8300253F014FA4FF41B70CA
:1093C0005DF078F80646C4F8280218B30025D4F8F2
:1093D0002C320581A0F85C5228461B689847012171
:1093E000D4F8300253F077F98121D4F8300253F0E9
:1093F00072F9D4F830021F2306F50372012153F0ED
:1094000021F9284670BD40230222012153F0EAF9D8
:109410004023CDE70120F5E770B5D0F82852044687
:1094200095F818324BB9D5F8143233B16B7A23B9A9
:109430000121D0F8300253F0EDFA8121D4F8300246
:1094400053F0E8FA6B7A022B09D105F50372D4F8D0
:1094500030021F230121BDE8704053F0F3B870BD06
:1094600070B50E4B0446D0F82852C5F82C320023B4
:1094700085F8381205F50B722B7281210D23D0F877
:10948000300253F00FF905F50372D4F830021F23B0
:109490000121BDE8704053F0D5B800BF5553425389
:1094A0002DE9F0410B780446D0F8285213F0600201
:1094B00034D0202A19D14A78FE2A05D0FF2A19D0A3
:1094C00053F0F1FA022011E04A888AB9CE88012EC1
:1094D0000ED11A060CD5D0F82C329B69984732462B
:1094E00028602946204653F037FA0020BDE8F08175
:1094F0002046E5E74A88002AFAD1CA88002AF7D12F
:109500001B06F5D44FF4807305F5037201212B81FE
:109510001F23D0F8300253F095F8E6E74E780A2E74
:1095200028D00B2E29D0012EDFD18F8891F804800E
:10953000D0F830027FB2414653F0CDF8D4F8300273
:10954000414653F0DFF8002FD4F83002237C19DABB
:10955000B3B94FF400730222812153F043F96B7ABF
:10956000022B17D18121D4F8300253F053FA002393
:109570006B72BAE70122291DB5E78B786B60B4E7FF
:109580004023E8E723B94FF4007302223146E4E7B1
:109590004023FAE7002FA8DA012BA6D001212046AC
:1095A000FFF75EFFA1E72DE9F743137805460E4666
:1095B00017462F2BD0F828423CD8192B08D8032B5C
:1095C00068D0122B00F08F80002B49D02022F6E1CA
:1095D0001A3B152BFAD801A252F823F02397000862
:1095E0001F970008CD950008CD9500081F9700082B
:1095F000CD950008CD950008CD950008CD950008C3
:1096000045970008CD95000895970008CD9500086E
:10961000CD950008CD970008CD950008A9980008C1
:10962000CD950008CD950008CD950008CD95000892
:10963000B59900085A2BC9D10823BF4A6381D2F8D3
:109640000730E360D2F80B302361D0F82C320846A3
:10965000DB689847D0B1E37B63F07F03E37315E0E9
:10966000D4F81432002BB1D1D0F82C3208469B68C4
:10967000984750B13A220221D5F8280253F014F944
:10968000052323724FF0FF3001E06081002003B01A
:10969000BDE8F0831122002104F10D005CF0EAFA2C
:1096A000702394F85D2223730C23E37494F85C32E6
:1096B0009A4211D004EBC302013392F83C12DBB2A0
:1096C000A173042B92F8411208BF0023217692F86F
:1096D000402284F85C326276122363813B79122B3C
:1096E000D4D86381D2E75378DB0715D4D0F82C3275
:1096F00001EBC1061279DB6903EB8606337905338A
:10970000934228BF13466381002BBFD0013B9BB21D
:10971000F15CE2181173F7E70723874EF3E70023A4
:10972000DFE7082363810023E3602361D0F82C3254
:109730000846DB6898470028A8D0A37B63F07F0326
:10974000A373A3E700230DF1020201A9E3602361E3
:109750006361D0F82C3230465B68984730B13A22CA
:109760000221D5F8280253F09FF88BE70823E37312
:10977000019B013B1A0EE37422741A0C62741A0ADC
:10978000BDF80230A27402225BBAA282E3820C23EB
:1097900063817CE7D0F82C3204F25E2204F5187164
:1097A00030465B6898470028D9D1D4F860322082CF
:1097B000013B1A0EE37322731A0C62731A0AB4F88F
:1097C0005E32A2735BBA638208238AE7237A73BB93
:1097D00094F91832002BBFF6F9AED0F82C320846B7
:1097E0009B6898470028BAD1D7F80220D5F82802FC
:1097F00012BAD0F86012C4F86422B7F807305BBA26
:109800009BB29F18C4F868328F4277D80221217228
:10981000B4F85E124A434B43C4F86422D4F81422CD
:10982000C4F86832934202D0202205219BE74FF40E
:109830000073D5F82C026381D5F82842D0F8109037
:109840003046D4F8687204F10C08B4F85E229F42E6
:10985000D4F8641228BF1F46B7FBF2F3B1FBF2F253
:109860009BB24146C847002802DA1122042178E75A
:10987000BBB242468121D5F8300252F013FFD4F832
:109880006432D4F834223B44D21BC4F86432D4F896
:109890006832C4F83422DB1BC4F86832002B7FF432
:1098A000F5AE03232372F1E6237A002B46D194F917
:1098B0001832002BFFF68AAED0F82C3208469B688F
:1098C000984700287FF44BAFD5F82C323046DB6840
:1098D000984708B1272243E7D7F80220D5F8280295
:1098E00012BAD0F86012C4F86422B7F807305BBA35
:1098F0009BB29E18C4F868328E4201D9212294E7A7
:10990000B4F85E124A434B43C4F86422D4F81422DC
:10991000C4F86832934287D1B3F5007F4FF001015C
:1099200004F10C0228BF4FF4007321729BB2D5F8EA
:10993000300252F087FEA9E6C8700608D4F86872B3
:1099400004F10C08B4F85E22B7F5007FD4F8641275
:10995000D0F82C0228BF4FF40077D0F8149030468E
:10996000B7FBF2F3B1FBF2F29BB24146C8470028C5
:1099700001DA03227AE7D4F864323B44C4F8643253
:10998000D4F86832D91BD4F83432DB1BC4F868121F
:10999000C4F8343219B92846FFF762FD76E6B1F50E
:1099A000007F0B4642464FF0010128BF4FF4007381
:1099B0009BB2BCE77B7813F0020303D0242205217D
:1099C0002046D0E6D4F86412B4F868220A44D4F8E9
:1099D00060128A427FF685AE2122F0E7D0F8281285
:1099E00010B50B7A0446022B07D0033B012B02D89B
:1099F0000021FFF735FD002010BD01F21B2291F878
:109A00001912FFF7D0FD0028F5DA01212046F0E712
:109A100070B5D0F828420546267A1EB1012E55D0E1
:109A2000002070BDD4F81032C4F83032D4F81432AB
:109A3000C4F83432D0F83032D3F88C321F2B0DD129
:109A4000D4F80C22264B9A4208D194F81912012915
:109A500004D894F81A32013B0F2B0AD92022052191
:109A6000204652F021FF022363722846FFF7D4FC00
:109A7000D6E704F21B22FFF796FD0028237A06DAC8
:109A8000052BF2D101212846FFF7EAFCC8E7013B8C
:109A9000022BC5D961890029F5D0D5F82822D2F842
:109AA000143282F838628B4228BF0B46D2F8341247
:109AB000C91A9BB2C2F834120421117204F10C02CB
:109AC0008121D5F8300252F0EDFDA9E704F21B2206
:109AD00094F81912FFF767FD0028A1DAD2E700BF5A
:109AE0005553424310B501200C460AF0ABFB054B21
:109AF0001221A3F114022180022814BF1846104637
:109B000010BD00BFD401012008B520B903484FF0B3
:109B10008BF8034808BD0348F9E700BF291B070875
:109B2000282901204A1B0708024808B54FF07CF895
:109B3000014808BD6B1B070828290120024808B509
:109B40004FF072F8014808BD701B07082829012052
:109B5000024808B54FF068F8014808BD7B1B0708AC
:109B600028290120064BD3F8A0321A79022A05D100
:109B70009A68920702D5586951F088BB704700BFB8
:109B80003026012010B50A4CD4F8A00207F0CAFD17
:109B900058B9D4F8A0020379022B08D183689B0737
:109BA00005D5BDE8104007F0D5BD00BFECE710BDFE
:109BB0003026012073B5441C0025094ED6F8A002BA
:109BC000012300220DF1070151F068FB9DF8070009
:109BD000FF2802D10135A542F0D102B070BD00BF0F
:109BE0003026012070B5044608200D46FFF7E2FF3D
:109BF000FF2812D0FE2812D10A4E2B460022214601
:109C0000D6F8A00251F04AFB0022D6F8A0020223A7
:109C1000114651F043FB002070BD0120FCE70220FB
:109C2000FAE700BF3026012037B54FF6FF53104D3D
:109C3000002401AAD5F8A0022146ADF80430022381
:109C4000C5F86C4251F02AFB0120FFF7B3FFFF2853
:109C500005D10423022085F8703203B030BD0923FA
:109C6000204685F87032D5F8F833C5F86032F4E74D
:109C70003026012040F0400313B58DF800300B0E64
:109C800004468DF804108DF801300B0C8DF802306D
:109C90000B0A8DF8033095238DF8053051F024FB25
:109CA00000B964B9074806236A460021D0F8A0022B
:109CB00051F0F4FA0820FFF77DFF02B010BDFF203D
:109CC000FBE700BF302601202DE9F041164C1E466F
:109CD0000546884694F870321746042B17D1FFF7D3
:109CE00041FF94F86732D3B969021120FFF7C2FF30
:109CF000B8B90523012084F87032D4F8F833C4E9E8
:109D00009385C4E99676C4F86032BDE8F081082BEB
:109D100003D1FFF789FF0228E1D00020F5E72946AB
:109D2000E3E7FFF72FFFF8E73026012038B5134CA3
:109D30000023A07BE0B125688D4219D1104C03F5BA
:109D400081751AB904EB0514A27138BD04F118012C
:109D500001EB43239A4209D1831E5842584152F0E5
:109D600071FB012304EB0514A371EEE70020F6E775
:109D700001331034082BDCD1E7E700BFB4440120E5
:109D80009C340120164838B5002300F1180480F8EF
:109D9000A03025688D421ED1A57B032D1BD1114C0F
:109DA00003F581754AB9042304EB0514A371D0F8B7
:109DB0009C300133C0F89C3038BD04F1180004EB2E
:109DC000051400EB4320131A5842584152F03AFB55
:109DD0000123A371F0E701331034082BD9D1EBE74D
:109DE0009C4401209C340120002807DB4109012309
:109DF00000F01F00024A834042F82130704700BF44
:109E000000E100E02DE9F74F0023DFF8A491664A56
:109E100001240D689C4004EA0506AC4340F0AF8085
:109E20004D6803274FEA430E05F0030407FA0EFCC2
:109E3000671E6FEA0C0C012F34D8876807EA0C08FC
:109E4000CF6807FA0EF747EA08078760476827EAEE
:109E50000608C5F300179F4047EA08074760C76830
:109E6000022C07EA0C088F6807FA0EF747EA080782
:109E7000C76019D14FEAD30803F0070A4FF00F0B60
:109E800000EB88084FEA8A0AD8F820700BFA0AFB20
:109E900027EA0B0B0F6907FA0AF747EA0B07C8F81E
:109EA000207001E0032CDAD1076804FA0EF415F4EF
:109EB000403F07EA0C0744EA070404605FD0D9F882
:109EC000444023F0030703F0030C4FF00F0E44F45B
:109ED000804407F180474FEA8C0CC9F8444007F5ED
:109EE0009C37D9F844400EFA0CFE04F480440194E7
:109EF000019CBC6824EA0E0E2C4CA04246D004F50E
:109F00008064A04244D004F58064A04242D004F5AD
:109F10008064A04240D004F58064A0423ED004F5A5
:109F20008064A0423CD004F58064A0423AD004F59D
:109F30008064A04214BF0824072404FA0CF415F42A
:109F4000801F44EA0E04BC606FEA060794680CBFE9
:109F50003C40344315F4001F9460D4680CBF3C406F
:109F6000344315F4003FD46054680CBF3C40344384
:109F7000ED035460146854BF3C4034431460013313
:109F8000102B7FF445AF03B0BDE8F08F0024D4E779
:109F90000124D2E70224D0E70324CEE70424CCE74F
:109FA0000524CAE70624C8E7003C0140000002403F
:109FB00000380240F8B50568AC6914F0100463D0AD
:109FC00010230024334EEB612346AF69BF0656D4FD
:109FD0009BB344F004040123AA69D60505D54FF4C8
:109FE000807344F00104EB610123510505D54FF462
:109FF000806344F00804EB610123920546D54FF4D9
:10A00000007344F00204EB61FEF761F86B6823F023
:10A01000FF7323F48B3323F4FF7323F001036B608E
:10A02000436C23434364202380F84130002380F8AD
:10A03000423080F8403001232AE03768BF1A8F424F
:10A04000C3D9D5F804C090F84270D5F818E0FFB233
:10A050001EF4004F09D01CF4804F06D1202F04D0ED
:10A060006A6842F480426A603268AF69BF06ACD465
:10A070003768BF1A192FF8D920240123A5E7002B30
:10A08000A7D12023EB61A4E72346A5E7002BBBD192
:10A090001846F8BD302601202DE9F047DDF8209064
:10A0A00004460E4615461F46DFF860A0D4F800802F
:10A0B000D8F8183036EA03030CBF01230023AB4263
:10A0C00001D0002020E04A4639462046FFF772FFC3
:10A0D000C8B9DAF80030A3EB0903BB42E6D9D8F8D7
:10A0E000183036EA03030CBF01230023AB42DDD155
:10A0F000636C84F8400043F020036364202384F8F9
:10A10000413084F842000120BDE8F087302601206C
:10A11000134908B58B6803F00C03042B1BD0082BE4
:10A120001BD14A684B68496802F03F0213F4800370
:10A13000C1F388111ABF0B4800230B48A1FB000193
:10A1400054F038F8064B5B68C3F3014301335B00FE
:10A15000B0FBF3F008BD0348FCE70348FAE700BF93
:10A160000038024000127A000024F400054B9A687F
:10A17000054BC2F382221344044ADB7BD2F8BC01B4
:10A18000D840704700380240C8700608000001201F
:10A19000054B9A68054BC2F342321344044ADB7BF9
:10A1A000D2F8BC01D840704700380240C870060899
:10A1B0000000012038B50546C0692A69AB682C68E3
:10A1C00013436A6921681343714A03430A40296AA9
:10A1D0001343EA682360636823F4405313436360C6
:10A1E000AB69A2680B4322F430621343A360694B4E
:10A1F0009C4214D103F59433D3F8903003F0030359
:10A20000022B00F0AA80032B00F0A180012B67D065
:10A21000B0F5004F00F09580FFF7BAFF13E05E4BFA
:10A220009C4222D103F5FA33D3F8903003F00C03AB
:10A23000082B00F0928014D8002B51D1B0F5004FBC
:10A2400077D0FFF793FF002876D06A6800EB5203BF
:10A25000B3FBF2F34FF6EF72A3F11001914202D873
:10A2600093E00C2B73D0012067E04C4B9C420AD149
:10A2700003F5F833D3F8903003F03003202B6CD083
:10A28000DAD9302BEEE7464B9C420AD103F5F63380
:10A29000D3F8903003F0C003802B5ED0CCD9C02B14
:10A2A000E0E7404B9C420CD103F5F433D3F89030F7
:10A2B00003F44073B3F5007F4FD0BDD9B3F5407FB1
:10A2C000D0E7394B9C4214D103F59233D3F8903048
:10A2D00003F44063B3F5006F3FD007D8002B97D04D
:10A2E000B0F5004F30D1FFF713FF24E0B3F5406F16
:10A2F000B8E72E4B9C420CD103F5E033D3F89030F5
:10A3000003F44053B3F5005F27D095D9B3F5405F10
:10A31000A8E7274B9C42A6D103F5DE33D3F8903053
:10A3200003F44043B3F5004F17D085D9B3F5404F40
:10A3300098E7FFF71BFFA8B900200023C5E91A33EF
:10A3400038BDFFF725FFF6E7FFF7E2FE7BE7B0F544
:10A35000004F07D04FF4004077E7B0F5004F1548A5
:10A360007FF473AF6A68530803EB4003B3FBF2F367
:10A370004FF6EF72A3F1100191423FF674AF23F054
:10A380000F02C3F3420392B21343E360D4E700BF6A
:10A39000F369FFEF00100140004400400048004016
:10A3A000004C004000500040001401400078004084
:10A3B000007C00400024F400026852E8003F23F4CF
:10A3C000907342E8003102680029F5D102F10803D8
:10A3D00053E8003F23F0010302F1080C4CE8003180
:10A3E0000029F3D1036E012B07D152E8003F23F07F
:10A3F000100342E800310029F7D12023C0F8803053
:10A400000023036683667047436BDA692DE9F041E8
:10A410009606044613D5586AE36AC0B2002B51D0A1
:10A42000216B9847636B1A6822F480721A609A68ED
:10A4300022F001029A609A6942F008029A61636B05
:10A44000DA69D50701D501221A62DA69900701D5C8
:10A4500002221A62DA69510701D504221A62DA6906
:10A46000120701D508221A62DA6917060ED5D4F848
:10A47000B020212A0AD0D4E909128A422ED1002222
:10A48000A4F886201A6822F080021A60DA6956065B
:10A4900040F1A680DA6940F60F00196804F134062D
:10A4A00002429D6826D1950640F19C80880640F1C5
:10A4B0009980D4F89C30002B00F092803046BDE8A3
:10A4C000F0411847E3696269D054E369E2680133F7
:10A4D000B3FBF2F102FB1133E361A3E7A169895CED
:10A4E0000132C9B299622169B2FBF1F001FB10227D
:10A4F000A262CBE7AF4805F001050840284371D0C0
:10A50000D70709D5C80507D501201862D4F8B800C7
:10A5100040F00100C4F8B800970708D53DB102200B
:10A520001862D4F8B80040F00400C4F8B80050072E
:10A5300008D53DB104201862D4F8B80040F00200FC
:10A54000C4F8B80017070BD501F02000284307D046
:10A5500008201862D4F8B80040F00800C4F8B80029
:10A5600015050AD5480108D54FF400601862D4F8E3
:10A57000B83043F02003C4F8B830D4F8B8307BB317
:10A58000930606D58F0604D5D4F89C300BB130461F
:10A590009847656BD4F8B820AB6802F0280203F046
:10A5A000400313431AD03046FFF706FFAB685E0640
:10A5B00016D5626B02F1080353E8003F23F0400315
:10A5C000083242E800310029F3D1D4F8A80038B1AC
:10A5D000794BBDE8F0410365FDF748BDC4F8B830DC
:10A5E000BDE8F081D4F89400012840F0C780D5067A
:10A5F00040F1C480C80640F1C1801022B4F88C003C
:10A600001A629A68520640F18980D4F8A82011682D
:10A61000496889B2002975D0814273D2A4F88E109E
:10A62000D169B1F5807F37D053E8001F21F48071E4
:10A6300043E800100028F7D103F1080151E8001F9A
:10A6400021F0010103F1080545E800100028F3D1CD
:10A6500003F1080151E8001F21F0400103F1080552
:10A6600045E800100028F3D12021C4F8B410C4F844
:10A67000940053E8001F21F0100143E80017002F59
:10A68000F7D14E4D906D2E6892F83530022B09D0DF
:10A69000802382F8347053650223C4F89830B4F8EC
:10A6A0008E309DE71368196821F016011960596909
:10A6B00021F080015961116C09B9916C19B11968C7
:10A6C00021F008011960196821F001011960196869
:10A6D00011F0010109D1D56D3F23AB408360012307
:10A6E00082F8341082F83530D6E72968891B0529AD
:10A6F000EDD920235365032382F83530002382F8F7
:10A700003430C9E781427FF46BAFD369B3F5807F02
:10A710007FF466AF0223C4F8983061E7B4F88E2066
:10A72000B4F88E1092B289B200293FF459AF824238
:10A730003FF456AF53E8002F22F4907243E8002113
:10A740000029F7D103F1080252E8002F22F001029C
:10A7500003F1080040E800210029F3D12022C4F8C9
:10A760009C10C4F8B420C4F8941053E8002F22F0D1
:10A77000100243E800210029F7D1CBE7170604D5E2
:10A780000D0602D5D4F8A03095E650067FF528AF27
:10A790004A067FF525AF53E8002F22F0400243E838
:10A7A00000210029F7D12023C4F8A010C4F8B0304C
:10A7B00016E700BF20010004178C00083026012096
:10A7C000034B0B44DA7D835823F001038350704719
:10A7D000C8700608F8B50469202345681F2C2BD9DA
:10A7E000A4F120016A688B40134224D08269137C53
:10A7F000022B01D1002313745768124E3B69D268B3
:10A80000C3F30323506806EB8303196AFFF7D8FFED
:10A810007A7939681F2C06EB4206CB68B6F84020DF
:10A8200002F4F05223EA0203CB604FF0200306D972
:10A83000203CA340EB60F8BD2A68A340D4E7A340C6
:10A84000AB60F8E7C870060882B0002302460193A7
:10A85000019B01330193019BB3F1706F15D813690C
:10A86000002BF5DA8901002341F0200101931161E9
:10A87000019B01330193019BB3F1706F05D81069FF
:10A8800010F02000F4D102B070470320FBE782B043
:10A89000002302460193019B01330193019BB3F115
:10A8A000706F13D81369002BF5DA0023019310237E
:10A8B0001361019B01330193019BB3F1706F05D8C4
:10A8C000106910F01000F4D102B070470320FBE7CC
:10A8D00082B0002302460193019B01330193019B47
:10A8E000B3F1706F1AD81369002BF5DA0A230193BC
:10A8F000019B83B9136943F001031361019B013389
:10A900000193019BB3F1706F08D8106910F001003A
:10A91000F4D102B07047019B013BE8E70320F8E760
:10A920008048814A8149121A70B5A4B059F02CF9B7
:10A930007F4A0020D2F8883043F47003C2F8883090
:10A940007C4B196841F0010119609860196821F089
:10A95000847121F48031196077495960196821F4B4
:10A96000802119607549D8609160BFF34F8FBFF3A4
:10A970006F8FC2F85002BFF34F8FBFF36F8F5169D3
:10A9800041F400315161BFF34F8FBFF36F8F1A6CE9
:10A9900042F080521A641A6C02F080520292029ABB
:10A9A000674A116841F440411160126802F4404264
:10A9B0000192019A9A6802F00C02042A07D09A6860
:10A9C00002F00C02082A4ED15B685B024BD5594B52
:10A9D0001B68584B9A6802F00C02082A5CD01A686F
:10A9E00022F080721A60574A106819688D0149D4A4
:10A9F00055495960196841F0807119604D491068D6
:10AA00000B689C0143D54B4B4E4C1A6C42F0805264
:10AA10001A641B6C03F080530393039B484B1A6822
:10AA200042F480321A6021685A68D2034AD51A6803
:10AA300042F400321A60424A216853689B0347D5AA
:10AA40004FF400134FF4C07C04A804934FF000634C
:10AA500021930723CDE908C303230A93FDF7E4FDFF
:10AA600000283BD0FEE7334B36491A6842F4803267
:10AA70001A6008681A689603ABD40A68121A642A26
:10AA8000F8D9FEE71168091A0229AED9F9E7136867
:10AA90001B1A022BB4D9F4E75B685902F1D503F015
:10AAA0003F02082AEDD147F6C0721A40B2F5D84FDE
:10AAB000E7D113F4403FE4D103F07063B3F1106FBA
:10AAC000A1D0DEE72268521AB2F57A7FACD9FEE750
:10AAD00023685B1AB3F57A7FAFD9F8E71B4A13688E
:10AAE00003F00F03062B10D9124B9A6842F4E05280
:10AAF0009A609A6842F460429A609A6822F0F00282
:10AB00009A601A68900123D4FEE7136823F00F03BC
:10AB100043F007031360136803F00F03072BF3D10F
:10AB2000E2E700BF00000000B02C0000C07B070877
:10AB300000ED00E000380240103000240000000862
:10AB40000070004030260120086C4029003C024083
:10AB50009A6841F2883022F0030242F002029A60C1
:10AB600021689A6802F00C02082A40D1424A136810
:10AB700019070AD5136823F00F0343F00703136086
:10AB8000136803F00F03072BBED13C4C3C4EA36867
:10AB90003C4D23F4E05343F4A053A360A36823F493
:10ABA000604343F40043A360FFF7B2FAA368C3F322
:10ABB0000313334493F84830D840C5F8BC01D5F8A6
:10ABC000E80152F052FA304B04A804930023CDE977
:10ABD0001333CDE91533CDE91733CDE91933CDE979
:10ABE0001B33CDE91D33FDF71FFD28B1FEE72268B9
:10ABF000521A8242B5D987E7D4F88C3023F080739B
:10AC0000C4F88C30D4F88C3043F08073C4F88C30A6
:10AC1000A36803F00C03042B27D0082B27D163680B
:10AC2000626813F4800F636802F03F0218BF17498F
:10AC3000C3F3881308BF1649B1FBF2F253430F4A1E
:10AC40005268C2F3014201325200B3FBF2F30B4AE5
:10AC50009268C2F30312164496F84820D3400D4A76
:10AC60009342C5F8BC3104D0FEE7084BEFE7084B30
:10AC7000EDE724B070BD00BF003C02400038024048
:10AC8000C870060800000120C0FF030000127A000F
:10AC90000024F40000E6DF0C2DE9F84303680746C2
:10ACA0008846504DC3F30D06002E4FD14E4A9342B5
:10ACB0001ED302F58042934219D302F5804293429B
:10ACC0004FD34A4A93424ED902F5803293424CD92F
:10ACD00002F5003293424AD902F50032934248D934
:10ACE00002F50032934246D905200AF002FE012601
:10ACF00095F81034012B43D0012385F810344EF021
:10AD0000AFF88146002838D1394C236923F44073C9
:10AD10002361236943F400732361236923F0F8035B
:10AD20002361236943EAC60343F0020323612369D5
:10AD300043F480332361BFF34F8F4EF091F82369C2
:10AD400023F07A032361F8B985F8100495F81034DC
:10AD5000D7F80090012BD8F8008018D16FF00100CF
:10AD600010E00226C4E70326C2E70426C0E7052652
:10AD7000BEE70626BCE70726BAE7002385F81034AD
:10AD80004FF0FF30BDE8F88385F81094F8E7012311
:10AD900085F810344EF064F8064618B1002385F8A3
:10ADA0001034DBE7124C236923F4407323612369D9
:10ADB00043F400732361236943F001032361C9F85D
:10ADC0000080BFF34F8F4EF04BF8236923F001034F
:10ADD000236185F810640028C0D13B6804333B60D0
:10ADE000D0E700BF3026012000400008FFFF000828
:10ADF000003C02400148FDF77DBA00BF4C2A01200B
:10AE00000148FDF745B900BF4C2A01200148FDF774
:10AE100071BA00BFA42A01200148FDF739B900BF6B
:10AE2000A42A01200148FDF765BA00BFFC2A0120D1
:10AE30000148FDF72DB900BFFC2A01202DE9F0479C
:10AE4000924F4FF00C08064608FB0078D8F8EC410A
:10AE5000002C00F0158198F8F2014DF08FFF98F862
:10AE6000F00108F069FE054698F8F10108F064FE6B
:10AE7000731C8046DBB21DB140F60C122B72EA80C7
:10AE8000B8F1000F05D040F60C2288F80830A8F879
:10AE9000062028464FF0090A08F0F7FD404608F062
:10AEA000F4FD1121284608F0FBFD1121404608F071
:10AEB000F7FD4FF0650903E0052000210AF0F4FCDE
:10AEC000284608F0D9FD10B9B9F10109F4D1284696
:10AED00008F0E0FD002105200AF0E6FC284608F015
:10AEE000D4FD052000210AF0DFFCBAF1010AE0D10F
:10AEF00028464FF00C0908F0CDFD0021052009FB84
:10AF000006790AF0D1FC404608F0C4FD0021052076
:10AF10000AF0CAFC284608F0B8FD002105200AF016
:10AF2000C3FC404608F0B1FD99F8F6A128463E2141
:10AF30005246574D08F0DAFD524640463E2108F091
:10AF4000D5FD582303FB0653C3F81C44FFF70EF945
:10AF500099F8F331022B00F09580032B00F09480D8
:10AF6000012B14BF4FF4C8714FF448714DF07AFEB5
:10AF7000582200214FF0010C02FB0653C3F82414A1
:10AF8000C3F82C14C3F83014C3F83814C3F83C14B5
:10AF900093F85D14C3F828C4C3F8200401F0FF0C33
:10AFA00009B983F85CC402FB06524FF0240C20F070
:10AFB000706082F85DC4236823F001032360206180
:10AFC000A36823F40043A3604FF40043A3606368C5
:10AFD00023F400636360636843F0007343F4004349
:10AFE0006360E36823F40043E360D2F834341B0267
:10AFF000E36000232360216841F0010121602021EA
:10B00000C2F8603482F85D14C2F84C3482F85E34C1
:10B0100092F85D142029C8B217D192F85C14012966
:10B0200013D082F85DC4216821F0010121602168FC
:10B0300021F48051216021682160216841F00101E3
:10B04000216082F85D0482F85C340C23022103FB4A
:10B05000067797F9F54120464DF058FF2046FEF758
:10B06000C3FE97F9F441022120464DF04FFF2046E0
:10B07000FEF7BAFE582303FB0655012385F8183462
:10B08000BDE8F087642171E7C8216FE70000012067
:10B09000302601202DE9F04F9A4685B0431C074623
:10B0A000039288469DF83C2008D0A94E582303FB04
:10B0B000006393F818B4BBF1000F05D14FF0000BFB
:10B0C000584605B0BDE8F08F039BFF2B03D0BAF1C3
:10B0D000000F40F0CE80002A00F0CB8058247C4343
:10B0E000351995F85D34202B40F0D18095F85C340B
:10B0F000012B00F0CC80974B0122D6F800904FF442
:10B1000000411C4485F85C241923CDF800902046AA
:10B11000FEF7C2FF002840F0BA802123C5F8500492
:10B1200085F85D34102385F85E340E9BC5F8600405
:10B13000C5F84034A5F846A4B5F846349BB2FF2BB9
:10B140004ED8B5F846244FF0007392B258214FEA1A
:10B15000480801FB0761A1F84424002A44D0DDF827
:10B1600038C0013AD1F81C541CF8010B92B2A86205
:10B17000B1F84604A1F8442401320138C1F840C4B2
:10B18000D2B280B2A1F846047349009158254146D5
:10B19000204605FB0765FCF7A8FFB5F8463449468D
:10B1A00020469BB21BBB4DF00BFE00286FD1D5F89B
:10B1B0001C342021D9615A6822F0FF7222F48B32AC
:10B1C00022F4FF7222F001025A60582385F85D14C0
:10B1D00003FB0766002385F85E0486F85C346FE79E
:10B1E000FF224FF08073B1E75B490091CEE74DF04D
:10B1F0000FFE00284BD1D5F84034D5F81C2413F8A5
:10B20000011B9162C5F84034B5F84634B5F84424C2
:10B21000013B013A9BB292B2A5F84634B5F84634E8
:10B22000A5F844249BB2002BB7D0002AB5D10A233D
:10B2300080212046CDF80090FEF72EFF38BBB5F8F0
:10B2400046349BB2FF2B0AD9FF224FF08073A5F83A
:10B250004424009041462046FCF747FF9DE7B5F89F
:10B2600046244FF0007392B2A5F84424D2B2009065
:10B27000F0E758247C43351995F85D34202B06D12E
:10B28000BAF1000F0DD14FF40073C5F86034B6F871
:10B290002035384601339BB2A6F82035FFF7CEFDA6
:10B2A0000CE795F85C34012BF1D02A4B0122D6F83B
:10B2B00000904FF400411C4485F85C241923CDF81C
:10B2C00000902046FEF7E8FE0028E0D121234FEA57
:10B2D00048080122C5F8500485F85D3440234146F2
:10B2E00085F85E340E9BC5F860042046C5F84034EE
:10B2F000194BA5F846A400934FF08073FCF7F5FEB8
:10B30000494620464DF084FD0246D0B9D5F81C349C
:10B310002046039999620A238021CDF80090FEF718
:10B32000BBFE70B9B5F846349BB2FF2B16D8B5F802
:10B3300046244FF0007392B2A5F84424D2B2009094
:10B3400012E05823002203FB076383F85C249EE786
:10B35000302601204C2A012000200080FF224FF0DF
:10B360008073A5F84424009058254146204605FBEB
:10B370000765FCF7BAFE494620464DF049FD002816
:10B3800085D1D5F84034D5F81C2413F8011B9162FF
:10B39000C5F84034B5F84634B5F84424013B013AC9
:10B3A0009BB292B2A5F84634B5F84634A5F84424C9
:10B3B0009BB2CBB1C2B90A2380212046CDF80090C0
:10B3C000FEF76AFE00287FF462AFB5F846349BB200
:10B3D000FF2B11D9FF224FF08073A5F84424009071
:10B3E00041462046FCF781FEB5F846349BB2002B5F
:10B3F000C1D149462046D6E6B5F846244FF0007341
:10B4000092B2A5F84424D2B20090E9E72DE9F04FBA
:10B41000B0F1FF3F85B09B4680469DF83C300392DB
:10B4200007D05824C54E4443351995F81824029284
:10B430002AB900230293029805B0BDE8F08F039A61
:10B4400034444F00FF2A04F21C4440F01081002BCA
:10B4500000F00D8195F85D34202B40F0968095F832
:10B460005C34012B00F091804FF0010AD6F8009077
:10B4700019234FF4004185F85CA452462046CDF8CC
:10B480000090FEF709FE00287FD12223C5F8500462
:10B4900085F85D34102385F85E340E9BC5F8600492
:10B4A000C5F84034A5F846B4B5F846349BB2FF2B36
:10B4B000A34B30D9A5F844A4524600934FF08073B3
:10B4C00058253946204605FB0865FCF70EFEB5F801
:10B4D00046349BB2002B7ED1494620464DF070FC8D
:10B4E000002852D1D5F81C342021D9615A6822F0A5
:10B4F000FF7222F48B3222F4FF7222F001025A60B2
:10B50000582385F85D1403FB0866002385F85E0464
:10B5100086F85C348FE7B5F8462492B2A5F8442447
:10B52000D2B200934FF00073CAE74A460A21204680
:10B53000FEF740FDD5F81C3482469A6992062ED457
:10B54000B0F1000A18BF4FF0010A3268A2EB0902FD
:10B550000A2A12D9BAF1000F0DD19B6959070CD4F0
:10B56000D5F8603485F85CA443F02003C5F8603456
:10B57000202385F85D344FF0010AD5F81C349A6910
:10B5800052072DD4BAF1000FCFD0B6F8203540467F
:10B5900001339BB2A6F82035FFF750FC49E7A0B96C
:10B5A0009A699A69D00613D510222021DA61042203
:10B5B000C5F86024D9615A6802EA0B025A6085F81E
:10B5C0005D1485F85CA485F85EA44FF0010ABCE721
:10B5D000C5F860A4B9E74FF0000ADFF86CB1CCE71A
:10B5E000BAF1000FD1D15A6AD5F840341A70B5F8C3
:10B5F0004624D5F84034013A013392B2C5F84034BC
:10B60000B5F84434A5F84624013BB5F846249BB26E
:10B6100092B2A5F84434002A3FF459AF002B7FF4CE
:10B6200056AF0A23524680212046CDF80090FEF7FF
:10B6300033FD0028A9D1B5F846349BB2FF2B0BD9B6
:10B64000FF224FF08073A5F84424CDF800A03946BE
:10B650002046FCF74AFD3AE7B5F846244FF0007360
:10B6600092B2A5F84424D2B2CDF800A0EFE7582555
:10B6700005FB086595F85D34202B86D10E9B23B918
:10B680004FF40073C5F860347FE795F85C34012B04
:10B690003FF47BAF4FF0010AD6F8009019234FF426
:10B6A000004185F85CA452462046CDF80090FEF794
:10B6B000F3FC034600287FF468AF2222C5F850044B
:10B6C000394685F85D244FF0400285F85E240E9AD5
:10B6D000C5F860042046C5F840241A4AA5F846B4C7
:10B6E00000925246FCF701FD494620464DF090FB82
:10B6F0000246D8B9D5F81C342046039999620A232A
:10B700004021CDF80090FEF7C7FC78B9B5F8463473
:10B710009BB2FF2B0A4B19D8B5F8462492B2A5F874
:10B720004424D2B200934FF0007315E05823002256
:10B7300003FB086383F85C2427E700BF3026012061
:10B74000002400800020008000E800FEA5F844A44A
:10B75000524600934FF0807358253946204605FB2A
:10B760000865FCF7C2FC0A23002204212046CDF81C
:10B770000090FEF791FC00287FF407AFD5F81C3449
:10B780005A6AD5F840341A70D5F84034B5F84424D4
:10B790000133013AC5F84034B5F8463492B2013B62
:10B7A000A5F844249BB2A5F84634B5F846349BB2BC
:10B7B000CBB1C2B90A2380212046CDF80090FEF714
:10B7C0006BFC00287FF4E1AEB5F846349BB2FF2B4A
:10B7D0000FD901224FF08073A5F844240090394618
:10B7E0002046FCF782FCB5F846349BB2002BBAD158
:10B7F00072E6B5F846244FF0007392B2A5F84424DF
:10B80000D2B20090EBE70448D0F81C3213B100F537
:10B8100004701847704700BF000001200348D0F8AB
:10B820003C3213B100F50C7018477047000001203E
:10B830000348D0F85C3213B100F514701847704714
:10B84000000001200348D0F87C3213B100F51C70D1
:10B8500018477047000001200348D0F89C3213B10C
:10B8600000F5247018477047000001200348D0F805
:10B87000BC3213B100F52C7018477047000001204E
:10B880000348D0F8DC3213B100F534701847704724
:10B89000000001200348D0F8FC3213B100F53C70E1
:10B8A00018477047000001200348D0F81C3313B13B
:10B8B00000F5447018477047000001200348D0F895
:10B8C0003C3313B100F54C7018477047000001205D
:10B8D0000348D0F85C3313B100F554701847704733
:10B8E000000001200348D0F87C3313B100F55C70F0
:10B8F00018477047000001200348D0F89C3313B16B
:10B9000000F5647018477047000001200348D0F824
:10B91000BC3313B100F56C7018477047000001206C
:10B920000348D0F8DC3313B100F574701847704742
:10B93000000001200348D0F8FC3313B100F57C70FF
:10B94000184770470000012038B5446844F480541B
:10B9500044600BB9012014E040F2E9348568AD077A
:10B960000AD57AB9FF24047340F2E9348568ED07FB
:10B970000BD4013CFAD101E0013CEFD1FDF74CF9C9
:10B98000002038BD12F8014BEDE7047BE4B209B1A9
:10B9900001F8014B013BDCE738B5244C0D230022B4
:10B9A0003621022005F0BBFCC4F8A00210B984F8CF
:10B9B000700238BD002105F033FE012009F084FF3C
:10B9C000D4F8A052686908F060F895F910001423C3
:10B9D000174D002258430A2311462858154DFFF7EA
:10B9E000B3FFD4F8A00205F09DFE48B9D4F8F833AF
:10B9F00084F86402C4F86032012384F87032D8E716
:10BA0000013DEED10221D4F8A00205F009FED4F8E0
:10BA1000A00205F077FC94F86432C4F8A052013318
:10BA200084F8705284F86432C3E700BF30260120E6
:10BA300000000120A18601000023064A52F83310BD
:10BA4000814201D1D8B2704701330E2BF6D1FF20CD
:10BA5000704700BF207106080023064A52F83310D1
:10BA6000814201D1D8B2704701330E2BF6D1FE20AE
:10BA7000704700BF2071060870B507EE902A0E4689
:10BA8000002800F0AC800368F8EE677AD3E9003450
:10BA90001D68534B93ED6F7AB8EE477A87EE270A0D
:10BAA000DFED507A30EE270A55F0D8FB23680138D5
:10BAB000711E9D4280B289B206D16368834203D170
:10BAC000E3688B4200F08B800023E160C4E904331B
:10BAD000A3608023A36194F83D30C4E9005003F0D3
:10BAE000FF020BB984F83C200223211D284684F86C
:10BAF0003D30FCF7E7FF012384F8483084F83E30FE
:10BB000084F83F3084F8403084F8413084F8423083
:10BB100084F8433084F8443084F8453084F8463063
:10BB200084F8473084F83D302F4B9D4216D0B5F154
:10BB3000804F13D0A3F57C439D420FD003F5806363
:10BB40009D420BD003F580639D4207D003F57843F7
:10BB50009D4203D003F570539D4240D194F83C3090
:10BB6000012B3CD0022384F83D30204BAA681340BF
:10BB7000AB60012384F83D30002384F83C301A4B3D
:10BB80009D4212D0B5F1804F0FD0A3F57C439D426A
:10BB90000BD003F580639D4207D003F580639D427F
:10BBA00003D003F578439D4219D10F4902238D42FA
:10BBB00084F83D306B68AA6803D001F580618D423E
:10BBC00001D123F4700323F0700322F080026B6034
:10BBD0000123AA6084F83D30002384F83C3070BD16
:10BBE000000001200AD7233C000001408800FEFF2E
:10BBF0002DE9F84307460068FFF72EFF0D2805469C
:10BC000007DD264A0021052004F0F4FD0020BDE8F0
:10BC1000F883DFF894904FEA800809EB8004D4F8A9
:10BC2000246546BB0721682004F048FE0146C4F89D
:10BC3000240508B91A4AE6E7314668225AF01AF88C
:10BC4000184B29B2D4F8244503F1580203EBC5037D
:10BC5000A46002EBC102986D24622260A463246593
:10BC6000FFF7FAFE0D289FBF4C2309F25C5610FB2C
:10BC700003F3F6186660C144797918220020D9F8D8
:10BC8000243502FB0134C4E90400E76001FB02240F
:10BC9000185502FB01300830B9E700BF891B0708BF
:10BCA000AE1B0708C87006083026012043680068EC
:10BCB000F0B540685C799A79924BC2F34002234414
:10BCC00090F83C40012C93F8C8300FD001240C2B85
:10BCD00080F83C4000F0C48009D8042B63D0082BC6
:10BCE00000F08E807BB3002380F83C30F0BD102B39
:10BCF00000F0DD80142BF6D103681D6A1C6A25F460
:10BD0000001524F4801445EA42527F4D1C625E689F
:10BD1000AB425C6D24F0807424F4E04444F4C044ED
:10BD200003D005F58065AB4201D146F480265E6004
:10BD30005C65D9651A625A6D42F400625A655A6DA3
:10BD400022F48062D9E003686F4F1D6A1C6ABB420F
:10BD500025F0020524F0010445EA42051C625E68F4
:10BD60009C6924F4803424F0730444F0600403D00C
:10BD700007F58067BB4207D11F6A62F3C30546F42B
:10BD8000407627F004071F625E609C6159631D6264
:10BD90009A6942F008029A619A6922F004029A6153
:10BDA0009A699A619FE70368574F1D6A1C6ABB42F4
:10BDB00025F0200524F0100445EA42151C625E6857
:10BDC0009C6924F0807424F4E64444F4C04403D015
:10BDD00007F58067BB4207D11F6A62F3C71546F4B7
:10BDE000406627F040071F625E609C6199631D6298
:10BDF0009A6942F400629A619A6922F48062CEE7FD
:10BE00000368414F1D6A1C6ABB4225F4007524F487
:10BE1000807445EA42251C625E68DC6924F4803443
:10BE200024F0730444F0600403D007F58067BB423C
:10BE300007D11F6A62F3CB2546F4405627F480678A
:10BE40001F625E60DC61D9631D62DA6942F008023C
:10BE5000DA61DA6922F00402DA61DA69DA6142E76A
:10BE600003681D6A1C6A25F4005524F4805445EAD1
:10BE70004232254D1C625E68AB42DC6924F080745E
:10BE800024F4E64444F4C04403D005F58065AB4295
:10BE900001D146F480465E60DC6119641A62DA6999
:10BEA00042F40062DA61DA6922F48062D4E703685E
:10BEB0001D6A1C6A25F4003524F4803445EA4242A8
:10BEC000114D1C625E68AB425C6D24F4803424F03A
:10BED000700444F0600403D005F58065AB4201D1E5
:10BEE00046F480365E605C6599651A625A6D42F070
:10BEF00008025A655A6D22F004025A655A6D5A6555
:10BF0000F1E600BFC87006080000014043685A7996
:10BF1000032A0FD8DFE802F00205080B1868343056
:10BF2000704718683830704718683C307047186898
:10BF30004030704700207047D0E90032517958688E
:10BF4000054B0B4493F8C81093795B0701D550F06B
:10BF500003BE50F069BE00BFC87006082DE9F84363
:10BF600043680446264F88461B69C3F3032307EB47
:10BF700083031E6AC3685D68EFF31189102383F39E
:10BF800012884268284611685279CB6807EB420252
:10BF9000B2F8402002F4F05223EA0203CB603146AB
:10BFA000FEF70EFCE3681A69596820231F2A24D97A
:10BFB000203A9340CB605FFA89F989F311883744BE
:10BFC0002046FA7D67692A4453686FF30F0343EAFA
:10BFD00008035360FFF79AFF0A4B9B5D5A19D7601D
:10BFE0009060EA5842F01002EA50EA5842F001022A
:10BFF000EA5001232374BDE8F88393408B60DAE7AD
:10C00000C8700608DF7006080268137E012B26D16F
:10C01000022313764FF4007392F83010012904D1F3
:10C02000022143F4806382F8301092F8481001290D
:10C0300004D1022143F4006382F8481092F86010A2
:10C0400001290ED1022143F4805382F86010126856
:10C05000002112685162D1680B43D36003E00023D2
:10C06000DAE7002BF3D17047024B0348D3F82415CD
:10C07000FDF72CB8302601200000014010B5064C19
:10C080000648D4F82415FDF721F8D4F848150448DB
:10C09000BDE81040FDF71AB830260120000001402D
:10C0A00000440140034B4FF08040D3F82815FDF7C2
:10C0B0000DB800BF30260120024B0348D3F82C15E1
:10C0C000FDF704B83026012000040040024B03486D
:10C0D000D3F83015FCF7FABF3026012000080040E5
:10C0E000024B0348D3F83415FCF7F0BF302601208B
:10C0F000000C0040024B0348D3F84015FCF7E6BFA4
:10C10000302601200004014010B5064C0648D4F842
:10C110004015FCF7DBFFD4F854150448BDE8104087
:10C12000FCF7D4BF3026012000040140001C004071
:10C1300010B5064C0648D4F84015FCF7C7FFD4F8F4
:10C1400058150448BDE81040FCF7C0BF3026012058
:10C150000004014000200040024B0348D3F844157E
:10C16000FCF7B4BF3026012000400140024B0348D9
:10C17000D3F84C15FCF7AABF302601200048014037
:10C18000024B0348D3F85015FCF7A0BF302601201E
:10C1900000180040404B8EB01A6B42F480221A63A4
:10C1A0001A6B02F480220092009A1A6B42F48012F9
:10C1B0001A631A6B02F480120192019A1A6B42F40C
:10C1C00080021A631A6B02F480020292029A1A6BBE
:10C1D00042F000521A631A6B02F000520392039A63
:10C1E0001A6B42F080421A631A6B02F0804204928A
:10C1F000049A1A6C42F400321A641A6C02F4003287
:10C200000592059A1A6C42F480221A641A6C02F4A0
:10C2100080220692069A1A6C42F400221A641A6C62
:10C2200002F400220792079A1A6C42F480121A64F0
:10C230001A6C02F480120892089A1A6C42F080423A
:10C240001A641A6C02F080420992099A1A6C42F040
:10C2500000421A641A6C02F000420A920A9A5A6C5E
:10C2600042F010025A645A6C02F010020B920B9AC0
:10C270005A6C42F020025A645A6C02F020020C926E
:10C280000C9A5A6C42F400625A645B6C03F40063CB
:10C290000D930D9B0EB0704700380240074B03EB27
:10C2A0008003D3F8CC3033B193F8C5204A7093F8AB
:10C2B000C4300B7070474B70FBE700BFC8700608B6
:10C2C0002DE9F84317462B4A9946054602EB8003B1
:10C2D000D3F8CC408CB304F1C603EC3294F8C5001B
:10C2E000261DA36104F5E3736260E3614FF480737C
:10C2F000E160C4E904332368C4F8C030A36307F0E5
:10C300001BFC19F0080F94F8C48019D00135EDB268
:10C3100018B140F20673C380057294F8CE22022150
:10C3200007F0E4FBD4F8D01294F9CF024CF0EEFD04
:10C3300094F9CF023446FDF757FD2046BDE8F88357
:10C34000BA070BD56B1CDBB218B140F20652037270
:10C35000C28094F8CE22022107F0C8FBFB07E1D58A
:10C360000135404607F0E8FBEDB20028D5D040F299
:10C370000663D0E7C87006080148FEF745B800BF5D
:10C38000140401200148FEF73FB800BFE806012071
:10C390000148FEF739B800BFBC0901200148FEF78B
:10C3A00033B800BF900C01200148FEF72DB800BF44
:10C3B000640F01202423826870B5C0F8B0300023D8
:10C3C000456B044600F134062B606B60AB60826302
:10C3D0008279C0F8B8309102C0F8B03080F8AC3043
:10C3E00001F48051C0F8B430C364C1631103C0F8D4
:10C3F000943001F40051C0F8983043650164110293
:10C40000437901F48061416403F0010013F00203F9
:10C410004FEA800118BF41F0080112F0010FA1643A
:10C42000A16D0ED028B141F00201A1654FF4803119
:10C430002166A16D2BB141F001014FF40033A165DC
:10C44000E365242312F0080FD4F8B020C4F8B0300C
:10C450002B68A16D23F001032B6035D011B130465C
:10C46000FCF784FB3046FDF7A5FE012812D06B686F
:10C4700023F490436B60AB6823F02203AB60AB689E
:10C4800043F00803AB6030462B6843F001032B6098
:10C4900050F016FB6179CA070DD5D4F8BC301A6884
:10C4A00042F480721A609A6842F001029A601A6837
:10C4B00042F020021A608B0705D5D4F8BC2013681F
:10C4C00043F08003136070BD11B13046FCF74EFBA2
:10C4D0003046FDF76FFE0128DCD06B6823F49043F3
:10C4E0006B60AB6823F02A03CCE7816062E741719F
:10C4F00060E781715EE710B51C2007F01DFB044664
:10C50000112107F0CDFA204607F0C4FAC82009F03F
:10C51000DBF92046BDE8104007F0B7BAB84A2DE96C
:10C52000F04FD2F8844989B0636913F00103049392
:10C5300040F04C826169A369194200F04782D4F847
:10C54000083804F5006BC3F30D23C2F8583E636945
:10C55000A1690B409E0703D5636903F00203636181
:10C560006369A1690B40DD0638D5A36923F0100388
:10C57000A361236A03F4F01003F00F01B0F5802FDC
:10C5800040F03D8247F6F070034221D024201F097D
:10C59000C3F38816002500FB0120C3F3011304F543
:10C5A000805CD0F8E40BAE4200F21382002B40F026
:10C5B00016822423C7F30A0703FB0123D3F8E41BE5
:10C5C0003944C3F8E41BD3F8EC1B3944C3F8EC1B23
:10C5D000D2F884198B6943F010038B61D2F8843947
:10C5E0005A6999690A40100300F12082DFF810921D
:10C5F000D9F884395A6999690A40510312D5D3F898
:10C60000182803F5006309F6841704F5106ADB693E
:10C61000002513409BB20193019BD9F88409002B9C
:10C6200040F0E684764ED6F884596A69AB691A42BE
:10C6300017D5DBF8043023F00103CBF8043096F86B
:10C64000503E012B15BFD6F8603E002393F8FD2124
:10C6500086F8503E18BF83F8FC216B6903F0004355
:10C660006B616B69AA6913401A0510D5DBF80830B5
:10C67000DB0708D5D6F8603E93F8FC2183F8FD214E
:10C68000042283F8FC216B6903F400636B616B691E
:10C69000AA6913401F0110D56B6903F000636B6139
:10C6A00096F8503E002B40F0B385012386F8503EAB
:10C6B0006B6DC3F38303C6F8543E6B69AA691340DC
:10C6C000D8043AD5DBF804301021284623F00103C2
:10C6D000CBF80430FEF7B8F896F8880904F5106333
:10C6E0004FF67F31049A8242C0F09D85DBF81C3002
:10C6F00043F00113CBF81C3096F89339002B00F06F
:10C70000AD85DBF8843043F00B03CBF88430DBF8E5
:10C71000443043F00B03CBF84430D4F800382846BB
:10C72000384A23F4FE63C4F8003896F88A1950F0AA
:10C730004CF96B6903F480536B616B69AA69134010
:10C74000990440F1BE80D5F800396FF30A03C5F8AB
:10C750000039D5F8042842F48072C5F80428D5F8C9
:10C76000083813F0060104D013F0020F14BF0221A1
:10C770000F21254B022986F88B19D3F8BC2140F0F4
:10C780008F85224B22481344834240F27785214B08
:10C7900021481344834240F27485A2F574031F4874
:10C7A000A3F51053834240F26F85A2F183731C48B6
:10C7B000A3F5E7438342C0F06A851A4B1A48134435
:10C7C000834240F26785194B194813448342C0F0F5
:10C7D0006485184B184813448342C0F06185A2F168
:10C7E000B7731648A3F558538342C0F05C85144BC9
:10C7F0001344144A93422CBF0623072324E000BFAE
:10C80000302601205034012000000120405327FF32
:10C81000FF340C00401E1BFF3F420F007F4F1200F1
:10C8200020D6130060B6E5FE5FE3160000D3CEFE0F
:10C8300040771B00C05BB3FEC0912100207538001B
:10C84000E05459FEE09C4100EA68B1F10008D9F8D3
:10C85000607E22F4705218BF4FF00108D7F8300202
:10C86000EA60EA6842EA83230022EB604025114631
:10C8700040234FF0B7FF2B4600228021D7F830022B
:10C88000C7F810514FF0AEFF01233D6287F8FC312D
:10C89000D7F818322BB9D7F8203213B9D7F8283285
:10C8A0002BB1D7F81432384639795B689847D6F8F7
:10C8B000603ED6F8842983F81080536903F400534E
:10C8C0005361D6F884295369926913401A0710D529
:10C8D000D6F8600E90F8FC31032B04D1D0F8143256
:10C8E000DB6903B19847D6F88429536903F008033C
:10C8F0005361D6F884596B69AA6913401B0600F18D
:10C90000D5846B69AA691340DF020DD5DFF8C082B8
:10C9100004F51269012796F888399F42C0F0DD843A
:10C920006B6903F480136B616B69AA691340980209
:10C930002CD596F888E904F5326CA548012777458F
:10C9400020D290F87C22DCF80010012A40F0DB8431
:10C95000002980F2D884D6F8583E83EA1143D907DB
:10C9600000F1D18480F87B22A36943F08003A361A6
:10C9700063691B0600F1C784DBF8043043F40073DD
:10C98000CBF804306B6903F400136B616B69AA691F
:10C990001340590003D56B6903F080436B616B69E9
:10C9A000AA6913405A0711D56C68630709D5D6F8F0
:10C9B000600E012380F8FC31D0F8143201795B68F5
:10C9C0009847D6F884395A6814435C6009B0BDE8CA
:10C9D000F08FDCF800E040F825E00135E3E500EBFE
:10C9E000860504F58050D0F800C00020C6002CFA5F
:10C9F00006F62E54013086B29E42F7D1D9E5B0F545
:10CA0000402F7FF4E5AD04F58050C3F30A130568A9
:10CA1000C2F8205E0068C2F8240E242000FB012129
:10CA2000D1F8EC0B0344C1F8EC3BD1E5D3F818285E
:10CA300003F5006304F5306A654FDB690026134097
:10CA40001B0C0293634BD3F88409029B002B3FF429
:10CA5000CDAD029B13F00103039300F07E8100F53E
:10CA600030634FEA461803EB46139968D0F8142850
:10CA70000A400192D20719D5564D012295F88AC96C
:10CA8000CAF80820BCF1010F016C9A6840F081805F
:10CA9000150707D55048814208D9120406D54FF42E
:10CAA000004202E0950652D520229A60019B1807A9
:10CAB00040F12A8108234848CAF80830454BD3F88A
:10CAC00084391A6C03F530630592434405999A68DA
:10CAD000814204D9110402D54FF400429A60DFF874
:10CAE000F4900121D9F8605E99F820CE05F502781E
:10CAF00085F808C299F821EE85F809E2B9F8223ED6
:10CB0000A5F80A32B9F8240EA5F80C02B9F8262EB9
:10CB1000C5E97D120CF01F01A5F80E22012900F0D5
:10CB20009681022900F0A881002940F05E82BEF1C2
:10CB3000090F00F2B480DFE81EF061017F01B2004E
:10CB40007301B200AC004000B20050011A01DFF8DE
:10CB500088C0614501D91504A1D41A69D7F8743287
:10CB6000C2F312029B1AC7F8683276B9194AD2F892
:10CB7000E81B29B902F5626201214FF026FF04E0AB
:10CB8000D2F8E41B1944C2F8E41BF0B24FF0A7FE40
:10CB90008CE7DFF848C0614507D111043FF57FAF4E
:10CBA0009506F2D520229A60EFE70A4BD3F8E81BEE
:10CBB0003143EAD103F56262DFE71A0A013A062A35
:10CBC0006DD8DFE802F00D26336C6C535C0000BFBB
:10CBD000B42F0120302601200A30544F0A31544F1F
:10CBE000D5F810321B680DF11E01287C9847BDF85E
:10CBF0001E20002A79D0B5F80E32002B75D09A424B
:10CC0000014628BF1A46ADF81E2028464FF0A4FE64
:10CC10006BE02A7CD5F8143232B99B6A0DF11E0004
:10CC2000984702234370E2E7DB6AF7E7DBB2052BA4
:10CC300035D8DFE803F003070B0F1317D5F81032D0
:10CC40005B68D0E7D5F810329B68CCE7D5F8103296
:10CC5000DB68C8E7D5F810321B69C4E7D5F8103295
:10CC60005B69C0E7D5F810329B69BCE72B7CB3B990
:10CC7000D5F814320DF11E005B6B9847B7E72B7C9B
:10CC80006BB9D5F814320DF11E001B6B98470723C2
:10CC9000C8E7104303D195F8FC21032A01D12846A7
:10CCA0008BE003F07F08D5F8303285F8FE8193F8E9
:10CCB0009424012A10D01A6883F81180D2F8001841
:10CCC00021F4FE61C2F80018D2F8001841EA0811F8
:10CCD000C2F8001883F8940428464FF0F7FDB8F125
:10CCE000000F42D0022385F8FC31059BB44A9342E1
:10CCF0000AD9B44B93F88A19012905D103F5626268
:10CD0000D3F884094FF061FE019BD90602D51023A8
:10CD1000CAF80830019B9A0712D563691B0605D52E
:10CD2000DBF8043043F48063CBF8043097F85732D3
:10CD3000012B04BF002387F857320223CAF80830BA
:10CD4000019B9D0602D52023CAF80830019B980458
:10CD500003D54FF40053CAF80830029B01360AF19C
:10CD6000200A24375B0802936CE60123BBE7D9B2A3
:10CD7000012989F8641E92D895F8FC31022B0FD056
:10CD8000032B8CD1E1B902232846696085F8FC3178
:10CD9000D5F814325A68904728464FF097FDA4E71B
:10CDA0000029F9D001210323696085F8FC31284668
:10CDB000FBF7AAFF02282846EFD14FF074FE94E754
:10CDC00069680129E8D0D5F81432C9B228465B68F1
:10CDD000984799F8641E6960E9E7012A7FF45FAF1C
:10CDE00095F8FC31022B04D0032B7FF458AF291D9A
:10CDF0000BE72946002341F8083F06E795F8FC3188
:10CE0000023B012B3FF64BAFD5F8043229460222F4
:10CE1000002B039B18BF0323039341F80C3FF4E658
:10CE2000012B7FF462AFC5F80432D5F814324146C5
:10CE300028469B689847AFE795F8FC21023A012AFB
:10CE40003FF62DAF012B7FF450AF0023EBE795F8B1
:10CE5000FC31032B7FF423AFC0B203283FF61FAF92
:10CE6000D5F81432414628469B689847B5F80E32EB
:10CE7000002B7FF43AAF8FE70CF0600CC1B2BCF12D
:10CE8000200F06D1D5F81432414628469B689847B2
:10CE90002BE7BEF1010F43D0BEF1030F30D0BEF13E
:10CEA000000F7FF422AF95F8FC31022B00F0958043
:10CEB000032B7FF4F4AE40B210230028B5BF01F07D
:10CEC0007F0203FB015303FB025303F58273D5F882
:10CED0003022B8BF143300284FF02400B5BF01F052
:10CEE0007F0100FB012200FB012192F85622B8BF0E
:10CEF0008A7D1946003A18BF01221A60022284E690
:10CF000095F8FC21022A68D0032A7FF4C8AE002BD2
:10CF10008BD14A0689D0D5F830024FF07BFD84E7EB
:10CF200095F8FC21022A58D0032A7FF4B8AE002BD2
:10CF30007FF4DBAE4B063FF42FAFD5F830C201F0E3
:10CF40000F019CF804308B42FFF46FAF01EBC1027C
:10CF500010F0800F4FF024034FEA820234D01432D5
:10CF600003FB01C3012062445875002311709370C4
:10CF70009CF89434012B3FF458AF01238CF894347F
:10CF8000107811795278DCF800300239012A4FF01C
:10CF90002002C9B20CBF03F5106303F53063012909
:10CFA00012FB00331A6822F400121A6003D81A68C0
:10CFB00042F080521A6000238CF8943435E700BFA9
:10CFC0000A30544F3026012002F5157203FB01C3CD
:10CFD0000020624483F85502C7E748063FF485AE57
:10CFE000D5F830024FF016FD7FE60CF08001F7E730
:10CFF000019BD90740F10381D0F81028EBB2D0F89B
:10D00000341805F00F0602936B0121FA06F803931A
:10D0100000F510634FEAC81803EB45135FFA88F870
:10D020009B6848EA020808EA030818F0010F3DD09F
:10D030000121DBF8343001FA06F223EA0203CBF8CF
:10D040003430CAF8081099F88A1901290AD1D7E9A9
:10D05000072313443B62D9F8A8392B4302D1AD4AC8
:10D060004FF0B3FCD9F8606E3A6A002D40F096801C
:10D07000D6F8F431022B12D1D6E907318B4266D9AA
:10D080005B1AD6F830022946F3619BB24FF00AFBD7
:10D090002B462A462946D6F830024FF0D3FA96F8A6
:10D0A0000032012B02D1002386F8003218F0080F5D
:10D0B00002D00823CAF8083018F0100F02D010234D
:10D0C000CAF8083018F0400F02D04023CAF80830E0
:10D0D00018F0020F0BD029462046FDF7B5FBFB7D6B
:10D0E000012B04BF0023FB750223CAF8083018F097
:10D0F000800FD9F8841900F08280D7E909329A426A
:10D100007DD89B1AFA6901F5805C01F5106693429F
:10D1100099F88AE90CEB053C28BF13466A010333F2
:10D1200016449B08D6F818801FFA88F89845D7E966
:10D13000092062D390423FD305F00F000122D1F8BD
:10D140003438824023EA0203C1F8343857E0B36927
:10D15000B3FBF1F201FB12327AB999420DD8D6F83D
:10D16000F821934209D22B462A462946D6F83002A6
:10D170004FF098FAC6F8F8518AE7D6F81432DB680F
:10D180002BB196F8FC21032A01D13046984705239C
:10D19000C6F8F43100231A4619467CE7D6F8143253
:10D1A0005B69002B82D096F8FC21032A7FF47EAFC6
:10D1B00002993046984779E7121AFB699A4228BFCC
:10D1C0001A46D31C9B08BEF1000F06D0386A1044E3
:10D1D0003862B86A1044B862A4E790B2D7F82080E9
:10D1E0000330800808EB8000029002984045EDD0A3
:10D1F00058F8040BCCF80000F7E790429CD2019B52
:10D20000013524370AF1200A5B080193FFF704BABD
:10D21000D6F8603E93F8FC2183F8FD21042283F8C0
:10D22000FC21FFF74ABA9960203353F8202C22F4EE
:10D23000001243F8202CC3F8E811D3F8E02122F4BF
:10D240000012C3F8E021D3F8E02142F00062C3F8F5
:10D25000E021049A01320492FFF744BADBF814305B
:10D2600043F4005343F02B03CBF81430DBF81030B9
:10D2700043F00B03CBF81030FFF74FBA0F23FFF743
:10D28000E3BA0E23FFF7E0BA0D23FFF7DDBA0C2354
:10D29000FFF7DABA0B23FFF7D7BA0A23FFF7D4BA9E
:10D2A0000923FFF7D1BA0823FFF7CEBAA3690127F4
:10D2B000DFF8648023F08003A36196F888399F42E9
:10D2C000BFF41FAB98F87B32012B02D1F8B24BF0C0
:10D2D0004BFE013708F12408EFE798F83C30D9F805
:10D2E0000020012B08D1002A06DA67F07F0088F8B9
:10D2F0003B30C0B24BF038FE013708F1240809F189
:10D300002009FFF708BB01370CF1200C2430FFF790
:10D3100016BB00BF50340120B42F01202DE9F04787
:10D32000414DD5F8A442E6682769B80708D5B1078A
:10D3300006D56FF002032361A369002385F8C0328C
:10D340007A0708D5730706D56FF004032361A36934
:10D35000002385F8C032380708D5310706D56FF0AD
:10D3600008032361E369002385F8C032FA0608D573
:10D37000F30606D56FF010032361E369002385F8F7
:10D38000C032F80731D5F1072FD56FF001032361C3
:10D39000264B9C4229D1D5E99183984525D094BF4D
:10D3A000A3EB0809C8F58059D5F82032204A1FFAA6
:10D3B00089F1D3F814A24244C3F81012C3F808222A
:10D3C000BAF1000F11D10121C844D5F83802C3F8D1
:10D3D00014121FFA89F381214FF064F9B8F5805FC8
:10D3E00014BF43465346C5F8443217F4025F04D0D5
:10D3F000320602D56FF402532361FB0504D53506CE
:10D4000002D56FF480732361780604D5710602D5C6
:10D410006FF040032361BA0604D5B30602D56FF05E
:10D4200020032361BDE8F08730260120001400406E
:10D43000C05601202DE9F041114E04460D46D6F8A4
:10D440002022D2F81432002BFBD16719DFF8348088
:10D45000BC4202D12846BDE8F081D6F8483214F823
:10D46000012B08F803200133C3F30B03C6F848323D
:10D47000FBF73AFD0028EBD1012008F025FAF7E789
:10D4800030260120C0560120F8B50D461446FBF7A2
:10D490002DFC78B1084ED6F8F873002C0ADD214631
:10D4A0002846FFF7C7FFD6F8F833241A0544DB1BDC
:10D4B000322BF2D9F8BD00BF30260120034BD3F840
:10D4C0009C0208B106F0D8BA01207047302601202E
:10D4D00008B5FFF7F3FF0A4A18B9002382F8703243
:10D4E00008BD92F864320133DBB2072B82F8643254
:10D4F000F3D8D2F8F833C2F860320123EEE700BF68
:10D5000030260120F0B5C34C85B0D4F8A002002825
:10D5100060D094F87032013B082B44D8DFE813F058
:10D5200009005C00DE004300A4012F0180014300DC
:10D53000DD01FCF717FB00210846FCF79BFB0546C5
:10D54000FCF720FB012D29D1002684F86662FCF748
:10D5500009FB40F2AB110820FCF78CFB05280AD12F
:10D5600084F86652FCF70EFB94F86632A3B10223EE
:10D5700084F87032CDE70128F4D10423324669469D
:10D58000D4F8A0024DF08AFE9DF80330AB2B04BF07
:10D59000022384F86632E5E784F870320221D4F879
:10D5A000A00204F03DF894F87032013B022B08D839
:10D5B000D4F8F833D4F860229B1AC82B01D9FFF7AE
:10D5C00087FF94F87002042800F09781A0F1080307
:10D5D0005842584105B0F0BDFCF7C4FA94F86652C1
:10D5E00000213720AA1E55425541FCF743FB292054
:10D5F000AD072946FCF73EFB0546FCF7C3FA002DB4
:10D60000CCD194F86632022B17D1FCF7ABFA29463D
:10D610003A20FCF72FFB064604232A466946D4F835
:10D62000A0024DF03BFEFCF7ADFA16B1FFF750FF3C
:10D630006FE7009D2DBAC5F3807584F86752FCF73B
:10D6400091FA00210920FCF715FB10B1FCF79AFABA
:10D65000A4E710217048FCF7C5FA06460028F5D16A
:10D6600001217F204BF0C0FA01280546EED10221AE
:10D6700030464BF0B9FA50B10128E7D116213A20D3
:10D680004BF0B2FA01308002C4F8740218E00421B1
:10D690002C204BF0A9FA032107464E204BF0A4FAA8
:10D6A00006460C2136204BF09FFA0236431CBD4043
:10D6B000B340A3FB05355B0A43EAC553C4F8743293
:10D6C000FCF760FAFCF74EFA00210A20FCF7D2FAC8
:10D6D00008B903234CE7FCF755FAA7E71021684681
:10D6E000FCF780FA00287FF459AF9DF8003084F8E9
:10D6F0007A32BDF801305BBAA4F878329DF8033075
:10D7000084F87B32019BC4F87C329DF808301A09FA
:10D7100003F00F0384F88532DDF8093084F88422A1
