:020000040800F2
:10000000000001109DAB0308F33F00089D67020844
:1000100059AC030859AC030859AC030800000000B0
:10002000000000000000000000000000F13F000898
:10003000EF3F000800000000ED3F00083506030810
:1000400059AC030859AC030859AC030859AC030870
:1000500059AC030859AC030859AC030859AC030860
:1000600059AC030859AC030859AC0308CD48000843
:10007000B9480008A5480008914800087D480008D4
:10008000694800085548000859AC030859AC0308F2
:1000900059AC030859AC030859AC030859AC030820
:1000A0000D4A0008E5490008BD490008354A000826
:1000B000A9490008954900088149000859AC03087E
:1000C00059AC030859AC030859AC030859AC0308F0
:1000D00059AC0308F94B0008ED4B0008E14B000850
:1000E00059AC030859AC0308F5540008314900081D
:1000F00009490008E148000859490008414800083A
:1001000059AC030859AC03086D49000859AC030801
:10011000D54B0008C94B000859AC030859AC03087B
:100120002D4800081948000805480008F147000854
:10013000DD47000859AC030859AC030859AC030863
:1001400059AC030859AC030859AC0308053A000838
:10015000C9470008B5470008A1470008BF4B000881
:1001600059AC030859AC030859AC030859AC03084F
:1001700059AC030859AC030859AC030859AC03083F
:0801800059AC030859AC030857
:1001880030B5002301385A1C845C64B9DBB20A4AD2
:1001980001335B000B80137003235370022310F8A4
:1001A800015F15B930BD1346EDE7591CC9B2D554E6
:1001B8000233DBB25454F2E7D01C00202DE9F04F93
:1001C8002DED108BDFEDAF5A8DB002230090039117
:1001D8000B9201910293B0EE655A019B009AD908DF
:1001E8004FEA411902EB090CCA00182008926FF077
:1001F80017024A4300FB01F428200CEB0207049481
:1002080000FB01F4079430200C0107EB0906B51830
:10021800069400FB01F43820059400FB01FB05EB74
:10022800090400982244DB0002EB090800F1040EDF
:100238004FF0000ADCED007A1EED017AD7ED003AA6
:10024800D5ED004A98ED003AD2ED002A77EE276AFC
:1002580037EE677AD6ED007A33EEA76A73EEE73A9F
:10026800D4ED007A34EEA74A74EEE77A72EE834A48
:1002780036EEC48A36EE640A76EE846A36EE246A6E
:1002880072EEC32A76EE864A76EEC66A4EED014ACB
:10029800CCED006ADEED004A9CED016A97ED014A5B
:1002A80095ED013AD8ED011A74EE866A34EEC66A05
:1002B800D6ED014A34EE242A34EE644AD4ED014ADC
:1002C80033EE241A73EE644A92ED013A73EE210A72
:1002D80033EE613A76EEC11A76EE816A32EE601A32
:1002E80032EE202A76EE820A76EEC26ACEED000A57
:1002F800CCED016A78EE016A38EE412AC5ED006A54
:1003080071EEC06A84ED002AC5ED016A70EE216ABB
:1003180034EE432AC4ED016A73EEA26A73EEE21A60
:1003280034EE034AF0EE673AE6EEE53A9C441D44A3
:10033800E6EEA57A1C449E44F0EE462AF0EE466AA4
:10034800B0EE646AB0EE473AA4EE256AA1EEA57A4B
:10035800E2EE652AE2EE256AB0EE642AA1EEE53AFD
:10036800A4EE652A77EE064A37EE467AC7ED004ACC
:1003780088ED007A33EE027A33EE423A86ED007A5F
:1003880036EEE77A77EEA67A82ED003A87ED017AC3
:10039800C8ED017A72EEE37A73EEA23AC6ED017AFD
:1003A800C2ED013A01988244039850451F441E4407
:1003B8001A4498443FF63EAF072940F26881009AF4
:1003C80000984A440A92089A02440992079A0244F9
:1003D8000892069A02440792059A02440692049AE1
:1003E800024405920BEB000204924FF001094FF012
:1003F800000A029A92440B9A4FEACA042244D2EDA8
:10040800001A224492ED008A2244D2ED004A224486
:1004180092ED009A2244D2ED003A22446FF02F0068
:10042800D2ED000A2244D2ED002A00FB0A2292ED06
:10043800011A00982244D2ED018A224492ED014A21
:100448002244D2ED019A224492ED013A224492EDDF
:10045800010A224492ED012A4FEAC90200EB020880
:100468000A9800EB020E099800EB020C089887180E
:100478000798861806988518059884180498CB4616
:10048800024401E0F304353FDEED007ADCED006A5A
:1004980097ED007A98ED00AA96ED00BA94ED00EA7F
:1004A8003AEE276A36EEC7DA3AEE67AA76EE877A28
:1004B800D5ED006A3BEE267A3BEE66BAD2ED006ACD
:1004C8007EEE26AA36EE47FA77EEEAEA36EE076AB5
:1004D80077EEAA7A3EEE66EA36EE277A76EE67AAD5
:1004E80088ED007A98ED016ADEED017ADCED01CA4B
:1004F800D6ED016AD4ED01FAD2ED01DA36EE277AAB
:1005080076EE67BAD7ED017A3CEEA76A7CEEE7CAC9
:10051800D5ED017A36EEA7CA76EEE77A7FEEAD6AB8
:100528007FEEEDDA77EE4CFA37EE0CCA36EE667AE5
:1005380036EE266A7FEE076A3FEE477A3CEE06FA09
:100548003CEE46CA88ED01FA29EE8C6A3FEEEEFAD7
:10055800A9EE2A6A98447EEEAFEA8EED006A2AEE8A
:10056800E96A7DEE4EAAA9EE0C6AB0EE4ACA8EED93
:10057800016A28EE8F6AAAEEC5CA9E44A8EE266ACA
:1005880066EEE86A86ED006AE8EE0F6A3CEEED6A10
:10059800C6ED016A60EE2E6AAAEE85AA1E44E0EE58
:1005A800876A27EE407AC5ED006AA0EEAE7A7DEE46
:1005B8000E6A85ED017A3CEEAD7AF0EE6BCAE6EE96
:1005C80005BA1D44E6EE45CAB0EE6B6AF0EE67BAAE
:1005D800E7EE45BAE7EE057AF0EE4BAAA6EE85BA45
:1005E8003CEE2B7AE6EEC5AA7AEE276A7AEE677AAF
:1005F8003CEE6BAA36EE4BCA3BEE066A61EE0CBACD
:100608003CEEEABAE1EEA6BA66EEC16ACCED00BAF3
:10061800E1EE8C6A7AEEACAACCED016A62EE066A6B
:100628009C44E2EEA76AC2ED006A67EEC26A63EE16
:100638000B7AE2EE866AE3EE877AC2ED016A27EE6C
:10064800437AC7ED007A64EE2A7AA3EE8B7A1A44CD
:10065800E4EE8A7A87ED017AC4ED007A6AEE447A8C
:100668001F44E4EEAA7AC4ED017A01988344039802
:1006780058451C443FF608AF09F1010949457FF484
:10068800B8AE029BDB009BB2CDE90113A5E50DB026
:10069800BDEC108BBDE8F08FF0B59F083F010D460B
:1006A8001446C619B04205F1100504F1100408D12A
:1006B80003F0030339443A4406EB83039E4223D1F3
:1006C800F0BD84469CED006A15ED045AD0ED016A30
:1006D80055ED037A90ED027A55ED025A26EE056A39
:1006E80066EEA76AD0ED037A04ED046A15ED016A97
:1006F80044ED036A27EE257A67EE867A103004ED1A
:10070800027A44ED017ACDE7F6EC017AB1EC017A90
:1007180067EE877AE2EC017AD0E7012380F8493066
:100728007047044B586B18B1586B431F58425841D7
:10073800704700BFD01C0020064AD2E90E138B4236
:10074800FDD0D1180133C3F30A03D36391F84000F5
:10075800704700BFD01C0020044BD3E90E309842EC
:1007680088BF03F50063181A704700BFD01C00202B
:100778000120704770477047704730B5104CD4E976
:100788000E329A4286BF03F50065AA1A9A1A0A44DD
:10079800B2F5006F11D801440022814203D102B1A1
:1007A800A363002030BDE21810F8015B82F84050C6
:1007B8000133C3F30A030122EFE70220F2E700BF87
:1007C800D01C0020064AD2F84038D2F84428934278
:1007D80094BF4FF400600020013B9B1A18447047F7
:1007E800D01C0020EEE7212838B50C461BD0222863
:1007F8002BD0202815D1A1B1072A12D1194DD5F82F
:10080800483813B10968002098472368C5F84C3860
:10081800237985F85038637985F85138A37985F8B4
:100828005238002038BD0029FBD0072AF9D10D4BDA
:10083800D3F84C280A6093F850280A7193F8512885
:100848004A7193F852388B71EBE70029E9D0022AF4
:10085800E7D1044BD3F85438002BE2D009880020A4
:100868009847DEE7D01C0020014B002058637047F2
:10087800D01C0020044B002005225A63C3F85408FA
:10088800C3F84808704700BFD01C00207047704765
:100898007047704770477047704708B50248FFF7C0
:1008A8006FFC024808BD00BFB0480408D01C0020F7
:1008B80008B50248FFF764FC014808BDBE480408B3
:1008C800D01C002008B50248FFF75AFC014808BDB3
:1008D800C9480408D01C002008B50248FFF750FC9E
:1008E800014808BDD3480408D01C002008B50248B8
:1008F800FFF746FC014808BDD8480408D01C002072
:1009080004230B80004870470000002012230B804E
:1009180000487047040000202DE9F74F704D9146BC
:10092800D5F85848B5F85C28C2EB24135200C2EB3E
:10093800E402B5F95E485B436243B5F960481B13AE
:100948005C43A41304EBE224B4F5FA3E8846AEFBFC
:100958000E12CDE900124FEAE47343F1FF3C019A0D
:10096800C5F874480EFB0CF302EB4303B5F9642891
:10097800019302FB0CF1D3170EFB0311A2FB0E230C
:100988000B44190341EA12511003019EB5F9662878
:1009980002FB06FA009ED31706FB03AAA2FB062356
:1009A80053444FEA122A4AEA036AB5F862284FEA22
:1009B800232B1AEB00004BEB010B00304BF5004BDF
:1009C800A0FB020102FB0B114A10CB1752EA0301EC
:1009D80000F08480B5F96C08019E00FB06F7009EC4
:1009E800C11706FB0177A0FB0601B5F96A6839440F
:1009F80006FB0CFCF7170EFB07CCA6FB0E6767443B
:100A08004FEA474E4FEA464C1CEB000C4EEAD63EE6
:100A18004EEB010ED5F87818B5F96868C1F5801164
:100A2800CF174FEAC77A4AEA510AC807002111EBE3
:100A38000C014FEAC60747EB0E0E40F63546401A42
:100A48006AEB0E0AA0FB060106FB0A1139F0BCFE90
:100A5800B5F972284E13470B47EAC14702FB06FC5B
:100A6800D31707FB03CCA2FB07236344564307FBBA
:100A78000366A2FB07233344560E46EAC316B5F9AC
:100A8800702836184FEA636741EB0707D3175143BD
:100A980000FB0311A2FB00230B44D10C41EA4331B4
:100AA800D814761840EB0707B5F96E08320A42EAFF
:100AB800076203011344B8F1000F02D01B0AC8F8FB
:100AC8000030B9F1000F05D004EB840480342412FF
:100AD800C9F80040012003B0BDE8F08F0023EAE721
:100AE800D01C002001207047012070474FF400639C
:100AF80083817047036941681F2B4FF0200230B58E
:100B080085BFA3F120054C680C68AA4098BF9A409D
:100B1800224214BF01220022EAB182690020107427
:100B2800D0688468206820F001002060546820683C
:100B38006579094C828934F815401F2B22EA040292
:100B4800828188BF203B4FF020028BBF9A4002FA77
:100B580003F3CA608B6030BD98DB0308BFF34F8F87
:100B68000549064BCA6802F4E0621343CB60BFF341
:100B78004F8F00BFFDE700BF00ED00E00400FA055D
:100B8800436B99891A88890610B592B2044606D52E
:100B9800900604D5E26A1AB39888216B9047636B74
:100BA80099891A88090692B20FD510060DD5D4E98D
:100BB80009128A4222D0A1692069895C9980013290
:100BC800B2FBF0F100FB1122A262998A1A88C905CA
:100BD80092B204D5D20744BF4FF6F7721A8010BDFF
:100BE8009B88E2696169DBB28B54E369E168013390
:100BF800B3FBF1F201FB1233E361D0E7DA6822F0CC
:100C08008002DA60E1E790F83420034602F0FF0042
:100C180012B1002283F8342070470C4B93F87C28DB
:100C28007AB1D3F8881888420DD3D3F88C18884243
:100C380009D8D3F88418C3F8A40841F00101C3F80F
:100C48008418104670470022FBE700BFD01C002024
:100C580008B50846FFF7E1FF18B1024B012283F8F7
:100C6800982808BDD01C002028B1044BD3F8E00810
:100C780008B193F87C0800F001007047D01C0020F0
:100C880008B5FFF7F1FF18B1024BD3F8A4380B8071
:100C980008BD00BFD01C002008B5FFF7E5FF08B16C
:100CA80000230B7008BD08B5FFF7DEFF18B1024B33
:100CB800D3F8AC380B7008BDD01C002010B5FFF776
:100CC800D3FF48B1064B93F8984834B993F89C4839
:100CD8000C70D3F8A038137010BD0024F8E700BFDB
:100CE800D01C00200520704730B1044B93F9E4086C
:100CF8000028D4BF00200120704700BFD01C00206E
:100D080008B5FFF7F1FF18B1024BB3F8EC380B80C8
:100D180008BD00BFD01C002008B5FFF7E5FF18B1DB
:100D2800024B93F8F2380B7008BD00BFD01C0020AE
:100D380008B5FFF7D9FF80B10B4BB3F8EE3863B1B4
:100D4800192B0BD9642B0BD9C82B0BD9B3F5C87F3A
:100D580094BF0323042301330B7008BD0023FAE773
:100D68000123F8E70223F6E7D01C002010B5FFF7AF
:100D7800BBFF48B1064B93F8E64834B993F8E74807
:100D88000C7093F8E838137010BD0024F8E700BF22
:100D9800D01C00200420704728B1034B93F916009B
:100DA800003018BF012070470000002008B5FFF789
:100DB800F3FF48B1054B93F91620022A03BF5B7E67
:100DC800C3F340030B70002008BD00BF00000020E3
:100DD80008B5FFF7E1FF80B10C4A92F9183092F993
:100DE8001620012A0ED1272B08DC182B08DC0F2B24
:100DF800D4BF0023012301330B7008BD0323FAE796
:100E08000223F8E70133DBB2F6E700BF0000002059
:100E180010B5FFF7C1FFB8B10D4C637EDB0714D4E2
:100E280094F91730002BB8BF0733DB100133DBB25E
:100E38000B7094F91730594201F0070103F00703CA
:100E480058BF4B420133137010BD0023F0E700BFB9
:100E5800000000200320704770B50B4A92F8F43860
:100E680006255E1CB6FBF5F405FB146492F8F558EC
:100E7800AC421FBF02EBC30382F8F448C3F8F8087A
:100E8800C3F8FC1870BD00BFD01C002010B50022AC
:100E98001346914201DC184610BD845C6340082467
:100EA80013F0800F4FEA430318BF83F0D503013CCA
:100EB800DBB2F5D10132ECE7F0B5114C114B2468E7
:100EC800B3F8287993F82A19B3F82C69B3F82E598E
:100ED80093F8302914F0040F0AD193F838393BB944
:100EE800012A0BD0022A03D114F0080F08BF0121F0
:100EF800078081708680C5800272F0BD1146F7E7D1
:100F080000000010D01C002007B532238DF80030F7
:100F18000368CDF801308388ADF80530034B684687
:100F2800D3F86839984703B05DF804FBD01C00205B
:100F3800074B586810F0800009D09A68920705D4CA
:100F4800186880F00800C0F3C0007047012070479F
:100F58000000001007B510238DF80030054BADF8E0
:100F68000100CDF80310D3F868396846984703B0F4
:100F78005DF804FBD01C00200C4AD2F8803910B56B
:100F8800198100219981D2F87819596019684C1C87
:100F98001C600870D2F88039D2F878294FF6F671BB
:100FA80099811968C3E9002110BD00BFD01C002039
:100FB8000A88504080EA0010C0B2030983EA12236D
:100FC80043EA002383EAC00008807047064B93F881
:100FD8009729012A03D1054AC3F8C4297047022A70
:100FE8000CBF034A034AF7E7D01C00201E0000206C
:100FF800280000203200002070B5134E134C96F8DC
:101008008E69134A0028B8BF40423C25B0FBF2F372
:1010180004FB030068439BB290FBF2F5AAB27EB9C9
:1010280003EB830303EB830302EB83031BB20B8005
:101038004FF47A7204FB050393FBF2F34B8070BD07
:10104800C3EB0313F0E700BFD01C0020806967FFE3
:1010580080969800054991F8CB290023042A03605B
:1010680028BF042201F51D613AF0DCB8D01C00202D
:1010780010B4074991F8CB2900240480022A28BF1C
:10108800022201F51D615DF8044B3AF0CBB800BFB0
:10109800D01C0020124A90F90C3070B50C4614216F
:1010A80001FB03230546DE6B83689A0703D40069B6
:1010B80035F012F900BFD4E901232168304635F034
:1010C8007BFAD4E90423E168304635F075FAAB6859
:1010D8009B0703D400BF286935F003F9012070BDD0
:1010E80000000020F8B5134C0746D4F8D80A037955
:1010F8001E3B012B02D9002130F051F80E4E00257D
:10110800BD42D4F8D80A0FDB002130F048F8D4F8F3
:10111800FC3AC4F8003B094B00225A60B4F8083B7B
:101128000133A4F8083BF8BD16F8011B30F037F876
:101138000135E5E7D01C0020AC270020D02700208F
:1011480038B5154C94F8F53894F8F4289A421CD020
:1011580004EBC30304F6DC21D3F8F828D3F8FC0821
:101168000023984212DC9378C4F8180B5B0884F8C3
:101178001C3BFFF7B7FF94F8F53806210133B3FBA2
:10118800F1F201FB123384F8F53838BDD55C01F86B
:10119800015B0133E5E700BFD01C0020F8B5002251
:1011A8000D464FF6FF7302398A4210D3461943544D
:1011B800094F1B0A06F8013C044614F8011BD7F82E
:1011C800200B2FF0ECFFA642F7D1E8B2F8BD845C03
:1011D8001B1B9BB20132E7E7D01C002007B50B466A
:1011E8001A14ADF8023060F05F001B0E08218DF86C
:1011F80001008DF80530684600238DF800108DF841
:101208000420ADF80630FFF7C9FF03B05DF804FB12
:1012180007B5062360F05F008DF80100ADF80210F5
:101228000022194668468DF80030ADF80420FFF713
:10123800B5FF03B05DF804FB014610B50A4C5E2902
:10124800D4F8240B09D15D212FF0A9FF3E21D4F851
:10125800240BBDE810402FF0A2BF5D29F9D12FF073
:101268009EFF3D21F3E700BFD01C0020104B70B556
:101278001E4693F8282B002AFBD104464518AC4299
:1012880001D1002070BDD6F8443814F8011BF218BB
:101298000133C3F30A0382F8291BC6F84438FFF761
:1012A80091FA0028EBD101202FF09DF9F7E700BF54
:1012B800D01C002038B50D46FFF733FA50B1064C64
:1012C800002AD4F8FC3A05DD11462846FFF7CEFF80
:1012D800D4F8FC3A38BD00BFD01C002010B590F8F7
:1012E8004810002380F8483061B1094C626B5AB14C
:1012F800626B052A0AD13430D4F8FC3AFFF7B6FFFE
:10130800D4F8FC3A012010BD1046FCE71846FAE76D
:10131800D01C0020002280F84920DFE790F8482000
:10132800531C0244DBB280F8483082F8341090F83D
:1013380049200AB1132B00D9D0E77047054B93F821
:101348003B22D3F8340202F0F702002183F83B2253
:1013580035F050BAC82D002010B5044600222121CE
:10136800006835F047FAFC222021206835F042FA5F
:1013780040222421206835F03DFA0C2223212068E0
:1013880035F038FA00222221206835F033FA01209E
:1013980010BD10B5012204461021006835F02AFA64
:1013A80048B114202FF01FF92068A0221121BDE8B0
:1013B800104035F01FBA10BD10B5072204460A21A7
:1013C800006835F017FA05202FF00DF92422412185
:1013D800206835F00FFA05202FF005F9C0224221C8
:1013E800206835F007FA05202FF0FDF8012010BD20
:1013F80010B5012204460B21006835F0FBF920B135
:101408001D220921206835F0F5F900F0010010BD12
:1014180010B5782204460021006835F0EBF9052064
:101428002FF0E1F820220121206835F0E3F90520AA
:101438002FF0D9F800220221206835F0DBF964206A
:101448002FF0D1F8012010BD08B53122F421006831
:1014580035F0D0F9012008BD1FB5044600230DF171
:101468000702272100688DF8073035F05FF968B169
:101478009DF8070010F0080008D0062302AA2821CA
:10148800206835F083F918B9E086A06304B010BD70
:101498009DF809209DF8083043EA02231BB2002B6F
:1014A800B8BF03339B109DF80B20E3869DF80A30E4
:1014B80043EA02231BB2002BB8BF03339B102387D8
:1014C8009DF80D209DF80C3043EA02231BB2002B37
:1014D800B8BF03339B106387D8E71FB500210446C4
:1014E800C18681630DF10702006835F01FF900B36A
:1014F8009DF8070010F008001BD0062302AA01215E
:10150800206835F043F9A0B19DF808209DF809300E
:1015180043EA0223E3869DF80A209DF80B3043EA4C
:10152800022323879DF80C209DF80D3043EA0223FF
:10153800638704B010BD13B50023C38683630446D4
:1015480006236A460321006835F020F9E0B19DF8CA
:1015580001209DF8003043EA022303EB43039DF882
:101568000320E3869DF8023043EA02231BB25B4264
:1015780003EB430323879DF805209DF8043043EAD5
:10158800022303EB4303638702B010BD30B5002587
:1015980085B00446C58685630DF1070206210068FB
:1015A80035F0C4F800B39DF8070010F004001BD014
:1015B800062302AA2946206835F0E8F8A0B19DF86C
:1015C80009209DF8083043EA0223E3869DF80B20A2
:1015D8009DF80A3043EA022323879DF80D209DF8E1
:1015E8000C3043EA0223638705B030BD13B50446C7
:1015F80000680379022B0CBF4321032106236A46A6
:1016080035F0C4F818B9E086A06302B010BD9DF8A3
:1016180000209DF8013043EA0223E3869DF802206A
:101628009DF8033043EA022363879DF804209DF860
:10163800053043EA02232387E7E737B50623F72176
:101648006A460068154C35F0A1F81549E8B19DF8CF
:1016580001209DF800309DF80350120142EA033240
:101668009DF8023042EA13129DF80430C1F8782838
:101678001B0143EA05339DF8055043EA1513C4E9F5
:101688009023C1F8583803B030BDD4F84032C1F8BF
:101698007838D4F84432C1F85838F4E7C82D002017
:1016A800D01C00202DE9F043544F026B046890F8D9
:1016B8002D30064687B05248B0FBF2F039463D4619
:1016C8004FF0000E012291F80690A3EB090C01F1EE
:1016D8000608BCF1000FA3EB0E01B8BFCCF1000C5B
:1016E8000029B8BF49428C4502F10102BCBF4FFA3C
:1016F80089FE4546102A4146E5D14FF0000C80B2DC
:101708003A7872450CD169887A88411A821A002978
:10171800B8BF4942002AB8BF52429142C8BF3D46AD
:101728000CF1010CBCF1100F07F10607E8D16A793A
:1017380004922A7903926A8802922A780321CDE9D1
:101748000002304A012036F023FC6A882C4BB3FB98
:10175800F2F32046B363002135F010F980226B21A3
:10176800204635F047F864202EF03DFF0722682117
:10177800204635F03FF864202EF035FF00226B211B
:10178800204635F037F864202EF02DFF01226B211A
:10179800204635F02FF80F202EF025FF18221B21A8
:1017A800204635F027F80F202EF01DFF18221C21A7
:1017B800204635F01FF80F202EF015FF2A791A2140
:1017C800204635F017F80F202EF00DFF6A79192101
:1017D800204635F00FF864202EF005FF122237213D
:1017E800204635F007F80F202EF0FDFE0321204695
:1017F80007B0BDE8F04335F0C1B800BFA0DB03086F
:1018080040420F00EA48040838B50C460B46134A14
:1018180004210920013C36F0BBFBE3B2032B1CD8A2
:101828000F4D95F91630C3B1012B0E4B0E484FEAF8
:10183800C4041C444FF005010CBF94F86C3094F8B4
:101848006E3085F89030FFF721FB062185F891006E
:101858000548BDE83840FFF7FFBA38BD23490408FA
:101868000000002098DB03088C0000202DE9F347D6
:10187800038A868905460C461E404FF0004901F14F
:101888004C0701F1340816B902B0BDE8F087B6FA82
:1018980086F329FA03F2D24391B2298216401B3B00
:1018A800002C40D0042BEED8DFE803F039342E2882
:1018B8000300E368D5F82CA02BB19B681BB11FFA75
:1018C8008AF1201D9847636A33B19B6823B11FFAD8
:1018D8008AF104F11C009847E36B2BB19B681BB19C
:1018E8001FFA8AF140469847636D002BCBD09B685E
:1018F800002BC8D01FFA8AF1384603E0E368696B09
:101908005B68201D9847BEE7636AA96B5B6804F1B2
:101918001C00F7E7E36BE96B5B684046F2E7636D31
:10192800296C5B68E8E7042B06D8DFE803F00D0BA9
:1019380009070300EB6A0193019BA4E76B6BFAE7C5
:10194800AB6BF8E7EB6BF6E72B6CF4E710B50068C8
:101958000C4636F0B9FB837863B1827AC37A43EADE
:1019680002231BB2222293FBF2F303F26D132380AE
:10197800012010BD1846FCE710B50446006836F093
:10198800A3FB837883B10279437943EA0223E38195
:101998008279C37943EA02232382027A437A43EAAB
:1019A80002236382012010BD1846FCE770B5066863
:1019B8000546304636F088FB0E230446021D3B21BF
:1019C800304634F0E3FEA07070B1227B637B43EABB
:1019D80002232B84A27BE37B43EA02236B84227CD1
:1019E800637C43EA0223AB8470BDF8B5284C2546D6
:1019F800D4F8E0082FF0D0FB002847D094F8DC3862
:101A08000BB1002042E0D4F8E0082FF0BFFBD4F877
:101A1800D8383BB90F28EBD10123C4F8D83884F85B
:101A2800C808E5E70F2B9FBF5A1C1B19C4F8D82814
:101A380083F8C808D5F8D838102BD9D195F8C83804
:101A48000F2B15D195F8C93895F8B9289A420FD1B6
:101A580095F8D72862B90F4995F8D668084611F85D
:101A6800017B01323B440C2ADBB2F8D19E4205D0FF
:101A7800002385F8DC38C5F8D838B9E7064939F0C5
:101A8800A1FD0028F4D0012085F8DC08F8BD00BFCE
:101A9800D01C00209A2500208A25002038B5174C34
:101AA8000F2384F8B83884F8B90804F6BA02F9B1F3
:101AB8000B68C4F8BA384B6853608B689360104A57
:101AC800002312F8011B013308440C2BC0B2F8D1D3
:101AD800002584F8C60810220A49D4F8E00884F8DA
:101AE800C7582FF079FC84F8DC58C4F8D85838BDAA
:101AF800C4F8BA1851609160E1E700BFD01C00201B
:101B08008A250020882500207FB5944CD4F84832D7
:101B1800B3F5857F77D00BDCC3B3F82B49D0D4F865
:101B28004832002BBCBF0023C4E9923304B070BD17
:101B3800B3F5887F00F0BE80B3F58F7FEFD1884D75
:101B480095F8DC38002B00F0EA800021B5F8CA3897
:101B5800C5F88018D5F8A418B5F8CC28C5F8B03859
:101B68008B42C5F8B42840F0F280D5F8A8389A42DC
:101B780005D0D5F8843843F00203C5F88438784B8B
:101B880093F87C38002B00F0A9802EE0744A82F884
:101B98007C3800217220FFF781FF714BD3F8FC3AA3
:101BA800C4F850320026FA23C4E99563F823C4F830
:101BB80048326B4D95F8DC38002B42D0B5F8CA385E
:101BC800C5F88838B5F8CC38C5F88C380023C5F87E
:101BD8009038B5F8CE38C5F89438012385F87C38A4
:101BE8000023C5F88038C5F884385D4BD3F8FC3A33
:101BF800C4F8503200254FF47A73C4E995534FF472
:101C08008573C4F84832564DD5F884687EBBD4F83D
:101C18005022D5F8FC3A9B1AD4F8582293427FF701
:101C28007EAF31467620FFF739FFD5F8FC3AC4E994
:101C38009436FA23C4F858324FF48F73C4F84832F4
:101C48007DE7FFF7D2FE48B9D4F85022D5F8FC3A20
:101C58009B1AD4F8582293427FF761AF95F8DC3885
:101C6800002BABD195F87C38002BB9D191E716F051
:101C7800010339D00026B5F8A438ADF8043001A91D
:101C88004620CDF80660CDF80A60ADF80E60FFF783
:101C980005FFD5F8843823F00103C5F88438D5F852
:101CA800FC3AC4E99436FA23C4F858324FF48873DE
:101CB800C4F848322A4BD4F85022D3F8FC3A9B1A7D
:101CC800D4F8582293427FF72AAF254BD3F88028BF
:101CD800022A7FF754AF002283F87C284FF0FF33A5
:101CE8000022C4E992321AE716F0020614D0B5F8B9
:101CF800A828CDF8063001A95020CDF80A30ADF853
:101D08000E30ADF80420FFF7C9FED5F8843823F06B
:101D18000203C5F88438D8E7C5F88468D5E7FFF723
:101D280064FE48B9D4F85022D5F8FC3A9B1AD4F886
:101D3800582293427FF7F3AE95F8DC38002B7FF4F6
:101D480004AFD5F880380133C5F88038BDE7D5F839
:101D5800843843F00103C5F8843806E7C82D00200D
:101D6800D01C00202DE9F04F6C4E96F860328DB0F3
:101D780080468946002B40D1D6F86452002D3CD0CD
:101D880096F868B2DFF898A106AF96F86832032B88
:101D980000F28480DFE803F002347D9B3946284650
:101DA8000FF07CFD044680B109A8FFF785F89DF87F
:101DB80026109DF818308B4270D0AB798B4204D333
:101DC8002B681B690BB12846984796F8683201338F
:101DD80003F0030386F86832002C40F09C809B4592
:101DE800D3D14F4B1B685B0700D534B12B681968FA
:101DF80019B142464B46284688470DB0BDE8F08FDA
:101E080003A8FFF759F8DAF800309DF80C4003F002
:101E1800040334B3002B41D13A460DF10B01284697
:101E28000FF05AFD0446002838D009A8FFF744F8F7
:101E38009DF824109DF80B309DF825208B4203D186
:101E48009DF81830934229D02B798B42BDD36B79FA
:101E58009342BAD32B68DB68002BB6D02846984744
:101E6800B3E7002BB1D1394628460FF009FD0446E7
:101E7800A0B109A8FFF720F8BDF82810BDF8183060
:101E88008B420BD02B689B69002B9ED02846984725
:101E98009BE7DAF8001011F0040301D0002494E75E
:101EA80009A9284601930FF0F2FC0028F6D096F80D
:101EB8006942002CF2D09DF82420019B86F86932F3
:101EC800002AEBD0194628460FF00DFD7DE738466D
:101ED800FEF7F2FF97E8070009AB03C31A809DF8E5
:101EE80018309BB10DF1250209A928460FF0F4FC22
:101EF8000DF1260128460FF0D1FC0A2209A938461F
:101F080039F060FB041C18BF01245EE70AA92846C3
:101F18000FF0B6FCECE7012463E700BFC82D0020F2
:101F280000000010022803D0431E58425841704751
:101F3800054B93F88C3913B110201DF039BE034BB3
:101F48001868C0F380007047D01C00200000001003
:101F5800CA680B6810B513430468114A224013433A
:101F68004A6913438A691343CA6913430A6A1343C4
:101F78004A6A13434A6B13438A6B134343F400338F
:101F88000360D1E90B344269234322F0070213436B
:101F980043610B6943604B6883608B68C36010BD05
:101FA8003F801CF082B000230193019B43F0200383
:101FB8000193019B60F38A130193084BD3F87822AD
:101FC800019B1361064B11690191013B02D00199F4
:101FD8008906F8D4002002B0704700BFC82D002041
:101FE800410D030010B58021044636F041FA204621
:101FF800002136F03DFA2046BDE8104036F07EBAA2
:102008002DE9F04790B0DDE9184A0D46074690469D
:1020180000213A220DF1060099461A9E39F0FAFA83
:10202800344B02938DF80450CDF834A0002D55D0D0
:10203800022D55D0032D55D0042D55D103232E4AFA
:1020480002EB430393F889308DF805302B4B03944A
:10205800D3F8FC3A06971C440123CDE904468DF8D1
:102068003130B8F1000F06D04A46414607A839F08A
:10207800D9F88DF83090DFF888C09CF8A2E80023E2
:10208800BEF1010F0E931ED80DF1040ABAE80F0035
:102098009CF8A1683C2404FB06C404F6A4040FC4FD
:1020A800BAE80F000FC4BAE80F000FC49AE8070097
:1020B800B6FA86F60EF1010E760984E807008CF868
:1020C800A2E88CF8A1683B6883B14B464246294692
:1020D800384610B0BDE8F0471AF0EFBD2B46AEE722
:1020E8000123ACE70223AAE70023ADE710B0BDE85F
:1020F800F08700BF2836002098DB0308D01C00209A
:10210800C82D0020420900F01F03032A4FF00100E8
:1021180000FA03F008D0042A0BD0022A0DD1074B8D
:102128005A6C104358647047044B1A6C1043186477
:102138007047024B1A6B104318637047003802400F
:10214800054BB3F8742AD3F8703A59690A4214BF98
:102158005A831A83704700BFC82D002013B5094C55
:10216800D4F834020DF10702A02134F0DFFA18B1D7
:102178009DF807309B0602D5FFF7E2FFF0E702B0B3
:1021880010BD00BFC82D0020044AD2F8703AB2F83A
:10219800742A08B15A8370471A837047C82D0020E3
:1021A800031EB8BF2D2210B5B8BF58420C46AEBFAB
:1021B8000A2201F8012B0A2234F004FF00230370DD
:1021C800204610BD642828BF642000EB800070B54D
:1021D800450064240026B5FBF4F4E4B2F3B29C4253
:1021E80012D80A2C0BD01420B5FBF0F0C4EB8415E0
:1021F8006638C4EB85052844C0B20FF01DFC0134D5
:10220800E4B2092C05D970BD9F200FF015FC0136EA
:10221800E4E79A20F1E7F0B5174B93F8202C03F682
:10222800244102EB420401EB840103F688460024B2
:102238000C27072A04D90CB183F8202C0020F0BD04
:102248000C680132E507D2B20DD520420BD091F9C6
:1022580004C0002407FB04F515F906E0E64505D09F
:102268000134082CF6D10C310124E2E783F8202C44
:102278002B44D3F88C0CE2E7C82D0020024B002237
:1022880083F8202CC7E700BFC82D002030B5264BA7
:1022980010201D78A5F1300109291A4603F1010320
:1022A80029D9214C0021131B022B27DC0023A24231
:1022B8002ED82E2D36D1501C04240022057802EB8E
:1022C8008202303D5200092D92B298BF521904F192
:1022D800FF349CBF013092B214F0FF04EED16420A9
:1022E8005043124A02FB03000623B0FBF3F0104BE5
:1022F80003FB010001E00138CBD130BD01EB8101C6
:10230800490014F8010B3039014401F0FF01CAE714
:1023180003EB83035B0014F8010B303B034403F029
:10232800FF03C4E70022DAE7B03A002040420F007A
:102338008096980030B5002351F8234052F8235076
:10234800641B40F823400133032BF5D130BD0CB496
:102358001FB50C2107ABCDE902300093064A074BA5
:102368000DEB010035F01FF8039B00221A7005B031
:102378005DF804EB02B070473D550308E44E0408CD
:102388002DE9FF4180460846154634F046FF4FF4D4
:102398007A72002306460F4638F016FAB5F900306F
:1023A8003C2403FB0404394630464FF47A72002378
:1023B80038F00AFA002796B24FF47A73C3FB046721
:1023C8003B46324601A834F0A3FE3A4B93F8FA3C58
:1023D800012B09D0022B35D032463B46404634F01B
:1023E80097FE04B0BDE8F0819DF80640E31E072B78
:1023F800F2D8231F052B0DD92146BDF8040034F06F
:1024080035FE9DF8073098420ED0E11E18BF012115
:102418000029E1D02B883C332B80274BF6184FF04E
:10242800000343EB0707D7E7032C03D19DF80810F7
:102438000031EBE70A2CCFD19DF80810B1FA81F1F1
:102448004909E5E79DF80640E31E082BC4D8231F79
:10245800062BDFD92146BDF8040034F007FE032C13
:1024680012D10E280ADC9DF80730984208D19DF851
:102478000810012994BF00210121C9E70738F0E7B6
:10248800B4BF01210021C3E70B2CA5D107280ADC22
:102498009DF80730984208D19DF8081001298CBF93
:1024A80000210121B4E70738F0E7CCBF0121002162
:1024B800AEE700BFC82D002080EE360030B50468B6
:1024C800E46985B02CB10DF10F050095A04705B062
:1024D80030BD2046FBE708B506482AF0D5FF064878
:1024E8002CF084FF054B93F8FC2C12B1012283F8E1
:1024F800FD2C08BD3F4904084B490408C82D00209D
:102508002DE9F04F87B0DFF8ACA00591074690465B
:1025180099460025B8F1000F07DBA84505D001351D
:10252800042DF7D107B0BDE8F08F059AD6236B4389
:1025380002EB030B1E4AD31804930024B9F1000FD1
:1025480001DBA1452FD1049B3BF8146033F814300C
:10255800F21A5642564113F4006F03F01F02C3F3F8
:10256800441114BF56234823CDE90213CDE9004294
:102578002B465246314638462BF032FE3BF8143093
:1025880013F4006F03F01F02C3F3441114BF562362
:102598004823CDE90213CDE900422B465246314685
:1025A80038462BF033FE01346B2CC7D1B7E700BF98
:1025B800C83A0020584904082DE9F04F364C374BEB
:1025C800374ADFF8E4B0884694F89C1887B00029A9
:1025D80008BF1A46814694F99D1832482BF068FACC
:1025E800603C46460027B8F1000F52D096F800A08C
:1025F80094F85C03F168B6F910C096F816E05045F7
:10260800D6E9013243D1D4F8600398423FD1D4F8D7
:10261800640390423BD1D4F86803884237D1B4F9B7
:102628006C03604533D194F87253A5EB0E00454214
:102638004541CDE90221CDE900A3CDE904CE3B46D1
:102648005A46294648462BF0CBFD94F87233059339
:10265800B4F96C330493D4F868330393D4F864332F
:102668000293D4F86033019394F85C3300935A468C
:102678003B462946484601372BF0C8FD3C2F04F15C
:10268800180406F11806AED107B0BDE8F08F002592
:10269800CFE74546D9E700BFC03E0020724904088D
:1026A8000B760408754904088449040870B51D4D63
:1026B80095F888322DED028B04460E4663B3D5F8A3
:1026C80090320360D5F89432436095EDA38AD5F82B
:1026D80098328360DFED148A96ED000A80EE280AAE
:1026E80039F026F923681844206028EE288A96EDE8
:1026F800010A80EE080A39F01BF963681844606023
:1027080096ED020A39F014F9BDEC028BA36818445F
:10271800A06095F8880270BDC0E900338360B7EE09
:10272800008AD7E7C03E00202C7D8E3F70B51B4C39
:1027380094F8885265B3D4F890620B68DFED186A94
:102748009B1B07EE103AB8EEC77A4B68D4F8946230
:1027580027EE267A9B1B07EE903A80ED007A94EDDF
:10276800A37A8B68012AF8EEE77A27EE267A18BF53
:10277800D4F8982267EE877A18BF9B1AC0ED017AC1
:1027880007EE903AF8EEE77AC0ED027A284670BD77
:102798000023036043608360F8E700BFC03E002069
:1027A8002C7D8E3F1FB5324901A891F82120643154
:1027B80015F0AFFE0398019A80EAE073A3EBE0738B
:1027C80007EE903AF8EEE77AF7EE086AC7EEA65AEF
:1027D80082EAE273A3EBE27307EE103AB8EEC77A27
:1027E800029BF4EEC75AF1EE10FA13DD83EAE371A7
:1027F800A1EBE37106EE101AB8EEC66AF4EEC65AFB
:10280800F1EE10FA06DD0028CCBF0020012005B04B
:102818005DF804FBC7EE265A83EAE371A1EBE37186
:1028280006EE101AB8EEC66AF4EEC65AF1EE10FAC1
:1028380009DDF4EEE57AF1EE10FA04D5002ACCBFF2
:1028480002200320E3E7C6EE265AB4EEE57AF1EE5D
:1028580010FA09D5F4EEE57AF1EE10FA04D5002B5A
:10286800CCBF04200520D2E74FF0FF30CFE700BFF0
:102878000000001030B52A4A92F8C0388B424DD17A
:1028880092F8C118DFED276AD2F8E45802EB410448
:10289800013101F00F0182F8C11892F80019B4F85B
:1028A800C238A4F8C20807EE101AB8EEC77A92F830
:1028B800011927EE267AC31AFDEEC77A2B4417EEC4
:1028C800900A07EE901AF8EEE77AC2F8E43867EE55
:1028D800A67A1B09FDEEE77AA2F8E83817EE901AF7
:1028E80088420FDD9BB29942D4BF5B1A00239842FD
:1028F800A6BFC31A9BB20023A2F8E838034617EE16
:10290800900A1946B2F8E8381B1AC3EB8323091A50
:1029180093FBF1F181F30A01A2F8E81830BD00BF7A
:10292800C03E002014AE23412DE9F04FEB4D2DEDB4
:10293800028B95F81439172B83B018D12DF004FDAC
:102948000746E74C95F8148994F80932B8F1170F3F
:1029580008BFC5F81839062B00F29982DFE813F092
:102968000900C700DC0032019301A70237030027E2
:10297800E7E7B4F80CA2DB48D4F810224FEA5A0172
:1029880000EB8A098B004FEADA0A00EB030CCE460B
:102998004B44A0F5DA7602EB0A1A9346D3450EF1BA
:1029A800100E0CF1100C03F1100306F1100613D1F0
:1029B8008EB23146FDF702FCD4F810223146484663
:1029C800FDF7FCFBB8F1170F40F061822DF0BCFC5D
:1029D800C01BC5F81C095AE21EED040A96ED696A87
:1029E8005EED030A96ED6A4A53ED046A53ED034A15
:1029F8001EED027A1EED015A5CED032A1CED023A27
:102A08005CED013A53ED027A53ED015A96ED6B1ADB
:102A18001CED042AD6ED6C1A36EE008A36EE406AB2
:102A280086ED698A34EE208A34EE604A86ED6A8A39
:102A380031EE078A0BF1100B86ED6B8A31EE858A31
:102A480031EEC55A72EE261A86ED6C8A4CED041AE0
:102A580072EEA41A74EEE24A4CED031A73EE271ACA
:102A680077EEC37A4CED021A73EEA51A75EEE35AA7
:102A78004CED011A5BED033A1BED043A64EE232A90
:102A880076EEC26AE6EE032A23EEC66A4EED042A03
:102A9800A4EE036A31EE477A0EED036A23EE646A08
:102AA800A6EEA36A66EE836A03ED046AE4EEA36AFF
:102AB80043ED036A1BED026A5BED016A65EE264A87
:102AC800E7EE064A26EEC77A4EED024AA5EE067AEA
:102AD8000EED017A26EE657AA7EEA67A67EE867A7B
:102AE80003ED027AE5EEA67A43ED017A56E7D4F8CB
:102AF8001422B4F818127B4837F00AF895F81439FC
:102B0800172B04D12DF020FCC01BC5F81C0994F824
:102B18000932013384F80932D4ED8A7AD4ED895A1E
:102B2800B4F80C226F4BD4F8200277EEA77AB0EEF7
:102B3800006AF0EE676AE5EE866A013A03EBC201C5
:102B4800D5EE867A10300839B6EE007A66EE876AD6
:102B580067EE877AC4EDA96AC4EDAA7AA3F5DA7399
:102B6800F0EE476A91ED034A91ED027AD3ED6F3AA0
:102B7800D3ED707A50ED025A50ED014A37EE635AA0
:102B880034EE276A37EE237A77EEC47AA5EE857A93
:102B9800013A00F10800E4EE857AA1F1080103F199
:102BA8000803A4EE867AE5EEC67A27EE267A67EE63
:102BB800A67A83ED8D7AC3ED8E7AD3D195F8143940
:102BC800172B01E7484E4FF0000BB0464FF00409B1
:102BD800DA4696ED8E0AD6ED8D7A20EE000AA7EE3B
:102BE800A70AB5EEC00AF1EE10FAC0F2838039F0F8
:102BF800C3F988ED6D0A96ED900AD6ED8F7A20EE2E
:102C0800000AA7EEA70AB5EEC00AF1EE10FA74DBC7
:102C180039F0B2F988ED6E0A96ED920AD6ED917AFE
:102C280020EE000AA7EEA70AB5EEC00AF1EE10FAE8
:102C380066DB39F0A1F988ED6F0A96ED940AD6EDB6
:102C4800937A20EE000AA7EEA70AB5EEC00AF1EEC5
:102C580010FA58DB39F090F988ED700AB9F10109DA
:102C680006F1200608F11008B3D195F81439172B8E
:102C780004D12DF069FBC01BC5F8200994F809326E
:102C8800013384F8093294F89C23174E9FED187A83
:102C9800002302F16D0106EB81019C4618460F2ABC
:102CA80034DD04EB830292ED897A67EE077A5A1CC9
:102CB80067EE877A07EE102AB8EEC77A03F16E023C
:102CC80027EE277A194606EB820218460F2834D1D8
:102CD80006EB83030CF1010263E000BFC03E002055
:102CE8000000001024020010700000100000C8420C
:102CF80000000000C8F8B4B17DE7C8F8B8A18BE7B8
:102D0800C8F8BCA199E7C8F8C0A1A7E7F1EC017A17
:102D180040B951ED026AF4EEE76AF1EE10FA0AD50D
:102D28005FFA82FCB4EEE77AF1EE10FA44BFD3B250
:102D3800B0EE677A01200132B1E712ED016AD2EDF7
:102D4800006AB4EEE66AF1EE10FA00F1010002F151
:102D58000402BDDD66EE066A66EE866A06EE100AB5
:102D6800B8EEC66A77EEA67AA6EE867AAEE793ED57
:102D78006D6A043BD3ED6D6AB4EEE66AF1EE10FAC3
:102D880001F1FF300FDD66EE066A013166EE866AF4
:102D980006EE101AB8EEC66A77EEA67AA6EE867A1E
:102DA80001469142E3DCF5EEC07AF1EE10FA94F8B0
:102DB8000A825ADDC7EE278AF7EE007A78EEE78AAC
:102DC80094EDE88A28EE888AB4F8A40337F054F81A
:102DD800CDE9000118EE100A37F070F89DED001BE0
:102DE80041EC100B38F0B0FC51EC100B37F08EFBB7
:102DF800242303FB086600EE100A06F52D7032F056
:102E080013FC94F80A1201F5C87304EB4303BCEEF3
:102E1800C00AB3F87020A3F8762010EE102A92B2F8
:102E2800A3F87020B4F8A8339A4238BF1A46A4F819
:102E3800A82359B995F81439162B21D11FED550A35
:102E480028EE800A38F074FDC5F8240994F80A328F
:102E5800012B7FF4B3AE95F81439182B7FF4AEAE7E
:102E6800B4F89233C5F81C3911E004EB48035FED60
:102E7800608AB3F8963308EE103AB8EE488AA3E7AA
:102E8800182B7FF49BAEB4F89033C5F8183994F832
:102E9800093207220133B3FBF2F2C2EBC2029B1ADA
:102EA80084F8093203B0BDEC028BBDE8F08F94F8CA
:102EB8000A6206F5C87304EB4303B3F87010B3F85D
:102EC80076308B426AD0B8F1180F08BF05EB86033D
:102ED800DFF8508108BFC3F82C1906EBC60608EBCB
:102EE800860694F82C3498ED1B0AD6ED058A96EDE3
:102EF800068AD6F81CB0D6F820A0D4F81C2408F10D
:102F08006C09002B00F08B8007EE901A98ED217A5F
:102F1800F8EEE77A012367EE877A3046FCEEE77A27
:102F280017EE901A89B235F0DAF894F80A3298ED6B
:102F38003D7AC6ED058A03EBC30204EB430386ED35
:102F4800068AB3F89033C6F81CB007EE903AF8EE4C
:102F5800E77AC6F820A067EE877A08F18806FCEEC3
:102F6800E77A06EB820617EE901AD6ED058A96EDFB
:102F7800068AD6F81CB0D6F820A099ED000AD4F835
:102F88001C24012389B2304635F0A9F8C6ED058A1C
:102F980086ED068AC6F81CB0C6F820A095F8143944
:102FA800172B04D12DF0D0F9C01BC5F81C0994F8D3
:102FB8000A3203220133B3FBF2F202EB42029B1AFC
:102FC80084F80A3294F80932013384F8093294F803
:102FD8008430DFF8548094F80A02C3F120060633DF
:102FE80003EB4010F6B208F23449334608F5DA72BA
:102FF800494608EB8000FDF74FFB94F88430002B1E
:103008003FF4DCAD94F80A02B10001F5DA7208EB7E
:10301800C010424449441830FDF73EFBCEE5012379
:10302800B1E700BFAC0300107000001030B5194CB8
:10303800D4ED017A89B0F1EE677ACDED057AD4ED59
:10304800027A00230093F1EE677A0B680193CDEDC5
:10305800067A4B68D4ED037A02938B68039305468E
:1030680023680493F1EE677A6A4604A96846CDEDB1
:10307800077A1BF0E7FE6946224608461BF0E2FE87
:10308800019B2B60029B6B60039BAB60284609B0D9
:1030980030BD00BF2405001038B502782DED088B2F
:1030A80030EE608AD0ED01AA0446B0EE40AAF0EEF8
:1030B800419AB0EE619AB0EE42BA0D4668EE2AAA7D
:1030C80001F001034AB1002B0CBFF0EE607AF0EE7C
:1030D800487A0022C0ED0B7A0270D4ED0B7A002BEF
:1030E80060D078EE677AF0EE480A87EEA90AC4ED58
:1030F8000B0AD4ED090AD4ED038AF5EEC00AF1EE05
:1031080010FA05DDB0EE691A04F1180035F08FF8F1
:10311800D4ED057A94ED0A7A2AEE27AA20EE280A39
:103128007AEE877A77EE807A77EE8A7AF4EEC97A41
:10313800F1EE10FA08D4F4EECB7AF1EE10FAD4BF1F
:10314800B0EE679AB0EE4B9AD4ED026A94ED046A39
:10315800C4ED0DAA28EE268AF0EE476AE9EE886AE1
:103168006B0779EE677A84ED0C7A67EE867A84EDE0
:103178000E0AE9EEA76A84ED0FAA84ED109AF0EE24
:10318800667A08D5F0EEE66AB0EEC77AF4EEC76A5A
:10319800F1EE10FA01D5C4ED0A7AB0EE490ABDEC99
:1031A800088B38BD70EEE77AF1EE677A87EEA90AE8
:1031B8009DE72DE9F0412DED068B09EE100A06F08A
:1031C80043FFA24CD0ED047A94ED9D8A90ED037AEA
:1031D800D4ED9C8A9E4F38EE678A78EEC78A28EE2F
:1031E800080AA8EEA80A38F0C7FEDFED9A7A9A4BCB
:1031F80097ED006AD3F80880B4EEE70AF1EE10FA0A
:10320800C9BFDFED967ADFED967AC7EE806AB0EE39
:10321800E87AC2BFF0EEC87A27EE267A67EEA67A79
:10322800B8EEC98ADFED8F6A28EE268ADFED8E6A4E
:1032380068EE266AD8BFB0EE677A18F4006F18BF38
:1032480076EEA66AB1EE47AA36EE669AB4EECA9A48
:10325800F1EE10FA00F1EE80B4EE479AF1EE10FAB2
:10326800C8BFB0EE479A36EE266AB4EEC6AAF1EEAB
:1032780010FA08DCB4EEC67AF1EE10FA54BFB0EEDC
:1032880046AAB0EE47AA794E96ED007A77EE668A9E
:10329800F1EE679AF4EEE98AF1EE10FA00F1CD80CA
:1032A800F4EE678AF1EE10FAC8BFF0EE678A76EEA0
:1032B800876AF4EEE69AF1EE10FA08DCF4EEE67AA4
:1032C800F1EE10FA54BFF0EE669AF0EE679A06F047
:1032D800BBFED4ED9CAAD0ED030A6548B0EE4A2A9D
:1032E800F0EE491A0021B0EE481AB0EE6A0AFFF76C
:1032F800D3FEB0EE409A06F0A7FE94ED9DAAD0ED5D
:10330800040A5C480021B0EE692AF0EE681AB0EEB3
:10331800481AB0EE4A0AFFF7BFFE94F86A5918F443
:10332800805F05EB85054FEA45053DD094F8763971
:10333800D3B307EE903ADFED506AB4F87A3994EDDA
:10334800986AB8EE677AC7EE267A06EE903AB4F82D
:103358005439B8EE667A06EE903A36EE476AF8EED9
:10336800666A26EE276A76EEC76A86EE267ADFED6B
:10337800436A37EE267AB4EEE67AF1EE10FA5FD4B5
:10338800F4EEC77AF1EE10FA58BFF0EE477AB7EECE
:10339800007A77EE877A94F87E5929EE279A05EB1A
:1033A800850520EE270A6D00D4ED967A94ED957A7E
:1033B80086ED000A60EE278A20EE070ADFED300A64
:1033C80087ED009AA9EE270AE9EE478A34F050FC07
:1033D800B0EE408A34F020FDDFED290A28EE800A9D
:1033E80034F046FCF2EE046A20EE260A9FED257AB8
:1033F800C0EE077A6A42FDEEE77A17EE903A9342FA
:1034080021DBAB42A8BF2B4668EE266AA4F8B23887
:10341800C6EE877AFDEEE77A17EE903A9A4203DC19
:103428009D422A46A8BF1A46BDEC068BA4F8B428CC
:10343800BDE8F081B0EE4A9A15E7F0EE698A36E702
:10344800F0EE667AA3E71346DEE700BFC03E002031
:10345800F8470020CDCCCC3D00000010000075449A
:10346800C23D2D44BD3786350080D444FC4700203A
:10347800403F0020843F00200000C84200000000B8
:103488008F2A754435FA8E3C10B588B00023009316
:103498000B6801934B6802938B6814490393D1ED31
:1034A800017A0B680493F1EE677ACDED057AD1EDD8
:1034B800027AF1EE677ACDED067AD1ED037A044609
:1034C800F1EE677A6A466846CDED077A1BF0BAFCDA
:1034D800694604AA08461BF0B5FC019B2360029BC1
:1034E8006360039BA360204608B010BD240500104C
:1034F80010B51E4C94ED010AD4ED006A94ED027AE1
:10350800D4ED037A20EE000AA6EEA60AA7EE070A73
:10351800A7EEA70A38F030FDDFED157AB4EEE70A1A
:10352800F1EE10FA08D54FF07E5323600023636054
:10353800A360E3600D4810BD94ED007AC7EE007AF1
:1035480094ED017AC4ED007AC7EE007A94ED027A20
:10355800C4ED017AC7EE007A94ED037AC4ED027ADD
:10356800C7EE007AC4ED037AE4E700BF2405001033
:10357800BD37863530B5ADF5815D87B0D0F8D01050
:103588000DF5815300F10A021833039306924FF6A2
:10359800FF730A44ADF8103007920023B0F8D62024
:1035A8008DF81230ADF81430ADF82020ADF8243085
:1035B80090F8D520019306AB04460AAD8DF8222079
:1035C80002A901AA1846029520F076F840B1029B9C
:1035D80094F8D42002A92046CDE9025319F062FAE2
:1035E8000198002363720DF5815D07B030BD30B5D9
:1035F8001C7814B1012C05D030BD9A780270DB78A4
:103608000B70F9E7B3F9024052B1157B94FBF5F45E
:103618000470B3F904302AB1527B93FBF2F3EFE75D
:103628000C25F3E71222F8E730B51C7814B1012C09
:103638000FD030BD9D7842B1147B6C430460D878BC
:103648002AB1537B43430B60F3E70C24F5E71223BD
:10365800F8E7B3F902200260B3F90430F3E72DE983
:10366800F0412DED028B1C4D84B004460E461746E2
:10367800984613460A460146D5F8AC09B0EE408A8A
:1036880032F0F2FE9FED150A9DF83030CDF8048037
:1036980028EE000A0022FDEEC07A009217EE901A7A
:1036A80002A80EF0F7FB9DF834001CF03DFD8046A3
:1036B800384636F097FA611C0144CDF8008002AB19
:1036C8003246C9B2D5F8AC0932F093FE04B0BDEC6D
:1036D800028BBDE8F08100BFC03E00200000C84258
:1036E80070B50D4C06460D4613460A460146D4F8F9
:1036F800AC0932F041FF94F9B03904EB43020133CD
:103708005BB2272BC8BF002382F8B16982F8B2598F
:1037180084F8B039012070BDC03E00202DE9F34780
:10372800284C1646FE2284F8032A94F8182B84F8AD
:10373800052A013284F8182B4FF6FF721F4684F8C9
:10374800046A84F8060A84F8071AADF806200625E4
:1037580004F60428013DADB23DBBDFF87080BDF82A
:10376800063094F8045AA4F8013A4FF6FF79A8F104
:10377800080A013DADB24D451ED138461249FDF744
:1037880017FC94F8043AB4F8012A234406F1080017
:1037980083F8092A94F8043AB4F8012A2344120A4F
:1037A80083F80A2A02B0BDE8F0870DF1060118F87F
:1037B800010BFDF7FDFBCDE7514618F8010BFDF7AE
:1037C800F7FBD6E7C03E0020C1480020C9480020CA
:1037D80017B48DF805308DF804200A4BBDF8042085
:1037E8009DF81040A3F8092A2F2283F8082A83F8A5
:1037F8000B4A032299238DF8064003B05DF8044B69
:103808008CE700BFC03E0020F8B5204C1D250F46B0
:10381800064684F8425B19F0A1FB002019F02AFB48
:10382800082019F027FB0E2019F024FB284619F070
:1038380021FB042019F01EFB042019F01BFB0020BB
:1038480019F018FB302019F015FB002019F012FBB5
:10385800384619F00FFB002019F00CFB19F05EFB3D
:1038680004F6433019F06EFA234670B194F8432BEE
:1038780052B994F8442B302A00D02AB993F8452B32
:1038880012B993F8463B33700120F8BDC03E0020C2
:10389800011D0023884201D11846704710F8012BFA
:1038A8005340082213F0800F4FEA430318BF83F0F8
:1038B8003103013ADBB2F5D1ECE7094A002310469F
:1038C800117831B19178802903D1682202FB030075
:1038D80070470133102B02F16802F1D100207047C4
:1038E800184A00202DE9F743104B93F86042074629
:1038F8008846C4B90E4DA14605F52576286858B105
:103908002DF02AFC40B1CDF800902B4642463946AE
:10391800B62019F0AFF90446DC35B542EED12046A1
:1039280003B0BDE8F0830024F9E700BFC82D0020EC
:10393800985000200E4B062230B483F876232422B8
:1039480083F8772383F87823002283F87923094AB8
:1039580003F27A3102F1240452F8045B41F8045B63
:10396800A242F9D130BC83F87C030CF0D8BC00BF6C
:10397800B84F002028DC030813490023F0B51A4685
:103988000D461E460A278C1894F8E84C0CB91846C0
:10399800F0BD2E2C06D101320028F8D08C18044432
:1039A80084F8E86CAC187B4394F8E84CA4F1300C2C
:1039B800BCF1090F9CBF303B1B190E2A01D80132FC
:1039C800E1E70023E3E700BFC82D002010B50A4C4B
:1039D80004F50A6006F04CFED4F8AC38C01A34F08E
:1039E80001F90028B8BF404242F210739842D4BF90
:1039F8000020012010BD00BFC03E00202DE9F04F7F
:103A0800B64CD4F878325E6916F001068BB040F0F7
:103A180085825A699B691340019300F07F82C3F342
:103A28000743180700930ED5D4F87C32DFF8B49218
:103A38009F69DB6904F51B7B1F403F0CDA46D846BB
:103A4800002F40F00581009B590711D5D4F87C223E
:103A5800A34F9369D26903EA02081FFA88F83E4621
:103A68004FF0000AA7F51B7BB8F1000F40F040812A
:103A78009DF80450A90741BF984BD3F87832022229
:103A88005A61019B002B1BDA944B93F876223AB1CA
:103A9800D3F87823136823F0030161F30703136055
:103AA800D4F87C228E48536823F0010353608D4B71
:103AB800D3F8AC309847D4F878324FF000425A61C6
:103AC800019BC3F3072632072FD500238DF8173043
:103AD80094F87E338DF81730824B8148D3F8A8309C
:103AE8009847D4F87822D4F87C324FF400619B6868
:103AF800516194F87622C2B1DB0716D594F8813368
:103B0800012B12D19DF81730032B0ED1D4F878333E
:103B18001A6842F001021A601A6842F003021A6039
:103B2800714A136943F0060313612F070AD56B4FD7
:103B38006C4B07F51B70D3F8A0309847D7F878324C
:103B480008225A61ED0614D5D4F87802836923F067
:103B580010038361036AC3F34341022903F00F0290
:103B680000F06C81062900F09181836943F010030D
:103B78008361F00635D5594DD5F87C225368002766
:103B880023F0010353603846FEF70CFAB84695F85F
:103B98006D023B4605F52175FF218342C0F0848103
:103BA800D4F87C324E484FF0FF329A614FF0011240
:103BB800DA610B2262F3070762F307085F61C3F853
:103BC80010801A686FF30A121A6034F097FCD4F860
:103BD800783243484FF480525A61424BD3F8A430AC
:103BE8009847B10640F17C813C4AD2F87C32D2F841
:103BF800840299680268C1F34101022906BF0321C2
:103C080061F30A026FF30A0202605A6842F4807292
:103C18005A6006A834F0F2FFD4F87812D4F87C027F
:103C2800CB68079A6FF38D23CB6085682F48C5F35F
:103C38004105284490F8B400032840F03C81002254
:103C480084F86E224FF40072A4F87022092241E130
:103C5800F9073BD5F1B204EB8103D3F8C0329D6874
:103C6800D4F87C325B691D40EA071FD594F86F02CF
:103C7800DBF854300125A8429D6007D11869DAF8AD
:103C88007C33C0F312001B1ACAF88C33D9F894306D
:103C98004046984794F86F32012B07D136B994F80B
:103CA8007D33052B02D1404634F028FCAB0742BFD8
:103CB800DBF8543002259D60280707D5D9F89C30D9
:103CC80040469847DBF8543008229A6001367F084E
:103CD8000BF1040B0AF1280AB2E600BFC82D002038
:103CE800343000200000002000ED00E098DB0308DD
:103CF80018F0010F61D0D4F87C325FFA8AF919699B
:103D08005D6B04EB890225FA09F5D2F88422ED01EE
:103D18009268EDB20D431540EA071CD55A6BA048CE
:103D2800012505FA0AF122EA01025A63BB699D607E
:103D38009C4B4946D3F89830984794F86F32AB4279
:103D480009D1BAF1000F06D194F87D33042B02D1C2
:103D5800934834F0D3FB280742BFBB6908259D6010
:103D6800E90642BFBB6910259D606A0642BFBB6970
:103D780040259D60AB0742BFBB6902259D602806B0
:103D88001BD5D6E94C329B1AD6F82421D7F818C08F
:103D9800DBF87CE2DCF81850934228BF1346033363
:103DA80009F132099B080BEB8909ADB29D4204D990
:103DB800D6E94C02904200D930B90AF1010A4FEA1B
:103DC8005808043728364FE6D6F82431801A984226
:103DD80028BF18469BF86F22C31C9B08DAB1D6F897
:103DE8002811D6F83421DCF818500144C6F82811F7
:103DF800D6F8301102448A42C6F83421D5D196F853
:103E08001C11DEF83420012000FA01F122EA010237
:103E1800CEF83420C9E7D6F82811029181B20331CF
:103E280089100391D9F874120D4603999142D6D09E
:103E3800029951F8221029600132F6E747F6F0712D
:103E480019423FF492AE282101FB0241C3F30A1341
:103E5800DD1CD4F83CC3D1F8EC75AD1000218D42BF
:103E68000ED1514D282101FB0252D2F8EC1519440C
:103E7800C2F8EC15D2F8F8150B44C2F8F83574E618
:103E8800DCF800E047F821E00131E8E7D4F83C131A
:103E98000D68C4F838580968C4F83C18282101FB93
:103EA8000242C3F30A13E5E755F8042B9160AA6BA5
:103EB8000133916071E6012084F86E024020A4F875
:103EC8007002A0F56400A0F56240384C1044A0428E
:103ED80027D80E2262F38D23CB604FF400534B6139
:103EE800009BDA060BD5304C2E4B04F51B70D3F82B
:103EF800B0309847D4F878324FF480125A61009B5A
:103F08009B060BD5284C274B04F51B70D3F8B4300F
:103F18009847D4F878324FF400125A610BB0BDE8D4
:103F2800F08FA2F57400224CA0F51050A04201D8E1
:103F38000D22CFE71F48204C1044A04201D80C2284
:103F4800C8E7A2F18C701D4CA0F54340A04201D8EF
:103F58000B22BFE71A481B4C1044A04201D80A2282
:103F6800B8E71948194C1044A0427FF66FAEA2F189
:103F7800B770174CA0F55850A04201D80822A9E7FD
:103F88001448154C1044A04201D80722A2E7134850
:103F98001044134A904294BF062205229AE700BFB4
:103FA8003430002000000020C82D00203F420F00C0
:103FB800DFC810002013FBFE1FD61300FF6918008E
:103FC80000D3CEFE3F771B00C05BB3FEBF9121003C
:103FD8003FAC2700C01D6AFE3FE13300803C36FE3F
:103FE800DF9C410070477047704770470A4B93F851
:103FF800B6231044C0B2020648BF803883F8B6031F
:1040080093F8B72393F8B613914202BF002283F8BE
:10401800B72383F8B6237047B84F002030B50B4A52
:1040280092F8B63302F56E74E518C0E9005492F8B8
:10403800B72393429BBFD31A0B60C3F180030023BD
:1040480094BF4B60C1E9003230BD00BFB84F0020BB
:104058001FB502A86946FFF7E1FF054B0098D3F8A2
:1040680038341844019B184405B05DF804FB00BFC0
:10407800B84F0020054B93F8B70393F8B63398422E
:1040880036BFC3F18003C01AC0187047B84F00206C
:1040980013B50C4C94F83C0468B10523ADF8003016
:1040A8006A46022301A9D4F8400432F01DFB9DF8AA
:1040B800050000F0010084F83C0480F0010002B023
:1040C80010BD00BFB84F002070B5064CD4F8FC5A9C
:1040D8000646FFF7DDFF20B9D4F8FC3A5B1BB34274
:1040E800F7D970BDD01C002030B51A4C89B0002318
:1040F8001546032200938DF8002094F844248DF887
:1041080004309A420293CDE906351BBF030E8DF8A1
:1041180001300DF101030DF1020314BF0522042241
:10412800CDE90421020C1A70020A98705A70062010
:10413800CDF80CD0FFF7C8FF50B1D4F8400403798C
:10414800022B02D102A9FCF7A5FF284609B030BD11
:104158000546FAE7B84F002007B58DF8070006486E
:1041680001230DF107020021D0F8400432F0BCFA17
:1041780003B05DF804FB00BFB84F002070B51C4DBC
:1041880088B000231646022200938DF8002095F887
:1041980044248DF804309A4214BF05220422CDE944
:1041A800042302931BBF030E8DF801300DF10103A8
:1041B8000DF10203020C1A70020A98705A70044634
:1041C8000620CDE90616CDF80CD0FFF77DFF0620B6
:1041D800FFF7C2FFD5F84004012385F83C34037982
:1041E800022B02D102A9FCF755FF301908B070BDA7
:1041F800B84F00202DE9F04F85B08B46009301EBB6
:104208008203019302900B464FF0000A53F8042BE7
:104218009244019A9A42F9D1009B002B50D1FFF7A2
:1042280037FF00284CD1009805B0BDE8F08F029DFB
:104238005F46A0463B4657F8042B002A3AD0424531
:1042480029682BD342460393FFF798FF2A68039BFC
:1042580042442A601A68A2EB08021A60D9F8383476
:10426800361B1C44009BC9F83844A3B19EB1D9F849
:104278003804C4B2A319B3F5807F134BD3F8CC30FC
:104288008CBFC4F5807434469842D0D3002389F893
:10429800B73389F8B633AAEB0600C5E7FFF76EFF18
:1042A80057F8042C2B6813442B600023A8EB020852
:1042B80047F8043C019BBB4205F10405BAD1CDE7A0
:1042C8005646DFF80890D1E700000020B84F0020DC
:1042D8001FB50C4C94F8B62394F8B7339A420ED015
:1042E80002A96846FFF79AFE0123022202A968463E
:1042F800FFF780FF002384F8B73384F8B63304B09F
:1043080010BD00BFB84F00201FB50F4C94F8B6235E
:1043180094F8B7339A4214D002A96846FFF77EFE94
:104328000023022202A96846FFF764FFFFF75EFE3A
:1043380094F8B60394F8B733C31A5842584104B0F6
:1043480010BD0120FBE700BFB84F002010B545F2B3
:1043580008200A4CFFF7B8FE0620FFF7FDFE0123F0
:10436800C72084F83C34FFF7F7FE002384F8B733FE
:1043780084F8B633C4F8383410BD00BFB84F0020F5
:10438800F0B51E4C94F83A52C3B006460F46002DBD
:10439800FDD1012384F83A32FCF7D0FFFF2E4FF00D
:1043A800090388BFB5088DF804308DF8056088BF0B
:1043B80005F0C00501AB00224FF00A0C0B2645EAB8
:1043C8000201B85C83F802C00132362AD9701E7126
:1043D800587103F10403F2D14AF20803ADF8DE3054
:1043E80001AADC230021D4F8340232F07DF9FDF76C
:1043F800B5FE002384F83A3243B0F0BDC82D002042
:10440800F8B51D4C94F83A3205460F46002BFDD1FD
:10441800012384F83A32FCF791FFEAB206460921F3
:10442800D4F8340232F0E6F9B5F5807F05D14022A0
:104438000A21D4F8340232F0DDF950220821D4F8E8
:10444800340232F0D7F9FDF789FE0025EAB20A21D5
:10445800D4F8340232F0CEF97A19C021D4F83402F3
:10446800013532F063F9362DF0D10EB9FCF766FF4D
:10447800002384F83A32F8BDC82D00202DE9F04F0A
:104488006E4B6F4E93F83C12A9B00A23002002939A
:10449800024603460DF114094FF0050A4FEA521E71
:1044A800674D02F01F0205EB8E0C4FF0FF3455F8F4
:1044B8002E5004FA02F707EA050292FAA2F2B2FABB
:1044C80082F2D2B2202A6ED002EB4E125D4D05EB7D
:1044D8004205C2F3072CB5F884E44FEA1E245FFABC
:1044E8008EF5019415F0040F09EB03040394D7B279
:1044F80001F0400B03F1010403F1020870D0BBF195
:10450800000F08D10398042341F04001037009F813
:1045180004104346012028AC04EB030EAD004FF015
:1045280006040EF88A4C0EF8875C0EF8844C03F1EA
:104538000B0528AC4CF0020825440EF88B8C019C26
:104548000EF88CAC4FF007080EF8897C0EF8888CB2
:104558000EF886AC0EF885CC0EF8837C0EF8828CAB
:104568000C3305F88C4C4FEA521C012502F01F074A
:1045780005FA07F7029C56F82C50013C25EA070576
:1045880046F82C50029456D110B12C4A82F83C12AD
:104598002A4805AA0021D0F8340232F0A5F80120F3
:1045A80029B0BDE8F08F0CF1040C274A9445674602
:1045B8000ED20CF1040C3D6895FAA5F5B5FA85F212
:1045C800D2B2202AF1D0BF1B12EBC7027FF57EAF13
:1045D80010B11A4A82F83C12002BD9D11846DFE7ED
:1045E800BBF1000F03D101F0380BAB450BD021F024
:1045F8007801039841EA0E010423C9B2037009F84F
:1046080004104346012028ACE5184FF0060405F8CD
:104618008A4C4FF0070405F8897C05F8884C5F1D23
:1046280028AC2744019C05F88CAC05F88BCC0633E4
:1046380007F88C4C97E7013230E700BFC82D0020FF
:1046480000540020B84F00203C540020F7B5234CFC
:1046580094F83A32002B3FD101230DF1070284214F
:10466800D4F8340284F83A3232F060F894F83C22F4
:10467800D4F8340242F00402042132F0BBF80DF100
:1046880007028421D4F8340232F050F89DF807303C
:1046980013F00405F3D13C222946114884F83C3232
:1046A800104E36F0B7FFA6F13C0736F8023B1A0A5F
:1046B80022F0200203F00403134303D029463846AE
:1046C80033F0CAFE0135B5F5F07FEED1FFF7D6FE1F
:1046D8000028FBD184F83A0203B0F0BDC82D0020B1
:1046E800005400203C54002013B5234CD4F8340265
:1046F80000283FD094F83832012B14D0022B14D064
:104708000DF10302A02132F011F89DF8033003F0F7
:104718000503012B07D04BB1184BD3F8FC2A40F204
:10472800DC539A4226D9402300E0002343F00803D3
:1047380084F83B328DF8053040F20443ADF806307A
:1047480004230DEB03020021D4F834028DF8041081
:1047580031F0CAFF3C22FF21094836F05BFF94F88C
:1047680039323BB9D4F834320BB1FFF76FFF01236C
:1047780084F8393202B010BDC82D0020D01C0020AA
:10478800005400204268034B9A420CBF95209620A3
:10479800FDF7B8BC006002400348D0F8BC3213B142
:1047A80000F52C7018477047000000200348D0F827
:1047B8009C3213B100F524701847704700000020A0
:1047C8000348D0F87C3213B100F51C7018477047C5
:1047D800000000200348D0F85C3213B100F51470D3
:1047E80018477047000000200348D0F83C3213B146
:1047F80000F50C7018477047000000200348D0F8F7
:104808001C3213B100F504701847704700000020EF
:104818000348D0F8FC3113B100F5F8701847704719
:10482800000000200348D0F8DC3113B100F5E8702F
:1048380018477047000000200348D0F8BC3113B176
:1048480000F5D87018477047000000200348D0F8DA
:104858009C3113B100F5C87018477047000000205C
:104868000348D0F87C3113B100F5B8701847704789
:10487800000000200348D0F85C3113B100F5A8709F
:1048880018477047000000200348D0F83C3113B1A6
:1048980000F5987018477047000000200348D0F8CA
:1048A8001C3113B100F588701847704700000020CC
:1048B8000348D0F8FC300BB1F0301847704700BF00
:1048C800000000200348D0F8DC300BB1D030184786
:1048D800704700BF0000002010B5064C0648D4F809
:1048E8006018FCF7C3FFD4F878180448BDE81040F6
:1048F800FCF7BCBFB84F0020000401400020004076
:1049080010B5064C0648D4F86018FCF7AFFFD4F889
:1049180074180448BDE81040FCF7A8BFB84F002041
:1049280000040140001C004010B5064C0648D4F8AD
:104938006018FCF79BFFD4F870180448BDE81040D5
:10494800FCF794BFB84F0020000401400018004055
:10495800024B0348D3F86018FCF788BFB84F002013
:1049680000040140024B0348D3F85418FCF77EBFFB
:10497800B84F0020000C0040024B0348D3F85018F1
:10498800FCF774BFB84F002000080040024B0348F2
:10499800D3F84C18FCF76ABFB84F00200004004059
:1049A800034B4FF08040D3F84818FCF75FBF00BFB7
:1049B800B84F002010B5064C0648D4F84418FCF748
:1049C80055FFD4F86C180448BDE81040FCF74EBFFA
:1049D800B84F0020000001400048014010B5064CC7
:1049E8000648D4F84418FCF741FFD4F8681804487E
:1049F800BDE81040FCF73ABFB84F00200000014066
:104A08000044014010B5064C0648D4F84418FCF799
:104A18002DFFD4F864180448BDE81040FCF726BF01
:104A2800B84F00200000014000400140024B0348FD
:104A3800D3F84418FCF71ABFB84F00200000014013
:104A48000B4B984212D003F5806398420ED003F5C1
:104A5800705398420AD003F58063984206D003F554
:104A6800806398420CBF01200220704701207047E4
:104A78000000014043685A79032A0FD8DFE802F0A2
:104A88000205080B186834307047186838307047CA
:104A980018683C30704718684030704700207047ED
:104AA80038B503681B681C68284B07EE102AD3F832
:104AB800D0224368013918688DB2FFF7C1FFB2FBF5
:104AC800F0F007EE900AB8EE477AF8EE677A87EECC
:104AD800870ADFED1F7A30EE270A36F029FF1D4AD4
:104AE80023880138944280B29BB212D002F58062CA
:104AF80094420ED0B4F1804F0BD0A2F5803294428C
:104B080007D002F58062944203D002F58062944295
:104B180002D123F070039BB20F4A944206D002F5EB
:104B2800806294421CBF23F440739BB22380094BDC
:104B3800E5629C42208503D003F580639C4201D145
:104B4800002323860123A38238BD00BF0000002074
:104B58000AD7233C000001400010004008B572B697
:104B680000224FF0FF31930003F1604303F56143E6
:104B78000132082AC3F88010C3F88011F3D1024B20
:104B8800024A1A60FBF7EAFFFCFF0120EFBEADDE28
:104B980008B572B600224FF0FF31930003F160436D
:104BA80003F561430132082AC3F88010C3F8801165
:104BB800F3D1FBF7D3FF0148FBF7E2BFD80200208F
:104BC8000148FBF7DDBF00BF240500200148FBF7C3
:104BD800D7BF00BF700700200148FBF7D1BF00BF57
:104BE800BC0900200148FBF7CBBF00BF080C002020
:104BF8000148FBF7C5BF00BF540E00202DE9F3475D
:104C080099463E4B904603EB80020546D2F8B840E1
:104C1800002C70D0D833636004F13E03A36104F51F
:104C28009F73E3614FF48073C4E904332368E16040
:104C3800A36394F83D0031F029FB064694F844023A
:104C480094F83CA0271D08B1FDF75CFA94F84502DA
:104C580008B1FDF757FAD4F840321BB1284A116B56
:104C68000B43136319F0080F24D00135EDB21EB1C0
:104C78004FF4E163F380357219F0100F94F846226F
:104C880014BF02211221304634F050F894F847320C
:104C98008DF80430D4F848329B098DF8053001A806
:104CA8004FF48073ADF8063033F0C6FE384602B0D4
:104CB800BDE8F08718F0020F0CD06B1CDBB21EB1F8
:104CC8004FF4A162F280337294F8462202213046F2
:104CD80034F02CF818F0010FD8D0504631F0D6FA3D
:104CE8000135EDB218B14FF4C163C380057294F871
:104CF80046220221C8E72746D8E700BF98DB030809
:104D080000380240074B03EB8000D0F8B83033B1CD
:104D180093F83D204A7093F83C300B7070474B7005
:104D2800FBE700BF98DB03082DE9F043694FC60095
:104D380007EB060985B0054619F8580C31F0A6FAB4
:104D4800804619F8570C31F0A1FA044619F8560CA8
:104D5800FDF7D8F96B1CDBB2B8F1000F05D040F6AF
:104D68000E12A8F8062088F808301CB140F60E226A
:104D7800E280237204223A21404633F0D7FF2046CE
:104D880004223A2133F0D2FFBB1953F85C4C524B42
:104D98009C4269D103F5F2331A6A42F400121A628E
:104DA8001A6A22F400121A62BB1913F8552C022A47
:104DB80074D0032A75D04949494B012A0CBF88464B
:104DC8009846B4F8049029F03F0968464FEA094923
:104DD80033F014FF4FEA1949029B4249B3FBF1F142
:104DE80088B249EA0009A4F80490228822F0010256
:104DF8001204120C22803C4A904555D13B4AB3FB21
:104E0800F2F39BB2042B38BF0423421C92B22284D3
:104E1800A383238843F001032380238823F4816339
:104E28003E4423F0020343F48063238056F85C2C4D
:104E38004FF480432381138823F080031B041B0C49
:104E48001380138843F001031380294A182303FBB6
:104E58000523012283F87D28002283F87C5883F8F3
:104E68007E2805B0BDE8F083224B9C4209D103F5AA
:104E7800F0331A6A42F480021A621A6A22F4800233
:104E880091E71D4B9C428FD103F5EE331A6A42F429
:104E980000021A621A6A22F4000284E7DFF84880E6
:104EA8008FE7DFF848808CE708EB4808B3FBF8F396
:104EB8009BB2C3F30B020AB943F001034FF4967295
:104EC8004A4343F400434FF47A71B2FBF1F20132E2
:104ED8009CE700BFF81000200054004000350C008B
:104EE800801A060040420F00A0860100400D030012
:104EF800B84F002000580040005C00402DE9F84FF2
:104F0800BF4BDFF808B31822044602FB003ABD4A3B
:104F1800DFF81083D36843F08073D360BA4B5F68BF
:104F2800182303FB0481454691F97C280BEBC20248
:104F380052F85C6C91F87E28013A142A00F25581E7
:104F4800DFE812F07E009800AE00CC00D800E40044
:104F5800EE00050111011E012A018C01A901D901E8
:104F6800310244025A0264027A0297021500A74BE2
:104F78009AF9007003EBC7074FF0090917F8580CA6
:104F880031F084F9064617F8570C31F07FF9B8F874
:104F9800C43801339BB207463046A8F8C43831F00C
:104FA800A0F9384631F09DF91121304633F000FF61
:104FB8001121384633F0FCFE4FF0650803E0052068
:104FC80000212BF0FDFA304631F0BAF910B9B8F1EA
:104FD8000108F4D1304631F07FF9002105202BF08B
:104FE800EFFA304631F07DF9052000212BF0E8FA80
:104FF800B9F10109E0D1304631F06EF90021052000
:105008002BF0DEFA384631F067F9002105202BF045
:10501800D7FA304631F065F9052000212BF0D0FA97
:10502800384631F05EF99AF90000431C01D0FFF7C9
:105038007BFE182303FB0453002283F87E28D4E068
:105048003388182613F4007306FB048602D186F809
:105058007E38CAE06E4BD6F88008D3E90023381AA8
:10506800002135F001FC42F20F73984240F3BD80F5
:105078001523ECE7338823F400631B041B0C3380EF
:10508800338843F480633380338843F480733380F8
:10509800182303FB0483032283F87E28C3F880784F
:1050A8005C49304633F019FD18230146002800F00A
:1050B800778103FB045393F886286AB993F8872805
:1050C800FF2A04D193F884280AB10A22B5E71823E5
:1050D80003FB04530422B0E70F22AEE703FB04836B
:1050E80093F8852802F0FE023282052283F87E2892
:1050F800C3F880784849304633F0EFFC002800F0C8
:105108008E81182303FB0453062296E703FB0483CE
:1051180093F887283282072283F87E28C3F880789C
:105128003E49304633F0D9FC002800F07881182336
:1051380003FB0453D3F888283AB9328842F4007242
:105148003280C3F88078012277E7082275E7338830
:1051580043F480733380182303FB0483092283F804
:105168007E28C3F880782B49304633F0B6FC1826E1
:10517800014606FB0456002800F0B6800A2366E7BD
:1051880003FB048393F8852842F0010232820B2244
:1051980083F87E28C3F880782149304633F09DFC97
:1051A800002800F03C81182202FB0452D2F888380B
:1051B800012B39D1338823F480631B041B0C338003
:1051C800EFF31183102181F31288318B318841F478
:1051D80000713180DBB283F311880C2382F87E38AA
:1051E800182303FB0453C3F88078182303FB0455E2
:1051F80095F87E38002B7FF48AAEBDE8F88F00BFA3
:1052080034580020F0ED00E0001000E0F810002015
:105218008058002001000300820007008400070076
:1052280002000300B84F0020022B14D1338843F446
:1052380000633380EFF31181102383F31288338BDB
:10524800338823F480631B041B0C3380CBB283F3B5
:1052580011880D23C2E7338B0E23BFE78A493046F6
:1052680033F022FC18230146002800F0998003FB44
:105278000483D3F88C28511CC3F88C18318A117018
:10528800D3F88828013AC3F88828012283F890289F
:10529800C3F88078D1E67D49304633F005FC0146F5
:1052A800F8B1EFF31182102383F31288338843F4A3
:1052B80000733380182303FB0483D2B2D3F88C180D
:1052C800481CC3F88C08308A087082F31188D3F818
:1052D8008C28511CC3F88C18318A11706FF00102A8
:1052E800D1E7182606FB0486D6F88008684B381ADA
:1052F800D3E90023B5E66549304633F0D5FB1823DA
:10530800014600284CD003FB0483D3F88828032ADD
:1053180028D1328822F480621204120C3280EFF312
:105328001182102181F31288D3F88C18481CC3F815
:105338008C08308A0870318841F400713180D2B20B
:1053480082F31188D3F88C28511CC3F88C18318A41
:105358001170D3F88828023AC3F888280C2283F8F9
:105368007E2840E7022A0ED8328822F4806212048E
:10537800120C3280328842F400723280328A002263
:1053880083F89028DDE6D3F88C28511CC3F88C18D4
:10539800318A1170D3F88828013AC3F8882822E79F
:1053A80003FB0456A0E7338823F480631B041B0C1B
:1053B8003380182303FB048393F8852802F0FE0248
:1053C8003282102283F87E28C3F88078314930462B
:1053D80033F083FB18B3182303FB045393F887288F
:1053E800FF2A04D193F884280AB1132225E618234A
:1053F80003FB0453112220E603FB048393F8872858
:105408003282122283F87E28C3F8807822493046F7
:1054180033F063FB18B1182303FB0453E5E71F4976
:10542800304633F041FB1826014606FB0456002897
:105438003FF45AAF14230AE603FB0483D3F8882801
:105448006AB1D3F88C18013A11F8010B3082C3F80D
:105458008828C3F88C18C3F880781222EDE53288C2
:1054680042F4007232800122C3F8807883F89028D1
:10547800E3E5338843F4007333804FF6FF33B38298
:10548800182303FB04835CE64000001004000010AE
:1054980080580020820007008400070000040010E4
:1054A8000F49D1F8883043F47003C1F888300D4BA8
:1054B8001A68002042F001021A6098601A6822F007
:1054C800847222F480321A60074A5A601A6822F4F9
:1054D80080221A60D8604FF000638B60704700BF6D
:1054E80000ED00E0003802401030002410B5104CE8
:1054F80094F87632B3B10F4A136823F006031360A9
:10550800FFF7CEFF94F8763263B1D4F87C329B680B
:10551800DB0707D5D4F87823136823F0030161F378
:1055280007031360044B4FF480225A6110BD00BF7B
:10553800C82D002010ED00E0003C01400D4B93F811
:105548007C28B2B10C4AD3F8901802EB8002D2F84A
:1055580000218A420DD3D3F894188A4209D8C3F897
:10556800A828D3F88428C3F8AC0842F00202C3F88C
:1055780084287047D01C002098DB03084B1E032B9F
:1055880001D80846DAE77047164A174B92F87C1894
:10559800C1B10021C3F8D018D2F89C18C3F8D418A8
:1055A800D2F8A018C3F8D818D2F8A418C3F8DC1891
:1055B800D2F8AC18D2F8A828C3F8E018C3F8E42841
:1055C8000A4870470122C3F8D01840F66A11C3F898
:1055D800D428C3F8D828C3F8E028C3F8DC1819225F
:1055E800ECE700BFD01C0020B84F002088580020EE
:1055F800421E38B5D3B2012B05460C4615D84B1EB2
:10560800D9B2072911D803EBC203084A02EB4303B6
:10561800B3F81401FBF701FB38B1054B002283F8FE
:105628009828C3F89C58C3F8A04838BD98DB0308ED
:10563800D01C002008461146DAE7054B93F9E40828
:10564800012806BF022283F8E4280020704700BF23
:10565800D01C0020A1F59C53083BB3F57A7F0FD2EC
:10566800084A012382F8E638B2F8EC28064B914242
:1056780018BF0222C3F8E81818BF83F8EC28DCE743
:10568800704700BFD01C0020B84F00200139CBB2B2
:10569800042B10D8084B03EB41030849B3F8342115
:1056A800B1F8EA18064B9142A3F8EE281CBF022273
:1056B80083F8F028C1E7704798DB0308D01C002066
:1056C800B84F00201FB5104B0246D3F8F408C8B1F4
:1056D8000023CDE901330F248DF80120ADF8021025
:1056E80003938DF800406946012211F8014F0132F9
:1056F80023440E2ADBB2F8D1102269468DF80E3009
:105708002BF06AFE04B010BDB84F0020B1FA81F149
:1057180049094920D6E7034B002183F8F818C3F854
:10572800FC18CFE7B84F00202DE9F047A04D984668
:1057380095F9E4380133164600F0DD809D4CD4F825
:10574800F438002B00F0C2804FF0020900274FF018
:10575800010AD4F8F4082BF01FFD002800F0B680E9
:10576800D4F8F4082BF012FDD4F8FC385A1C234462
:10577800C4F8FC2883F8000994F8F838012B0FD0F6
:1057880059B231B1022B14D084F8F878C4F8FC78F7
:10579800DFE70F280CBF84F8F8A8C4F8FC18D8E78E
:1057A800A0F17203012B01D97628EDD184F8F8987D
:1057B800CFE7102ACDD180490023012211F8010F2B
:1057C800013203440E2ADBB2F8D194F80E2984F88A
:1057D800F8789A42C4F8FC78BBD194F80F39002BBA
:1057E800B7D194F8013995F9E4C8732B64D0762BB6
:1057F80015D0722B6AD194F8032994F8023953EA28
:10580800022363D0BCF1000F60DC94F81029012357
:1058180085F8E438002A59D184F8103956E094F80C
:10582800033994F8022952EA03224FD094F8051953
:1058380094F80439614FA5F8EC2843EA0123A5F848
:10584800EE3894F8073985F8F23894F8081994F87E
:10585800093941EA0321A5F8EA180423BE460120C4
:105868003EF802AB52455FFA80F915D1013385F84D
:10587800E73885F8E898D4F8E8380BB9C4F8E82888
:10588800B4F8EE380BB9A4F8EE18BCF1030F04BF56
:10589800022385F8E43819E001300928E0D1013BFA
:1058A8005BB2581CA7F11007D8D10123A5F8E63838
:1058B800002385F8E838DEE794F8072994F80639D4
:1058C80043EA02231BB20BB1A5F8F03895F9E43886
:1058D800032B10D8DFE803F002021B5FD4F8182965
:1058E8003749B21A8A4206DD3BB97220FFF713FF27
:1058F800344BC3E90068BDE8F087D4F820395A1C56
:10590800DB07C4F8202954BF76207320EEE7D4F8CB
:10591800E818E1B194F8EC38CBB1B5F8EC38994215
:1059280015D089B24620FFF7CDFE94F8EC38013B3C
:1059380084F8EC38032385F8E438234B214AF61819
:105948004FF0000348EB0303C2E90063D3E7B4F860
:10595800EE1879B194F8F03863B1B5F8EE388B42A7
:1059680008D05020FFF7AEFE94F8F038013B84F8D9
:10597800F038DFE7012385F8E438B5F8EC38C4F8E7
:10598800E838B5F8EA38A4F8EE38002384F8F03897
:1059980084F8EC38AFE7D4F818390C4A094DF31AF3
:1059A8009342A8DD7620FFF7B6FEC5E90068A2E7B6
:1059B800D01C0020B84F0020B858002016DD03087E
:1059C80040420F00D0580020E0930400400D03002F
:1059D80038B50A4C00F03F00A4F1440540F0080037
:1059E80004F8400C05212846FBF750FA062104F874
:1059F8003F0C2846BDE83840FBF72EBAF8100020C7
:105A080008B5FBF7C9F990B1094B93F91620022A9A
:105A18000DD161B95B7E13F0040F0CBF0420052083
:105A28001B0748BF40F00200BDE80840D0E708BDAA
:105A38000000002038B5094C01EBC001A4F13E0577
:105A480004F83A1C28460521FBF720FA062104F839
:105A5800390C2846BDE83840FBF7FEB9F81000209D
:105A68000139C8B2042804D8511EC9B2072900D880
:105A7800E0E77047F8B50446600440D5264A04219B
:105A8800092032F085FA254DA5F13807230A0621A9
:105A9800384605F8343C05F8334CFBF7F7F9204B4A
:105AA80005F8320C5A7ED20723D45B8BA34220D14F
:105AB8001C4D3B68C5F82439BB7985F82A3941F271
:105AC8006F724FF6FF73944218BF01231C4405F60A
