:020000040800F2
:100000000000022029940508F599000889200208BB
:10001000D9940508D9940508D99405080000000072
:1000200000000000000000000000000045B10008D2
:1000300047B100080000000049B100081D12010886
:10004000D9940508D9940508D9940508D9940508C8
:10005000D9940508D994050867F600086BF60008DE
:10006000D99405086FF6000873F600082DA1000862
:1000700041A1000855A1000869A100087DA1000860
:1000800091A10008A5A10008D9940508000000006E
:1000900000000000000000000000000077F60008EB
:1000A00065A000088DA00008B5A0000851A00008B8
:1000B000DDA00008F1A0000805A10008D9940508FA
:1000C000D9940508D9940508D9940508D994050848
:1000D000D9940508819C00088D9C00080000000050
:1000E0007BF60008D99405084BB100080000000019
:1000F000000000000000000000000000B9A100089E
:1001000000000000D994050819A10008D994050839
:1001100000000000000000000000000000000000DF
:10012000CDA10008E1A10008F5A1000809A200087E
:100130001DA20008000000000000000000000000F8
:100140000000000000000000000000009DB1000859
:1001500031A2000845A2000859A20008D994050858
:10016000D9940508D994050800000000000000009B
:10017000000000000000000000000000000000007F
:1001800000000000D99405080000000000000000F5
:08019000D9940508D994050873
:1001980080C90181008408B10000000081C9018183
:1001A800008408B10000000080C90181B0AB08B12B
:1001B8000000000080C90181B0A908B1000000005A
:1001C800C9060181B0B0AF85000000003F1A018167
:0801D800B0AF81C90000000076
:1001E00058B7050000840280C0B705000100000078
:1001F00028B905000084028094B9050001000000C0
:1002000094B9050094FFFF7FE0B9050098FFFF7FD8
:1002100018BB05009CFFFF7FB4BC0500A0FFFF7F5B
:1002200020BD0500B0B0AE80C4BE0500B0A80180FE
:100230000CC005000100000024C10500AE80C9808B
:1002400010C70500B0AA05806CC9050001000000B8
:1002500070C9050074FFFF7F9CD4050001000000F9
:1002600030D7050070FFFF7F9CDD05000100000016
:1002700028DE0500AF08B18060E105000100000044
:100280006CE10500A908B18018E305000100000039
:10029000BCED0500B0A9028050EE0500B0B0A8800A
:1002A000A0EE050001000000A8EE0500B0B0AA8095
:1002B000DCEE0500AE71B280A0EF0500AB3F3880E8
:1002C00000F005000100000008F00500B0B0AA80B1
:1002D00044F0050001000000E4F00500AA0DB28022
:1002E00060F10500B0AF088000F4050001000000D7
:1002F00010F40500AD3F02808CF6050001000000FF
:10030000BCF60500B0AD048060F9050001000000F6
:1003100048FE0020010900000300682568FE002057
:10032000011200000000770088FE0020011A000082
:1003300000001E00A8FE0020022E010000012C007B
:10034000C8FE00200236000000001400E8FE002075
:100350000137000000003C0008FF0020013A0000C7
:100360000000200028FF0020013B000000002900C1
:10800000D0E907239A422FBFD01AC0688018C01A3F
:108010007047D0E9092300699A4238BF1218D31A71
:108020000138C01A7047D0E90902131A5842584162
:108030007047036A41690246C85CD16801338B42CC
:1080400028BF002313627047436A8269D154436A90
:1080500002690133934228BF0023426B4362D36815
:1080600043F08003D3607047436B188810F0100012
:108070001EBF1A889B8801207047436B99891A8814
:10808000890610B592B2044607D5900605D5E26A76
:1080900022B39888216B80B29047636B99891A88C4
:1080A000090692B20FD510060DD5D4E909128A42FD
:1080B00022D0A169895C998021690132B2FBF1F07B
:1080C00001FB1022A262998A1A88C90592B204D5CE
:1080D000D20744BF4FF6F7721A8010BD9B88E26941
:1080E0006169DBB28B54E369E2680133B3FBF2F1FF
:1080F00002FB1133E361D0E7DA6822F08002DA6034
:10810000E1E770477047036941681F2B30B54FF0B6
:10811000200285BFA3F120054C680C68AA4098BFD7
:108120009A4022421ED0826900201074D068846870
:10813000206820F0010020605468206865790A4CAE
:10814000828934F8154092B21F2B22EA0402828100
:1081500088BF203B4FF020028BBF9A4002FA03F306
:10816000CA608B6030BD00BF1C0006080E4BDA6889
:10817000D20310D4DA68D1060FD4DA68D2050ED44F
:10818000DA6812F0E00F0CD1DB6813F0020F14BFB5
:108190000820092070470120704706207047022000
:1081A00070470720704700BF003C024007B5092315
:1081B0008DF80730FFF7DAFF8DF807009DF80730DC
:1081C000012BF7D09DF8070003B05DF804FB838A0C
:1081D000028B9BB243EA024331EA03030CBF012046
:1081E0000020704782B00023019300930123009088
:1081F0000193019B63B1009A21F07F4314320092F6
:10820000009A12681A4214BF0120002002B0704781
:10821000009A1832F3E77047704701207047044B0B
:10822000D3E90003984288BF03F50063181A70472A
:1082300090150020054AD2E900318B42FDD0D118BB
:108240000133C3F30A03087A1360704790150020C6
:10825000044BD3F8080820B1D3F80808431F58424C
:108260005841704790150020012380F8493070472D
:1082700010B5D0F8E83504461B699847032384F805
:108280001231002010BD08B590F8123180F813317A
:10829000042380F81231D0F8E835DB6898470020D5
:1082A00008BD08B5D0F8E435DB6903B19847002074
:1082B00008BD08B5D0F8E4351B6A9847002008BD12
:1082C00008B5D0F8E4355B6A9847002008BD30B5A2
:1082D0000138002423460134055D002DFAD1DBB2BC
:1082E00001335B0013800B7003234B70022310F8E3
:1082F000014F04B930BD5A1CD2B2CC5402338D5454
:10830000DBB2F4E710B5074C2068FF2808D0064917
:10831000D1F80C2801F5016100F070F8FF2323600B
:10832000002010BD000000209015002043230148CC
:108330000B80704704000020122301480B80704717
:1083400047000020042301480B807047590000209B
:1083500008B50A4602490348FFF7B9FF084608BDB9
:10836000A81D00209D93060808B50A460249034847
:10837000FFF7ADFF084608BDA81D0020AB93060817
:1083800008B50A4602490348FFF7A1FF084608BDA1
:10839000A81D0020B093060808B50A460249034804
:1083A000FFF795FF084608BDA81D0020BA930608F0
:1083B00008B50A4602490348FFF789FF084608BD89
:1083C000A81D0020C5930608704770477047704786
:1083D00070477047044B00200522C3F80828C3F8F3
:1083E0001809C3F81C09704790150020024B0020A3
:1083F000C3F80808704700BF90150020212838B541
:108400000C461BD022282BD0202815D1A1B1072A39
:1084100012D11A4DD5F81C3913B1096800209847BC
:108420002368C5F82039237985F82439637985F8DC
:108430002539A37985F82639002038BD0029FBD0DD
:10844000072AF9D10D4BD3F820290A6093F8242983
:108450000A7193F825294A7193F826398B71EBE755
:108460000029E9D0022AE7D1044BD3F81839002BB0
:10847000E2D0098800209847DEE700BF9015002071
:10848000074AD2F82839D2F82C29934203F1FF3356
:108490008CBF002001209B1A03EBC020704700BF57
:1084A00090150020ECE730B50F4CD4E900239A4238
:1084B00086BF03F50065AA1A9A1A0A44B2F5006F3E
:1084C00010D801440022814203D102B16360002030
:1084D00030BDE21810F8015B15720133C3F30A03D3
:1084E0000122F0E70220F3E7901500202023014845
:1084F0000B8070475D000020122301480B807047FD
:108500007D000020042301480B8070478F0000206D
:108510000A4608B5044920B90448FFF7D8FE0248C6
:1085200008BD0348F9E700BFC01E0020D39306082A
:10853000EB93060808B50A4602490348FFF7C7FE51
:10854000084608BDC01E00200394060808B50A4668
:1085500002490348FFF7BBFE084608BDC01E0020C5
:108560001694060808B50A4602490348FFF7AFFE0D
:10857000084608BDC01E002021940608002370B5DF
:108580004D1C1E46040FB0F1204F34BF3034373439
:1085900001F8134005F813600133DCB2A2424FEA40
:1085A0000010EFD870BD1A2310B50B80094BD3F81B
:1085B000E807D3F8EC2780180AD0D3F8EA47064931
:1085C0000822FFF7DBFF042210312046FFF7D6FF19
:1085D000024810BD00F0FF1F95000020930000200E
:1085E0004FF400731360034BD3F8383A0B6000204C
:1085F000704700BF90150020002070470120704791
:10860000012070470020704730B414461A69A24216
:1086100009D30D19AA429B6938BF111B0A46E118FC
:1086200030BC56F0F1B930BC704700797047007922
:10863000C0F340107047007940097047704700BF91
:10864000704700BFD0ED007AD0ED036A30EE677A54
:10865000E6EE877AB0EE670AC0ED007A704700BF99
:10866000D0ED017A80ED021AF5EE407AF1EE10FAC3
:1086700004BF9FED0C7AC7EE207A31EE277A08BF4F
:10868000C0ED017AC1EE076AD0ED007AC0ED036A51
:1086900030EE677AE6EE877AB0EE670AC0ED007AD0
:1086A000704700BF83F9223E9FED047AC7EE007A3F
:1086B00077EEA07A80EEA70A704700BF4E2DA63D48
:1086C000002303604360836080ED030A704700BFAE
:1086D00090ED017AD0ED036AD0ED027A30EE470AD0
:1086E000A6EE807A90ED000A80ED017A37EE676A97
:1086F000E6EE867A37EEC07AC0ED027AA6EE870AF9
:1087000080ED000A704700BFD0ED056AD0ED017A18
:1087100090ED007A90ED066AD0ED025A90ED035A82
:1087200080ED050A66EEA77AC0ED066AE7EE007AEC
:1087300090ED077AE5EE867A90ED086AD0ED045A5E
:1087400080ED087AE5EE477AE5EEC67AB0EE670A84
:10875000C0ED077A704700BFD0ED057A90ED006A52
:1087600090ED067AD0ED035AE6EE007A90ED016ABC
:10877000F0EE406AA6EE267AB0EE670AD0ED047AF3
:1087800090ED026A67EEC07AA5EEC07AE6EE267A30
:1087900080ED057AC0ED067A704700BFD0ED0C7A07
:1087A000D0ED046AD0ED0A3A90ED056AD0ED094AA1
:1087B00090ED063A90ED074AD0ED0B2A9FED355A21
:1087C000D0ED111AF6EE005A67EEA66A63EEA55ACE
:1087D00027EE866A26EEA57A22EE855AA6EE247A40
:1087E000B6EE001AA3EE277A67EE847A90ED0D4A72
:1087F000A7EE857A90ED0E5A30EE470AB0EE453A74
:1088000020EE044AB0EEC02A92EE043A67EEA55A72
:10881000A1EE835AE6EEA45A90ED004A80ED0E5A7E
:1088200036EE256A70EE055ADFED1A1A24EE253A67
:10883000E7EEA46AB0EEC35AB4EEC52AF1EE10FA20
:1088400048BFC0EE045A90ED035A90ED012AC0EDE6
:10885000085A48BF24EE253A90ED024A25EE215AE7
:1088600024EE014AC2EE241A84EE232AC5EE224ADF
:10887000A1EEA56AE2EE256AE4EEA57A37EE030AD8
:1088800080ED056A80ED060AC0ED046AC0ED077A46
:10889000704700BFABAA2A3E03685A1C02601970D9
:1088A000704700BF03690133012B03611CD0D0ED79
:1088B000005AD0ED026A07EE903A30EE656AF8EEA3
:1088C000E77A86EE277A77EE257AB0EE667A30EE92
:1088D000670AC0ED017AA6EE007AC0ED007A80ED5D
:1088E000037A80ED027A7047002380ED010A80ED63
:1088F000000A8360704703685A1C02601970704751
:108900002DE9F347038A8689B6B205460C461E4018
:108910004FF0004901F14C0701F1340816B902B0DB
:10892000BDE8F087B6FA86F329FA03F2D24391B292
:10893000298216401B3B002C40D0042BEED8DFE8E8
:1089400003F039342E280300E368D5F82CA02BB1AE
:108950009B681BB11FFA8AF1201D9847636A33B1E7
:108960009B6823B11FFA8AF104F11C009847E36B5E
:108970002BB19B681BB11FFA8AF140469847636D83
:10898000002BCBD09B68002BC8D01FFA8AF1384649
:1089900003E0E368696B5B68201D9847BEE7636A84
:1089A000A96B5B6804F11C00F7E7E36BE96B5B689C
:1089B0004046F2E7636D296C5B68E8E7042B06D854
:1089C000DFE803F00D0B09070300EB6A0193019B3D
:1089D000A4E76B6BFAE7AB6BF8E7EB6BF6E72B6C96
:1089E000F4E790F84820531C0244DBB280F848308A
:1089F00082F8341090F849200AB1132B01D94FF0B6
:108A00006BBC7047002280F849204FF065BC10B560
:108A10001C2007F0E2F81121044607F0B6F82046C2
:108A200007F0AEF8C8200AF014FB2046BDE810405D
:108A300007F0A1B870B50F4E96F8683A002BFBD13D
:108A400004464518AC4201D1002070BDD6F82C393F
:108A500014F8011BF2180133C3F30A0382F8691AF0
:108A6000C6F82C39FFF70CFD0028EBD101200AF0E5
:108A7000F0FAF7E79015002038B50C461146FFF7DD
:108A8000E7FB48B1054D002AD5F8743104DD2046D6
:108A9000FFF7D0FFD5F8743138BD00BF882600201D
:108AA000F0B590F8CF5590F8CE1590F8D12590F804
:108AB000D03590F8CC7590F8CDC501EB05218DB27D
:108AC00003EB022390F8D31590F8D22585B002EB82
:108AD000012207F01F06012192B29BB28E4204468A
:108AE0008DF808708DF809C0ADF80A50ADF80C305B
:108AF000ADF80E20C0F8402180F8111100F00C8173
:108B0000022E00F01D81002E40F09B81BCF1090F68
:108B10005ED8DFE81CF0B600F4005D00C8005D0020
:108B200057000A005D00A90076002E0A022EADF85B
:108B300006200BD0032E25D0012E49D1D0F8EC35DC
:108B40001B68A0780DF10601984709E0D0F8E435DC
:108B500080789B6A0DF1060198474670C4F8F005CD
:108B6000BDF80620002A47D0BDF80E30002B43D0B8
:108B70009A4228BF1A46ADF80620014620464FF01B
:108B800099FA39E0E9B2052922D8DFE801F00307B4
:108B90000B0F1317D0F8EC355B68D2E7D0F8EC3543
:108BA0009B68CEE7D0F8EC35DB68CAE7D0F8EC3547
:108BB0001B69C6E7D0F8EC355B69C2E7D0F8EC3545
:108BC0009B69BEE71A4303D190F81231032B03D1FE
:108BD00020464DF009F90FE0016905F07F0680F8A5
:108BE00014610B6865F30A121A430A604FF076FAB3
:108BF0002EB1022384F81231002005B0F0BD01230C
:108C0000F8E7E9B2904D012985F87811E0D890F89D
:108C10001231022B0FD0032BDAD1C1B9022380F815
:108C20001231D0F8E43580F810115B68984720467F
:108C30004FF054FAE0E70029F9D00121032380F82E
:108C4000101180F8123120464FF031F9EFE790F81B
:108C500010110129EBD0D0F8E4355B68984795F8FE
:108C6000781184F81011EEE7012AB1D190F8123191
:108C7000022B04D0032BABD100F588717EE773493A
:108C80007CE790F81231023B012BA1D86E4B0022F9
:108C9000C3F88021D0F8182112B10222C3F8802134
:108CA0006B4902226AE7012D08D1C0F81851D4F8A7
:108CB000E43502A99B6820469847B8E7022D9BD16E
:108CC000DAB2002A98D102691B0A023B5268032BD0
:108CD00003D8DFE803F00C0E1012012363F3061231
:108CE000594BC3F88421012384F816319FE70223EE
:108CF000F4E70323F2E70423F0E70523EEE790F817
:108D00001231023B012B3FF663AF012D7FF474AFAC
:108D10000023C0F81831CAE790F81221032A7FF423
:108D200057AFDBB2012B3FF653AFD0F8E43502A9C1
:108D30009B689847BDF80E30002B7FF45DAF76E757
:108D400007F06007202FD9B205D1D0F8E43502A989
:108D50009B68984750E7BCF1010F31D0BCF1030F7D
:108D60001ED0BCF1000F7FF447AF90F81221022A09
:108D70005AD0032A7FF42CAF13F0800F4FF0280253
:108D8000314B59D001F07F0102FB010191F81E2106
:108D9000002A4FD00122C3F888212E490222EDE695
:108DA00090F81231022B3FD0032B7FF411AF002D2E
:108DB0007FF47DAF4A063FF47AAF4FF084F876E750
:108DC00090F81221022A2FD0032A7FF401AF002D40
:108DD0007FF412AF11F07F003FF429AF5BB2002B9C
:108DE0004FF02802B5BF02FB004102FB014101F533
:108DF0008E7101F55D710022DB0F08708A704B7077
:108E000004EB8000C9786BB18269136802396FF393
:108E1000555301298CBFC3F30071012161F31C7309
:108E2000136044E7426DF0E74B063FF4E5AE4FF0C8
:108E30004AF8E1E60022AEE702FB010191F8762351
:108E4000A6E707F08001F2E788260020042800202A
:108E5000082800201028002010B5044671BB90F8A7
:108E60001131032B1BD1D0F89023D0F87C339A42D8
:108E700017D9C178012908BFD0F88013A2EB0302EB
:108E800004BFC918C0F88013934228BF1346C0F826
:108E900090239BB2D0F8802300214FF0CFF900201F
:108EA00010BDD0F8E4351B6923B190F81221032AD4
:108EB00000D1984720464FF011F9F0E7D0F8E4359B
:108EC0009B69002BEBD090F81221032AE7D1984739
:108ED000E5E770B50A7812F0600406460D462AD020
:108EE000202C2FD1CC884B78FCB112060CD51F4911
:108EF00022461846FFF782FAEA881C4930464FF0AE
:108F0000D9F80024204670BD194A1360194A03237A
:108F1000C2F80C4880F81131C0E9E444234602F558
:108F2000016200214FF08AF9EBE702221144184652
:108F3000FFF764FAE6E74B780A2B08D00B2B0BD02F
:108F4000062BDFD130464CF04FFF0224DAE70A4906
:108F500001224FF0AFF8D5E78B781BB9074BC3F868
:108F60008C41CFE74CF040FFCCE700BFA01D0020B4
:108F700000000020901500201428002088260020E2
:108F800010B5282303FB0101074AB1F88C130446EE
:108F90001046FFF788FA2046034A402301214FF08C
:108FA0004DF9002010BD00BF1828002070B50F4DEE
:108FB000D5F8D831044643B195F8DC2195F8F03165
:108FC000134302D101214EF07EFF812120464EF055
:108FD0007AFF95F8F031022B07D12046044ABDE80C
:108FE00070401F2301214FF029B970BD8826002051
:108FF00058280020002310B51946044640224EF0A0
:10900000BCFF40228021204600234EF0B6FF012302
:1090100084F81231D4F8E835A0785B6898470020CE
:1090200010BD38B540220446022381214EF0A5FF31
:1090300020460223402201214EF09FFF20460323B9
:10904000082282214EF099FF084B0222002583F866
:109050004B2083F84C50FFF7BDF901212046044A0C
:1090600040234FF0EBF8284638BD00BF0000002039
:109070001828002010B5812104464EF055FF2046E7
:1090800001214EF051FF204682214EF04DFFFFF7A7
:10909000ADF9002010BD10B5812104464EF044FF0B
:1090A000204601214EF040FF024B002083F8F101E1
:1090B00010BD00BF8826002038B5264C94F8682AD9
:1090C000012A034633D12448D0F8F4211AB984F890
:1090D000682A002038BD402AD4F8281919D9403A06
:1090E00001F14005C0F8F421C4F8285940221B487A
:1090F00010FA81F1C3E9541140F201100021C3E9D3
:109100005621A3F8440103F5A27118464EF0FDFF65
:10911000DFE702EB0105C4F828594FF00005C0F85D
:10912000F4510ABF022092B284F8680ADFE7022AEB
:10913000CFD1002540F20112C0E95455C0E956557F
:10914000A0F8442100F5A2714EF0DFFF84F8685AC0
:10915000BFE700BF9015002088260020F91F0020DF
:1091600038B52A4CD4F8F8310F2B03F1010203D0A3
:10917000C4F8F821002038BD254A0023C4F8F8318E
:1091800092F8683A002BF5D1D2F82819B1F5006FA2
:1091900008BFC2F82839D2F82819D2F82C399942D8
:1091A00003D1002382F8683AE4E78CBFC1F500637D
:1091B0005B1A402B1BD9403B01F14005C4F8F43148
:1091C000012382F8683AC2F828594023114A12FA5A
:1091D00081F140F20112A0F844210022C0E95411AB
:1091E000C0E9563200F5A2714EF08FFFC2E701EBE5
:1091F0000305C2F828594FF00005C4F8F4510EBF1A
:10920000022401249BB282F8684ADFE78826002006
:1092100090150020F91F002070B50446144EFFF78A
:109220003AFF20460223402281214EF0A6FE402232
:109230000121204602234EF0A0FE0025D6F8FC3185
:1092400086F8F1511B6886F8F05128469847E06887
:109250004FF012F8E06801214FF024F820461F2358
:1092600006F5E87201214EF0E9FF284670BD00BF07
:109270008826002008B500204DF01CF9002008BD0C
:109280002DE9F843089D0E4617460021202204468A
:10929000984655F0F2FD4DB12B68E3811A0C6B68CE
:1092A0002282E3821A0C6B892283638230464FF05C
:1092B00089F9FB0604D400F1FF39B9F1FF3F40D131
:1092C000082802464FF0FF39A8BF082200254FF0BA
:1092D000203363602360C4F807303146204655F0E0
:1092E00093FB04F1080309F101012A4618463144B1
:1092F00055F08AFB621E0346E01D12F8011FA1F122
:109300006105192D9CBF203911709042F5D1184686
:1093100004F10B0210F8013BA3F1610119299CBF74
:10932000203B00F8013C9042F4D1182323734FEA0C
:109330001843A382099BE772A4F81A80E361BDE891
:10934000F88316F809302E2B02D009F1FF39B4E763
:109350004A46A0EB0905082A05F1FF35A8BF0822F7
:10936000032DA8BF0325B2E72DE9F04F012085B0FA
:109370000D46164699464DF09DF8B64F04352C1F04
:10938000B9F1000F06D148464DF094F8484605B0B3
:10939000BDE8F08FD7F8502AB24200F2B780D7F874
:1093A00060AAA6EB02084FEAD803DAF830200233AD
:1093B000934208F0070803D3DAF83820934218D90B
:1093C0005146184603934CF05FFA039B824670B9EE
:1093D000A5F1080305F5FC729F4943F8041F934269
:1093E000FAD109F1FF39013605F50075C7E7C7F86D
:1093F000600A9AF80420002A6DD04FF40072002110
:10940000204655F03AFDDAF84030B8F1000F47D168
:10941000CDE9008805F11C0B43BB43462046D7F835
:109420003C1A0822FFF72CFF5C464FF4F073DAF881
:10943000448004EB030AB8F1000FD2D05445D0D0D9
:1094400098F80420D8F80010D8F8303004F1200B38
:1094500008F11C00B2B30022CDE90002112220461F
:10946000FFF70EFF5C46D8F84880E4E7DAF83030C2
:109470007A4911222046FFF703FFDAF840301A6CD0
:1094800005F13C04CDE9008842B9434674491122F4
:109490005846FFF7F5FE4FF4E073C8E71B6BF5E79E
:1094A000002B0CBF01220222C2EB0812DAF8448022
:1094B000B8F1000F03D0013AD8F84880F8D14FF442
:1094C0000073B6E798F805C0D8F81020CDE900027F
:1094D0004CF02102C3E7DAF828B0BBF1000F06D147
:1094E0004FF400720021204655F0C7FC79E7DAF806
:1094F00030209B1ADAF80C2008EBC30802EB482254
:1095000053464FF400712046D8476AE7002E64D1D5
:109510004FF400723146204655F0AFFC802385F8A9
:10952000BA310C2385F8BE31D7F8402A4D49D7F817
:10953000383AC4F8C6218A42C4F8CA3118DDFF227D
:1095400085F8BB2185F8BD2185F8BC21454A013B42
:10955000934228DDFF2385F8BF3185F8C13185F8B6
:10956000C031552385F8FA31AA2385F8FB3138E755
:109570003F2192FBF1F1C1EB811C43F6C16492FBE8
:10958000F4F4A2EB0C02A01020F03F0001320243E1
:1095900085F8BC21FF2291FBF2F2114485F8BD4110
:1095A00085F8BB11D2E73F2293FBF2F2C2EB8214A3
:1095B00043F6C16093FBF0F01B1B811021F03F01CB
:1095C00001330B4385F8C031FF2392FBF3F31A44B8
:1095D00085F8C10185F8BF21C3E7D7F8443A9E4218
:1095E00042D15223237063706123A37084F8E73162
:1095F000D7F8583AC4F8E8314FF000084FF0FF337D
:1096000041227221E27084F8E41184F8E51184F8B3
:10961000E62184F8EC3184F8ED3184F8EE3184F8F9
:10962000EF314FF4F0724146284655F026FC5523A1
:10963000C5F8EC81C5F8F081C5F8F48184F8FE31F5
:109640006FF0550384F8FC8184F8FD8184F8FF31C4
:10965000C7E600BF90150020DEADBEEFFCC00608D7
:10966000FBC00608FF03FB00D7F8403A9E426DD1CD
:109670004FF400720021204655F0FFFBEB2305F864
:10968000043C3B4A582305F8033C902305F8023C70
:10969000136845F8013C5368C5F8033002220023E3
:1096A0004FF0080CF821E372227385F809C0A27309
:1096B000E37369743F212A7321764FF0FF31A1765D
:1096C0003E21D7F8400A2177D7F8381A84F82C20A1
:1096D000091A2162D7F8480AD7F84C1A6376012292
:1096E000091AE3766377A377E37784F82D3084F85B
:1096F0002E3084F82F30616284F8302084F83130C5
:10970000802385F83C30292385F83E30942385F862
:109710003F300E2385F840300D2385F84130154B3E
:1097200085F842C01A68C5F843205A68C5F8472032
:109730001A89A5F84B20104A9B7A85F84D3013689A
:10974000C5F84E305368C5F852300AE7D7F8481AC2
:10975000D7F84C3A8E4206D39E4207D2711A204661
:109760004CF0B6F83DE69E42FFF4BAAEF11AF6E7C9
:109770002F940608389406084594060813460A46AE
:109780000146184633F040BA0068F022FF2107F086
:10979000A3BD0068B422FF2107F09EBDCA4341EA81
:1097A00002120068D2B2D22107F096BD0A460068C4
:1097B000A52107F091BD5521F8E700689622FF2109
:1097C00007F08ABD0A460068872107F085BDC901F8
:1097D00001F080020068782107F07EBDF8B50446EC
:1097E0000E461546071D20683A46FF2108F028FA64
:1097F00030B116B12379DB07F5D40DB123792B7085
:10980000F8BD00220121E9E710B50446FFF7C1FFCA
:1098100018B12046BDE81040F3E710BD10B504466E
:10982000FFF7C4FF18B12046BDE81040E9E710BDBE
:1098300073B50546CDE90023FFF7E6FFA8B128463A
:10984000FFF7B9FF88B12846FFF7DBFF68B16E4626
:10985000082416F8011B2846FFF7E0FF28B1013C59
:1098600014F0FF04F5D102B070BD0020FBE7CC215D
:10987000D4E770B506460C468D18AC4201D10120E4
:1098800006E014F8011B3046FFF7C8FF0028F4D1AA
:1098900070BD38B505461446FFF794FF2846FFF71C
:1098A000B0FF20B11CB12B79C3F34013237038BD36
:1098B00010B50446FFF7A8FF38B12046FFF7D7FFE1
:1098C00018B12046BDE810409BE7002010BDC9013B
:1098D00038B501F0800104461546FFF778FF08B956
:1098E000002038BD002201212046FFF777FF002825
:1098F000F6D023795B092B70F3E710B5021D0446FF
:10990000FF21006808F09CF918B12079C04300F0ED
:10991000010010BD38B50446154600680A46E1212D
:1099200007F0DAFC30B120682A46FF21BDE8384054
:1099300008F086B938BD0A46C321EBE738B5021DE9
:109940000D46F0210446FFF7E5FF08B123792B709F
:1099500038BD0A46E121DDE738B504460D46FFF77C
:109960002CFF40B12046FFF74CFF20B1294620468E
:10997000BDE83840EDE7002038BD70B506460C461E
:109980008D18AC4201D1012006E021463046FFF798
:10999000E3FF01340028F4D170BD024BD3F800027C
:1099A00007F011BB882600200E49D1F8883043F417
:1099B0007003C1F888300C4B1A68002042F0010295
:1099C0001A6098601A6822F0847222F480321A6059
:1099D000064A5A601A6822F480221A60D860044B42
:1099E0008B60704700ED00E000380240103000242A
:1099F0000000000870472DE9F04147690646884697
:109A0000002F59D10368C3F30D0515B3D8F80080B2
:109A10003568FEF7CBFB092840F08780444C23696A
:109A200023F440732361236943F4007323612369A2
:109A300043F001032361C5F80080FEF7B7FB2369FB
:109A4000092823F0010323616FD1336804333360A5
:109A500032E0384A934229D302F58042934224D31C
:109A600002F5804293422AD3334A934229D902F520
:109A70008032934227D902F50032934225D902F56C
:109A80000032934223D902F50032934221D902F5E4
:109A9000003293421FD902F5802293421DD9B3F1BF
:109AA000016F1CD3052009F021FE0825FEF77EFB7F
:109AB000092816D04FF0FF373846BDE8F081102551
:109AC000F4E71825F2E72025F0E72825EEE7302512
:109AD000ECE73825EAE74025E8E74825E6E758259A
:109AE000E4E7134C236923F440732361236943F4AF
:109AF00000732361236923F0F803236123691D4365
:109B000045F002052561236943F480332361FEF7A4
:109B10004DFB236923F0020323612369092823F005
:109B2000F80323613FF472AFC4E76FF00107C3E7A6
:109B3000003C024000400008FFFF0008002808DB4E
:109B40004209012300F01F0003FA00F0014B43F823
:109B50002200704700E100E00028ACBF00F1604047
:109B6000064B4FEA0111ACBF00F5614000F00F0059
:109B7000C9B2B4BF195480F80013704714ED00E067
:109B80002DE9F04798463C4B914603EB8002054691
:109B90009468002C45D02833636004F13E03A36130
:109BA00004F59F73E3614FF48073C4E904332368C1
:109BB00094F83D00E160A36306F00FF8064694F8C0
:109BC000440294F83CA0271D08B14CF0FFFC94F827
:109BD000450208B14CF0FAFCD4F840321BB1274AD8
:109BE000116B0B43136318F0080F23D00135EDB24E
:109BF0001EB14FF4E163F380357218F0100F94F842
:109C0000462211D00221304605F0E4FF94F94702C4
:109C1000D4F84812FFF7A0FF94F94702FFF78EFF30
:109C20003C462046BDE8F08718F0200F14BF1221F3
:109C30003221E8E719F0020F0CD06B1CDBB21EB129
:109C40004FF4A162F280337294F84622022130462A
:109C500005F0C0FF19F0010FD8D0504605F0BDFF48
:109C60000135EDB218B14FF4C163C380057294F8A9
:109C700046220221C8E700BF1C0006080038024047
:109C80000148FEF7FAB900BFB40000200148FEF712
:109C9000F4B900BF0003002070B5002828D04C683C
:109CA0004CB9426815685679AB8902229BB2B24022
:109CB00023EA0203AB818A683AB943681D68AB891D
:109CC00023F001031B041B0CAB81816044B1446889
:109CD000216864798D890223A3402B439BB28B8139
:109CE00032B143681A6893899BB243F001039381B0
:109CF00070BD0B4B30B51A4600241D79854208D142
:109D0000DD68294203D0142000FB042030BD002967
:109D1000F9D001340A2C03F11403EED10020F5E749
:109D20007400060838B503681B681C68254B03F5EA
:109D3000A96393ED007A07EE902AB8EE477AF8EE21
:109D4000677A013987EE270A8DB2DFED1F7A30EE90
:109D5000270A51F06FFE1D4A23880138944280B2D1
:109D60009BB212D002F5806294420ED0B4F1804FC3
:109D70000BD0A2F58032944207D002F58062944263
:109D800003D002F58062944202D123F070039BB2AB
:109D90000F4A944206D002F5806294421CBF23F41D
:109DA00040739BB22380094BE5629C42208503D01F
:109DB00003F580639C4201D1002323860123A38203
:109DC00038BD00BF000000200AD7233C000001403E
:109DD000001000402DE9F0434568A87910F0040315
:109DE00000F002020BD000201746804604240646ED
:109DF0006B79032B49D8DFE803F0094A89C99046FB
:109E00004FF480701F461C460126F1E72D682B8C0D
:109E100023F001031B041B0C2B84B5F820C0B5F8FC
:109E200004902B8B23F073031B041B0C43F0600E78
:109E30002CF0020C6E4B4FEA0C4C4FEA1C4C48EADB
:109E400006069D421FFA89F94CEA060C03D003F579
:109E500080639D420AD14FF6F3730CEA03033B4340
:109E600029F4407943EA040C40EA0909A5F8049072
:109E7000A5F818E06963A5F820C02B8B23F0080330
:109E80001B041B0C43F008032B83BDE8F0832D68F3
:109E90002B8C23F010031B041B0C2B842A8CB5F88D
:109EA00004E0B5F818C0524B2CF4E64C22F0200226
:109EB0004FEA0C4C12044FEA1C4C120C48EA0606FE
:109EC0009D421FFA8EFE4CF4C04C42EA061203D0AB
:109ED00003F580639D420BD122F0800242EA071213
:109EE00022F040022EF4406E42EA04124EEA800E46
:109EF000A5F804E0A5F818C0A9632A842B8B23F4E5
:109F000000631B041B0C43F40063BDE72D682B8C1E
:109F100023F480731B041B0C2B842A8CB5F804E0FB
:109F2000B5F81CC022F400732CF0730C304A4FEAD1
:109F30000C4C1B044FEA1C4C1B0C48EA06069542CD
:109F40001FFA8EFE4CF0600C43EA062303D002F5A4
:109F5000806295420BD123F4006343EA072323F484
:109F600080632EF4405E43EA04234EEA001EA5F807
:109F700004E0A5F81CC0E9632B84AB8B23F0080335
:109F80001B041B0C43F00803AB837EE72C68238C77
:109F900023F480531B041B0C2384258CA288A38BE1
:109FA00025F400552D0448EA06062D0C23F4E6435B
:109FB00045EA06350E4E1B041B0CB44292B243F424
:109FC000C04303D006F58066B44203D122F4804238
:109FD00042EA8012A280A38321642584A38B23F408
:109FE00000631B041B0C43F40063A3834DE700BF15
:109FF0000000014043685A79032A0FD8DFE802F0D5
:10A000000205080B186834307047186838307047FC
:10A0100018683C307047186840307047002070471F
:10A0200010B543681A685879084B0344012093F827
:10A030002041138CA0409BB223EA00031384138CAD
:10A04000A140194389B2118410BD00BF1C0006084D
:10A05000024B0348D3F80412FEF752BC88260020B6
:10A060000000014010B5064C0648D4F80412FEF773
:10A0700047FCD4F824120448BDE81040FEF740BC69
:10A0800088260020000001400040014010B5064C29
:10A090000648D4F80412FEF733FCD4F8281204481A
:10A0A000BDE81040FEF72CBC8826002000000140CF
:10A0B0000044014010B5064C0648D4F80412FEF7DF
:10A0C0001FFCD4F82C120448BDE81040FEF718BC61
:10A0D000882600200000014000480140034B4FF05B
:10A0E0008040D3F80812FEF70BBC00BF8826002082
:10A0F000024B0348D3F80C12FEF702BC882600205E
:10A1000000040040024B0348D3F81012FEF7F8BBDE
:10A110008826002000080040024B0348D3F81412A0
:10A12000FEF7EEBB88260020000C00400348D0F864
:10A13000583513B100F24C5018477047000000200A
:10A140000348D0F8783513B100F26C5018477047C7
:10A15000000000200348D0F8983513B100F28C506D
:10A1600018477047000000200348D0F8B83513B1F5
:10A1700000F2AC5018477047000000200348D0F8A8
:10A18000D83513B100F2CC501847704700000020BA
:10A190000348D0F8F83513B100F2EC501847704777
:10A1A000000000200348D0F8183613B100F20C600C
:10A1B00018477047000000200348D0F8383613B124
:10A1C00000F22C6018477047000000200348D0F8C8
:10A1D000583613B100F24C60184770470000002059
:10A1E0000348D0F8783613B100F26C601847704716
:10A1F000000000200348D0F8983613B100F28C60BC
:10A2000018477047000000200348D0F8B83613B153
:10A2100000F2AC6018477047000000200348D0F8F7
:10A22000D83613B100F2CC60184770470000002008
:10A230000348D0F8F83613B100F2EC6018477047C5
:10A24000000000200348D0F8183713B100F20C705A
:10A2500018477047000000200348D0F8383713B182
:10A2600000F22C701847704700000020036823F0AC
:10A27000010303600023036043608360C3600361E4
:10A28000212343612A4B984203D13D2243F8082CF5
:10A290007047284B984204D14FF4746243F8202C45
:10A2A0007047254B984204D14FF4741243F8382C70
:10A2B0007047224B984204D14FF0746243F8502CFF
:10A2C00070471F4B984203D11E4A43F8642C7047D5
:10A2D0001D4B984203D11D4A43F87C2C70471C4B00
:10A2E000984203D11B4A43F8942C70471A4B98426A
:10A2F00004D14FF03D5243F8AC2C17E0174B984275
:10A30000C3D0174B9842C7D0164B9842CCD0164BAF
:10A310009842D1D0154B9842D6D0154B9842DAD0FE
:10A32000144B9842DED0144B9842E2D0704700BFE5
:10A3300010600240286002404060024058600240C5
:10A34000706002403D00002088600240400F002005
:10A35000A060024000003D20B8600240106402404E
:10A360002864024040640240586402407064024025
:10A3700088640240A0640240B86402402DE9F041C4
:10A380000022012603250B6806FA02FC3CEA0303BF
:10A3900031D10368540005FA04FE23EA0E0303607A
:10A3A0000B79D0F800806FEA0E0703FA04FE013B38
:10A3B0004EEA080E012BC0F800E011D883681F4058
:10A3C00087604B798768A3403B438360436823EAF7
:10A3D0000C0343608B79476893409BB23B434360D7
:10A3E000C36805FA04F723EA0703C360CB79C7689B
:10A3F000A3403B43C3600132102AC4D1BDE8F081C1
:10A40000204A936803F00C03042B10B520D0082BCE
:10A4100020D01D4B1B4C0360A3681C4AC3F30313DD
:10A42000134493F84C170368CB404360A168C1F311
:10A430008221114491F84C1723FA01F18160A1683F
:10A44000C1F342310A4492F84C27D340C36010BD97
:10A450000F4BDFE75368516813F4800F01F03F01A1
:10A46000536814BF0A4A084AB2FBF1F1054A526820
:10A47000C2F30142C3F3881301324B435200B3FBD2
:10A48000F2F3C7E7003802400024F4000000002087
:10A4900040787D01F0B5446B8668A38923F40053AE
:10A4A0001B041B0CA3818279278A0546BFB21003C7
:10A4B00012F0040F4FEA022100F400506A7927F4E9
:10A4C000405740EA0700208214BF4FF4805C4FF0F1
:10A4D000000C12F0010F0CBF002304239207A28985
:10A4E00022F4B05201F4806122F00C0248BF43F024
:10A4F000080341EA0C0112040B43120C1A43A28117
:10A50000A38A23F440731B041B0C85B0A382684606
:10A51000FFF776FF214B9C4203D003F580639C42FA
:10A520003AD1039BA2891921170401FB03F34FF0D1
:10A5300064014CBF7600B600B3FBF6F3B3FBF1F059
:10A5400001FB10330201A08900044BBFDB001B019B
:10A55000323332334BBFB3FBF1F3B3FBF1F303F010
:10A56000070303F00F0313439BB223816A6BAB799C
:10A5700013F0080F938A0BBF23F008039BB21B0450
:10A5800043F0080308BF1B0C938293899BB243F4EA
:10A590000053938105B0F0BD029BC3E7001001405A
:10A5A0002DE9F8431E46204B9DF820509DF824705D
:10A5B0009842894690462CD13B462A463146002097
:10A5C000FFF7DEFA04460020C4E90700C4E90900E9
:10A5D000C4E90B986571A660A7712046FFF75AFF82
:10A5E000EA0707D5636B4FF6DF721A80DA6842F02C
:10A5F0002002DA60626BAB0742BFD36843F080038E
:10A60000D36093899BB243F4005393812046BDE805
:10A61000F883064B984204D13B462A463146012036
:10A62000CEE70024F2E700BF0010014000440040E4
:10A6300081602FE741712DE72DE9F043654F07EB6E
:10A64000C00985B005464FEAC00899F8600705F0D3
:10A65000C4FA064699F8610705F0BFFA044699F86E
:10A6600062074BF0B3FF6B1CDBB21EB140F60E125B
:10A67000F28033721CB140F60E22E2802372042273
:10A680003A21304605F0A6FA204604223A2105F088
:10A69000A1FA07EB0803D3F85C474F4B9C4263D108
:10A6A00003F5F2331A6A42F400121A621A6A22F4AB
:10A6B00000121A62474497F86337022B6ED0032BBF
:10A6C0006ED0464E464A012B08BF1646A78827F093
:10A6D0003F0768463F04FFF793FE3F0C029A414B49
:10A6E000B2FBF3F398B20743A780218821F0010160
:10A6F0000904090C21803C498E4253D13B4BB2FBEB
:10A70000F3F2013092B2042A80B238BF04222084CE
:10A71000A28323889BB243F001032380238823F480
:10A72000816323F002031B041B0C43F4806323802A
:10A730004FF480432381238823F080031B041B0CE8
:10A74000238023889BB243F001032380284B03EB33
:10A750004513012283F84122002283F8405283F8F6
:10A76000422205B0BDE8F083224B9C4209D103F59B
:10A77000F0331A6A42F480021A621A6A22F48002E2
:10A7800097E71D4B9C4295D103F5EE331A6A42F4CC
:10A7900000021A621A6A22F400028AE7124E95E752
:10A7A000124E93E706EB4606B2FBF6F291B2C2F305
:10A7B0000B020AB941F0010141F400424FF49671D5
:10A7C0004B434FF47A71B3FBF1F301339BB2238413
:10A7D0009EE700BF0000002000540040801A0600E1
:10A7E00000350C0040420F00A0860100400D030020
:10A7F0008826002000580040005C00402DE9F0470A
:10A80000B74D460105EB401908F0E4FB99F94022E9
:10A81000B44B8846D10003EBC2020746D2F85C472E
:10A8200099F84222013A142A00F28380DFE812F0FC
:10A83000790089009F00B700C200CC00D500EA0073
:10A84000F5000A01150164017D01A301060217024A
:10A85000290232024302670215005F184FF0090A0D
:10A8600097F8600705F0B9F9044697F8610705F015
:10A87000B4F9B5F8A03201339BB207462046A5F8DB
:10A88000A03205F078F9384605F075F91121204617
:10A8900005F07BF91121384605F077F94FF065088E
:10A8A00003E00520002108F0C3FB204605F05AF91B
:10A8B00010B9B8F10108F4D1204605F061F9002182
:10A8C000052008F0B5FB204605F055F905200021CC
:10A8D00008F0AEFBBAF1010AE0D1204605F050F9CC
:10A8E0000021052008F0A4FB384605F049F90021B5
:10A8F000052008F09DFB204605F03DF905200021CC
:10A9000008F096FB384605F036F9AB1993F940028A
:10A91000431C01D0FFF790FEAB19002283F84222BE
:10A9200007E0238813F4007340F02381AA1982F80A
:10A930004232AB1993F84232002B7FF465AFBDE889
:10A94000F087238823F400631B041B0C23802388D7
:10A950009BB243F48063238023889BB243F48073CB
:10A960002380AB19C3E99278032283F842225E491F
:10A970002046FDF72CFCAB19002855D093F8522245
:10A980005AB993F85322FF2A04D193F850220AB1FE
:10A990000A22C3E7AB190422C0E70F22BEE7AB19B6
:10A9A00093F8512202F0FE022282C3E99278052236
:10A9B00083F842224D492046FDF709FC002800F0AB
:10A9C0007081AB190622A9E7AB1993F853222282B2
:10A9D000C3E99278072283F8422245492046FDF7D1
:10A9E000F6FB002800F05D81AB19D3F854223AB988
:10A9F000228892B242F400722280C3E992780EE17A
:10AA000008228BE723889BB243F480732380AB1921
:10AA1000C3E99278092283F8422233492046FDF7A0
:10AA2000D6FBAB190028B3D1D3E9920142F21072E0
:10AA3000381A68EB0101904271F10002FFF479AF1E
:10AA400015226BE7AB1993F8512242F001022282E2
:10AA5000C3E992780B2283F8422226492046FDF76B
:10AA6000B6FB002800F01D81AA19D2F85432012B40
:10AA70001AD1238823F480631B041B0C2380EFF37B
:10AA80001181102383F31288238B23889BB243F414
:10AA900000732380CBB283F311880C2382F84232F7
:10AAA000AB19C3E9927844E7022B15D123889BB2F6
:10AAB00043F400632380EFF31181102383F31288A2
:10AAC000238B238823F480631B041B0C2380CBB2CD
:10AAD00083F311880D23E1E7238B0E23DEE700BF0C
:10AAE00088260020000000200100030082000700EB
:10AAF000840007000200030086492046FDF772FB30
:10AB0000AB19002890D0D3F85822511CC3F8581222
:10AB1000218A1170D3F85422013AC3F85422012239
:10AB2000C3E9927883F85C22F8E67B492046FDF77A
:10AB300059FBF0B1EFF31182102383F312882388BD
:10AB40009BB243F400732380AB19D2B2D3F85812EE
:10AB5000481CC3F85802208A087082F31188D3F881
:10AB60005822511CC3F85812218A11706FF001024B
:10AB7000D3E7AB1958E768492046FDF733FBAB191B
:10AB800000283FF451AFD3F85422032A03F5127181
:10AB900030D1228822F480621204120C2280EFF35A
:10ABA0001180102282F31288D3F8582202F1010C8E
:10ABB000C3F858C2B4F810C082F800C0228892B21C
:10ABC00042F400722280C2B282F31188D3F8582274
:10ABD000501CC3F85802208A1070D3F85422023A4D
:10ABE000C3F854220C2283F84222C3F84872C1F8F9
:10ABF00004809EE6022A14D8228822F4806212047D
:10AC0000120C2280228892B242F400722280228AA0
:10AC1000C3F84872002283F85C22C1F80480012244
:10AC20007CE6D3F85822501CC3F85802208A1070D2
:10AC3000D3F85422013AC3F85422D6E7238823F4E8
:10AC400080631B041B0C2380AB1993F8512202F084
:10AC5000FE022282C3E99278102283F842222F4911
:10AC60002046FDF7B4FAE0B1AB1993F85322FF2A5E
:10AC700004D193F850220AB113224FE6AB191122E6
:10AC80004CE6AB1993F853222282C3E99278122240
:10AC900083F8422222492046FDF799FA08B1AB1900
:10ACA000EAE720492046FDF79DFAAB1900283FF45A
:10ACB000BBAE142232E6AB1903F51270D3F854225E
:10ACC00082B1D3F85812013A11F801CBA4F810C0A0
:10ACD000C3F85422C3F84872C3F85812C0F804806D
:10ACE00012221BE6228892B242F4007222800122D4
:10ACF000C3F8487283F85C22C0F804800EE623880B
:10AD00009BB243F4007323804FF6FF33A382AB1949
:10AD100073E600BF4000001004000010820007002E
:10AD2000840007000004001038B5114C04EB4014F7
:10AD300094F84152D5B1C4F85432049BC4F8583247
:10AD4000002384F85C320223490084F8532284F8FB
:10AD5000423201229DF8143084F8511284F85222B4
:10AD600084F85032FFF74AFD94F85C52284638BD0B
:10AD70008826002038B5114C04EB401494F8415259
:10AD8000CDB1C4F85432049BC4F8583202234900B0
:10AD900084F8532284F8423200229DF8143084F85B
:10ADA000511284F8522284F85C2284F85032FFF762
:10ADB00025FD94F85C52284638BD00BF8826002047
:10ADC000F0B587B0002300930193744B1A6842F4E6
:10ADD00080321A601A6802F400320192009A01323D
:10ADE0000092019A1AB9009AB2F5A04FF2D11B68ED
:10ADF00013F4003318BF01230193019B012B40F092
:10AE0000B180664B66491A6C42F080521A640A6837
:10AE100042F440420A609A689A609A689A609A6816
:10AE200042F480529A605F4A5A601A6842F0807217
:10AE30001A601A689201FCD55B4A40F202711160F7
:10AE40009A6822F003029A609A6842F002029A60BD
:10AE5000524A936803F00C03082BFAD19368534CC1
:10AE600003F00C03042B7FD0082B7FD0504BC4F889
:10AE700048354A4B4F4D9A684F48C2F3031222445B
:10AE8000002692F87417D4F84825CA40C4F848251B
:10AE90004A4AEA605A6F4A4AAA605A6B22F0800214
:10AEA0005A635A6F42F080725A67196B454A0A43D7
:10AEB0001A635A6B5A631A6C42F0875242F4F612C4
:10AEC00042F41F6242F00F021A64596C3E4A0A4370
:10AED0005A6402A948F2FF73CDE902364FF6FF77B4
:10AEE000FFF74CFA00F580600297FFF747FA00F58C
:10AEF00080600297FFF742FA00F58060FFF73EFAA4
:10AF000000F58060FFF73AFA0846FFF779FA029BEE
:10AF10002E4AB3FBF2F32E4AC2F8A432D5F8FC3025
:10AF20002C4A43F08073C5F8FC302B4BC3F8B02F8C
:10AF30005E601A6842F001021A60D4F848354FF496
:10AF40007A72B3FBF2F3013BB3F1807F08D24FF08A
:10AF5000E0225361F02385F82330072396611361C3
:10AF600007B0F0BD00BFFDE71C4B80E75368516898
:10AF700013F4800F01F03F01536814BF174A0C4AC5
:10AF8000B2FBF1F1054A5268C2F30142C3F38813E0
:10AF900001324B435200B3FBF2F368E70038024042
:10AFA0000070004019604108003C02400000002091
:10AFB0000024F40000ED00E0000002400003FA0568
:10AFC000000000081F9067003357070040420F0041
:10AFD0008826002055CEACC5001000E040787D01E9
:10AFE00082B000230193054B0193019B03EB80008A
:10AFF0000190019B196002B0704700BF50280040CB
:10B0000082B000230193054B0193019B03EB800069
:10B010000190019B186802B0704700BF50280040A3
:10B02000436D064A1A61C278012A06D100F2CC505B
:10B0300058611A684FF080221A6070471800086043
:10B0400038B5044600296FD190F81131022B2AD16E
:10B05000D0F83821D0F824118A4232D9C378012B94
:10B0600004BFD0F828315B18A2EB010208BFC0F87A
:10B0700028314FF48071D0F82831C0F838210025EC
:10B0800092B2A0F81C11C0F82C31C0F83451C0F8AD
:10B09000302100F58E714CF0BBFF2B462A46294625
:10B0A00020464DF0CBF894F81631012B07D1244AF5
:10B0B0002369D2F884215A60002384F816310020D5
:10B0C00038BDD0F83C31B3FBF1F501FB1535A5B91E
:10B0D000994212D8D0F8402193420ED24FF4807397
:10B0E000C0E94A55C0E94C55A0F81C3100F58E71F5
:10B0F0004CF08EFFC4F84051CFE7D4F8E435DB685C
:10B100002BB194F81221032A01D120469847052338
:10B1100084F81131002320461A4619464DF08EF866
:10B120002046FFF77DFFBEE7D0F8E4355B69002BD2
:10B13000C5D090F81221032AC1D19847BFE700BFBC
:10B140008826002070477047704710B5114C94F85E
:10B15000B232CBB14FF0E022D2F8103D23F006031B
:10B16000C2F8103DFEF720FC94F8B23263B1D4F877
:10B17000B8329B68DB0707D5D4F8B423136823F0F3
:10B18000030161F307031360034B4FF480225A61FC
:10B1900010BD00BF88260020003C01402DE9F04F83
:10B1A000974CD4F8B4325A69D0078DB000F1A5821B
:10B1B0005A699B691340019300F09F82C3F30743D0
:10B1C0000293019B190311D5D4F8B832DFF83C92F1
:10B1D0009E69DB6904F52A7B1E40360C04F53F7737
:10B1E0004FF00008DA46002E40F01681029B5A0705
:10B1F0000FD5D4F8B832834E9F69DB691F40BFB2C8
:10B20000A6F118054FF00009A6F53078002F40F0A0
:10B210004881019B9DF80470980741BF784BD3F893
:10B22000B43202225A61019B002B1BDA744D95F84F
:10B23000B2323BB1D5F8B423136823F0030161F3B4
:10B2400007031360D5F8B8226F48536823F0010351
:10B2500053606E4BD3F89C379847D5F8B4324FF013
:10B2600000425A61019B1905C3F3072631D5644D8D
:10B2700000238DF81F3095F8BA338DF81F30634BDB
:10B2800005F52A70D3F898379847D5F8B422D5F841
:10B29000B8324FF400619B68516195F8B222C2B197
:10B2A000DA0716D595F8BD33012B12D19DF81F3062
:10B2B000032B0ED1D5F8B4331A6842F001021A609C
:10B2C0001A6842F003021A60514A136943F00603F8
:10B2D00013613B070AD54A4D4C4B05F52A70D3F84C
:10B2E00090379847D5F8B43208225A61FD0615D533
:10B2F000434BD3F8B402826922F010028261026AE1
:10B30000C2F34341022902F00F0500F087810629AC
:10B3100000F0AB81836943F010038361F00637D5F9
:10B32000374DD5F8B822D5F8B4025368002723F07A
:10B330000103536039464CF0B5FFB84695F8A902B1
:10B340003B4605F53075FF218342C0F09C81D4F85F
:10B35000B8322D484FF0FF329A614FF00112DA6196
:10B360000B2262F3070762F307085F61C3F81080DE
:10B370001A686FF30A121A60FFF752FED4F8B4325B
:10B3800021484FF480525A61204BD3F894379847A4
:10B39000B10640F194811A4CD4F8B832D4F8C00206
:10B3A00099680268C1F34101022906BF032161F3D4
:10B3B0000A026FF30A0202605A6842F480725A600D
:10B3C00008A8FFF71DF8D4F8B412D4F8B802CB6877
:10B3D000099A6FF38D23CB6085680E48C5F341054C
:10B3E000284490F82401032840F05481002284F876
:10B3F000AA224FF40072A4F8AC22092259E100BF3E
:10B400008826002048290020302900200000002044
:10B4100000ED00E01C000608F2073BD55FFA88F15A
:10B4200004EB8103D3F8FC329D68D4F8B8325B6931
:10B430001D40EB0720D594F8AB023B680125A842DC
:10B440009D6007D11869DBF87C33C0F312001B1A2A
:10B45000CBF88C33D9F884375046984794F8AB3200
:10B46000012B09D1B8F1000F06D194F8B933052B9F
:10B4700002D15046FFF7D4FDA80742BF3B68022522
:10B480009D60290706D5D9F88C37504698473B6808
:10B4900008229A6008F10108760804370BF1280B9E
:10B4A000A1E6FB0777D5D8F8B8325FFA89FA1969AF
:10B4B000586B08EB8A0220FA0AFBD2F8C0224FEA46
:10B4C000CB1B92685FFA8BFB4BEA010B0BEA020B7A
:10B4D0001BF0010F1ED05A6BA8484FF0010B0BFA5E
:10B4E00009F122EA01025A633368C3F808B0A44B99
:10B4F0005146D3F88837984798F8AB325B4509D165
:10B50000B9F1000F06D198F8B933042B02D19B484A
:10B51000FFF786FD1BF0080F1EBF33684FF0080BC6
:10B52000C3F808B01BF0100F1EBF33684FF0100BAC
:10B53000C3F808B01BF0400F1EBF33684FF0400B3C
:10B54000C3F808B01BF0020F1EBF33684FF0020BA8
:10B55000C3F808B01BF0800F1DD0D5E94C329B1A00
:10B56000D5F82421D6F800E098F8ABB2DEF8180040
:10B57000934228BF13460333D8F8B82203920AF146
:10B58000320A9B0808EB8A0A80B2984203D9D5E9AF
:10B590004C03984205D809F101097F080436283583
:10B5A00034E6C01AD5F82431984228BF1846C31C87
:10B5B0009B08BBF1000F1CD0D5F82811D5F8342119
:10B5C0000144C5F82811D5F8301102448A42DEF84A
:10B5D0001800C5F83421D7D1039A95F81C11526B85
:10B5E0004FF0010C0CFA01F122EA010203994A63BF
:10B5F000CAE7D5F82821049282B2DAF8B0120332F1
:10B6000092108C4605925946059A8A42D4D0049AE3
:10B6100052F82120CCF800200131F5E747F6F0710F
:10B6200011423FF477AE282101FB0531C2F30A1223
:10B63000D71CD3F878E3D1F828C6BF1000218F4279
:10B640000DD1282101FB0533D3F828161144C3F886
:10B650002816D3F834160A44C3F834265AE6DEF81E
:10B6600000804CF821800131E9E7D3F878130F68A6
:10B67000C3F874780968C3F87818282101FB0533EA
:10B68000C2F30A12E5E755F8042B9160AA6B013367
:10B69000916059E6012084F8AA024020A4F8AC0287
:10B6A000A0F56400374CA0F562401044A04227D8B2
:10B6B0000E2262F38D23CB604FF400534B61029B4B
:10B6C000DA060BD5304C2E4B04F52A70D3F8A03790
:10B6D0009847D4F8B4324FF480125A61029B9B060B
:10B6E0000BD5294C264B04F52A70D3F8A43798477C
:10B6F000D4F8B4324FF400125A610DB0BDE8F08FA7
:10B70000224CA2F57400A0F51050A04201D80D22E1
:10B71000CFE71F481F4C1044A04201D20C22C8E7BB
:10B720001D4CA2F18C70A0F54340A04201D80B2221
:10B73000BFE71A481A4C1044A04201D20A22B8E7C7
:10B740001848194C1044A042FFF457AE174CA2F110
:10B75000B770A0F55850A04201D20822A9E71448BA
:10B76000144C1044A04201D20722A2E71248104410
:10B77000124A904234BF062205229AE7302900205F
:10B78000000000203F420F0088260020DFC8100084
:10B790002013FBFE20D61300FF69180000D3CEFE55
:10B7A00040771B00C05BB3FEC091210040AC270076
:10B7B000C01D6AFE40E13300803C36FEE09C410043
:10B7C00070B5124D124BC5F89C3840F2011200239F
:10B7D00085F8F131A0F84421C0F85C3105F69C02EF
:10B7E0000D23C0E95422044685F8A818C0F8583142
:10B7F00000F5A2714CF089FC05F5E87220461F2384
:10B80000BDE8704001214CF019BD00BF8826002022
:10B810005553425310B5074B93F8DD1104464AF0D7
:10B82000B7F8002804DA20460121BDE81040C7E738
:10B8300010BD00BF88260020F8B50B7813F0600516
:10B8400006460C4638D0202D74D14A78FE2A05D001
:10B85000FF2A1CD04AF0C8FA02252BE04D88A5B972
:10B86000CF88012F11D11A060FD5334CD4F8FC31F3
:10B870009B699847C0B284F8AC0830B13A4604F6E8
:10B88000AC0130464CF016FC14E03046E2E74A8842
:10B89000002AFAD1CD88002DF7D11B06F5D4264A0F
:10B8A000012182F8F15182F8F0111F2302F5E872AC
:10B8B0004CF0C4FC2846F8BD4B780A2B24D00B2B47
:10B8C00025D0012BF6D194F904308988C068002B6B
:10B8D00022DA01F07F014CF0E5FC2179164F304669
:10B8E0004CF022FB02232179402230464CF045FBEC
:10B8F00097F8F031022B12D1812130464CF0E3FA57
:10B90000002387F8F031D5E70C490122BAE70A4B4A
:10B910004A8883F8AD28CDE74CF0AEFCDDE794F91A
:10B920000420002AC6DA012BC4D001213046FFF7DB
:10B9300047FFBFE70025BDE788260020352F002000
:10B9400008B5084B93F8F131022B07D0033B012BCC
:10B9500002D80021FFF734FF002008BDFFF75AFF8F
:10B96000FAE700BF8826002070B52F4C94F8F161EB
:10B9700005461EB1012E54D0002070BDD4F8D4313C
:10B98000C4F8A038D4F8D831C4F8A438B0F8B43327
:10B990001F2B0DD1D4F8D021244B9A4208D194F812
:10B9A000DD11012904D894F8DE31013B0F2B0AD9AF
:10B9B0002021052049F0D6FF022384F8F0312846E3
:10B9C000FDF7F4FAD8E749F0E3FF0028F7DB94F835
:10B9D000F131013B022BCFD9B4F8AE18E9B1D4F85C
:10B9E000D83184F8A868994228BF1946D4F8A438F9
:10B9F0005B1AC4F8A438042384F8F13140F201132F
:10BA0000A5F844310A4BC5E95616C5E9543305F586
:10BA1000A27128464CF079FBAEE72846FFF7D0FE2E
:10BA2000AAE7FFF7F7FEA7E7882600205553424311
:10BA3000387E00204A09012301F01F0103FA01F1B9
:10BA400050F822300B4340F8223070474A09012356
:10BA500001F01F0103FA01F150F82230194214BF1E
:10BA600001200020704780EA0120082341F22102D2
:10BA700010F4004F4FEA400018BF5040013B80B225
:10BA8000F6D170474840082310F0800F4FEA40007D
:10BA900018BF80F0D500013BC0B2F5D1704710B59A
:10BAA0000A440C46944200D110BD14F8011BFFF764
:10BAB000E9FFF7E738B50A46056804460020AA42C0
:10BAC00003D36B1C2360287038BD12F8011BFFF7ED
:10BAD000D9FFF4E782B08DED010A019802B07047FA
:10BAE000C31783EA400070479FED087AC0ED020A51
:10BAF000C7EE007A0023036030EEA77AC0ED017A2A
:10BB0000C0EE877AC0ED037A704700BF83F9223E0A
:10BB100080ED010A704700BF90ED017AD0ED007A08
:10BB2000C0ED020A30EE877AC0EE876A30EE677A9F
:10BB3000E6EE877AB0EE670AC0ED007A704700BF84
:10BB400080ED000A704700BF9FED047AC7EE007ACF
:10BB500077EEA07A80EEA70A704700BF72C7D13D8A
:10BB600000230360436080ED020A7047F5EEC00ACF
:10BB7000F1EE10FA06DCF0EE407A80ED000AB0EE4D
:10BB8000670A704760EE810A90ED007A77EE607A7E
:10BB9000F4EEC07AF1EE10FA0ADC77EE200AF4EE49
:10BBA000C00AF1EE10FA8CBFF0EE407AF0EE607A47
:10BBB000C0ED007AB0EE670A704700BFB4EEE00A4D
:10BBC000F1EE10FA07D4B4EEC10AF1EE10FA88BF14
:10BBD000B0EE410A7047B0EE600A7047874BB3FB86
:10BBE000F2F399420DD300234FF07E52026043607E
:10BBF0008360C36003610023836143610362C361A7
:10BC0000704707EE902ADFED7E6AB8EE677A07EE9E
:10BC1000901A27EE267AF8EE677A27EE277AFDEE5D
:10BC2000C77A17EE903A2033402B00F2D880DFED30
:10BC3000757AB4EEE77AF1EE10FAF0EE477A0CDDA1
:10BC4000DFED715A9FED716AF0EE676AF4EEC66A35
:10BC5000F1EE10FA77EEE57AF6DCDFED6D6AF4EEE0
:10BC6000E67AF1EE10FA0CD5DFED675A9FED696ABE
:10BC7000F0EE676AF4EEC66AF1EE10FA77EEA57A96
:10BC8000F6D4DFED656AF4EEE67AF1EE10FA00F331
:10BC90009C80DFED626AF4EEE67AF1EE10FA03D5ED
:10BCA000DFED5B6A76EEE77A27EEA76ADFED5C5A96
:10BCB000DFED5C6A9FED5C5ADFED5C4AE6EE256ADB
:10BCC000DFED5B5AA6EE265A27EE864AE6EE055AC7
:10BCD000F7EE006AE4EE257AF0EE665AE7EEA45A33
:10BCE000E7EEE46A86EEA54ADFED4B6A77EE267A48
:10BCF000BDEEE76A16EE103A2033402B68D8B4EE5A
:10BD0000E67AF1EE10FA0CDD9FED3F6ADFED3F6A57
:10BD1000B0EE677AB4EEE67AF1EE10FA77EEC67A14
:10BD2000F6DC9FED3B7AF4EEC77AF1EE10FA0CD513
:10BD30009FED356ADFED376AB0EE677AB4EEE67AEA
:10BD4000F1EE10FA77EE867AF6D49FED337AF4EEC0
:10BD5000C77AF1EE10FA47DD9FED2A7A77EE677A1F
:10BD600067EEA76A9FED2E6A9FED2E7ADFED2E4AD1
:10BD70009FED2F5AA6EE867A27EEA63AE6EE874A80
:10BD8000B7EE006AA6EEA45AB6EE007AE3EE057AA4
:10BD9000F8EE003A36EE676A67EEA37A26EE077A87
:10BDA000B7EE005AC5EE256A80ED044A26EE877A82
:10BDB00026EE866A66EEA77A80ED007A80ED016A4B
:10BDC00080ED027AC0ED037A15E7DFED0E6A69E7D0
:10BDD000DFED187AB6EE007AB7EE006AE0E7B7EE6C
:10BDE000004AF0EE445A7FE79FED0C7AF4EEC77AF2
:10BDF000F1EE10FAB4D59FED067AAFE720A1070067
:10BE000027D4D236DB0F4940DB0FC940E4CB1641C3
:10BE1000DB0F49C0E4CB16C1DB0FC93FDB0FC9BF45
:10BE20009A7C2E36FAAF4FB93587083CF304353F7C
:10BE3000A4AA2ABE00000000FDEEC07A17EE903AD8
:10BE40002033402B51D8DFED2A7AB4EEE70AF1EE29
:10BE500010FA0CDDDFED276A9FED277AF0EE407ACD
:10BE6000F4EEC77AF1EE10FA30EE660AF6DCDFED9A
:10BE7000237AB4EEE70AF1EE10FA0CD5DFED1D6A75
:10BE80009FED1F7AF0EE407AF4EEC77AF1EE10FAE9
:10BE900030EE260AF6D4DFED1B7AB4EEE70AF1EEB7
:10BEA00010FA18DDDFED127A37EEC00A60EE007A84
:10BEB0009FED157A9FED156ADFED156AA7EE876A8B
:10BEC0009FED147AE7EE866A60EE275AA7EEA67A0F
:10BED000A5EE870A7047DFED107AB4EEE70AF1EEBF
:10BEE00010FAE3D5DFED057ADEE79FED0C0A704727
:10BEF000DB0F4940DB0FC940E4CB1641DB0F49C0E3
:10BF0000E4CB16C1DB0FC93F9A7C2E36FAAF4FB98E
:10BF10003587083CA4AA2ABEDB0FC9BF0000000079
:10BF20009FED2F7A70EE077AFDEEE76A16EE903AF3
:10BF30002033402B51D8B4EEC70AF1EE10FA0CDDD5
:10BF40009FED286ADFED286AB0EE677AB4EEE67AF4
:10BF5000F1EE10FA77EEC67AF6DC9FED247AF4EE75
:10BF6000C77AF1EE10FA0CD59FED1E6ADFED206A5C
:10BF7000B0EE677AB4EEE67AF1EE10FA77EE867AF2
:10BF8000F6D49FED177AF4EEC77AF1EE10FA1ADDC7
:10BF90009FED187A77EE677A27EEA77ADFED166ABB
:10BFA000DFED165A9FED166AE7EE265ADFED156AA9
:10BFB000A7EE256A27EE875AE7EE066AE5EE267AAF
:10BFC000B0EE670A70479FED107AF4EEC77AF1EE93
:10BFD00010FAE1D59FED057ADCE79FED0C0A70477A
:10BFE000DB0FC93FDB0FC940E4CB1641DB0F49C073
:10BFF000E4CB16C1DB0F49409A7C2E36FAAF4FB91D
:10C000003587083CA4AA2ABEDB0FC9BF0000000088
:10C01000BCEEC00A10B410EE103A9BB2894CB4FBCF
:10C02000F1F4A3420AD300234FF07E525DF8044B93
:10C03000026043608360C3600361704707EE901A3B
:10C040009FED817AF8EE676A07EE903A66EE876AAE
:10C05000F8EE677A66EEA76AFDEEE67A17EE903A9A
:10C060002033402B00F2E180DFED787AF4EEE76ACE
:10C07000F1EE10FAF0EE667A0CDDDFED755A9FED09
:10C08000756AB0EE677AB4EEC67AF1EE10FA77EE22
:10C09000E57AF6DC9FED707AF4EEC77AF1EE10FAED
:10C0A0000CD5DFED6B5A9FED6D6AB0EE677AB4EE9A
:10C0B000C67AF1EE10FA77EEA57AF6D49FED687A9B
:10C0C000F4EEC77AF1EE10FA00F3A7809FED657ADF
:10C0D000F4EEC77AF1EE10FA03D59FED5F7A77EEB2
:10C0E000677A27EEA76A9FED607ADFED604A9FEDE1
:10C0F000605ADFED605AE6EE074A27EE864AA6EE62
:10C10000245AB6EE007AE6EE055AE4EE257A27EEDA
:10C11000877A9FED536A76EE867AFDEEE75A15EE42
:10C12000903A2033402B7BD8F4EEC66AF1EE10FA39
:10C130000CDDDFED475A9FED476AF0EE676AF4EEDB
:10C14000C66AF1EE10FA77EEE57AF6DCDFED426AC8
:10C15000F4EEE67AF1EE10FA0CD5DFED3D5A9FEDE4
:10C160003F6AF0EE676AF4EEC66AF1EE10FA77EE17
:10C17000A57AF6D4DFED3A6AF4EEE67AF1EE10FA3B
:10C1800056DDDFED326A76EEE77A27EEA76ADFED5D
:10C19000366ADFED364A9FED365ADFED365AE6EE67
:10C1A000264A27EE864AA6EE245AF8EE006AE6EE04
:10C1B000055AE4EE257A67EEA66A012A1CBFB7EE9F
:10C1C000006A76EE677A87EE206A5DF8044BB7EE78
:10C1D000007A76EE074A18BFF6EE005A87EE245A28
:10C1E00018BF67EEA55A37EE466A04BFF0EE667ACE
:10C1F000F7EE005A25EE857A67EE857A65EE266AB7
:10C2000026EE056A80ED007AC0ED017A80ED027AB3
:10C21000C0ED036A80ED046A70479FED0C7A5EE71B
:10C22000DFED156AF0EE667AC7E79FED137A70E7E7
:10C23000DFED0C6AF4EEE67AF1EE10FAA5D5DFED4B
:10C24000066AA0E720A1070027D4D236DB0F4940B9
:10C25000DB0FC940E4CB1641DB0F49C0E4CB16C16C
:10C26000DB0FC93FDB0FC9BF9A7C2E36FAAF4FB93F
:10C270003587083CA4AA2ABE00000000B5EE400A9B
:10C28000F1EE10FA26D007EE902AF8EE670ADFEDFD
:10C29000127A08B5034660EEA70A0846F0EE406A37
:10C2A0004BB9FFF721FCFCEEE66A16EE903A99B224
:10C2B000BDE8084092E4022B07D0032BF3D1FCF732
:10C2C000F3F9BDE80840FCF7FBB9FFF73DFCFFF7C9
:10C2D00047FCE8E7704700BFBD378635B5EE400A3A
:10C2E000F1EE10FA02D1044B0B60704703280CBF2B
:10C2F000024B034BF8E700BF3D860008D1860008DB
:10C300005987000830EE604A90ED016A037824EE08
:10C31000066A002B5AD101F00103D0ED0C7A002BF4
:10C3200060D074EE677AF0EE440A90ED0A7AC0EDC0
:10C330000C0AB5EEC07AF1EE10FAC7EE816A54DC51
:10C34000D0ED037A66EEA76A90ED057AD0ED0B5A30
:10C3500020EE077A76EE077A77EEA57A77EEA67A60
:10C36000F4EEE71AF1EE10FA62DCB4EEE72AF1EE31
:10C3700010FA8CBFB0EE670AB0EE420A70EE677A30
:10C38000D0ED044A90ED025A80ED107A67EEA47A5F
:10C39000B0EE657AE4EE057A4A0780ED0E6AA1EE0A
:10C3A000277AC0ED0D5AC0ED0F6A80ED110A08D54D
:10C3B000F0EEC77AF0EEE56AF4EEE67AF1EE10FA06
:10C3C0004AD580ED0B7A0B0735D4704711F0010385
:10C3D0004FF000020CBFF0EE607AF0EE447A02708B
:10C3E000002B9ED177EEE07A9FE7D0ED077A90EDB3
:10C3F000035A80ED081AF5EE407AF1EE10FA04BF08
:10C40000DFED175AC5EE877A31EE277A08BFC0ED07
:10C41000077AC1EE075AD0ED067AC0ED095A76EEDA
:10C42000E76AE5EEA67A65EE276AC0ED067A8BE745
:10C43000B0EE610AA2E7F4EEC71AF1EE10FA08DCDA
:10C44000B4EEC72AF1EE10FA8CBFF0EE471AF0EE08
:10C45000421AC0ED0B1A7047B0EE657AB3E700BF21
:10C4600083F9223E00230122027083634363C36386
:10C47000C36203630364836143647047DFED197A29
:10C4800080ED010AF4EEE70AF1EE10FAC0ED020ABF
:10C4900080ED031AC0ED051A10DC002383600361F0
:10C4A0000023012280ED0A2A027083634363C36381
:10C4B000C36203630364836143647047B4EEE70AB5
:10C4C000F1EE10FA0CDD81EE007AC0EE207AF0EE8B
:10C4D000006A77EE877A86EEA77A80ED047ADFE746
:10C4E0000023DCE7BD378635F0EEC07AB0EEE07AA7
:10C4F000B4EEE77AF1EE10FAB4BFB0EE676AB0EED0
:10C50000476AB5EE406AF1EE10FA46D0B4EEE77A2B
:10C51000F1EE10FA8CBFF0EE675AF0EE475AC5EE16
:10C52000866ADFED1F2ADFED1F3ADFED1F4A9FED20
:10C530001F5A9FED1F3A9FED1F4ADFED1F5AE6EE8F
:10C54000E23AA6EE834AE6EEA34AB7EE006AA6EE0A
:10C55000A45AA6EE846AE6EE855AC5EE866AB4EE63
:10C56000E77AF1EE10FA48BFDFED147AF5EEC00A73
:10C5700048BF77EEE66AF1EE10FA48BFDFED107AB9
:10C58000B5EEC00A48BF77EEE66AF1EE10FA48BF92
:10C59000F1EE666AB0EE660A7047DFED076ADEE725
:10C5A00039094E3DE3B59E3E88FA163E45FE7F3F73
:10C5B00099FB243F69A2163EA7DFA834DB0FC93FD1
:10C5C000DB0F4940B7EE007AF0EEC07AF4EEC77A9E
:10C5D000F1EE10FA77EE676A1DD8B1EEE67ADFED7C
:10C5E0000F5ADFED0F6A9FED0F6AE7EEA65ADFEDF7
:10C5F0000E6AA7EEA56AE7EE866A67EE266AB5EED2
:10C60000C00AF1EE10FA44BF9FED087A77EE666A31
:10C61000B0EE660A7047DFED066AF0E72716983D30
:10C62000306E99BC843459BEA40DC93FDB0F49401C
:10C6300000000000B0FBF1F301FB130308463BB11F
:10C640001946B0FBF1F301FB13030846002BF7D1A9
:10C65000704700BF44F25063984203DDA0F50C40E0
:10C66000A0387047034B9842BCBF00F50C40A03087
:10C67000704700BFB0B9FFFF48F6A043984203DD02
:10C68000A0F50C40A03870470028B8BFC01870470C
:10C6900080EAE073A3EBE0738B4203DB002803DD49
:10C6A000401A704700207047FDD00844704700BF13
:10C6B000884203DB9042A8BF104670470846704787
:10C6C00000230361704770B50378012B044635D110
:10C6D0000369214D23B9426812B9D5F8742142602B
:10C6E000D4ED067A77EE807A013304F11C062361DB
:10C6F000C4ED067A3046FCF7D5F86268D5F8743197
:10C700009B1AA268934219D9E06A94ED0A0A4BF089
:10C710009BFBD4ED057AB4EEE70AF1EE10FA0EDDDC
:10C72000237B4BB9D5F87421236100236260A36198
:10C730003046BDE87040C3E70323237070BDD4EDDD
:10C74000047AD4ED066AF8EE677A022386EEA77AB9
:10C7500084ED067AF1E700BF882600202DE9F0413C
:10C7600004461C30254604F16402064650ED017A69
:10C77000B1EC010A77EE807A40ED017AFCF792F88D
:10C7800018309042F2D12369294F62680133236146
:10C79000D7F874319B1AA268934246D904F1300845
:10C7A000E86A95ED0A0A4BF04FFBA845D4ED057AEF
:10C7B0001CD0B4EEE70AF1EE10FA05F11805EFDD32
:10C7C000237B83BBD7F8742162600022236130464B
:10C7D000A261FFF775FF04F134002263FFF770FFD9
:10C7E000A26404F14C00BDE8F04169E7B4EEE70A49
:10C7F000F1EE10FAE4DCD4ED047AD4ED066AF8EE3A
:10C80000677A022386EEA77AD4ED0C6A84ED067A65
:10C8100086EEA77AD4ED126A84ED0C7A86EEA77ABA
:10C8200084ED127A00E003232370BDE8F08100BF9D
:10C830008826002010B4019C401AA4EB030C00FBD6
:10C840000CFC511A5DF8044B9CFBF1FC0CEB030053
:10C85000704700BF30EE600A32EE612A71EE600A66
:10C8600022EE002A82EE200A30EE210A704700BF35
:10C87000D1ED007ADFEDE16A37EEA67ABDEEC76A48
:10C8800016EE103A2033402B00F25882F4EEE67A8E
:10C89000F1EE10FA0CDDDFEDDB5A9FEDD96AF0EE18
:10C8A000476AF4EEC66AF1EE10FA37EE657AF6DC06
:10C8B000DFEDDE6AB4EEE67AF1EE10FA0CD5DFEDCC
:10C8C000D15A9FEDD16AF0EE476AF4EEC66AF1EEF6
:10C8D00010FA37EE257AF6D4DFEDC86AB4EEE67AC0
:10C8E000F1EE10FA40F30282DFEDC96A36EEC77A44
:10C8F00067EE076A9FEDC76A9FEDC75ADFEDC75A1B
:10C90000A6EE865A9FEDC66AE6EE855A27EE264ABF
:10C91000A6EEA56AA4EE067AF0EE474ABDEEE77AE7
:10C9200017EE103A2033402B00F205829FEDB87AC3
:10C93000F4EEC77AF1EE10FA0CDD9FEDB26A9FEDCE
:10C94000B07AF0EE676AF4EEC76AF1EE10FA77EEAD
:10C95000C67AF6DC9FEDB57AF4EEC77AF1EE10FAFE
:10C960000CD59FEDA86A9FEDA87AF0EE676AF4EE09
:10C97000C76AF1EE10FA77EE867AF6D49FED9F7AC9
:10C98000F4EEC77AF1EE10FA40F3DB819FEDA07A66
:10C9900077EE677A27EEA77ADFED9E6ADFED9E5A83
:10C9A0009FED9E6AE7EE265ADFED9D6AA7EE256AA7
:10C9B00027EE874AE7EE066AE4EE267AB0EE675A7B
:10C9C00091ED017ADFED8D7A77EE276ABDEEE66AAA
:10C9D00016EE103A2033402B00F2A681B4EEE77A2F
:10C9E000F1EE10FA0CDDDFED875ADFED857AB0EE5F
:10C9F000666AB4EEE76AF1EE10FA76EEE56AF6DC06
:10CA0000DFED8A7AF4EEE76AF1EE10FA0CD5DFED8D
:10CA10007D5ADFED7D7AB0EE666AB4EEE76AF1EE3C
:10CA200010FA76EEA56AF6D4DFED747AF4EEE76AD2
:10CA3000F1EE10FA40F39B81DFED757A77EEE66A4E
:10CA400066EEA67ADFED735A9FED734A9FED736A27
:10CA5000A7EEA54ADFED725AA7EE846A66EEA73A02
:10CA6000E7EE865AE3EEA56A66EEC52A24EEA63AFC
:10CA7000B0EE666AFDEEC77A17EE903A2033402B8F
:10CA800000F24F81DFED627AB4EEE77AF1EE10FA50
:10CA90000CDDDFED5C5ADFED5A7AF0EE476AF4EE1A
:10CAA000E76AF1EE10FA37EE657AF6DCDFED5F7AD1
:10CAB000B4EEE77AF1EE10FA0CD5DFED525ADFED65
:10CAC000527AF0EE476AF4EEE76AF1EE10FA37EECA
:10CAD000257AF6D4DFED497AB4EEE77AF1EE10FA72
:10CAE00040F33A81DFED4A7A37EEC77A67EE077A8C
:10CAF000DFED485A9FED484ADFED486AA7EEA54AA8
:10CB0000DFED475AE7EE846A67EE273AE7EEA65A6A
:10CB1000A3EEA57AF0EE476AD1ED027ADFED375A3F
:10CB200037EEA57ABDEEC74A14EE103A2033402BFB
:10CB300000F2EC80F4EEE57AF1EE10FA0CDDDFEDB8
:10CB4000313A9FED2F4AF0EE475AF4EEC45AF1EE17
:10CB500010FA37EE637AF6DCDFED345AB4EEE57A9C
:10CB6000F1EE10FA0CD5DFED273A9FED274AF0EEF3
:10CB7000475AF4EEC45AF1EE10FA37EE237AF6D49F
:10CB8000DFED1E5AB4EEE57AF1EE10FA40F3FA80CA
:10CB9000DFED1F5A35EEC77A67EE075A9FED1D4A43
:10CBA0009FED1D2ADFED1D3AA5EE842A9FED1C4A5C
:10CBB000E5EE823A67EE251AA5EEA34AA1EE847A45
:10CBC00025EE072A64EE871A26EE821A26EE077AE9
:10CBD00026EEA10AFDEEE75A15EE903A2033402BDF
:10CBE00000F28F80DFED0A5AF4EEE57AF1EE10FAEA
:10CBF00027DDDFED043A9FED024A19E0DB0FC93F64
:10CC0000E4CB1641DB0FC940E4CB16C1DB0FC93FB3
:10CC1000DB0F49409A7C2E36FAAF4FB93587083C76
:10CC2000A4AA2ABE00000000DB0FC9BFDB0F49C069
:10CC3000F0EE675AF4EEC45AF1EE10FA77EEE37AAA
:10CC4000F6DC5FED065AF4EEE57AF1EE10FA0CD55B
:10CC50005FED143A1FED144AF0EE675AF4EEC45A31
:10CC6000F1EE10FA77EEA37AF6D45FED185AF4EEEF
:10CC7000E57AF1EE10FA40F390805FED1B5A75EE05
:10CC8000E77A27EEA74A5FED1D5A5FED1D3A5FED8B
:10CC90001D0AE4EE253A67EE845AE4EE230A5FEDBE
:10CCA000203AE4EE203AE5EEA37A64EEA74A65EE78
:10CCB000275AA6EEA42AE6EEE51A67EEC67A31EE0A
:10CCC000241A75EEC05A80ED007AC0ED017AC0EDED
:10CCD000026A80ED031AC0ED041AC0ED052AC0ED0A
:10CCE000065A80ED072A80ED083A70475FED326AF8
:10CCF000B4EEE67AF1EE10FA7FF5FAAD5FED356A43
:10CD0000F4E55FED385AF0EE657ADAE71FED3B2A7D
:10CD1000F0EE421AB0EE420AB0EE421AB0EE427A9B
:10CD200058E75FED406AF7E61FED423AF0EE432A1E
:10CD3000B0EE436A9EE61FED455A41E65FED474A75
:10CD4000ECE51FED477AF4EEC77AF1EE10FA7FF5C5
:10CD500021AE1FED4A7A1BE65FED4D7AB4EEE77A1D
:10CD6000F1EE10FA7FF5C2AE5FED507ABCE65FEDF2
:10CD7000527AF4EEE76AF1EE10FA7FF561AE5FEDFC
:10CD8000557A5BE65FED585AB4EEE57AF1EE10FAAB
:10CD90007FF502AF5FED5B5AFCE65FED5D5AF4EEA6
:10CDA000E57AF1EE10FA7FF56CAF5FED605A66E759
:10CDB0000023036143618361C361036003624362D3
:10CDC0008362C3624360036343638363C3638360BB
:10CDD000036443648364C364C3607047D1ED017A24
:10CDE00091ED007AD0ED044A90ED065AD0ED075A45
:10CDF00090ED050AD0ED080AD0ED0A1AD0ED0C2A04
:10CE000090ED0D3AD0ED0E3A90ED091A90ED0B2A07
:10CE1000F8EEE76AD1ED027AB8EEC77AF8EEE77A73
:10CE200026EEA64AA7EE275AE7EE074AB0EE446A76
:10CE300075EE875AA7EE076AE7EE272AE7EEA73ACC
:10CE4000A7EE260AE7EE260AE6EEA71AA6EEA73A0E
:10CE500031EE041AC0ED044A90ED0F4AD0ED104AAD
:10CE600080ED065AC0ED075A90ED115AD0ED125AD6
:10CE7000C0ED0E3AA7EEA76A34EE274A74EE874A51
:10CE800075EEA75A35EE265A32EE262A80ED0F4A65
:10CE9000C0ED104A80ED115A80ED050AC0ED080A78
:10CEA00080ED091AC0ED0A1A80ED0B2AC0ED0C2A9C
:10CEB00080ED0D3AC0ED125A90ED004A90ED025A05
:10CEC000D0ED014AD0ED133AD0ED035AA7EE064A51
:10CED000B0EE457AA7EE867AE6EE864AF7EE007A5D
:10CEE00073EEA77A35EE866AC0ED137A80ED004ABC
:10CEF000C0ED014A80ED027A80ED036A704700BF01
:10CF000010B50024034684468646002C00F00D81AF
:10CF1000DEED006A9CED007AD3ED007AE6EEC77A8A
:10CF2000012CC3ED007A00F00F81DEED016A9CED6B
:10CF3000047AE6EEC77A032CC3ED007A6CD1DEEDFD
:10CF4000026A9CED087AE6EEC77AC3ED007AD2ED6C
:10CF5000007A90ED085AD0ED0C5AD0ED044A92EDCB
:10CF6000017AD2ED026A92ED036AA7EEE47AE7EE67
:10CF7000C56AA7EEE56A90ED095AD0ED0D5AE7EEC5
:10CF8000456AA5EEC76AD0ED0E5AA5EEE66A81EDB8
:10CF9000036A90ED0F5AC1ED026AC6EE055AC1ED63
:10CFA000035A90ED0B6AE5EEC66AC1ED026A90ED98
:10CFB0000A5A81ED017A86EE856A81ED026AD0ED2A
:10CFC000066AA6EE667A81ED017AD0ED076AA5EED3
:10CFD000E67A81ED017A90ED055AC1ED007AC7EE4F
:10CFE000056AC1ED016A90ED017AE7EE667AC1ED5E
:10CFF000007A90ED027AE7EE467AC1ED007A90ED84
:10D00000037AE7EE657AC1ED007AD0ED006A87EE2B
:10D01000A67A81ED007A10BD9EED007ADCED016A02
:10D02000D3ED017AE7EE667A022CB1EE476AC3EDE2
:10D03000017ADEED016A9CED057AE6EEC77AC3ED72
:10D04000017A40F0AC80DEED046A9CED007AD3ED0D
:10D05000047AE6EEC77A012CC3ED047A40F28780A9
:10D06000DEED056A9CED047AE6EEC77A032CC3ED8B
:10D07000047A7FD19EED066ADCED086A93ED007AB2
:10D08000E6EE667AC7EE876AC3ED046A9EED086A2B
:10D09000DCED006AD3ED087AE6EE667A012CC3ED8A
:10D0A000087A70D99EED096ADCED046AE6EE667ACC
:10D0B000032CC3ED087A07D19EED0A6ADCED086AFD
:10D0C000E6EE667AC3ED087A93ED086AD3ED0C7A42
:10D0D000C6EE076A032CC3ED086A9CED006ADEED1C
:10D0E0000C6AE6EE667AC3ED0C7A9CED046ADEED1E
:10D0F0000D6AE6EE667AC3ED0C7A07D19EED0E6AF4
:10D10000DCED086AE6EE667AC3ED0C7AD3ED0C6AC4
:10D11000C6EE877AC3ED0C7A013414330EF1100E8B
:10D120000CF1040C002C7FF4F3AED3ED047A93EDF4
:10D13000007A93ED086AC7EE876AC6EE077AC3EDF8
:10D14000046AC3ED087AE1E7DEED006A9CED016A4E
:10D1500093ED017AD3ED027AA6EEC67A83ED017AD9
:10D160009CED027AE7EE667AC3ED027A6BE793ED07
:10D17000007A87E793ED007AC7EE876A022CC3ED49
:10D18000046AC9D082E7C7EE876AC3ED086AC3D0D4
:10D190009CED006ADEED0C6AD3ED0C7AB2E79CEDF3
:10D1A000027AD3ED027AE6EE077A032CC3ED027A17
:10D1B000DCED066A9EED017AE6EEC77AC3ED027AEF
:10D1C0007FF441AFDEED026A9CED0A7AE6EEC77AA3
:10D1D000C3ED027ABBE600BF10B584B00C46024630
:10D1E00069461030FFF78CFEDDED006A9DED017A97
:10D1F000DDED027AB6EE006A66EE866A27EE067A02
:10D2000067EE867A0120C4ED006A84ED017AC4EDF0
:10D21000027A04B010BD00BF20EE000AFEEE007AD4
:10D2200060EE277A60EEA00A9FED020AC7EEA00A20
:10D230004EF0DABC54F82D4008B54BF02DFF07EE48
:10D24000900AF5EEC07AF1EE10FAACBFB1EEE70A43
:10D250009FED010A08BD00BF000000002DE9F74F57
:10D2600090469DF83020002A14BF4FF030094FF04F
:10D2700020090D9A1C1E05460F46BABF64420123C1
:10D28000002312F8011B01B12CB9A24663B100249E
:10D290000D9EA41B12E0013CF3E7BD4204D24946B7
:10D2A00028460193C047019BBAF1010AF5D2EFE786
:10D2B000BD4203D228460193C047019B06EB040BF5
:10D2C00016F8011B0029F3D133B15446002C07DCBA
:10D2D000BAF1000FA8BFD344584603B0BDE8F08FA1
:10D2E000BD4202D249462846C047013CEEE70FB492
:10D2F00037B50C4D06ABD5F8B41853F8042BD5F858
:10D30000B008019348F0ACFF0446D5F8000203F0E2
:10D310001CFF0028F9D0204603B0BDE8304004B01F
:10D32000704700BF882600200EB403B503AB084940
:10D3300053F8042BCDE9003001A848F091FF019B80
:10D3400000221A7002B05DF804EB03B0704700BF12
:10D35000F78800080CB430B5284CD4F8B838A3B01E
:10D360001BB9D4F8BC38002B38D094F8C038994297
:10D3700006D9012303FA00F0D4F8C43818422DD09E
:10D38000D4F874114FF47A7302A8B1FBF3F203FBE3
:10D3900012131B49FFF7C8FF02AB0344269A194931
:10D3A0000193054627AB01A8009348F059FF019B64
:10D3B0005A1C01920A221A70019B01465A1CD4F889
:10D3C000B808019200221A7068B103681B6A03B1A1
:10D3D0009847D4F8B80802A903F04CFE23B0BDE882
:10D3E000304002B07047D4F8BC28002AF6D0294457
:10D3F000023102A84AF02AF8F0E700BF8826002090
:10D400004E9406089988000830B54FF4004087B064
:10D4100022F0D8FC0446A0B34FF4004122F034FEC1
:10D4200002281CD1226848F201039A4229D1234CD8
:10D43000002584F85C5B4FF4004047F01DFC00B30E
:10D44000D4F8C83883421ED0D4F8A43983422FD0F0
:10D45000D4F8803A98422ED0C4F8BC5811E000238A
:10D46000022294F90400CDE901234FF461220092D5
:10D470004FF400411A4622F063FE104BC3F8B8087F
:10D4800028B907B030BD04F6C803C4F8BC380C4B4B
:10D4900004930C4B03930C4B02930C4B01930C4BDA
:10D4A00000930C4A0C4B02210020FFF753FFE8E7E2
:10D4B00004F6A413E9E704F52863E6E788260020CC
:10D4C0005A940608639406086C9406087894060833
:10D4D0009D93060839A20608AB930608174A38B58B
:10D4E000D2F8604B033004EB9003B3F5007F19D8FA
:10D4F00002F66435C2F8603B114A02EB810120F06C
:10D500000300D1F86C22C3F500731044C1F86C021B
:10D510000C4A9B000421002005EB8404FFF71AFF4E
:10D52000204638BD0021084A0846FFF713FF074A86
:10D53000136843F0007313600024F1E7882600208D
:10D54000803700207E940608A194060850FF002032
:10D550002DE9F84F0268DFF8A4800646002358F84A
:10D5600033108A420BD1DDB20D2D0CD9204A002197
:10D570000520FFF7EFFE00242046BDE8F88F0133B9
:10D580000E2BECD1F2E71B4F07EB850A4FEA85091A
:10D59000DAF804B2BBF1000F1AD10A216420FFF7B8
:10D5A0009DFF0446CAF8040228B90146124A052024
:10D5B000FFF7D0FEE0E76422594651F05EFCDAF84E
:10D5C000043208EBC505C3E90053DB615B63DB6430
:10D5D0004F447179D7F80442182000FB0143002220
:10D5E0001C46C3E903229E601A750434C4E700BFD9
:10D5F000AF94060888260020D49406084401060843
:10D6000003685A1C026019700368090A5A1C0260F8
:10D610001970704703685A1C0260197003685A1C1D
:10D6200002600A0A1A7003685A1C02600A0C1A7017
:10D630000368090E5A1C02601970704703685A1C6F
:10D6400002600A0A1A7003685A1C02601970704757
:10D6500038B504460068154651F0D6F923682B44C6
:10D66000236038BD03685A1C02601878704703684D
:10D670005A1C02601A4612F8021B0260587841EAEE
:10D680000020704710B502681146531C036011F862
:10D69000024B0160D31C5178036093781B0443EA6A
:10D6A0000123111D0160D078234343EA006010BDBF
:10D6B000D1E900329A4206D05A1C0A6008B11B78A0
:10D6C00003700120704700207047D1E900239B1AA6
:10D6D000012B10B50446084604DDFFF7C8FF208083
:10D6E000012010BD0020FCE730B50A4404469142F9
:10D6F00001D1002011E014F8013BA3F141001928E9
:10D7000011F8010BA0F1410598BF2033192D98BFE6
:10D7100020301B1A02D10028E9D130BD1846FCE7A1
:10D720006FF00042E0E710B50288C378A2F5FA6214
:10D73000910840F2B554013B04FB013381780C247D
:10D74000013902F0030204FB02120D49847901EB56
:10D7500042021821B2F898211344027901FB0322F6
