:020000040800F2
:1000000000000110C14D03087FD902080918020839
:100010007D4E03087D4E03087D4E0308000000005E
:100020000000000000000000000000007DD9020870
:100030007BD902080000000079D90208C37E0208BB
:100040007D4E03087D4E03087D4E03087D4E030858
:100050007D4E03087D4E0308A3810208AB81020890
:100060007D4E0308A9810208A7810208319D01087D
:10007000219D01080D9D0108F99C0108E59C0108DE
:10008000D19C0108BD9C01087D4E03087D4E0308EC
:100090007D4E03087D4E03087D4E0308A5810208AE
:1000A0006D9E0108459E01081D9E0108959E010850
:1000B000099E0108F59D0108E19D01087D4E030898
:1000C0007D4E03087D4E03087D4E03087D4E0308D8
:1000D0007D4E030819A501080DA5010801A5010819
:1000E000A18102087D4E0308A9F30208919D010831
:1000F000699D0108419D0108B99D0108A99C01085D
:100100007D4E03087D4E0308CD9D01087D4E0308FA
:10011000F5A40108E9A401087D4E03087D4E0308FB
:10012000959C0108819C01086D9C0108599C01085F
:10013000459C01087D4E03087D4E03087D4E030853
:100140007D4E03087D4E03087D4E0308EBD3020865
:10015000319C01081D9C0108099C01087D4E030883
:100160007D4E03087D4E03087D4E03087D4E030837
:100170007D4E03087D4E03087D4E03087D4E030827
:080180007D4E03087D4E0308CB
:10018800064BD879012807D0022804D1044B1868F7
:10019800C0F3402070470020704700BFD8A400205B
:1001A800C01B00200A4B987A80B10A4B1A7A62B9B0
:1001B800094AD3F8E4311268D21A4FF47A735843D3
:1001C800824294BF0020012070470020704700BF82
:1001D800D8A400209C9C0020809700200123037055
:1001E8000023C362836203630362436243618361E2
:1001F8004363704710B5074C074A002120465160F9
:100208009160D160FFF7EAFF0023A4F8CA3613749F
:10021800516110BDE09D0020C01B0020064A08B5B2
:100228001046FFF7DBFF0021044BA2F80417002259
:1002380083F820105A6208BDA89D0020C01B00202A
:10024800DFED117A80ED010AF4EEE70AF1EE10FA1B
:10025800C0ED020A80ED031A11DDB4EEE70AF1EEF3
:1002680010FA0CDD81EE007AC0EE207AF0EE006A1A
:1002780077EE877A86EEA77A80ED047AAEE70023D8
:1002880083600361FAE700BFBD378635054B1978EF
:10029800814205D02422424318700348825C5A7078
:1002A800084670479C9C002094780308034B93F8F9
:1002B8004830002B14BF022000207047C01B0020CC
:1002C800022070470020704708B5064B1A7A0AB119
:1002D800DB7A13B9FFF766FF08B9002008BD0A20CA
:1002E800FCE700BF9C9C00200A4A92F90C381821B0
:1002F80001FB032191F86E12A52909D092F9F9178B
:1003080001398B4204DA013382F80C380220704735
:100318000D2070479C9C0020094A92F90C3818213E
:1003280001FB032393F85822042A06D1B3F9683253
:10033800002B14BF0C20022070470220704700BF1A
:100348009C9C002040F60103C38340F60C034380C5
:100358002C23A0F86A30A0F84030A0F86C3037237E
:10036800438340F6410343824623A0F842304C239E
:100378000386A0F86630A0F868305223A0F844300D
:1003880040F66103C38240F681030383A123A0F8EA
:100398004830A0F84630A0F84E30B72340F6170290
:1003A8004386F8230280838621224FF4B773C285DF
:1003B8008385412240F6C803A0F85020C380C1229B
:1003C80003815423E121A0F84A20038240F201125C
:1003D800C82310B5A0F84C10A0F86E20A0F854104F
:1003E800A0F85220838240F21713438140F237135A
:1003F800838140F67713038740F297134387F723E7
:10040800A0F86030D723A0F862304FF416638383D6
:100418004FF4A073C3874FF4C073438540F68C1321
:10042800C3814FF4C9734FF4B17203854FF4A171BE
:100438004FF4C17342848384A0F87030A0F87230FE
:10044800A0F87430A0F87630A0F87830A0F87A30A8
:10045800A0F87E20A0F88030A0F88230A0F8843080
:10046800A0F88630A0F88830A0F88A30A0F88C3040
:10047800A0F88E30A0F89030A0F892300184A0F84F
:100488007C10A0F89430A0F89630A0F89830A0F826
:100498009A30A0F89E30A0F8A030A0F8A230A0F8BA
:1004A800A430A0F8A630A0F8A8302F23C384A32333
:1004B800C386C323A0F85C30E323A0F85E3040F67F
:1004C800A1138387AA2200F1A804831E33F8021F10
:1004D80021F40061A3429952F8D1AA32B2F52A7FD9
:1004E800F3D1142380F8A8320A23A0F8AA3264238F
:1004F800A0F8AC324FF47A73A0F8AE320523A0F816
:10050800B03201230022A0F8B43280F8BA3280F861
:10051800BC32092380F8B222A0F8B622A0F8B8228B
:1005280080F8BD3210BD002803DBB0F5B47F03DAD4
:10053800704700F5B470F6E7A0F5B470F5E7154B11
:1005480093F85130013B0D2B1FD8DFE803F020074B
:100558001E1E090B1E1E0F1A1C1E110D0E48704779
:100568000E4870470E4870470E4870470E4870474F
:100578000E4B0F481B6813F0100F0E4B08BF1846A0
:1005880070470D4870470D487047002070470C4869
:10059800704700BFC01B002051D5030862D503086F
:1005A80077D5030893D503089DD50308D8460020BE
:1005B800C7D50308A5D50308AED50308B5D50308E4
:1005C80044D503080B4B93F8BA32012B09D001D359
:1005D800022B0BD1E023584342F2107390FBF3F047
:1005E8007047242358434FF47A73F7E74FF0FF30EE
:1005F800704700BFDC9900202DE9F0481D4A0C46E1
:1006080090B1B2F856301C4ED1E900015B08012BBD
:1006180098BF48F20503002710EB060B41EB070CC7
:10062800C4E900BCA2F85630B2F8563013F0010302
:100638001DD0BDE8F08854F82310C1F307314807EE
:100648004FEA830606D409070BD5D2F848110B39AF
:100658002B2906D892F8401102EB8101D1F8D80075
:100668007051013392F84C118B42E4DBE1E7034C03
:10067800034DF7E7C01B0020A0860100181C0020CE
:10068800204C00202DE9F0472B4B2C4C0D46F0B1A7
:100698001A78F02A30D97F2293F901001A7094F859
:1006A8004E21824201DD002802DA9A7852429A707D
:1006B8009A7802445A70D5E9000144F21A1610EBF0
:1006C80006084FF0000741EB0709C5E900891878CB
:1006D80094F84C5193F9016093F90270DFF8608047
:1006E800DFF860900022C0F1FF0EA0F17F0C1146E8
:1006F800954204D8BDE8F0870F321A70DBE758F846
:1007080022309B044FEA820410D5CBB29B1B83EAAC
:10071800E37AAAEBE37ABAF1010F09DC53B1BB42E1
:100728000CBF634673464C440131E3700132DFE786
:100738000823F8E70346F6E700000020C01B002066
:10074800181C0020204C00202DE9F041264A0C46B8
:1007580090B192F85031D3B1013BDBB2D2F84811D5
:1007680082F85031214B93FBF1F3D4E90001C5180D
:1007780041EBE376C4E9005600211D4D1D4E1E4F86
:100788000C4692F84C318B4204DCBDE8F08192F8BB
:100798004F31E1E755F82100C0F30323062B4FEA58
:1007A800810C1AD133685B0719D592F8503192F849
:1007B8004F8103EB040E9EFBF8F308FB13E3012BB8
:1007C800CCBF002301233BB1C0F3834002EB800080
:1007D800D0F8D8004CF8070001340131D1E7E343E1
:1007E80003F00103EFE700BFC01B002080841E0058
:1007F800181C00209C460020204C00200A4A70B596
:100808000A4E002302F1580592F84C419C4200DC44
:1008180070BD55F8234030EA040404BF0C6846F85C
:1008280023400133F0E700BFC01B0020204C00200C
:100838002DE9700B234B244D0E4688B193F85121B6
:10084800FAB1013AD6E90001DFF88C8083F851212A
:1008580010EB080B4FF0000941EB090CC6E900BC8E
:100868002A7A1A491AB11A4A1268140618D493F83F
:100878004131203301EB83014FF4A060BDE8700BD8
:10088800BCE72C7A93F85201013CA042B5BF013075
:1008980083F8522183F852010422B8BF0122D1E71C
:1008A8000C4893F851210068800706D512B993F8CF
:1008B8004331DEE793F83F31DBE7002AD7D193F8DD
:1008C8004231D6E7C01B002068610020181C0020B8
:1008D800D45F0020D8460020801A06002DE91008B1
:1008E8001B4B0C46F0B1B3F8541164224A4340F252
:1008F800FF3192FBF1F2322A22DD002283F85621E1
:10090800012193F85601134A92FBF1F280F001009D
:1009180083F85601D4E9000110EB020B41EBE27CAD
:10092800C4E900BC93F856217AB993F83F310A49D3
:10093800203301EB83014FF48060BDE810085DE7C8
:10094800142ACCBF02210821DBE7BDE81008704754
:10095800C01B002040420F00181C00202DE9100881
:10096800174B0C46B8B193F8572112B3012A0CBFA4
:100978000221082193F85801124A92FBF1F280F003
:10098800010083F85801D4E9000110EB020B41EB98
:10099800E27CC4E900BC93F8582172B993F83F315E
:1009A8000949203301EB83014FF44070BDE810087A
:1009B80024E783F858210121DCE7BDE810087047D7
:1009C800C01B002040420F00181C0020064B0022CC
:1009D80083F85921C3F86421C3F86021C3F87C2146
:1009E800C3F87821704700BFC01B002081EA0002CD
:1009F8004FF0000381EA102162F3070361F30F232C
:100A080018B2704782B002AA002342F8040D985C1D
:100A1800484098540133042BF9D1019802B070472B
:100A2800084B002283F89021C3F89C21C3F8982131
:100A3800C3F8B421C3F8B021C3F8CC21C3F8C82146
:100A4800704700BFC01B0020064B002283F8E0213E
:100A5800C3F8EC21C3F8E821C3F80422C3F8002244
:100A6800704700BFC01B002038B1022904D00329F9
:100A780014BF00200220704701207047044B1A8BD6
:100A8800C2865A8B02879A8B42871879704700BFB3
:100A98006861002001207047014610B5094C5E29A5
:100AA800206808D15D2127F055FA3E212068BDE86D
:100AB800104027F04FBA5D29F9D127F04BFA3D21B4
:100AC800F4E700BF385F002008B5064B1B68DB065B
:100AD80005D4182031F01EFF00F0010008BD0020E9
:100AE800FAE700BFD84600200D4B10B51C6814F07B
:100AF800100403D0BDE8104027F072B927F070F950
:100B0800084B03F50672C2E9000103F508720020DC
:100B18000021C2E90001C3F82842C3F82C4210BDE5
:100B2800D8460020C01B002008B527F059F9094B0A
:100B38000022C3E90A0100200021C3E90C01C3E92E
:100B4800100183F8382083F8482083F849200220D0
:100B580008BD00BFC01B002010B50C4C30F05AF97E
:100B68002368DB0601D530F0F5F8094A094BB2F8DD
:100B78003012B3F84830084A8B429FBF2368D180AF
:100B880043F08003236088BFD38010BDD84600207F
:100B9800C01B0020D8A4002004620020154B1B684D
:100BA800DB0670B51FD432F0A3F9134B13491B7839
:100BB800134ACBB1B2F83E328B8092F84362B2F856
:100BC8003032B1F90450B2F8324233440A339D420C
:100BD80004DBA31B0A3BAB42A8BF2B468B8010B992
:100BE800012382F8463270BD0028E3D0054BDB882C
:100BF800E2E700BFD8460020D8A40020000000206B
:100C0800C01B00200462002010B527F0E9F80E4B45
:100C180093F8384034B10122C3E9100183F8492020
:100C2800022010BD094B186810F08040F9D032F04E
:100C38005FF930B932F082F900280CBF0020042097
:100C4800EFE72046EDE700BFC01B0020D446002098
:100C580008B5044B9B7913B107200BF04DF802201F
:100C680008BD00BFD8A4002010B441F26F74A1429F
:100C780082BF3C22B1FBF2F11A4600F8012B3C235B
:100C88005DF8044BB1FBF3F203FB1213014928F0A2
:100C980071BD00BFFF04040810B5044627F0A0F892
:100CA800054A002333F0F4FE702301469B222046B8
:100CB800BDE81040D8E700BF40420F002DE9FF47CC
:100CC800354C9DF830A09DF834909DF838709846C2
:100CD800054613460E460A460146206827F0CCFA18
:100CE80098F800202D4903A828F044FD504632F01A
:100CF8003FF9002849D1BAF1120F02D0BAF10F0F0B
:100D080002D1062032F034F9291D009003AB324697
:100D1800C9B2206827F075FA98F801201F4903A87E
:100D280028F028FD484632F023F980BBB9F1130FAB
:100D380002D0B9F1100F02D1072032F019F905F1EC
:100D48000801009003AB3246C9B2206827F059FA6F
:100D580098F80220114903A828F00CFD384632F013
:100D680007F9B0B9142F01D0112F02D1082032F0A1
:100D7800FFF805F10C01009003AB3246C9B22068B8
:100D880027F03FFA04B0BDE8F0870120BCE7012056
:100D9800D5E70120EDE700BF34A50020DCEA030811
:100DA80010B580220446002136F0F0FC00213822DC
:100DB80004F1800036F0EAFC0B490023E218C85819
:100DC800C2F880000433382BF8D12422074904F1F3
:100DD800C00034F073F904F1E4000B220449BDE8C3
:100DE800104034F06BB900BF387D0308707D0308EC
:100DF800947D030870B506460D4626F01DF9FCEEF5
:100E0800C07A71239C2217EE901A304617EE904A4A
:100E1800FFF72AFF084BB3F8AA3263B13C22B4FBB0
:100E2800F2F49C4207D3054B1B685B0742BF2B7843
:100E380043F001032B7070BDDC9900209C46002014
:100E480038B50E4C94F85731032B05460FD094F85B
:100E580047326BB1D4F84822D2E904329B1AD4F84D
:100E68004C22934222BF2B7843F001032B7038BDEC
:100E780014F0ACFCB4F850328342F3E7C01B0020F6
:100E88002DE930480D46364C00283ED094F85232B1
:100E9800013303F00F0384F8523263BB84F85332F2
:100EA800304B1B68990705D594F8573113B10223C5
:100EB80084F853322C4B1B792BB194F8533243F0FE
:100EC800040384F85332294B1B685A070AD423F0C9
:100ED800784323F07F032BB194F8533243F0010396
:100EE80084F8533214F0CCFA28B994F8533243F00A
:100EF800080384F85332D5E900231D48002112EB7A
:100F0800000B43EB010CC5E900BC94F853322BB33A
:100F180094F852128A081341DB071FD501F001012A
:100F2800032A1BD8DFE802F0020E1216114B03F158
:100F38001802002914BF194611464FF40030BDE8C5
:100F480030485BE40B4B03F10802F2E70A4BA3F1CC
:100F58001802EEE7074B03F12802EAE7BDE83088FC
:100F6800C01B0020D4460020A04600209C4600203C
:100F7800A0860100387D0308607D03082DE9F0474D
:100F8800D24CD4F860312DED028B002B00F06A8131
:100F980040F24312934200F06981D4F8783140F26C
:100FA8005712934200F0D281B3F5AC7F80F2BA8138
:100FB800002B00F0C981D4F86031002B04DBD4F891
:100FC8007831002B80F20F82BDEC028B0320BDE844
:100FD800F04713F0B7B9552840F05281002384F840
:100FE8007932012384F878324AE1AA2801D0002313
:100FF800F8E70223F6E7032384F8783284F87A02C4
:1010080084F87B0284F87C023AE1042384F878327D
:1010180094F87A3294F87B220344DBB284F87A326B
:10102800134484F87B3280B20023A4F87E02A4F82B
:101038008032002840F024810623D3E794F87A32DE
:1010480094F87B220344DBB284F87A32134484F8A0
:101058007B32B4F88032FF2B98BFE21803F101030A
:1010680098BF82F88402B4F87E229BB29A42A4F810
:10107800803200F205810523B4E7062384F878322C
:1010880094F87A32834200F0FB80012384F87932A5
:10109800D4F888330133C4F88833F1E0002384F8A6
:1010A800783294F87B328342F2D1D4F8903301330A
:1010B800C4F8903394F87932002B40F0E18094F82A
:1010C8007C32202B00F00A81302B00F0BD80102BE1
:1010D80040F0D68094F8BB62D4F884023146FFF71A
:1010E80091FC00F03F03C0F3033285F83430C0F3BD
:1010F8008513072A85F83330C0F3044388BF0133CA
:1011080085F83130C0F34353400E00F5FA60E885A6
:10111800D4F8880285F8303085F83220FFF772FC61
:101128002861D4F88C02FFF76DFCE860D4F89002CF
:10113800FFF768FC07EE900AB8EEE77AB2EE040A09
:10114800C7EE007A94F8B6327340022BB0EE408AAC
:10115800FDEEE77AC5ED057A40F0B280012331460D
:10116800D4F89402EB71FFF74DFC8246D4F898024C
:10117800FFF748FC8146D4F8A002FFF743FC0FFABA
:1011880080F8D4F8A402A5F81E80FFF73BFC07B24C
:10119800D4F8A8022F84FFF735FC6884B4F8AC02B1
:1011A800FFF724FC07EE107A42F20F7280B29042E9
:1011B800B8EEC70A07EE908A28BF1046F8EEE77A1D
:1011C800A88520EE000A0A20BAFBF0F3934228BF54
:1011D8001346B9FBF0F0904228BF1046A7EEA70AC5
:1011E8002B8594F8B43268852B7234F067FCBDEE19
:1011F800C00A10EE103AAB84B5F91E3000EE903AF2
:10120800B5F9203000EE103AF8EEE00AB8EEC00A60
:1012180028F026FD9FED2E7ADFED2E0A20EE080A33
:10122800C0EE077A37EEA80A34F04CFABCEEC00AD2
:1012380010EE103AEB840123AB70EB706B71AB715D
:1012480084F8943384F8953394F89433C3B194F8BC
:101258009533ABB1002384F8943384F89533012394
:1012680084F8593140F24313C4F86031D4F85C0271
:1012780026F06DFE00283FF490AE174DDFED158A7D
:10128800D4F85C0226F063FE0028EBD0D4F85C02A8
:1012980026F057FE94F87832062BF1D801A252F8BE
:1012A80023F000BFDF0F0008F30F0008FF0F00084E
:1012B800131000084510000883100008A510000846
:1012C800032B0CBF0223002349E700BFC01B0020EB
:1012D80035FA8E3C0000614568610020B4F88872D8
:1012E800B4F88402FAB2D30082EA12165BB223F091
:1012F8000F0106F00F0603F0080343EAC2130E437A
:101308005E40F6B23146FFF771FB31462883B4F8E8
:101318008602FFF76BFB87EA062601236883AE8304
:101328002B7191E7B3F5AE7F40D0B3F5B57F7FF46D
:1013380042AE94F85931002B3FF43DAE002384F8B7
:10134800593112F0ABFF3FE0C4F87821D4F85C02C1
:1013580026F0F1FD00283FF42EAED4F85432D4F82C
:101368005C02D978224A234B99B394F866120B444D
:1013780093F80B3552F8231026F0E0FD94F8663206
:101388000522013393FBF2F202EB82029B1A84F8E6
:101398006632194B1A68194B9A600022DA60C82322
:1013A800C4F888314FF4AE73C4F87831124B134A3D
:1013B8001B6892689B1AD4F8882193427FF7FBAD8B
:1013C8004FF47A7012F05EFF4FF4B573C4F87831B9
:1013D800AFE794F865120B4493F80B3552F82310D5
:1013E80026F0ACFDECE7BDEC028BBDE8F08700BF52
:1013F8008CBE03089478030880970020381D0020CD
:101408002DE9F041AF4CD4F89831002B00F025813C
:1014180040F21112934200F02481BDE8F0812A289D
:1014280002D02C2840F03A8194F8973394F89683A8
:101438000022EA54B8F1000F0ED13146284684F84C
:10144800998332F0D9FC20B19F49284632F0D4FC68
:1014580000BB012384F8993394F89933012B26D0E3
:10146800022B6BD094F89633013384F896332A2FE5
:101478004FF0000384F8973340F01C81012384F86F
:10148800BC33F7E0002384F8963384F8973384F864
:101498009833EFE08D49284632F0AEFC28B18C49EC
:1014A800284632F0A9FC0028DCD10223D2E7A8F1B3
:1014B8000208B8F1070FD5D8DFE808F004091217B9
:1014C80020282E372BF064FCC4F8A003CAE72B7839
:1014D800532BC7D1D4F8A0335B42C4F8A033C1E77B
:1014E8002BF056FCC4F8A403BCE72B78572BB9D1D2
:1014F800D4F8A4335B42C4F8A433B3E72B78302B79
:101508008CBF0123002384F89C33ABE700202BF029
:10151800DFFC84F8A803A5E701202BF0D9FC00EB39
:1015280080004000A4F8B0039CE701202BF0D0FC19
:1015380000EB80004000A4F8AA0393E708F1FF3805
:10154800B8F1080F8ED801A353F828F079150008D0
:101558006D1400086D1400086D1400086D1400085F
:101568006D140008851500089F150008AB150008C4
:1015780002202BF0ADFCC4F8B40373E701202BF074
:10158800A7FC41F2184358434FF47A73B0FBF3F0C9
:10159800A4F8AC0366E701202BF09AFCA4F8AE038C
:1015A80060E700202BF094FCC4F8B8035AE794F8DD
:1015B800BC33002B5ED02B786A78402B85BF373B35
:1015C8001B011B01DBB298BF03F0F003402A8CBF5C
:1015D800373A303AD2B2134494F89823DBB29A429D
:1015E80040F0C880D4F890330133C4F8903394F8AD
:1015F8009933012B03D0022B72D000233FE7354BE0
:1016080094F8A8231A7294F89C23002A58D002222E
:10161800DA71D4F8A023DA60D4F8A4231A61B4F8F4
:10162800AA235A61B4F8B02342F20F7110468A42D5
:101638004FEA420228BF08468A4228BF0A4692B2A9
:101648001A855A85002298855A7100229A70DA7094
:10165800012384F8BC2384F8903140F21113C4F8B4
:101668009831D4F85C0226F072FC00283FF4D5AE1D
:10167800194D1A4ED4F85C0226F069FC0028ECD00B
:10168800D4F85C0226F05DFC242807463FF4FAAE45
:101698003FF6C5AE0A288AD00D2888D094F897332B
:1016A8000E2BE7D85A1CEF5494F8BC3384F89723D0
:1016B800002BDFD194F898335F4084F89873D9E70A
:1016C800DA71C2E7C01B0020E3D50308E9D5030897
:1016D800EFD503086861002020AE0020DDD503089F
:1016E8002749B4F8AC33D4F8B8038B84B4F8AE33D4
:1016F800CB84E0B3D4F8B423CAB36423B0FBF3FCBF
:1017080003FB1C0707F5FA67CF85BCFBF3F703FB60
:1017180017C781F8307042F21077B0FBF7F0B0FBD2
:10172800F3FC03FB1C0081F831001648B2FBF0F013
:10173800B0FBF3FC03FB1C0081F83200B2FBF7F0AE
:10174800B0FBF3F703FB1700B2FBF3F702F06402F8
:1017580081F8330002EB8202B7FBF3F003FB10734E
:1017680081F8343052000123CA868B7145E7002383
:101778008B7184E6D4F888330133C4F888333CE7A6
:101788006861002040420F0010B53C4CFFF738FE5E
:10179800D4F8B031B3F5C57F24D00DDCF3B1D4F85B
:1017A8009831002B03DBD4F8B031002B65DA032025
:1017B800BDE8104012F0C6BD40F28F12934240D0EF
:1017C80040F29D129342EAD194F89031002BE6D072
:1017D800002384F8903112F061FD3FE04FF4C573A7
:1017E800C4F8B031D4F85C0226F0A5FB0028D6D0A6
:1017F800D4F85432D4F85C02D978214A214B91B3F9
:1018080094F866120B4493F80B3552F8231026F01F
:1018180095FB94F866320522013393FBF2F202EB52
:1018280082029B1A84F86632174B1A68174B9A6023
:101838000022DA60C823C4F8C03140F28F13C4F81C
:10184800B031114B114A1B6892689B1AD4F8C02119
:101858009342A4DD4FF47A7012F014FD40F29D1308
:10186800C4F8B031B0E794F865120B4493F80B351F
:1018780052F8231026F062FBECE710BDC01B0020D5
:101888008CBE03089478030880970020701D002000
:1018980038B5A94CFFF7B4FDD4F8C831B3F5A97F22
:1018A80064D079DCB3F59A7F00F0F28014DC002B69
:1018B80000F0DB80B3F5987F00F0DB80D4F8983136
:1018C800002B04DBD4F8C831002B80F233810320CD
:1018D800BDE8384012F036BDB3F5A27F25D0B3F588
:1018E800A77F34D0B3F59F7FE8D1D4F85C0226F007
:1018F80022FB0028E2D094F86522904BD4F85C02D1
:10190800134493F80B258E4B53F8221026F016FB40
:101918008C4B1A688C4B9A600022DA60C823C4F892
:10192800D8314FF4A273C4F8C831864B864A1B6875
:1019380092689B1AD4F8D8219342BFDD8349D4F822
:101948005C0226F02BFB4FF4A773C4F8C831D4F817
:101958005C0226F0F0FA0028B0D07D49D4F85C0289
:1019680026F01CFB4FF4A973C4F8C831D4F85C0204
:1019780026F0E1FA0028A1D0D4F85432D4F85C0259
:101988005B78052B00F0C080724926F007FB40F217
:101998005713C4F8C83112E040F2611293421ED0C6
:1019A800B3F5B17F2CDAB3F5AD7F18D0B3F5AF7FBF
:1019B80000F0B18040F2571293427FF47FAFD4F821
:1019C8005C0226F0B8FA00283FF478AF6249D4F8F0
:1019D8005C0226F0E3FA4FF4AD73C4F8C831D4F8CA
:1019E8005C0226F0A8FA00283FF468AF5B49D4F8F7
:1019F8005C0226F0D3FA4FF4B373C4F8C8310AE096
:101A0800B3F5B57F17D040F27112934222D0B3F5E7
:101A1800B37F7FF453AFD4F85C0226F08CFA002829
:101A28003FF44CAF4E49D4F85C0226F0B7FA4FF4B5
:101A3800B573C4F8C831D4F85C0226F07CFA0028E3
:101A48003FF43CAF4FF47A7012F01CFC40F2711373
:101A5800C4F8C83194F89031002B3FF42FAF00231D
:101A680084F8903112F01AFCF0E74FF49873C4F838
:101A7800C831D4F85C0226F05EFA00283FF41EAFA5
:101A8800D4F85432DB788BB34FF49A73C4F8C83166
:101A9800D4F85C0226F04FFA00283FF40FAF274D28
:101AA80094F86632D4F85C022B4493F80B25244B47
:101AB80053F8221026F042FA94F86632D4F85C0201
:101AC8000133052293FBF2F202EB82029B1A84F89F
:101AD800663294F8653205EB8305D5F8101526F0C3
:101AE8005DFA4FF49F73C4F8C831FEE694F8652296
:101AF800124BD4F85C02134493F80B25104B53F89F
:101B0800221026F01BFA19E7164926F047FA4FF477
:101B1800AF73C4F8C831D4F85C0226F00CFA002878
:101B28003FF4CCAE1049D4F85C0226F037FA40F204
:101B3800611352E738BD00BFC01B0020947803082A
:101B48008CBE030880970020881D0020F5D5030867
:101B580029D6030839D6030849D6030859D60308F5
:101B68008BD603086BD603087BD6030870B5124ED4
:101B7800124DB67A124C0028B8BF40423C2290FB66
:101B8800F4F305FB030050439BB290FBF4F294B2CC
:101B980076B903EB830303EB830304EB83030B8026
:101BA80005FB02024FF47A7392FBF3F24A8070BD90
:101BB800C3EB0313F1E700BFF4460020806967FF19
:101BC8008096980010B50446C0B2FEF765FFC4F3CE
:101BD8000720BDE81040FEF75FBF024B5E21186882
:101BE80026F0B8B9385F002038B5064C05465E21A6
:101BF800206826F0AFF929462068BDE8384026F06D
:101C0800A9B900BF385F002010B51A4B1C7A9B8D0C
:101C1800632CA8BF6324333B322293FBF2F3581C96
:101C280026D0092BA8BF0923C3F10903642202FBAC
:101C38000344114B1B68A4B2990744BF04F57A7496
:101C4800A4B2DA070D4B1B6844BF04F5FA64A4B2CA
:101C58005B070BD5152030F05DFE38B1084B1B68CB
:101C680013F4016F04BF04F57A64A4B2204610BDD2
:101C78000023D9E768610020D84600209C46002050
:101C8800C01B0020274B1A6822F0784323F07F03FB
:101C9800002B0CBF012002205307234B1B6848BFB1
:101CA8000430D90744BF0A3080B29A0744BF1430C1
:101CB80080B2D90544BF283080B25A0744BF643087
:101CC80080B2190744BFC83080B29A0644BF00F5F5
:101CD800C87080B2D90644BF00F57A7080B2DA04C1
:101CE8000FD500F5FA5080B2990442BF00F51C5098
:101CF800103080B29A050ED5A0F5C740403880B2A2
:101D08007047190502D500F5FA60ECE75A06EBD5DD
:101D180000F57A60E7E75B05F2D500F59C402030D6
:101D2800EDE700BF9C460020C01B002038B50368C3
:101D38000B4D591C95F8BD2301601A700468446066
:101D480005F2BE31641A422CA8BF42240160224623
:101D580005F5806033F0B2F985F8424438BD00BF1C
:101D6800C01B0020036810B55A1C054C026019708E
:101D780094F8BD0328F076F984F8BD0310BD00BFC0
:101D8800C01B002038B505460C46090EFFF7EAFFD0
:101D9800C4F307412846FFF7E5FFC4F307212846A7
:101DA800FFF7E0FFE1B22846BDE83840DAE738B58A
:101DB80005460C46090AFFF7D5FFE1B22846BDE8FB
:101DC8003840CFE7044B002200200021C3E912016C
:101DD800DA631A64704700BF0820002070B5354DDB
:101DE800354C95F8A034D4ED097A2E46F8EEE77A0A
:101DF800002B45D1314B9FED327A93ED020A77EEF5
:101E0800C07AA7EE870A9FED2F7A83ED020AF5EED6
:101E1800C07AF1EE10FA20EE077A48BFF1EE677A41
:101E2800B4EEE77A284BF1EE10FA1B6825DDD5F8F9
:101E3800A4249B1AFA2B1CD9DFED247ADFED240A9F
:101E480080EE270A33F0A8FC224B012586F8A0541F
:101E5800F7EE007A37EEC00ADFED1F7A20EE270A88
:101E680083ED000A33F00AFB1C490246284628F095
:101E78001DF90023E361E06970BDC5F8A434F8E7F3
:101E88009FED120ADFED120A87EE800A33F084FC18
:101E980005F59565F7EE007A37EEC00A9FED0E7AE4
:101EA800D5ED007AD0EE077AFDEEE77AC4ED077A31
:101EB800E1E700BFC01B0020DC610020000000201B
:101EC8009A99193E17B751388097002080E6C54780
:101ED800B1DC423E68200020D048874A9DD60308DE
:101EE80008B52FF08BF8074A1268120606D430B9E5
:101EF800054B93F8B104003018BF012008BD01203C
:101F0800FCE700BFD45F0020C01B00200B4B93F8F8
:101F1800AD34012B03D0022B09D000207047084BA9
:101F28001B6813F00C0F0CBF012000207047044BF6
:101F3800186880F00400C0F380007047C01B0020C0
:101F48009C4600202DE9F04F2DED028B0E4C89B0F8
:101F580025F046FF636907930C4B1B6882468B4646
:101F6800E068216905901A06069140F11583084B2F
:101F78001B689B0710D4074B01221A7309B0BDECEC
:101F8800028BBDE8F08F00BF68610020D45F00209D
:101F9800D846002000000020DB4DDC4ED5E90023A8
:101FA800BAEB02086BEB030900274F4508BF46450B
:101FB80038BFD74BA846D74D3CBF01221A7395F8B6
:101FC800AC34002B00F0C48095F8F834002B40F0B6
:101FD800BF8007EE900A9FEDD07AF8EEE77AC7EE59
:101FE800875ADFEDCE7AF4EEE75AF1EE10FA00F1F7
:101FF8005A82DFEDCB7AF4EEE75AF1EE10FA00F3ED
:10200800528207EE901AF8EEE77A87EE875ADFEDEC
:10201800C57AB4EEE75AF1EE10FAB0EE673A00F17D
:1020280042829FEDC16AB4EEC65AF1EE10FA00F38F
:102038003A82F2EE047AC5EEA76ABC4A252085EEFC
:10204800277AFDEEE66ADFEDBA4A9FEDBA4AF8EE66
:10205800E66AF4EEE45A66EEA76ABDEEC77AF1EED8
:1020680010FAF4EEC45A8CBFFDEEE64ADFEDB24A30
:10207800B8EEC77AF1EE10FAA8BF76EEE76A27EE57
:10208800277AB4EEC35AA8BFFDEEE64AF1EE10FA7D
:10209800B4EEC65AF0EE443A8CBFBDEEC74A9FED87
:1020A800A74AF1EE10FAA8BF37EE677AF8EEE46AAD
:1020B800A8BFBDEEC74A36EEA37A75EEE66AC7EE4C
:1020C800274ABCEEE47A17EE103AB8EEC47A00FB61
:1020D800032637EE066A35EE477AC6EE274A03FB33
:1020E8000000131887EE275ABCEEE46A16EE101AA1
:1020F800771897F9247500EE107A4F1C19443E445E
:1021080091F9242506EE102A96F9242507EE102ABF
:10211800B8EEC00AB8EEC77A3B4437EE407A93F976
:102128002435A5EE070A86EEA77A07EE903AB8EEB0
:10213800C66AF8EEE77A77EEC67AA5EE276A36EE33
:10214800406AA7EE060A2FF04DFC012385F8F83403
:102158007B4E96F8EC31002B40F0AB81012386F8DA
:10216800EC31059BC6F8F431002BB8BF5B4207EE93
:10217800903A9FED697A069AC6F8F821F8EEE77A60
:10218800079AC6F8FC2187EE870ADFED6E7A20EE03
:10219800270A27F039FEDFED6C7AB4EEE70AF1EE94
:1021A80010FA00F18381F7EE007AB4EE670AF1EED7
:1021B80010FAC8BFB0EE670A86ED7C0A96F8EC31D3
:1021C800002B3FF4DBAE0022604905A82AF08AF90B
:1021D8004F4B03931A7B002A40F05681D8E900013F
:1021E8005B4ABAEB00006BEB0101CDE900014FF04F
:1021F800FF338018594100234CF250328B4208BFFC
:10220800824280F05F81DDE90001524A4FF0FF33DE
:1022180080185941002749F640468F4208BF864238
:1022280080F05281DDE900014B4A4FF0FF338018FE
:102238005941002344F620628B4208BF824280F055
:102248004581DDE90001454A4FF0FF3380185941C7
:10225800002742F210768F4208BF864280F038810C
:10226800DDE900013E4A4FF0FF338018594100274D
:1022780041F270768F4208BF864280F02C81DDE9FA
:102288000001384A4FF0FF338018594100274FF4B6
:102298007A668F4208BF864280F02081DDE900011E
:1022A800314A4FF0FF33801859418F4208BF8642A8
:1022B80004D344F620620023CDE90023DDE90001C0
:1022C80032F050FBE7689FED298A9FED137A07EEFD
:1022D800900A87EAE773A3EBE77367EE888A07EE4D
:1022E800903AF8EEE77A87EE870ADFED167A20EE65
:1022F800270A27F089FDDFED147AB4EEE70AF1EE3C
:1023080010FA00F1EE8033E0B020002060E3160000
:1023180000000020C01B00208096184B0000B4C2AB
:102328000000B442000034C300003443947803082A
:10233800000070C200007042C4FFFFFF4CFFFFFFA7
:102348009C9C002035FA8E3C0AD7233CD4200020E0
:102358001891FCFFE040FDFF70A0FEFF3850FFFF22
:10236800D08AFFFF28A6FFFFB0B9FFFFBD3786352B
:10237800F7EE007AB4EE670AF1EE10FAC8BFB0EED5
:10238800670A95F8B024874E002A00F0AD80A3783C
:10239800002B00F0A980B4F91E3007EE903AB4F98A
:1023A8002030F8EEE77AC6ED087A07EE903AF8EEB4
:1023B800E77AC6ED097A002A00F0C280E378002B9C
:1023C80000F0BE80B4F922305B4207EE903AF8EE96
:1023D800E77A754AC6ED0A7AD2E9000150EA0103A4
:1023E80002F1080902F1140700F0BD80BAEB000001
:1023F8006BEB0101009232F0B5FA07EE900AD9EDC5
:10240800006A99ED017A27EE888AD7ED007AB0EE56
:10241800666AA8EE276AB0EE470A76EE667AD7EDC6
:10242800016AA8EE260A30EE470A20EE000AA7EE57
:10243800A70A33F043FB9FED5D7ADFED5D7A009AE2
:1024480028EE077AE8EE077AB4EEE70AF1EE10FA1A
:1024580040F28980002385F81135012385F810356D
:102468006379002B00F09380238D07EE903A638DFB
:10247800F8EE677AC6ED0B7A07EE903AF8EE677ACF
:10248800C6ED0C7AC6E902ABE368C5F8F8352369EE
:10249800C5F8FC35039A6369C5F800360023137341
:1024A800C8E900AB6AE59FED430A4CE6B0EE670A5F
:1024B80082E6FFF72BFD00283FF480AE079BC6F8A5
:1024C800FC317BE63C4AF6E63C4AF4E63C4AF2E656
:1024D8004CF25032EFE648F23522ECE646F2A8120A
:1024E800E9E6B0EE670A4CE7D5F8F8359FED356AAE
:1024F800D5F8FC15FB1A07EE903AF8EEE77A23694F
:1025080067EE867A5B1A87EEA87AD6ED087A37EEF8
:10251800277A07EE903A20EE060AF8EEE77AF6EE0A
:10252800006A27EE800A27EE267AC0EE287A86ED22
:10253800087A96ED097A77EE877A67EEA67A38E711
:102548006369D5F800269B1A07EE903AB8EEE77A49
:10255800C7EE287A96ED0A7A77EE877AB6EE007A91
:1025680067EE877A35E7DFF868C095F8103585F8A3
:102578001135C2E900AB9CE807000CF10C0C89E8A6
:1025880007009CE80700002387E8070066E70E4B72
:10259800F3620E4B336375E7024B00200021C3E959
:1025A8000201EBE4C0200020C82100200000FA430B
:1025B80000007A430000000090D00300400D0300A3
:1025C800A08601002C7D8E3F000048430000FA439E
:1025D800D4200020D2ED017A91ED017AD2ED026A81
:1025E80092ED006A37EE277AD1ED027A77EEA67A75
:1025F800D1ED006A80ED017A76EE866AC0ED027A46
:10260800C0ED006A70472DE9F04FDFF80CB22DEDF0
:10261800068B0BF5A06ADAE92A3493B0CDE90001FC
:10262800C01A61EB040132F09DF9DFED739A07EEF1
:10263800900ADDE9003467EEA99ACAE92A34CDED9B
:10264800059A2EF00DFF0BF2AC45D5ED0E7A074634
:102658005E46544670B99FED697ACBF8000577EE6F
:10266800877ACAED327ACAED337A13B0BDEC068B9D
:10267800BDE8F08F9AED326A614BB4EEE76AF1EE8D
:1026880010FAB7EE00AA94BF39EE8A7AB0EE4A7A09
:1026980026EE077AD3F800E08DED087A9AED337AC2
:1026A800B4EEE77AF1EE10FA94BF79EE8A6AF7EEA3
:1026B800006A67EE266A1EF0800CCDED076A26D008
:1026C800504B93F8EC31002B00F09280DAE90223AA
:1026D800DDE90089B8EB020869EB03094A480021E3
:1026E800494508BF4045C0F08380DAED0B6AF4EE37
:1026F800E67AF1EE10FA7BDDDAED0C6AF4EEE67AB2
:10270800F1EE10FACCBF4FF0030C4FF0010C1EF0A5
:10271800040F0FD0D4E90E23DDE90089B8EB0208D5
:1027280069EB030939480021494508BF404528BFDE
:102738004CF0040C1EF0100F0FD0D4E91223DDE981
:102748000089B8EB020869EB0309314800214945C3
:1027580008BF404528BF4CF0080C1EF0400F12D0AF
:1027680096F870357BB1D4E91A23DDE90089B8EB16
:10277800020869EB0309254A00234B4508BF424577
:1027880028BF4CF0100CB4EEE76AF1EE10FAB4EE84
:10279800E77A48BF4CF0200CF1EE10FA48BF4CF035
:1027A800400C9FED1C8ACDF818C00CF00C0CBCF145
:1027B8000C0F8DED098A8DED0A8A8DED0B8A8DED52
:1027C8000C8A8DED0D8A8DED0E8A8DED0F8A8DEDBB
:1027D800108A8DED118A40F0AC8196F8D035012B26
:1027E80000F0408122D3022B00F04F81002229E023
:1027F8004FF0000C8BE700BFBD3786356F12833A68
:10280800D45F00209C9C002060E31600400D03006C
:10281800E093040000000000C01B002000C82F4601
:1028280054F82D406666663FCDCCCC3D94ED156AD4
:10283800F6EE086AB4EEE66AF1EE10FAAABF3A4676
:102848000022022386F8D035B2B1B4EEE77AF1EE71
:1028580010FA48BFD4ED2E7AD4ED146A43BFD4F8E9
:10286800C420C4F8DC2077EEE67A84ED378A4CBFC2
:10287800C4ED357A84ED358AD4ED377A94ED247A2F
:1028880069EEA98AE9EE877A022B68EE878AB6EEA6
:10289800009A28EE899AC4ED377A84ED369A40F08A
:1028A8000281D4ED148A5FED237A1FED230A78EEB6
:1028B800C98A68EEE80AC0EEA70A32F06DFF96F8FA
:1028C800D035022B1FED297A5FED297AD4ED156AF0
:1028D800DDED055A94ED366AE0EE077A95ED037A58
:1028E80028EE877A27EE277A67EEA77A27EE267AE8
:1028F80066EEA66AA7EE256A95ED047A84ED366A37
:1029080068EE878A68EEA78AD4ED377A68EEA68AD9
:10291800E5EEA87AC4ED377A10D194ED337AD5ED87
:102928000E7AB4EEE77AF1EE10FA07D5D4ED2E7AE6
:1029380094ED147A77EEC77AC4ED357A854B1A7818
:10294800052A98461CD1D4ED157A9FED837A834BDE
:1029580067EE877AFDEEE77A17EE902AD4ED367A9D
:102968001A80FDEEE77A96F8D0255A8017EE902A5D
:10297800D4ED377A9A80FDEEE77A17EE902ADA805E
:10298800DDF8189019F0400A17D094ED317ADDED92
:10299800056AD4ED2E7AD4ED245AE7EE267A26EE8F
:1029A800A66AB6EE005A26EE256AA6EEA57AE6EEE7
:1029B800057A84ED317AC4ED2E7A19F0200F30D0E3
:1029C800DDED058AD4ED2C9A94ED2D9AD4ED2FAA3D
:1029D80094ED30AAEAEEA89AA8EE8A9AC4ED2C9A49
:1029E80084ED2D9AFFF77CFAD8B1D4ED226A68EE0F
:1029F800A87AB6EE006A26EEA77AE8EEA6AAE7EE6F
:102A0800069A94ED237AC4ED2C9A67EE877AA8EE9D
:102A180087AAA7EE869AC4ED2FAA84ED2D9A84ED95
:102A280030AA19F0040F00F0D08125F0D9F94C4BE9
:102A3800DDF818C01B6813F0040F40F09F80D4F82D
:102A4800B830484AC4F8F0300123801886F8F435C5
:102A58004FF000035941C4E93A0194ED109A4FF040
:102A68000009C4E0D4ED156AB6EE086AF4EEC66A49
:102A7800F1EE10FA14DA9FED3C6AF4EEC66AF1EE54
:102A880010FAACBF01230023B0E6D4ED156AB6EE08
:102A9800086AF4EEC66AF1EE10FABFF6A7AEEAE7E6
:102AA80000220223CEE6D4ED2E7AD4ED358A012B0E
:102AB80077EEE88A36D1D4ED149ADFED2C7A9FEDC3
:102AC8002E0A79EEC99A69EEE90AC0EEA70A32F031
:102AD80063FE9FED277ADFED277ADDED056AE0EEEC
:102AE800077A94ED157A67EE877A78EEC98A3AEE16
:102AF80067AA95ED037A68EE8A8AE9EEA78AD4ED8B
:102B0800367A28EE877AE7EE267AC4ED367AD5ED5E
:102B1800047A68EEA78AD4ED377AE6EEA87AC4ED8F
:102B2800377A0BE7D4F8C430C4ED368AC4F8DC3001
:102B380004E7D4ED2E7A94ED357AD4F8C430C4F88D
:102B4800DC3077EEC77A0023C4ED367A86F8D035C4
:102B5800F4E600BF0C5F002000007A440E5F0020FE
:102B68009C46002090D00300C3F5A83E00409C4539
:102B78006666663FCDCCCC3D54F82D4094ED317A55
:102B8800F2EE0E7AB4EEE77AF1EE10FA40F316811F
:102B9800D4E93A238B4208BF824202D2002386F846
:102BA800F4351CF0080F0BD094ED147AF3EE047A88
:102BB800B4EEE77AF1EE10FA02D596F8F43593B947
:102BC8001CF0040F3FF449AF96F8F435002B3FF49E
:102BD80044AF94ED3C7AD4ED107AB4EEE77AF1EE96
:102BE80010FA7FF73AAF94ED3C9A4FF00109D4ED13
:102BF8002E7ADDED056A9DED0B7A39EE679AD5EDF3
:102C0800027A29EE276A67EEA77AA6EE267A1CF0E2
:102C1800020F67EE897A8DED0B7A9DED0E7AA6EE9E
:102C2800A77A8DED0E7A1DD094ED310AD4ED0A8A7B
:102C380078EEC08AF2EE097A68EEE80A1FED320AE9
:102C4800C0EEA70A32F0A8FDD5ED067A9DED057A0B
:102C580068EEA78ADDED0E7A68EE808AE8EE877A5C
:102C6800CDED0E7AD4ED336A94ED117AD5ED027A72
:102C78009DED056A37EE667A27EE277AE6EE076A53
:102C8800CDED076AB9F1000F07D19DED117A67EE16
:102C9800A77AA9EE677A8DED117A069BD90700F11C
:102CA800F08003F05803582B00F0808194ED2F7AC0
:102CB800D4ED307A95ED0C6ADDED056A38EE477A89
:102CC80078EE677A27EE067A67EE867A27EE267A16
:102CD80067EEA67A8DED0C7ACDED0D7A47B1D5ED7C
:102CE8000E7A9DED077AB4EEE77AF1EE10FA0DDD73
:102CF800D4ED317A38EE678AD5ED0B7A28EE278A3B
:102D0800DDED057A28EE278A8DED0E8AE44909AAB9
:102D18000846FFF75FFCE3490CAA0846FFF75AFC90
:102D2800D5ED0D7AF5EEC07AF1EE10FA3CDDDDED69
:102D3800107A9DED0F6ADDED116A27EEA77AA6EEEF
:102D4800067AA6EEA67ADFEDD86AB4EEE67AF1EE58
:102D580010FA29D50FA9F1EE677A0846CDED107A59
:102D680029F049FCD5ED0D7A9DED0F6ADDED056A78
:102D780094ED257A27EE866AA6EE267A9DED106AEE
:102D880084ED257A27EE866A94ED267AA6EE867A71
:102D980084ED267A9DED117A67EE877A94ED277A8D
:102DA800A6EEA77A84ED277A089BC4F8C830079B5B
:102DB800C4F8CC30069BC6F8003556E4BB4A00235D
:102DC80080185941C4E93A01EBE6B94B1B6813F086
:102DD800100352D019F0020951D094ED2E7AD4ED97
:102DE800077AD4ED0A6AD4ED315A9DED0B6AD4ED19
:102DF8000C4A77EEC77A76EEE56A9DED0E7ABAF15F
:102E0800000F0AD177EE867A37EE267ACDED0B7A67
:102E18008DED0E7ACDED074A3FE795ED055ADDEDCC
:102E2800055A25EE274AF4EE647AA4EE256A95ED54
:102E3800064A8DED0B6A25EE056A66EE846A26EE73
:102E4800276AF1EE10FAA5EE867A48BFF0EE647AAA
:102E5800A5EEA67A8DED0E7A94ED337A77EEC77AE1
:102E680067EE857AA5EEA77ADDED117A8DED077A02
:102E780037EEC66A8DED116A0FE71F460DE74F461C
:102E88000BE7D4ED2C7AD4ED058A94ED069AD4EDAF
:102E9800089A94ED096A78EEE78AD4ED2D7A39EE2E
:102EA800679AD4ED2F7A79EEE79AD4ED307A9A06BC
:102EB80036EE67AA24D4DDED097A9DED0D6A236B01
:102EC800089377EEA88ADDED0A7ACDED098A37EE08
:102ED800899ADDED0C7A8DED0A9A77EEA99A36EE8D
:102EE8000A6ACDED0C9A8DED0D6AD5ED0E7A9DED41
:102EF800087AB4EEE77AF1EE10FA3FF7D7AEEDE6CE
:102F080029EE090AA8EEA80A32F0D8FDD5ED075A2D
:102F1800DDED057A9DED097A95ED086A68EEA56AFA
:102F280066EE299AA6EEA77A65EE896A8DED097A8A
:102F38009DED0A7AA7EEA67ADDED0C6A8DED0A7A88
:102F480025EEA57A26EE0A6A68EE878A27EE099AA0
:102F58009DED0D7AA7EE897AE7EEA86AA7EE867A44
:102F6800E7EEA96A8DED0D7A9DED0F7ACDED0C6A2D
:102F7800D4ED0B6A77EE688A9DED107ACDED0F8A55
:102F8800B4EE660A37EE499AF1EE10FA94ED327A09
:102F98008DED109A48BFB0EE660A30EE470A20EE73
:102FA800250AA7EE807A8DED087A9EE794ED157ACA
:102FB800DFED407AB4EEE77AF1EE10FAFFF676AE7E
:102FC800D4ED217A94ED1F7AD4ED146AD4F8C43084
:102FD800049337EE677AD4ED1E7A27EE667A02A953
:102FE8008DED027A94ED207A77EEC77A084667EE7F
:102FF800A67ACDED037A29F0EBFCDDED036A9DEDB1
:10300800026AD4ED307A94ED2F7AD5ED0A5ADDEDC7
:10301800058A069BF1EE666A76EEE77A36EE477A1F
:1030280067EEA57A27EE257A67EEA87A27EE287A42
:10303800DB07CDED036A8DED0C7ACDED0D7A3FD52A
:103048006369C4F8E030A369C4F8E43098F8003044
:10305800072B7FF44AAFD4ED1F6A9FED177A174B01
:10306800C6EE877AD4ED1E6AFDEEE77A17EE902A4F
:10307800C6EE877A1A80FDEEE77A17EE902AD4ED2D
:10308800387A5A80FDEEE77A17EE902AD4ED397A2D
:103098009A80FDEEE77A17EE902ADA8025E700BFDE
:1030A800702100207C2100207DCA6A4790D003004F
:1030B800D8460020C3F5A83E35FA8E3C0E5F0020A6
:1030C80096F8B134002BC1D0D4ED387A94ED390A92
:1030D80094ED2C7A94ED329AE6EE287AA8EEA60AB8
:1030E800C4ED387A77EEC77A94ED2D7A84ED390AF3
:1030F80030EE470A95ED097A67EE876A20EE077A7F
:1031080020EE000A66EEA86A27EE287AA7EEA70A3C
:10311800CDED096A8DED0A7A32F0D0FCD5ED097A49
:1031280030EE490A20EE270AA8EE809A8DED089A1B
:103138008CE70F492DE9F8430846FDF74FF80D4F86
:103148000D4E0E4D0E4C00224FF0000901F13800D3
:10315800A1F8E2973A6032602A602260FDF73EF8F3
:10316800A1F8E4973A6032602A602260BDE8F883EB
:10317800C89C0020C0A40020CCA40020B8A4002033
:10318800BCA40020034B1B68DB0601D5FDF732B851
:10319800CFE700BFD846002008B50C4B1B780F2B93
:1031A80002BF0B4B03221A800A4B1A7B4AB1D3F891
:1031B800B421C3F84C22084A1268C3F854220020EC
:1031C80008BDFFF7DFFF0220FAE700BF0C5F002011
:1031D8000E5F00209C9C00208097002008B5134BB0
:1031E8001B68DA061ED5124B242202FB0030114B55
:1031F800C1891B780F2B02BF0F4B01221A80FCF7E5
:10320800D1FF88B98B0701D4FFF7BCFF0B4BD3F86C
:10321800B421C3F84C22C3F850220022C3F8542228
:10322800022008BD0320FCE70420FAE7D846002066
:10323800947803080C5F00200E5F00209C9C0020FF
:1032480008B50E202FF066FB20B9034B1868C0F3B1
:10325800807008BD0120FCE7D446002008B5084B63
:10326800084A1B78242101FB032344F21900DB8957
:10327800184004D02FF0DAFD003018BF012008BD37
:103288009C9C00209478030808B573499FED736AE5
:10329800D1F82836724A93F82B0007EE900AF8EE18
:1032A800677AF3EE045A87EE867A82ED5F7A93F8AE
:1032B8002C0007EE100AB8EE477AC7EE067AB7EE8A
:1032C800007AF4EE477AF1EE10FAC8BFF0EE477ACA
:1032D800C2ED607A93F82A0007EE900AF8EE677A52
:1032E80093F82F0087EE867A01EE100A93F82E00E5
:1032F80093F82D3082ED057A00EE103A00EE900A30
:10330800B8EE411AF8EE600AB8EE400A81EE061AE5
:1033180002F12C00C0EE860A80EE250AFCF790FF29
:10332800D1F8283693F82A0007EE900AF8EE677A63
:1033380093F82F0087EE867A01EE100A93F82E0094
:1033480093F82D3082ED077A00EE103A00EE900ADD
:10335800B8EE411AF8EE600AB8EE400A81EE061A95
:1033680002F16400C0EE860A80EE250AFCF768FFC9
:10337800D1F8283693F8270007EE900AF8EE677A16
:1033880093F83B0087EE867A01EE100A93F83A002C
:1033980093F83930DFED337A82ED097A00EE103A8E
:1033A80000EE900AB8EE411AF8EE600AB8EE400A4C
:1033B80081EE061A02F19C0080EE270AC0EEA50AEB
:1033C800FCF73EFF4FF08043C2F8D8300023C2F824
:1033D800DC30C2F8E030C2F8E43002F1D400FCF787
:1033E800FDFED1F82836987B01EE100A587B1B7B2E
:1033F80000EE900A00EE103AB8EE411AF8EE600AB4
:10340800B8EE400A81EE061A02F5A270C0EE860AEE
:1034180080EE060AFCF714FFD1F82836D97A02F5AF
:10342800867001EE101A997A5B7A00EE901A00EE17
:10343800103AB8EE411AF8EE600AB8EE400AF2EE19
:10344800047A81EE271ABDE80840C0EEA70A80EE8C
:10345800270AFCF7F5BE00BFC01B00200000C842C9
:103468009C9C002066668542034B187A18B1034B72
:10347800186800F0010070479C9C0020D846002086
:10348800094B0A4A1B78242101FB0323D8898306A8
:1034980007D410F0400005D0054B1868C0F30010A1
:1034A80070470120704700BF9C9C00209478030857
:1034B800D84600202DE9F8435B4B1B6813F0040342
:1034C80000F0A280594B1A7922B15A7912B19B792E
:1034D800002B4CD1564F3E7A36B17B7A022B23D142
:1034E800FE7A003618BF01263A8940F202239A4232
:1034F8001CD197F80B8018F1000818BF4FF001088D
:103508004C4B4D4DD3F8009019F0100F14D0FFF725
:1035180097FE044620B395F82C0650B1002385F891
:103528002C360B20BDE8F8830026DDE74FF00008B5
:10353800E6E72B681A06F5D4BB7C63B90820FC794A
:103548002FF0E8F9A8B1A6B1B8F1000F11D084B1F5
:1035580019F0010F0DD0002385F82D360720E1E77B
:103568002B681B06E8D52FF0C3FC002854D1042093
:10357800D8E70A202FF0CEF918B1002385F82D36A8
:10358800F5E713202FF0C6F9B0B12B68180511D450
:10359800B8F1000F13D095F82D3683B17EB174B110
:1035A80019F0010F0BD097F8F83743B197F9F937AD
:1035B800002B04DD0920B5E7012385F82D36092005
:1035C8002FF0A8F920B12B68990627D406B12CBB97
:1035D80023202FF09FF9074603202FF09BF957B1BE
:1035E8002B6828B141F208029A4319D006B1BCB938
:1035F800DA0417D4B6B90028B9D02B681B0701D450
:10360800002CB4D005208DE70B4C84F82D36FFF73D
:1036180017FE84F82C06AAE7204683E7062081E7F0
:103628000F207FE70E207DE79C460020A046002063
:103638009C9C0020D8460020C01B0020054B1B681E
:1036480013F0040302BF044A82F8F93782F8F83706
:10365800704700BF9C4600209C9C0020024B93EDC5
:10366800000A31F00BBF00BFB4A400201A4A1B4B5C
:10367800D178042927D8DFE801F0030626101C00BA
:1036880093ED630A7047128CD3ED637A00EE102A2B
:10369800B8EEC00A30EE270A704793ED8B0AD3EDD7
:1036A800637AB4EEE70AF1EE10FAD8BFB0EE670A13
:1036B8007047128CD3ED877A00EE102AB8EEC00A54
:1036C80030EE270AEBE7128CD3ED877A00EE102A4A
:1036D800B8EEC00ADEE700BFD8A400209C9C0020FA
:1036E8000C4B1B6813F0040F10B50B4C0CD023784F
:1036F8000A4A242101FB0323DB899B0503D4FFF736
:10370800B5FF84ED8B0A10BDD4F88C31C4F82C3287
:10371800F9E700BF9C4600209C9C00209478030891
:1037280010B5084C0849204628F018FF074B626A74
:103738006421B2FBF1F21A80054AA36A93FBF1F304
:10374800138010BDB09E0020F0210020A061002051
:103758000C62002012F0010F38B5224C10D0056819
:10376800C4F814524568C4F8185294F8345213F047
:10377800010F14BF45F0010525F0010584F8345206
:1037880095070CD58068C4F81C0294F834029D078C
:103798004CBF40F0020020F0020084F834025207C7
:1037A8000BD594F83422C4F820125B074CBF42F0C2
:1037B800040222F0040284F834220023C4F83832C8
:1037C800C4F83C32084C14E90F0084E80F00FFF7F6
:1037D80087FFFFF7A5FF054A136843F0010313604D
:1037E80038BD00BF9C9C0020C09E0020D846002009
:1037F800054B587C03F5CE7203F5C273002814BF3D
:1038080010461846704700BF9C9C002008B501462A
:10381800FFF7EEFF0A4B90ED036A93ED5F7AD0ED68
:10382800007AD0ED046AE6EE077AC1ED007AFFF778
:10383800DFFFD0ED017AE7EE267AC1ED017A08BD07
:103848009C9C002070B5FFF7D3FF04461948FCF78D
:10385800C5FC1948FCF7C2FC1849194B91F84622D7
:103868000025A3F8145801F23C60EAB1154AD3EDDB
:10387800096AD28A81F84652564207EE906AF8EEF3
:10388800E77AC3ED777A07EE902AF8EEE77A0E4AE0
:10389800026087EEA67AD4ED027AC3F8BC2077EEF0
:1038A800C77AC3ED747A70BD6269C3F8DC2100235E
:1038B8000360F8E7389D0020709D0020C01B0020A1
:1038C8009C9C0020D8A400200000FAC3044B587424
:1038D800044B1B68DB0601D5FCF7A0BCB2E700BFB0
:1038E8009C9C0020D846002008B50020FFF7EEFF7A
:1038F800022008BD10B50A4C94F9F93773B194F851
:10390800F8375BB1FFF73EFC0020FFF7DFFFFDF75C
:1039180045F9002384F80C38022010BD0320FCE789
:103928009C9C002008B50020FFF7D0FF054B6422BF
:10393800D3F8B43193FBF2F3034A1380FFF722FC68
:10394800002008BD9C9C002000000010F8B5274FFF
:10395800274B284D9A8DB7F83032B7F8326295ED7B
:10396800770A2DED028B08EE100A9B1A1CB2B61AC4
:10397800B8EEC88AFFF73CFFDFED1F7AD0ED050AE5
:1039880036B228EE278A07EE906AB8EEE72A07EEE5
:10399800904A0021F8EEE71AB0EE481A05F19C00AB
:1039A80028F05EFEBDEEC00AF0EE480A10EE103AAE
:1039B8001BB207EE903A0421B8EEE70A07F23C6022
:1039C800A5F8143826F023FBBDEEC00A10EE103A15
:1039D8001AB2A242234603DB96423346A8BF1346D7
:1039E800BDEC028BA5F81438F8BD00BFC01B002041
:1039F800D8A400209C9C0020BD3786353B4908B5DB
:103A080091ED747A06EE900AFFF7F2FED0ED027A95
:103A1800487B374A37EE677AD1ED097A0B4627EEAD
:103A2800277A00285DD0D28A514207EE901AF8EE24
:103A3800E77AF4EEC77AF1EE10FA0ADC07EE902A7C
:103A4800F8EE677AF4EEC77AF1EE10FA58BFF0EEA6
:103A5800477A93ED776AC3ED0A7AF5EEC07AF1EE0C
:103A680010FAB5EEC06A4CBFF1EE675AF0EE675A2D
:103A7800F1EE10FA4CBFB1EE467AB0EE467AF4EEAB
:103A8800C75AF1EE10FA2EDDB8EEE67ADFED196AC4
:103A980027EE267ADFED186A27EE267A76EE476A51
:103AA800F4EEE76AF1EE10FA08DC76EE076AF4EE57
:103AB800E76AF1EE10FA58BFF0EE676AC3ED776A6D
:103AC80093ED770A31F0DAFC47F6FF739842A8BF06
:103AD80018460A4B9842B8BF1846094BA3F84C063B
:103AE80008BD528AA0E7C3ED777AE9E79C9C0020DD
:103AF800D8A40020BD3786350C2244435A80FFFFE6
:103B0800C01B002030B504230B700023C1E901332A
:103B1800C1E903338B82A52385B00C468B7578B930
:103B2800184B1B68DB0709D5174BD3F830264A60BA
:103B3800D3F83426D3F838368A60E36005B030BD50
:103B4800FF280AD1FFF754FE01A928F007FD019BC1
:103B58006360029BA360039BEFE7451EEBB23B2B20
:103B6800ECD80A4B93F9F9279042E7DC182202FBBC
:103B7800053505F516750FCD0FC495E8030084E8E3
:103B88000300DBE7D8460020C01B00209C9C0020D7
:103B9800F8B50C4B1B685B0712D40B4B93F8F8571E
:103BA80065B10A4E0124182707FB0461E0B201340D
:103BB800FFF7A8FF3D2CF7D108F024FC2846F8BDF4
:103BC8000025FBE79C4600209C9C0020F821002053
:103BD800F8B52DED028B0746F0EE408A24F000F987
:103BE80004460D46FFF704FE2E4E90ED028A3FB9BB
:103BF8002D4BC6E9004583ED748ABDEC028BF8BDF8
:103C08002A4B1B68DB0642D5D6E90023A01A61EBD4
:103C1800030130F0A7FE264BDFED267A1B7807EE6E
:103C2800100A042B67EE277A0ED1BDEEE87A224BF4
:103C380017EE102A9FED217A1A8027EE877ABDEEBB
:103C4800C77A17EE102A5A809FED1D7AF4EEC77ACC
:103C5800F1EE10FA18D8144BDFED1A6A93ED747A66
:103C6800A8EEA77A78EE667AB4EEE77AF1EE10FA63
:103C780008D478EE267AB4EEE77AF1EE10FAD8BFD7
:103C8800F0EE477AC3ED747AC6E90045B5E7064B0E
:103C980093ED097AC8EE877A37EE888A83ED748ABD
:103CA800F2E700BFB02700209C9C0020D8460020E7
:103CB8000C5F0020BD3786350E5F002000007A4477
:103CC800CDCC4C3E0000FA4308B5074BDFED077A30
:103CD8001B8B00EE103AB8EEC00A012020EE270A2E
:103CE800FFF776FF002008BDD8A400209A9999BE56
:103CF80038B52DED028B07EE901A08EE102A04460F
:103D0800FFF776FD9FED157AF8EEE77A0546C7EEE0
:103D1800878ADFED137A68EEA78AB8EEC88AB0EE14
:103D2800680A26F071F8D5ED007AE8EE007AC4ED5D
:103D3800007AFFF75DFDB0EE680A054626F002F846
:103D4800D5ED017AE8EE007AC4ED017AFFF750FD6F
:103D5800BDEC028B8368A36038BD00BF0000C84279
:103D680035FA8E3C074B1B68DB0610B5044605D5B3
:103D7800FFF73EFD07C884E8070010BDBDE8104006
:103D880044E500BFD846002008B50146FFF730FDDE
:103D980090ED007AD0ED017AD1ED000A91ED010A9B
:103DA80070EEC70A30EE670A25F05AFFDFED077A92
:103DB8009FED077A20EE270ABDE80840C0EE077A93
:103DC800FDEEE77A17EE900A25F0F8BE0000C8422B
:103DD80035FA8E3CD30770B504460E46154606D50F
:103DE800154B0268C3F8C8214268C3F8CC21A8075C
:103DF80008D500209FED110AFFF7EAFE0E4BA268D6
:103E0800C3F8D021690703D50B4BC3F8E06170BD37
:103E18002A0706D52046FFF7B7FF074BC3F8E0018E
:103E2800F5E7EB06F3D52046FFF7AEFFA0F58C408B
:103E3800503825F0C3FEF0E79C9C002000000000ED
:103E48002DE9F04F2DED088B10F0100F83B00646CA
:103E580090469946B34C00F01E8194F83830B24D24
:103E6800B24E002B00F0A78094F84930002B00F0E8
:103E78000D81D4E91023B8EB020069EB030130F09F
:103E880071FDDFEDAB7AB5F8523007EE100A27EE78
:103E9800278A07EE903AF8EEE77AB4EEE78AF1EE71
:103EA80010FA80F28380B5F8503007EE903AF8EEB9
:103EB800E77AB4EEE78AF1EE10FA03DD2FF03EF868
:103EC800002873D1B5F8541000296DD0FFF790FC85
:103ED80007EE901A90ED027AF8EEE77AF4EEC77AD8
:103EE800F1EE10FA94BF0123002384F84830B5F8A6
:103EF8004C3007EE903AF8EEE77AB4EEE78AF1EE46
:103F080010FAC0F2C380B5F84E20B5F84A3062B353
:103F180078EE677A07EE102AF5EEC07AF1EE10FA1D
:103F2800B8EE476A44D4F4EE467AF1EE10FAC8BF08
:103F3800F0EE467AB4F83022B5F848108A4238BF15
:103F48000A4607EE102AF8EE476A07EE103AB8EE6E
:103F5800477A37EE667A67EE277A87EE867A77EEC3
:103F6800266AFDEEE66A16EE903AF38094F8483039
:103F780013B914202CF0CCFD95F85610D4F8282647
:103F88006FF009034B4300EE103A0027B2F95200D4
:103F98003780B8EEC00A2CF00DFFB780708003B0F0
:103FA800BDEC088BBDE8F08F0B469EE701239CE72C
:103FB800DFED607ABEE7604BDFED606AD3ED037A30
:103FC80093ED048AF5EEC07AF1EE10FA4CBFB1EE2B
:103FD800677AB0EE677AB4EEE67AF1EE10FACABF05
:103FE80093ED057ADFED538AC7EE278A2CF0F2FFAE
:103FF80095F85730B0EE409A00EE103ADFED507A5F
:10400800B8EEC00A20EE270A25F0FEFEB5F84430C7
:1040180007EE903AF8EEE77AB4EEE78AF1EE10FA96
:1040280037DDB4EEC09AF1EE10FAACBF01230023DD
:10403800B5F8422007EE902AF8EEE77AF4EEE87A2F
:10404800F1EE10FA40F15084B5EEC08AF1EE10FAA4
:1040580040F34A84D4E90A01D4E90C23121A63EB29
:104068000103B5F8461012EB08024FF47A7043EBDF
:104078000903484300218B4208BF8242C4E90C234C
:10408800C4E90A8902D3012384F83830FCF764FDB7
:104098006CE70023CCE710F0080557D0B4F9003CD2
:1040A800D4F82866214DB6F9500000EE103AB8EE63
:1040B800C00A2CF07FFEB4F9023C288000EE103ACA
:1040C800B6F95200B8EEC00A2CF074FED4F80C3CD5
:1040D80068801B7B07EE903AB4F9043CF8EEE77A67
:1040E80006EE903AB2EE047A67EE877AF8EEE66A60
:1040F8009FED147A76EEA76A77EEA77A66EE876A5E
:1041080086EEA77ADFED107A77EE677AF1EE677AB6
:10411800FDEEE77A17EE903AAB80B4F8F83BEB8007
:104128003DE700BFC01B0020D8A400200462002087
:104138006F12833A0000000000000010F366DF3FB2
:1041480035FA8E3C00007A440000FA4310F001036F
:1041580000930ED02EF06AFE002840F03F81FCF755
:104168005DF8FFF745FBA64B0222D3F8B411FFF721
:1041780031FE16F0020B0ED0D4F8302CA149A24B18
:10418800A8EB02028A42C3E9008940F3B781C3E978
:104198000289FCF72FF82368D8040AD5984B1B7BB3
:1041A8003BB19A4D94F84212B5F9000025F0F7FC9E
:1041B8002880B1073FF4F3AE954A217C158F978E7E
:1041C800538F924609B3BBF1000F1ED08C4A9AF860
:1041D8003000B2F90EC86FF0090101FB00F29445F6
:1041E80005DB00EB800252006245A8BF624607EE7D
:1041F800902AD4F828160193B1F95000B8EEE70ACE
:104208002CF0D8FD814A019B108094F8202006F4F8
:10421800804B002A00F09E80009A002A00F09A80C5
:10422800774A9AF83210B2F910C86FF0090048437B
:1042380084459AF8311005DB01EB810040006045A8
:10424800A8BF6046DB1B19B203B208EE103AD4F8D7
:1042580028360192B3F952000091B8EEC80A2CF042
:10426800A9FD6A4B9AF83CC018EE102A4042ED1B93
:1042780058800A2092FBF0F01CFB00F000B22DB22F
:104288001F46DDE90012BBF1000F00F0C582A8420D
:10429800C0F2C88200EAE07026F47F5626F03D0698
:1042A8007604760C022E00B219D1D4F8583CDFF807
:1042B80054C1584EA8EB03036345C6E9008940F38F
:1042C800B382C6E90289002363620023184400B25E
:1042D800A84203DB8142A8BF01460D4628B2BAF8BE
:1042E8003410BAF83830BAF83A200844984203DB58
:1042F80082421346A8BF03469AF85920B4F83202FE
:104308009BB2002A00F0EE822268920500F1EA8250
:10431800B7F9062007EE902AB8EEE77ADFED3E7A85
:10432800B4EEE77AF1EE10FA40F1DA82551A002D70
:10433800A8BF5B199BB29142ACBF0022012284F84E
:10434800682CB4F83022934203DB98420246A8BF97
:104358001A46FA80BBF1000F3FF421AE2849CB7909
:1043680073B1FFF745FABAF81A3090ED027A07EE02
:10437800903AF8EEE77AB4EEE77AF1EE10FA11D94E
:104388008B7A022B7FF40BAEBAF81A3091ED697A6A
:1043980007EE903AF8EEE77AB4EEE77AF1EE10FA23
:1043A8003FF6FDAD194D1D4AB4F83032EB80136865
:1043B80043F08003136000232B809AF94030D4F82F
:1043C800282603EB83035B0000EE103AB2F9520093
:1043D800B8EEC00A2CF0EEFC6880E0E504F5416216
:1043E800D4F8103CC2E90089064AA8EB03039342BB
:1043F80016DD04F61843C3E90089FBF70FFFB8E69A
:104408009C9C0020400D0300F0270020046200203F
:10441800D8A400201828002000C0F344D846002063
:10442800824FFB79002B63D0FB78002B5FD004F61A
:104438001843D4F8181CC3E900897D4BA8EB010187
:10444800994258DCFFF7D4F97A4A9FED7B7A92F8C3
:10445800313092F83220D7ED746A03EB83035B00A6
:1044680007EE903A6FF009035343F8EEE78A07EE38
:10447800903AB8EEE78A07EE901AB8EEE79ADFEDC1
:104488006F7A29EE279AD0ED027A86EE870A2946B6
:1044980007F58670C7EE870ADFED697AB0EE682AFD
:1044A80060EEA70AF0EE481AB0EE491A20EE270A85
:1044B80028F0D6F8F0EE490A022104F5426025F00A
:1044C800A6FDB4EEC08AF1EE10FA08DCF4EEC08A5C
:1044D800F1EE10FA54BFB0EE408AB0EE688ABDEE35
:1044E800C88A18EE103AA7F810380123BB710123C7
:1044F80084F820303DE6FBF791FEF6E74B4D2A7A2B
:10450800002A00F08781AA78002A00F07181D4F887
:10451800382CC3E90289464BA8EB02029A4209EEFD
:10452800102A00F37481FFF763F995ED738AD0EDD3
:10453800017AD5ED728AD0ED000A3E4F38EE678ACF
:1045480078EEE08A28EE080AA8EEA80A31F0B6FA52
:104558002B783C4ADFED387A95ED717A242101FBFE
:104568000323B4EEE77AF1EE10FADB89D8BFB0EE98
:10457800677ADFED357A13F4806F27EE27BAB0EE4D
:1045880067AA69D095F9F9275AB195F90C38013A13
:10459800934206D0182202FB035393F86E32A52BE0
:1045A8005CD1FB8F09EE903AFFF722F9F8EEE99A11
:1045B8009FED267AC9EE877A8246B4EEE70AF1EED5
:1045C80010FA4BD8DFED227AB4EEE70AF1EE10FAD2
:1045D80044DD2368DB0441D4F1EE680AB1EE480AF1
:1045E80025F03EFBDFED1BAAD5ED728A70EE2AAAF4
:1045F800B0EE6A0A25F008FCE9EE808AB0EE6A0A95
:1046080025F0A0FB95ED738ADAED017ADAED000A60
:10461800A9EE808A78EEE08A38EE678A28EE080AE2
:10462800A8EEA80A31F04AFA18E000BF9C9C0020C6
:104638003F0D0300D8A400200000C842BD378635CE
:104648000AE81C4194780308CDCCCC3EBE30893EA4
:1046580000004842DB0F493F9A07A2D4FFF7C8F889
:104668008BEE007AD0ED007AE7EE287AF0EE678AD2
:10467800C4ED017AFFF7BCF8D0ED017A2B7BE7EEA9
:10468800087AB0EE678AC4ED027A13B39C4B94F8AB
:104698004212B3F9000025F082FA00B2C8B1BB8A11
:1046A800DFED986A584307EE900AF8EEE77A01239F
:1046B80087EEA67A2B7367EE0A7A95ED6E7AE7EEA7
:1046C800C78A95ED6F7AC4ED018AA7EE878A84EDD3
:1046D800028A8D48FFF758FBD5F8B4A1A0EB0A0071
:1046E80025F078FA0028C4F8400C44F26823B8BFD3
:1046F800404298427FDD012384F8443C94F8443CCE
:104708000BB1C4F8400CDFF824C28048DCE9002370
:10471800B8EB020269EB03030021994208BF9042FB
:1047280026D263460833D3ED007AD4F8402CF5EE50
:10473800C07AF1EE10FA48BFF1EE677A002AB8BFE6
:10474800524207EE102AB8EEC77ACCE90089B4EED7
:10475800E77AF1EE10FA4CBF0122002284F8542CBB
:10476800D4F8402C07EE902AF8EEE77AC3ED007AE9
:1047780097F8301094F8543CDFED657A6548642268
:10478800002B11FB02F302EE103A6FF0630303FBF8
:1047980001F301EE903AD4F8403CB8EEC99A53447C
:1047A80000EE103A29EE279A07EE90AA08BF0121D9
:1047B800F8EEE70A18BF0521B8EEC22AF8EEE11AAA
:1047C800B0EE491AB8EEC00A27F04AFFF0EE490ADF
:1047D8000A21514825F01BFCF2EE047A80EE270AE4
:1047E800BDEEC00A10EE103AA5F80E3801236B7121
:1047F80001232374CFE442F2273398423FF77EAF78
:1048080094F8443C002B3FF479AF002374E7FBF79E
:10481800F1FCEBE72274BEE4A84203DB8842A8BFA0
:10482800084639E5284637E5137A002B55D09378A2
:10483800002B44D0D4F8603CC6E90289374EA8EB77
:104848000303B34246DC92ED717ADFED357A9FEDD2
:10485800356A77EE676AF5EEC06AF1EE10FA48BF7E
:10486800F1EE666AF4EEC66AF1EE10FA13DD37EE81
:10487800C77AF7EE087A27EE277A07EE903ADFED47
:10488800246AF8EEE77A67EEA67AD4ED096AE7EECD
:10489800276AC4ED096AD4ED097AF5EEC07AF1EE1B
:1048A80010FA14D49FED177AF4EE477AF1EE10FA65
:1048B800C8BFF0EE477AC4ED097A01235371D4EDED
:1048C800097AFDEEE77A17EE903A1BB2FEE4DFEDC7
:1048D800167AF0E700236362EFE700236362EEE7EE
:1048E800034628E500222AE5002B7FF4B3AB00221B
:1048F8000023C4E90A89C4E90C23FFF7C7BB00BF3A
:10490800046200200000FA43C41B00201FA1070016
:10491800BD378635E09D0020D41B00203F0D0300E5
:1049280000002F4400004842000000000828002032
:1049380038B5034607C8084D05F2FC7484E807003B
:104948001846FFF721FA0722C5F80808014620464D
:10495800BDE83840FFF73EBA9C9C0020F0B589B00E
:104968004B6801938B680293CB6803930D46074607
:10497800D8B93B4B1B685C0746D53A4B1A7A002AD4
:1049880042D093F8EC21002A3ED0DB7B002B3BD0B1
:10499800012204A901A827F0A5FD07231A463946D4
:1049A80004A8FEF7D7FE09B0F0BDFF282CD10A787D
:1049B800012A29D12A4B1B68580725D5294B197A72
:1049C800022921D193F8EC11F1B1D97BE1B11B781F
:1049D800052B19D104A901A827F084FDEB68B5F9C6
:1049E8001010002B01F1FF339BB20CBF01220322F0
:1049F800B3F5B37F4FF0640398BF42F00402594304
:104A080004A8FFF7E7F9CEE77C1EE3B23B2BCAD830
:104A1800134B1B685907C6D42B78012B01D0042BE4
:104A2800C1D1104B93F9F927013297429C4601D026
:104A3800012FB8D118232E4603FB04C40FCE04F56A
:104A480016740FC496E8030084E803008CF8F9771D
:104A5800AB7DA3F1A502534253418CF8F837A2E786
:104A68009C4600209C9C002038B50F4B1B685B07B8
:104A780018D4FEF7E3FD0D4D01242946E0B2FFF7F7
:104A88006DFFAB7DA52B04D001343D2C05F1180535
:104A9800F3D1074991F8F8270AB9FEF7CFFD91F845
:104AA800F80738BD0020FCE79C46002010220020B3
:104AB8009C9C002008B50146FEF79AFE90ED007A0E
:104AC800D1ED007A91ED010A77EEC77A90ED017A7F
:104AD80030EE470A20EE000AA7EEA70A30F0EEFFF4
:104AE800FCEEC07A17EE900A08BD70B5184B194E47
:104AF8001D68F38C4BB3184CD4F80032EB1A642BB6
:104B080023D904F50570FFF7D5FF07EE900A94ED59
:104B1800847AF8EE677AB4EEE77AF1EE10FA05DDFA
:104B2800C4ED847A0120C4F8005270BDF38C77EE8E
:104B3800C77A07EE103AB8EEC77AF4EEC77AF1EE04
:104B480010FAD4BF01200020EDE70120EDE700BFF7
:104B580080970020D8A400209C9C002038B51C4DCC
:104B6800EB7A0BB90A2038BD2B7AF3B1194B1C68C4
:104B780014F010041ED1D5F8B431D5F83002C01A9B
:104B880025F028F80028B8BF404240F2DB5398428D
:104B980010DDFFF7AAFF0028E4D00F48D5F830123F
:104BA8000722FFF717F92046DDE7FBF7FBFA002895
:104BB800DCD0D7E7FBF798FF00209FED080AFFF746
:104BC80007F8FBF7DDFA002814BF02200820CAE71F
:104BD8009C9C0020D8460020C09E002000000000B9
:104BE80007C80A4B10B50A4C1B68C4F8003204F514
:104BF800017383E8070004F50570FFF75BFF07EE14
:104C0800900AF8EE677AC4ED847A10BD8097002088
:104C18009C9C002010B50C46FFF74CFF134B1B68FB
:104C280013F0100F124B1AD0CCB19A89904214D9B4
:104C3800DB8FDFED106A07EE103A07EE900AB8EE48
:104C4800C77AF8EE677A27EE267AF4EEC77AF1EE9D
:104C580010FA94BF0120002010BD0120FCE79B89B9
:104C6800834234BF00200120F6E700BFD846002069
:104C7800D8A40020CDCC8C3F38B51B4D2B7A4BB334
:104C8800EB7A3BB395F90C38182202FB035305F273
:104C9800FC7093F858120B1F59425941FFF7BAFF9D
:104CA8000446F0B905F2FC70FFF76EF8D5F808383D
:104CB800C01A24F08FFF0028B8BF404242F2107398
:104CC80098420EDC05F2FC7009222146FFF782F8B3
:104CD800204638BDFBF766FA002814BF0A200020DA
:104CE800F7E70220F5E700BF9C9C002038B5194D76
:104CF800EB7A0BB90A2038BD2B7A33B3012105F5BD
:104D08000970FFF787FF40B105F509700722D5F84C
:104D18003012FFF75FF80220EDE7FFF7E6FE002804
:104D2800E8D00D4B5B7963B10C4B1C6814F0100490
:104D380007D11322214605F50970FFF74BF800202B
:104D4800D9E70B2200210648F7E7FBF72BFA0028E2
:104D5800D1D0CFE79C9C0020D8A40020D8460020C2
:104D6800C09E00202DE9F0472DED048B714B82B0D9
:104D78000546D3F80080FBF715FA002840F0D580E7
:104D88006D4E6E4C96F80090B9F10F0F01BF6C4B49
:104D980002221A809880237B002B40F0C880A77BD2
:104DA800002F4DD0674BDFED685A93F85830D4F890
:104DB80054226FF06301594307EE901A4FF0640ACA
:104DC800F8EEE76AD4ED937A13FB0AF3B8EEE76AD4
:104DD80007EE903A5D4BF8EEE77AB3F9043037EE18
:104DE800E67A07EE903AF8EEE77AA8EB020277EE59
:104DF800A57ADFED575A67EE277A652A87EEA57AF6
:104E080028BF002207EE902A77EE266AF8EEE77AA6
:104E180066EEA77A87EEA57A76EE477AFDEEE77A10
:104E280017EE900A24F0CAFEB9F10F0F08BF444BE1
:104E3800C4F84C02C4F8548204BF90FBFAF05880BE
:104E4800D4F85432A8EB0308B8F57A6F84BFD4F8C5
:104E58004C32C4F850323F4B1B3DB3F92420EDB21D
:104E6800C2EB0212052D4FEA820204D82D2323FA41
:104E780005F5EB0700D4B7B1D4F84C123648FEF765
:104E880037FF33780F2B02D12D4B01229A803248FD
:104E9800D4F84C120122FEF79DFF002002B0BDECB1
:104EA800048BBDE8F0872C480192FFF703FE254BE1
:104EB800DFED2A6ADB8F019A07EE900AB8EE677A6F
:104EC80007EE903AF8EEE77A67EEA67AB4EEE77A5C
:104ED800F1EE10FADBD807EE902AB8EEE78AD4EDA7
:104EE800937A9FED1F7A94ED909AF8EEE77AC7EEE1
:104EF800878ADFED1C7A68EEA78AB0EE680A24F08C
:104F080083FFA8EE009AB0EE680A84ED909A24F028
:104F180019FF94ED919A3378A8EE009A0F2B84ED3F
:104F2800919AB4D1064B0222B0E70420B6E71020CC
:104F3800B4E700BF809700200C5F00209C9C0020F5
:104F48000E5F0020D8A400200000FA43046200206D
:104F580000007A4468610020DC9E0020CDCC8C3FA4
:104F68000000C84235FA8E3C10B5124C94F90C3842
:104F7800182202FB034386B093F85822012A12D163
:104F8800D3F85C120391D3F860120491D3F8643219
:104F9800059303A8694627F0A5FA6846FFF7C8FCF9
:104FA800022006B010BDFEF723FCFFF719FE04F53A
:104FB8000970F3E79C9C00209A4B1B685A072DE95F
:104FC800F34703D4022002B0BDE8F087964B1B6874
:104FD800DB062FD522F004FFFFF787FD002800F03D
:104FE8001F8192490B8B00EE103A914B9A7A022A54
:104FF8001C46B8EEC00A40F0DC8093ED697ADFED1C
:105008008D7AB4EEE77AF1EE10FA40F1D280DFED56
:105018008A7A20EE270AFBEE0E7AB4EEE70AF1EE62
:1050280010FA4FF0010058BFB0EE670AFEF7D0FD46
:105038000020C8E7814E22F0D3FED6E900231343AF
:10504800CDE9000103D103460C46C6E90034784F88
:10505800DFF80082FEF7CCFBD7ED716A9FED787A16
:10506800D0ED057AD6E90023DDE90045F4EEC76AFC
:10507800F1EE10FACCBF01210021A41A65EB03055B
:105088004FF00009A94508BFA045F0EEE77A6D4A40
:1050980002D3002300261AE0D2F82C32B2F96A6C47
:1050A800581CD2F82832C2F82C023344C2F82832ED
:1050B80093FBF0F3283B9E42EBDAB3EE097AF4EE69
:1050C800C77AF1EE10FA5FDC81F0010601235E4831
:1050D800DFF8849100780328B24634D1B3EE097A18
:1050E800F4EEC77AF1EE10FAD4BF4FF0050C4FF08A
:1050F800000C81F0010101EB4C014FEA830C634481
:10510800524803EB830301EB83030380D2F82C326C
:1051180080463BB1D2F8281291FBF3F1B2F86A3C11
:105128005B1A1BB2D9E90045DDE90001001BA8F8AC
:1051380002304FF47A724FF0000361EB05012FF053
:10514800A7FCA8F80400BB7A022B15D197ED697A61
:10515800B5EEC07AF1EE10FA0EDB66B1D7ED707AD3
:10516800F1EE046A77EEA67AB4EEE77AF1EE10FA79
:1051780094BF01260026B246BAF1000F06D1DDE938
:105188000034C9E9003427E7012383E7D9E900237C
:10519800DDE90045A41A65EB0305244BDB8D4FF4CC
:1051A8007A725A43D317AB4208BFA242FFF40AAF40
:1051B80012E7FEF71DFBD4ED877A4A8B90ED027A51
:1051C8008B8B37EE677A07EE902AF8EEE77A9B1A10
:1051D80037EE677A07EE903AF8EEE77AC7EE276A75
:1051E800B5EE007AF6EE087AB0EE476AA6EEA76A40
:1051F800B4EEC76AF1EE10FAF0EE467A0DD4B7EEC7
:10520800007AB4EE476AF1EE10FAC8BFF0EE477ABA
:1052180027EEC00ADFED0E7AFFE6F0EE477AF7E7F1
:105228000A20D0E69C460020D8460020D8A40020BA
:105238009C9C0020000048429A9919BEE01D00205D
:105248000000C842C01B00200C5F00200E5F002039
:10525800000048C240420F00D81D002038B505465E
:10526800FFF7AAFE0228044604D12846FBF7F0FC03
:10527800204638BD0020FCE770B5FFF736FC20B1AA
:105288002A4E718C59B9002008E0294B1B7A002B53
:10529800F6D1FAF787FF0028F2D00A2070BD07EE92
:1052A800901A234CF8EEE77A94ED747AB4EE677AA4
:1052B800F1EE10FAE7D094ED8B7AF4EEC77AF1EEBE
:1052C80010FACCBF01254FF0FF35FEF791FA90EDAB
:1052D800027A738A77EEC77A07EE105AB8EEC77A61
:1052E80067EE877A07EE103AF8EEC76A87EEA67A75
:1052F800F7EE007AB4EEE77AF1EE10FA0CD507EE85
:10530800901AF8EE677A0222002104F50970C4EDBC
:105318008B7AFEF75FFDB6E76B4300EE103A01208B
:10532800B8EEC00AFEF754FCADE700BFD8A40020D1
:105338009C9C002030B52DED028B3A49CB7A85B084
:1053480023B90A2005B0BDEC028B30BD0B7AA3B39C
:10535800D1ED8B6AD1ED877A334C9FED347A23688F
:105368009FED338A76EEE77A13F01001F5EEC07AF6
:10537800F1EE10FA48BFF1EE677A67EE877A9FED93
:105388002C7AF4EE487AF1EE10FA48BFF0EE477A3C
:10539800FEF72EFA90ED027A37EE667AF1EE677A2A
:1053A800B4EEE77AF1EE10FA02DC224D2A796AB9F6
:1053B80009B1FFF715FC0220C4E7FAF7F3FE00284D
:1053C800C6D01C4B1B7A002BC2D1BAE7A9B12468FE
:1053D800194A14F0100401AB14D007CA83E8070077
:1053E800DDED037A37EE888A02228DED038A0021EB
:1053F8001846FEF7EFFC0020A4E7FFF776FB00282D
:10540800E5D19EE707CA83E80700DDED037A6979ED
:1054180037EE888A8DED038A09B11222E7E70A225E
:10542800E6E700BF9C9C0020D84600209A99193EC8
:105438000000C842D8A40020C09E0020F0B5304B20
:10544800DA7A85B01C46002A56D0DA79002A53D079
:105458001A7A022A50D12B4F3A68D5074CD512F048
:10546800100F294D07D0AA8CD3F83812914202D2D6
:105478009B7C002B42D0254B242202FB0030C6899E
:10548800B10701D4FDF77EFEF20701D5637C23B195
:105498000020FEF71BFAFBF781FBAB8CD4F838220F
:1054A8009A4211D2FEF7A4F907230522D4F8B411C1
:1054B800FEF750F9FEF79CF90722D4F8B411FEF76D
:1054C80089FC0C2005B0F0BD3B68DB060DD5104A01
:1054D800D4F8B41101A8FEF70BFC01A80522D4F8F2
:1054E800B411FEF777FC0220ECE701A8FEF73AFCBE
:1054F80001A8FFF775FBF0E70A20E3E70420E1E7DE
:105508009C9C0020D8460020D8A40020947803084A
:10551800A08601001FB50C4C237C93B101A8FEF7AF
:1055280021FCFEF765F90222D4F8B411FEF752FC0B
:105538000522D4F8B41101A8FEF74CFC002323740B
:10554800E373002004B010BD9C9C00202DE9FF41AE
:105558001E4A1F4C242303FB00230546DE8994F8CA
:105568001180FBF7B1FA0023B10707462374E373F0
:1055780001D4FDF707FEF20701D5B84505D0FBF7C2
:10558800A3FAFEF7A3F9FBF709FB40F20123334026
:10559800012B03D1730501D4B84506D0FEF728F9CD
:1055A8000222D4F8B411FEF715FC093D022D08D9E2
:1055B80001A8FEF7D7FB0522D4F8B41101A8FEF71D
:1055C80009FC022004B0BDE8F08100BF947803080C
:1055D8009C9C002010B5074C237C4BB1FEF708F9C2
:1055E8000222D4F8B411FEF7F5FB00232374E37309
:1055F800002010BD9C9C002010B50446FFF7EAFF70
:105608002046BDE81040FDF7C7BD10B50446FFF7BA
:10561800E1FF2046BDE81040FFF7A4BB144AF8B5E7
:10562800242303FB0020134CC589677CFBF74CFA45
:105638000023EA0706462374E37301D5874203D0A3
:10564800FBF742FAFEF742F940F201232B40012B07
:1056580003D16B0501D4B74208D0FBF79FFAFEF7D8
:10566800C7F80222D4F8B411FEF7B4FB0220F8BD43
:10567800947803089C9C0020074B1B68DB0610B538
:10568800044606D5FFF7CAFF2046BDE81040FDF7DF
:10569800A5BD032010BD00BFD846002070B5164632
:1056A800032813D8DFE800F002072D3100230B721E
:1056B8000B60132070BDFEF79BF8D0ED027AFDEE6B
:1056C800E77A17EE904A142394FBF3F534B30620D7
:1056D80095FBF0F300FB1353DBB2C3F11300C0B228
:1056E800152816D9C3F10D03D8B24B68F31A642BE9
:1056F800E0D90B68A34213DA01230B7200234B7223
:1057080016E00E4BB3F92440DDE70D4B1C8805234A
:10571800DAE70F28E9D8C3F11903E5E71320E4E72E
:1057280001DD0223E9E74B7A032B04D900230B722E
:10573800C1E90046BEE70133E1E700BF6861002028
:10574800A061002038B52E4C0D4684ED630AC4EDE7
:10575800660A84ED691AC4ED6C1A002845D0FDF775
:10576800BFFF0223E3710123E370264BA5721B6878
:10577800C4F8E831244B1B685B073DD5A37A022B9C
:1057880014D1B5EEC01AF1EE10FA0FDDD4ED707A2F
:10579800F5EEC07AF1EE10FA2BDDF4EEC17AF1EEF7
:1057A80010FA58BFF0EE417AC4ED707AFEF720F88F
:1057B800D0ED027A1549FDEEE77A17EE903AC1F876
:1057C800743CFEF715F8D0ED057AFDEEE77A47F65A
:1057D800FF7217EE903A9342A8BF13460C4A9342C1
:1057E800B8BF1346A1F87C3C38BDE071A072E070E8
:1057F800C0E784ED701AD9E7064BC4F8C031D5E785
:105808009C9C0020809700209C460020C01B002004
:105818005A80FFFF000080BF2DE9F8434A4B4B4CEC
:105828001F684B4D2378242606FB0353804699684E
:10583800A1B1D87C90B1474AD2F8803CFB1A994272
:1058480091460BD8FAF722FD237806FB03535B68D1
:1058580013B1984700285BD1C9F8807CB8F1000FD4
:1058680013D02078242606FB00504044807C60B189
:10587800FAF70CFD237806FB03535B6813B19847CE
:1058880000284DD1334BC3F8807C3349314B09682C
:105898000022490783F85020227808D5242101FBEB
:1058A8000251C9898F0543D5022183F8501024215C
:1058B80001FB02552A7B83F851206A7B83F852202A
:1058C800002283F85320227B12B1012283F853204F
:1058D800627B2AB193F8532042F0020283F85320E6
:1058E80094F90C28D1B23B2901F101009CBF182181
:1058F80001FB024483F8540098BF94F858224FF0F3
:10590800000083F8550098BF83F85520BDE8F88358
:10591800237806FB03531844807C002892D19BE728
:10592800237806FB03531844807C0028A0D1A9E7FC
:105938004E0501D50321B8E7080701D50F21B4E7C3
:105948008907B4D50121B0E7809700209C9C0020EE
:1059580094780308C01B00209C46002070B50546BB
:1059680022F03EFA4FF47A73064A6B43C51802F6E2
:10597800884441F100060123C4E9005682F8903CAE
:1059880070BD00BFC01B00202DE9F0411C4B93F8EF
:10599800BD62174605461B4A00F8011B97FBF2F249
:1059A80001363ABB1849194B11EA270138BF194685
:1059B80023F0E0FE134B97FBF3F203FB1272441C37
:1059C8008046002AB8BF52421149281923F0D2FE56
:1059D80015F80830703B05F808302B5D603B204413
:1059E8002B5528443022431B9E4205DC0023AB552F
:1059F800BDE8F0810549DBE700F8012BF3E700BFBC
:105A0800DC99002080969800C1D6030862EB030851
:105A1800C5D6030810B50C4B93F8BA32012B0446CF
:105A280008460CD001D3022B0DD1FAF7CBFDB023D9
:105A3800024606492046BDE8104023F09BBEFAF70F
:105A4800C1FDA123F4E710BDDC990020CAD60308E4
:105A580013B52B4B93F8BA3263B1022B3BD801F53F
:105A6800C333284A9F33934237D86422B92391FB22
:105A7800F2F216E007EE901A9FED237A2349F8EE2A
:105A8800E77A67EE877AFDEEE77A17EE902A02F555
:105A9800802303F23F738B4209D80F23642192FBC2
:105AA800F1F21B4902B0BDE8104023F063BE19496A
:105AB80082EAE274A4EBE27494FBF1F301FB134372
:105AC800BB24009492FBF1F24FF4A55493FBF4F33A
