:020000040800F2
:1000000000000110A92E03088B520208C9D602086D
:10001000652F0308652F0308652F03080000000003
:100020000000000000000000000000001D58020851
:100030001B5802080000000019580208A711000808
:10004000652F0308652F0308652F0308652F030834
:10005000652F0308652F0308151500081D150008F6
:10006000652F03081B15000819150008096102080F
:10007000F5600208E1600208CD600208B96002087C
:10008000A560020891600208652F0308652F030828
:10009000652F0308652F0308652F0308171500084F
:1000A0004962020821620208F961020871620208CD
:1000B000E5610208D1610208BD610208652F0308ED
:1000C000652F0308652F0308652F0308652F0308B4
:1000D000652F030831690208652F030825690208A6
:1000E00013150008652F0308397402086D610208B2
:1000F000456102081D610208956102087D600208E1
:10010000652F0308652F0308A9610208652F0308FE
:10011000652F0308652F0308652F0308652F030863
:100120006960020855600208416002082D600208FB
:1001300019600208652F0308652F0308652F03085F
:10014000652F0308652F0308652F03088D520208E9
:1001500005600208F15F0208DD5F02081969020804
:10016000652F0308652F0308652F0308652F030813
:10017000652F0308652F0308652F0308652F030803
:08018000652F0308652F030839
:1001880020B10078B0FA80F040097047012070472C
:10019800436A826930B5D154436A04690133A34282
:1001A80028BF00234362836BFBB1196811F001017A
:1001B8001AD11A68856922F001021A60826A154408
:1001C800DD60456AAA4235BFAA1AA21A5A605A6067
:1001D8004FF0000280F850201A6838BF856242F05C
:1001E800010228BF81621A6030BDC26DD36843F036
:1001F8008003D360F8E7034610B55C6B4069D968A3
:1002080044B1DA6C8C1A013A005D08BF0A46C0B2E4
:10021800DA6410BD1A6A805C01328A4228BF22461D
:10022800C0B21A62F5E7836B13B190F850007047BB
:10023800D0E909031B1A584258417047D0E90913FD
:100248000269994238BF8918CB1A816B501E19B1BF
:100258004A681344834201D2C01A7047002070478D
:10026800436B4BB1C26C5B689A42A3EB020392BF2B
:100278001846C068C0187047D0E907239A422FBFB4
:10028800D01AC0688018C01A704710F80A3C0133A9
:10029800DBB20A2B00F80A3C07D910F8131C034AF2
:1002A800002322F8113000F80A3C70472A36002053
:1002B800F0B54F4E337814200133B3FBF0F200FB56
:1002C800123333704B4B58681A6D9C6881420A444C
:1002D80004D293F8580008B102F5803246480778EE
:1002E800B2FBF7F2944233D293F858501DB14FF451
:1002F800803595FBF7F5101B451BDD60C3E901123E
:10030800717814220020013183F8580091FBF2F033
:1003180002FB10117170B178D868013191FBF2F4C9
:1003280002FB1412B27040F68C22904243D91A781C
:1003380093F955108A4250B223D1111F0C2920D8A5
:1003480093F8561018290BD8013183F8561009E094
:100358004FF4803090FBF7F0001B1044D860CDE7D5
:1003680083F8540093F954108A4202D193F8571035
:10037800D1B9012283F8572083F8550000221A705A
:10038800F0BD0021E1E703EB81052D6924F8115048
:1003980001318A42F7DC194900240F2A07DD184980
:1003A8000A7801320A70E4E70021144CF1E721F8D9
:1003B80012400132F1E793F85720002AE0D0A0F26A
:1003C800EF2140F2DA52914207D81A780F2A04D85E
:1003D800111D013243F82100D1E7002283F857208C
:1003E800104699180432402A0861FAD1C8E700BFBC
:1003F80098160020FC230020A80000202A360020A0
:100408000836002010B50B48037814240133B3FBD9
:10041800F4F204FB1233084A0370136D01330B44E2
:1004280013654FF6FF73994204BF012382F85830D1
:1004380010BD00BF98160020FC230020024B53F883
:1004480020301B681960704758450020064B53F848
:100458002030A1F57A701A6819894FF47A734143EC
:1004680091FBF3F1116070475845002070477047C1
:100478000D4B1A683F2AF0B59C4613DC0B4C17014C
:100488000346E61900F1100E18685968354603C589
:10049800083373452E46F7D1054B1B68E3510132EB
:1004A800CCF80020F0BD00BFD0230020D01F0020D2
:1004B800BC60002070B5104C05460E460022002393
:1004C800D4E9020132F042F920B109A3D3E90023AB
:1004D800C4E90223304631F067FED4E9022331F043
:1004E800F7FF32F07BF904EB4504208270BD00BFB2
:1004F800ABAAAAAAAA461040981600200E4B98420A
:1005080013D0A3F57843984211D003F5806398423D
:100518000FD10223094A142101FB03235A8901320E
:1005280092B25A81588980B270470023F2E70123BA
:10053800F0E74FF0FF307047003001400000002026
:10054800F8B584894FF6FF764FF47A740BB9012019
:100558001CE082B1157801320789BF070DD5ADB20D
:1005680085814FF47A740589ED0710D4013CA4B253
:10057800B442F8D105E0FF25EEE7013CA4B2B4424D
:10058800EAD1FFF7BBFF003018BF0120F8BD85890D
:10059800ADB209B10D700131013BD7E708B540F2A2
:1005A800E933028992070BD589B2818140F2E93398
:1005B8000289D2070CD4013B9BB2002BF8D103E08F
:1005C800013B9BB2002BECD1FFF798FFC0B208BDEE
:1005D8008089FBE730B50278202A034600F1010044
:1005E800F9D0092AF7D02D2A4BD10346BFEE000ACD
:1005F8009FED3C7A1A46F2EE046A134612F8010B94
:10060800A0F13001CCB2092C41D92E280BD1F2EE41
:10061800046A1146B0EE666A0B4611F8012B303AAF
:10062800D0B209283CD91A7802F0DF02452A53D102
:100638005A782D2A3FD102330120013B00220A2596
:1006480013F8011F3039CCB2092C3AD9B2F59A7F88
:100658001346DFED256A28BF4FF49A731A46F7EE62
:10066800007A072A30D8DA086FF0070101FB023355
:10067800F2EE046A63BB88B3C7EE276A20EE260A47
:1006880030BD2B2A08BF0346B7EE000AB0E707EED5
:10069800901AF8EEE77AE7EE267AB0EE677AACE7DA
:1006A80007EE902AF8EEE77AC7EEA65A66EE866A53
:1006B80037EE257AB0E72B2A14BF01330233002026
:1006C800BBE705FB0212BBE767EEA67A083AC8E764
:1006D80067EEA67A013BCDE7F7EE007A67EE276A68
:1006E800CCE700BF0000000020BCBE4CA0F13003E6
:1006F800DAB2092A01D818467047A0F16103052B20
:1007080001D857387047A0F14103052B94BF3738FB
:100718004FF0FF30704703685A1C02601970704729
:1007280003685A1C0260197070472DE9F84F002BB6
:1007380014BF4FF030094FF020090A9B141E0746DA
:100748008846BABF64424FF0010B4FF0000B13F814
:10075800012B02B134B9BBF1000F0ED000230A9D62
:100768005E1B0EE0013CF2E749463846C04715F1EA
:10077800FF35F9D223462C46F1E72546F7E73846F8
:10078800C04705EB060A15F8011B0029F7D1BBF194
:10079800000F05D02546002D05DC002CA8BFA2447B
:1007A8005046BDE8F88F49463846C047013DF2E754
:1007B800D0ED006AD0ED057AE6EE807AB0EE407AA8
:1007C800B0EE670AD0ED037AD0ED016A67EEC07A21
:1007D800E6EE877AD0ED066A77EEA67AD0ED026A61
:1007E800C0ED057AD0ED047A67EEC07AE6EE877A36
:1007F800C0ED067A7047704743230B800048704766
:100808003C00002010B5074CD4F88000FF2807D022
:1008180005490A6B343121F0CEFFFF23C4F880303C
:10082800002010BD000000209816002008B5D0F860
:10083800E4355B6A9847002008BD08B5D0F8E43570
:100848001B6A9847002008BDD0F8E43510B5044667
:100858001B689847D4F8E8359B689847002010BD76
:1008680008B5D0F8E435DB6903B19847002008BD26
:1008780008B590F8123180F81331042380F812314A
:10088800D0F8E835DB689847002008BD10B5D0F8E7
:10089800E83504461B699847032384F81231002081
:1008A80010BDF0B54B784C69012B27D182691568CA
:1008B800136914B964F3060305E08E68A642F9D2F9
:1008C8004E6166F3060343F400231361C478012CD8
:1008D80005D10B780E6900EB83039B695E6145F0D7
:1008E8000445156044B94B6933B102690978506B06
:1008F80001238B40034353630020F0BD0B788F68BE
:1009080000EB830307F07F065A6D156813696CB90D
:1009180066F3060343F400231361C378012B04BF75
:100928000B69536145F004451560E5E74F61EFE752
:100938002DE9F04191F801E00D784B69CE78BEF1D0
:10094800010F4FD100EB850CDCF818703A683C6950
:1009580063F3120493B96EF3DC443C61C478012C50
:100968001BD10D697D61012E25D100698068C00504
:1009780054BF42F0005242F080521CE0D1F8088087
:1009880008EB030E0EF1FF3E012EBEFBF8FE6EF3E0
:10099800DC4408BF66F35E74DFE7012EE5D053B18F
:1009A800D0F810E00120DEF8348000FA05F545EAB9
:1009B8000805CEF8345042F00442012E3A6009D1BD
:1009C80044B99BB20333C968DCF8D0009B102246B7
:1009D800934202D10020BDE8F08151F82240046022
:1009E8000132F5E700EB8505D1F808C06F6DCCF34F
:1009F80012053A683C69A3B965F31204012363F34D
:100A0800DC443C61C378012B04BF0B697B61012E78
:100A180003D14B79A3B142F0005242F004423A604C
:100A2800D8E76344013BB3FBFCF3C3F3090363F367
:100A3800DC446B43C3F3120363F312044B61E0E736
:100A480042F08052E9E770B501F07F05282404FBE5
:100A5800050104FB05040126C4F82821C4F82C214B
:100A6800002201F58E7184F81D6184F81C51C4F8C8
:100A78003421C4F830311DB9FFF713FF002070BDD1
:100A8800FFF756FFFAE7214BDA6B0F2A70B502F130
:100A980001011D4602D0D963002070BD1C49002306
:100AA800EB630B78002BF7D11A4C2268B2F5006F74
:100AB80008BF2360184B22681B689A4202D10023A2
:100AC8000B70E9E78CBFC2F500639B1A2B642B6C93
:100AD800402B0ED9403B02F140062B6401230B70DA
:100AE800266040230D4911FA82F28121FFF7ABFFFE
:100AF800D2E702EB030626604FF000042C640EBF19
:100B0800022401249BB20C70ECE700BF9816002069
:100B1800B85800202458002028580020B958002030
:100B280070B518490B78012B0C4603D1164D2B6C68
:100B38005BB90B702378022B17D100231A46812149
:100B4800FFF781FF002323700FE0104C402B226831
:100B58000DD9403B02F140012B64216040230C4930
:100B680011FA82F28121FFF76EFF002070BD03EBBE
:100B7800020626604FF000042C640ABF02249BB2D0
:100B88000C70ECE7B8580020981600202458002074
:100B9800B958002010B504461346C4F83C21C4F8DF
:100BA8003821022280F811210A460021FFF74BFF65
:100BB800002010BD70B50C46282606FB040506FB70
:100BC8000101C5F88833002385F87443C5F88023EC
:100BD800C5F88C3385F87533C37806FB0404012BFC
:100BE80008BFC5F8842394F8743301F55D711BB907
:100BF800FFF757FE002070BDFFF79AFEFAE738B5F9
:100C0800282303FB0101074DB1F88C13044628463D
:100C180021F098FD40232A4601212046FFF7CAFF0C
:100C2800002038BDDC16002030B50B784978012249
:100C38009A4000EB830301294FF000052C460CBFB6
:100C48009B695B6D92B20CBF62F30F0462F31F44A1
:100C58006FF3CF3502691D60D36923EA0403D361BA
:100C6800002030BD40F2011310B500F5A271044612
:100C7800A0F84431FFF7D8FF0123A4F89C3304F50A
:100C880067712046FFF7D0FF4FF48173A4F86C31E9
:100C980004F5B6712046FFF7C7FF21F0CDFD00200F
:100CA80010BD0B7830B501224D789A4000EB8303D4
:100CB800012D0CBF9D695D6D2B6892B24FF0000449
:100CC8000CBF62F30F0462F31F441A040DD48A6840
:100CD80062F30A03CA7862F39343CA8862F39953AA
:100CE80043F0805343F400432B600369DA691443EB
:100CF800DC61002030BD2DE9F04140F201130446CB
:100D0800022600254FF040080127A0F84431C0F81A
:100D18004C8180F84761A0F84A7180F8485100F585
:100D2800A271FFF7BEFF04F56771A4F89C73C4F8BD
:100D3800A48384F89F6384F8A0532046FFF7B1FF8B
:100D48004FF48173A4F86C310823C4F87431032379
:100D580004F5B67184F86F31A4F872612046FFF784
:100D6800A0FF074B1E715D7121F06EFD4346054AD9
:100D780039462046FFF71EFF2846BDE8F08100BF30
:100D880074040020DC16002070B5002540260446B7
:100D9800A0F87453C0F87C6380F8775300F55D7150
:100DA800FFF77FFF4FF48073A4F81C3104F58E71B0
:100DB800C4F8246184F81F51A4F822512046FFF793
:100DC80070FF012384F81231D4F8E835A0785B6805
:100DD8009847284670BD0E4BDA68D20310D4DA68FB
:100DE800D1060FD4DA68D2050ED4DA6812F0E00F13
:100DF8000CD1DB6813F0020F14BF082009207047DC
:100E0800012070470620704702207047072070476E
:100E1800003C024007B509238DF80730FFF7DBFFD8
:100E28008DF807009DF80730012BF7D09DF80700D3
:100E380003B05DF804FB08B5202134F02AFD034611
:100E4800184623B10278202A03F10103F8D008BD1F
:100E580038B504460A4614F80E1C50F8040C49B973
:100E6800012324F80C2C04F80E3C0A22BDE8384073
:100E780025F016BB34F80C1C24F80A2C9142A2EB7E
:100E8800010384BF0268D26A9BB288BF9B1824F80A
:100E9800083C14F80F2C074B34F8081C23F81210E0
:100EA800002504F80E5C0A22012125F0F9FA04F85D
:100EB800065C38BD2A360020A1F57A7107EE901A33
:100EC8009FED087A9FED080AF8EEE77A10B5A7EECD
:100ED800870A044632F03EFB044B53F824301B6863
:100EE800186010BD3D0AD73F0000D2435845002086
:100EF8001523594307EE901AB8EEE70AF3EE087A7D
:100F080010B580EE270A044632F024FB024B53F852
:100F180024301B68186010BD584500200C234B4333
:100F280000EE103A10B5BAEEEE0A044632F012FBA3
:100F3800024B53F824301B68186010BD5845002038
:100F48002DE9F0410B4DDFF830802C686A690127E4
:100F580014400CB9BDE8F081B4FA84F3C3F11F035F
:100F680007FA03F658F823000368984724EA0604AA
:100F78006E61EEE7003C0140CC60002070B50A7855
:100F880012F0600406460D462BD0202C30D1CC88B8
:100F98004B7804B312060CD522461F49184621F097
:100FA8000AFCEA881C493046FFF7F4FD0024204675
:100FB80070BD1A4AC0F89443C2F88030184AC0F885
:100FC80090430323146380F81131343223460021FF
:100FD800FFF7F0FDEAE702221144184621F0EBFB87
:100FE800E5E74B780A2B08D00B2B0BD0062BDED16C
:100FF800304622F05FFE0224D9E701220949FFF7B3
:10100800C9FDD4E78B781BB9054AC2F88430CDE70F
:1010180022F050FECBE700BFCC16002000000020D5
:10102800981600201C170020044B9B7913B9044B19
:1010380018687047034B9888704700BFB832002083
:10104800CC0100100840002073B504681C48002338
:10105800054650F83360B4422CD1DCB255F8346000
:10106800304625F002FB3388E40043F00103338067
:101078002B195B7963B18DF804300022012301A894
:101088008DF805308DF806208DF8073022F07EFCAB
:101098002C44A37963B18DF804300022012301A800
:1010A8008DF805308DF806208DF8073022F06EFC9B
:1010B80002B070BD01330E2BCBD1FE24CEE700BFAA
:1010C800FC5C03082DE97848214B5A68214BC2F390
:1010D80008028AB9EFF3118272B91F481F491D68C7
:1010E80086681A689542FAD1D1F88C209642F6D8CB
:1010F8001B4BD3E900231AE0EFF31182102181F38F
:10110800128801F1E0218E68086810F4803F1348C6
:101118001EBF0124C0F888408E681968D0F888502E
:10112800D3B283F311880E4BD3E900230D444FF457
:101138007A74A2FB04BC04FB03CCBBEB06006CF185
:10114800000131F019FDE4FB0501BDE8788800BF16
:1011580000ED00E0BC60002010E000E098160020E0
:10116800E08E0020F8B504460D46FFF7ABFF0646B3
:101178000F46FFF7A7FF821B61EB0703AB4208BFCF
:10118800A242F6D3F8BD10B5044614F1FF3400D2DC
:1011980010BD4FF47A700021FFF7E4FFF5E7EFF395
:1011A8001183102282F3128808490A6801320A6002
:1011B800074A08499068C1F88C000020C1F88800E7
:1011C8001268DBB283F31188704700BFBC6000204F
:1011D80010E000E09816002003689B6A03B11847E6
:1011E800704703685B6A03B11847704703689B69D7
:1011F800184703685B69184703681B691847036841
:10120800DB68184703689B68184703685B681847DA
:1012180003681B68184708B5184B194C1D68A06867
:101228001BF0E6FA28461BF0E3FAA06841798B0721
:1012380003D441F00201FFF7D9FF002022F0AEFDF0
:10124800A068FFF7E2FF60B1012022F0A7FDA068C7
:10125800FFF7D5FF01462846FFF7DAFF002022F006
:101268009DFD2846FFF7D1FF0028E9D02846FFF763
:10127800C6FF0146A068FFF7CBFFE1E77C98002096
:10128800D82E00200368DB6970B506460C46154663
:101298007BB90D442B1B002B00DC70BD3046FFF7DB
:1012A800B1FF0028FAD014F8011B3046FFF7B0FF51
:1012B800F0E7BDE870401847E4E7014B1868A7E776
:1012C800C498002038B505460C4614F8011B01B92E
:1012D80038BD2846FFF79CFFF7E70C4B1B681B013E
:1012E80010B407D50A4B1B685B050BD55DF8044B9A
:1012F800FFF7E0B8074B53F820301BB107289CBF15
:101308001B6819605DF8044B704700BF009A002005
:10131800049A0020382500201FB5ADF80A30BDF822
:101328001830ADF8040041F48041ADF80C3068463F
:10133800BDF81C30ADF80610ADF80820ADF80E3039
:10134800FFF796F805B05DF804FB1FB5ADF804008B
:101358006846ADF80610FFF78BF805B05DF804FB9A
:1013680010B50409013C032C00F00F0215D80C4BF2
:1013780033F8141041FA02F313F001000CD00120E5
:1013880090400138084031F00FFC064B1B5D1844B3
:10139800054B0C2202FB003010BD0020FCE700BF0B
:1013A800F25C03086C5903081461002010B103684B
:1013B80082885A83704710B1036882881A837047FD
:1013C80070B5164690F90C2014235343094AD55892
:1013D80004460069FFF7EAFF2846FFF7DFF8012314
:1013E800002231462846FFF7ABF82069FFF7E3FFF4
:1013F800012070BD00000020F8B5164690F90C20B9
:10140800142353430D4A0446D55800690F46FFF785
:10141800CDFF01200021FFF7A5FE39462846FFF73A
:10142800BDF831462846FFF7B9F82069FFF7C3FF32
:1014380001200021FFF796FE0120F8BD00000020E2
:1014480028B10368828809B11A8370475A837047A4
:10145800044B01461868044B1B780BB981F0010155
:10146800EEE700BFBC250020C025002080B58046DF
:101478000B25013D02D172B625F038FA002022F082
:101488008DFC08F101063227052422F079FC0120A1
:10149800FFF7DEFF3846FFF776FE22F071FC0020EA
:1014A800FFF7D6FF3846FFF76EFE74B1013CECD16A
:1014B8004FF4FA70FFF767FEFA2726B94FF47A70EF
:1014C800FFF761FED5E70024DFE7013EF5E730B11D
:1014D800036882881B691A4214BF012000207047E4
:1014E80028B18088B0FA80F0C0F11F0070474FF033
:1014F800FF30704730B1006800F13F4000F57E00D2
:10150800800A70474FF0FF30704719E518E517E576
:1015180016E515E514E538B504468B6821600D46D7
:10152800984701232373FF220023A3736273E37395
:101538002B6B13B120469847E073044B93F8903017
:101548001BB1E37B23F00103E37338BD9816002039
:1015580003689B6A184703685B6A184737B54D1CD0
:1015680085720468C27200250095A469A04703B07B
:1015780030BD2DE9F04105468AB018460F46904621
:101588001C4630F0B7FC3B189DF84060AB72EB7B13
:1015980085F80B8036EA030319D0F20717D5114BEB
:1015A800C8221B68B3FBF2F3DB0706F0FE060ED574
:1015B8001F2828BF1F2004460246202102A834F015
:1015C80051F90AAB1C44002304F8203C02AC2B68F8
:1015D80000965E694246234639462846B0470AB017
:1015E800BDE8F081BC6000202DE9F34104461846AF
:1015F80016460D461F4630F07DFC2368E6722844E7
:101608000022A0720092D3F8148032463B46294645
:101618002046C04702B0BDE8F081036810B5044613
:101628005B689847236820469B689847A37B013BE3
:10163800A37310BD036810B504461B689847236858
:1016480020469B689847A37B0133A37310BD0368AA
:101658001B69184710B5036804469B68984701231F
:101668002373FF23637310BDF8B5174690F90C2058
:10167800142353430D4A05460069D6580C46FFF714
:1016880095FE00BFD1E9012330460968FEF758FFEF
:10169800022F05D1D4E90423E1683046FEF750FF54
:1016A80000BF2869FFF787FE0120F8BD0000002071
:1016B800F8B50679012E054609D0022E1FD1836898
:1016C800DB0758BF41F08001BDE8F84078E60D4BD4
:1016D80090F90C00182404FB003463786BB16B7B21
:1016E800A1725B0023720023637223750223A37027
:1016F800C4E9036225F0BAFB237D1846F8BD002330
:10170800FBE700BF948E00202DE9F041984603794D
:10171800012B0546174623D0022B39D195F90C2009
:101728000069142353431B4AD458AA6812F00106CF
:1017380011D0FFF73BFE2046FEF730FF002243465C
:1017480039462046FEF7FCFE2869FFF734FE0122E1
:101758001046BDE8F081FFF729FE41F08001EAE775
:1017680090F90C000C4B182404FB00346278002A12
:10177800EED06B7BA1725B0023720023637223752A
:101788000223C4E90387A37025F070FB227DDFE7FD
:101798000022DDE700000020948E002073B5037955
:1017A800012B0D4616460AD0022B25D18368DB078C
:1017B80058BF01F07F01FFF71FFE02B070BD90F91E
:1017C8000C10427B0D488DF80760182404FB0104B7
:1017D80060780028F1D06372E3600DF1070323619C
:1017E800002352002375022308462272A572A370B3
:1017F80025F03CFB207DE0E70020DEE7948E00200A
:10180800094B70B5841CD3F89450A400E4B20E467A
:10181800CAB228462146FFF7C1FF611C320A284692
:10182800C9B2BDE87040B9E7981600202DE9F0412B
:101838000E4E8046002406F18807E0B200F003034C
:1018480043450ED136F8145037F81430EB1A002BF4
:10185800B8BF5B42052B04DD2946FFF7D1FF27F807
:1018680014500134102CE8D1BDE8F081A8160020EE
:1018780038B50F4BD3F894501022002141F2D77499
:10188800B4FBF0F42846FFF789FF0120FFF77BFC43
:10189800621ED2B2FE212846FFF780FF0120FFF723
:1018A80072FC284680220021BDE8384076E700BF58
:1018B800981600202DE9F04198460379012B05463A
:1018C800174622D0022B39D195F90C20AE68006951
:1018D800142353431A4A16F00106D45810D0FFF7C0
:1018E80065FD2046FEF75AFE43463A46002120464B
:1018F800FEF726FE2869FFF75EFD0120BDE8F081AE
:10190800FFF754FD41F08001EBE790F90C600D4AB8
:10191800182404FB062460780028EFD06A7B6372E1
:10192800002352002375022330462272A172C4E9B3
:101938000387A37025F09AFA207DDFE70020DDE712
:1019480000000020948E00201FB50479022C08D1D5
:10195800CDE90112012201A90393FFF785FE04B026
:1019680010BD0020FBE773B50479022C39D103239D
:1019780090F90C008DF8033004238DF804301423FB
:1019880043431B4E1B48F3588DF8024000250122A3
:1019980083428DF800508DF8012024D0A0F57840BE
:1019A800834222D0144A93421BD1204602AA1144F2
:1019B8001A8811F8084C22F040021204120C142163
:1019C8001A8001FB00601A88016922F0380231F898
:1019D80014101204120C0A431A801A8842F04002AA
:1019E8001A8002B070BD2846E0E71046DEE700BF67
:1019F8000000002000300140003C004010B5427A51
:101A0800044632B1036800F10A0140689847002390
:101A1800637210BD064B1B68597A4A1C1944D2B22E
:101A28005A728872197A914201D81846E6E77047C7
:101A38007898002010B4447A631C0444DBB24372E3
:101A4800A172027A9A4202D85DF8044BD6E75DF893
:101A5800044B704738B5094D441E14F8011F01B9ED
:101A680038BD2868427A531C0244DBB24372917233
:101A7800027A9A42F1D8FFF7C1FFEEE77898002082
:101A880008B504460648FFF7E5FF064B1868FFF758
:101A9800B5FF054B18681AF0ABFE204605F034FF79
:101AA800FCB50308789800207C980020044808B505
:101AB800FFF7D0FF06F03CF90020FFF7E1FF00BF79
:101AC80008B60308034808B5FFF7C4FF0120FFF76D
:101AD800D7FF00BF0FB6030808B50448FFF7BAFFE1
:101AE800034B1868BDE8084088E700BF28B603081C
:101AF800789800200048ADE749BD030808B5FFF70E
:101B0800A9FFBDE80840F5E708B50948FFF7F6FF63
:101B1800084B1868FFF772FF074B00241C70074B2F
:101B28001C60074B1C701BF05BFD2046FFF7A8FFED
:101B38002DB603087898002084980020809800200B
:101B48006879002008B50848FFF7D8FF24F00EF898
:101B580023F0B2FE18B10548BDE80840CEE764207E
:101B6800FFF711FBF4E700BF57B6030862B6030896
:101B78000048C3E768B6030810B504460348FFF7F2
:101B880069FF2046BDE81040B8E700BF28B6030843
:101B9800124B53F8200070B5E0B1114A062303FB3D
:101BA800002393F90140621C15D0187990B10D4AB1
:101BB8000D4E155DDA7864211423002061438C18DA
:101BC800013B36F814402A442044F8D11423B0FBD2
:101BD800F3F080B270BD0020FCE700BF183F002082
:101BE800C5250020EF280020E425002038B5032073
:101BF8000D461446FFF7CCFF07EE100A8DB1DFED56
:101C08000B7AB8EE477AF0EE006A27EE277AF8EEFC
:101C1800047AE7EE267A9FED067A67EE877AC5EDB5
:101C2800007A0CB1034B236038BD00BF6740533ABC
:101C380000007A443313904330B5084B08498B426F
:101C480000D330BD5A88140406D55D68DC68C2F339
:101C58000B0200FB025222601433F0E778F7030806
:101C680024FB030870B544880B460546C4F30B04EF
:101C780022460021184633F0F5FD2969084A9142A9
:101C8800034607D3074A914204D22246BDE8704072
:101C980031F080BA19B11846BDE87040084770BDE8
:101CA80024FB030898FD03084388426813F4004F97
:101CB8001EBFC9B2C3F30B0301FB03221146D1E7D0
:101CC800064B07498B4202D30023184670471A88EF
:101CD800C2F30B029042F8D01433F3E778F7030805
:101CE80024FB0308024A136823EA000010607047C7
:101CF80018370020024A136818431060704700BF65
:101D08001837002038B5144C144DAC4211D30020BC
:101D1800FFF792FF124819F01DF84FF40020FFF763
:101D2800E9FF104B187905F0E5FFBDE838400FF0E2
:101D380051BCB4F90230002B4FF00001204607DAFD
:101D4800FFF7B2FF01212046FFF7AEFF0221204630
:101D5800FFF7AAFF1434D8E778F7030824FB030831
:101D680074B60308B8320020F8B50468C4F30D044B
:101D780005460E4604B32F68FFF74CF8092840F0D3
:101D88008780454C236923F440732361236943F416
:101D980000732361236943F0010323613E60FFF769
:101DA80039F82369092823F00103236170D12B68CE
:101DB80004332B60002034E0384B394A93422AD947
:101DC80002F58042934225D902F58042934229D9EF
:101DD80002F58042934227D902F58032934225D9F1
:101DE80002F50032934223D902F50032934221D9F9
:101DF80002F5003293421FD902F5003293421DD9F1
:101E080002F5802293421BD9B3F1016F1AD3052042
:101E1800FFF72CFB0824FEF7FDFF092814D04FF02C
:101E2800FF30F8BD1024F6E71824F4E72024F2E781
:101E38002824F0E73024EEE73824ECE74024EAE7EA
:101E48004824E8E75824E6E7134F3B6923F4407336
:101E58003B613B6943F400733B613B6923F0F80342
:101E68003B613B6943F002031C433C613B6943F41B
:101E780080333B61FEF7CEFF3B6923F002033B61F1
:101E88003B69092823F0F8033B613FF474AFC6E7C8
:101E98006FF00100C5E700BF003C024000000E08DB
:101EA800FF3F0008F8B504460D468E180027B542D6
:101EB800206900D1F8BDE368591CE160234415F896
:101EC800012B1A720429F2D118B9A1682046FFF72C
:101ED8004BFFC4E90370EAE738B50C468D18AC42ED
:101EE80000D138BD14F8011B1AF056FCF7E770B59D
:101EF80001221149114C124E0020FFF7EDFF2288F4
:101F08004AB1A518B54214D2052A12D92146FFF7BD
:101F1800E3FF2C46F3E702222146FFF7DDFF638843
:101F2800084AC31AA41A084A5842A2F8B8405841A5
:101F380070BD0020FCE700BF00000E0801000E087D
:101F480000001008FCFF0D089816002030B5024468
:101F5800904201D1002311E010F8013BA3F14104A4
:101F6800192C11F8014BA4F1410598BF2033192D04
:101F780098BF20341B1B01D1002CE9D1184630BD75
:101F880070B5054608460E462FF0B4FF31460446A4
:101F980002462846FFF7DAFF60B92B5DA3F130024D
:101FA800092A06D923F02003413B192B01D9601CCB
:101FB800284470BD0020FCE710B504460748FFF729
:101FC80049FDFFF79FFE05F0B3FE05492046FFF7E0
:101FD800D7FF08B9FFF754FD10BD00BF7DB6030851
:101FE800F4BB030870B5034610F8012B202AFAD079
:101FF800092AF8D02D2A0ABF034601254FF0FF35DC
:10200800591E00240A2611F8010FFEF76FFB0A2853
:1020180002D905FB04F070BD06FB0404F3E72DE9C3
:10202800F3472F49DFF8B8A001AA31F047FA002595
:102038004FF0FF382F46A9462C46464630B9052DA5
:1020480010D8DFE805F03232320F3941042D09D8B3
:10205800DFE805F0030D12171C00FFF7C3FF064663
:10206800032819D9FFF784FD02B0BDE8F087FFF710
:10207800B9FF80465428F4E7FFF7B4FF04461F2849
:10208800EFE7FFF7AFFF81461F28EAE70378482B01
:1020980009D0562BE6D1012701AA51460020013567
:1020A80031F00CFACAE70027F6E7434632460D49F5
:1020B800012022F033FAD7E7552303FB0683094AA8
:1020C80032F81370C7F3C027552344EA491403FBB9
:1020D800068624B2034B44EAC72423F81640C3E714
:1020E800B6CC03089465002070B50D461446FEF77B
:1020F800A2FE0646A0B1FFF775FF40F634039842EA
:10210800A8BF1846B0F5617FB8BF4FF461701923B6
:10211800A0F5617090FBF3F02870237801332370E9
:102128003046FEF788FE0646A0B1FFF75BFF40F693
:1021380034039842A8BF1846B0F5617FB8BF4FF482
:1021480061701923A0F5617090FBF3F06870237833
:1021580001332370304670BDB5EEC00ADFED2D7A2D
:10216800F1EE10FACCBF30EE270A30EE670ADFED49
:102178002A7A20EE270A30B5FDEEC07A87B017EE2E
:10218800904A054684EAE470002303A9A0EBE470B2
:10219800CDE90033029321F0D1FD002CACBF202300
:1021A8002D2303A88DF800302FF0A4FE012822D19A
:1021B80030238DF801308DF802308DF8033003A9F3
:1021C800684633F057FB68462FF094FE0338C4B2D4
:1021D80022466946284633F083FB00232B550F49D6
:1021E800284633F047FB0DEB0401284633F042FB49
:1021F800284607B030BD022805D130238DF80130BC
:102208008DF80230DBE7032804BF30238DF8013056
:10221800D5E700BF6F12033A00007A44FACE0308EC
:1022280070B5064615460846B6FBF2F414B12046CA
:10223800FFF7F6FF05FB1464024B1B5D00F8013B3A
:1022480070BD00BF93B60308F0B50124B0FBF4F5E8
:102258008D4203D200271CB91C70F0BD4C43F5E732
:10226800B0FBF4F604FB1600B4FBF1F42FB9002E12
:1022780003DC002CEFD1302505E0092EFBDD002A18
:1022880014BF3725572535441D7001370133E2E760
:102298000A4B2DE90048D3E900BC5BEA0C030AD0DD
:1022A800074909681BEB01024CF10003C0E9002350
:1022B8000120BDE800880020FBE700BF902F002028
:1022C800BC600020F0B5264E04460F460FCE8DB0F8
:1022D8006D460FC50FCE0FC596E80F0085E80F00B5
:1022E80014F0030335D1642194FBF1F201FB12428F
:1022F80042B94FF4C87294FBF2F302FB1343003364
:1023080018BF0123C3F11D0340F26D12019304208D
:10231800631E93FBF0F002FB04046FF0630093FB71
:10232800F0F020444FF4C87493FBF4F318440630DB
:1023380000220721013F5DF822309742184490FBA4
:10234800F1F4C4EBC404A0EB040004D1181A0DB0D6
:10235800F0BD0123D6E701320C2AECD10020F6E7C4
:1023680070590308F8B514461D4606464FF47A72AC
:1023780000232046294630F0AFFB2C4B3C22034477
:1023880093FBF2F002FB1031B17190FBF2F102FB0A
:102398001102182072714FF4616293FBF2F292FB02
:1023A800F0F100FB112232712149224A93FBF2F22B
:1023B80093FBF1F3980040F2B55392FBF3F103FB62
:1023C8001123B3F5896F2DDA40F2DA2293422BDC20
:1023D800B3F5B77FB4BF002201221749182707FBBE
:1023E80002170B2137F811C09C4501DD0139F9D1DD
:1023F80000F5FA6010443080481CB0700C2000FBD7
:1024080002120E4901EB4202013392F834209B1A62
:10241800F3704FF47A7200232046294630F05CFBB3
:102428003281F8BD0322D8E70222D6E780BC92C7E2
:10243800801F860780510100A05903086C590308C2
:1024480037B505466846FFF723FF044638B1DDE98E
:1024580000232846FFF786FF204603B030BD40F230
:10246800011328806B80A880A8712881F4E737B50C
:102478000546FFF7E5FF044640B1064B02AA1B8854
:1024880022F8023D2946284621F0ABFF204603B03A
:1024980030BD00BF9065002010B50288C178A2F554
:1024A800FA629308013940F2B55404FB03138178AA
:1024B8000C24013902F0030204FB02120C4984794E
:1024C80001EB42021821928E1344027901FB032387
:1024D800427900893C2101FB0323064A224401FB7F
:1024E80003234FF47A720021C2FB030110BD00BF21
:1024F8006C59030880436D38D1E900329A4206D0FE
:102508005A1C0A6008B11B7803700120704700202C
:10251800704710B502681146531C036011F8024B4E
:102528000160D31C5178036093781B0443EA0123AC
:10253800111D0160D078234343EA006010BD036891
:102548005A1C02601A4612F8021B0260587841EAC7
:1025580000207047D1E900239B1A012B10B50446CF
:1025680005DD0846FFF7EBFF2080012010BD0020A5
:10257800FCE703685A1C02601878704738B50446AF
:10258800D0E900031B1A9A42154606DC30F002FE19
:1025980022682A442260012038BD0020FCE738B5B3
:1025A80004460068154630F0F5FD22682A4422608A
:1025B80038BD03685A1C0260197003685A1C02600F
:1025C8000A0A1A7003685A1C02600A0C1A70036817
:1025D800090E5A1C02601970704703685A1C026081
:1025E80019700368090A5A1C0260197070472DE9AE
:1025F800F04F89B082468B4615461C4600270DF1E0
:10260800140829786E1C51B3252903D05046D847A1
:10261800013742E069782D2905BFA978EE1CAE1C68
:10262800012518BF0025302906BF31780123002372
:102638000293A1F1300308BF0136092B4FF00009BE
:1026480016D96C2940F0A0803278642A06F1010579
:1026580044D024D8252A7BD014D8002AD1D1384692
:1026680009B0BDE8F08F0A2316F8011B03FB09091E
:102678000846FEF73BF80A28F5D9002DE1D0C9F144
:102688000009DEE7582A1AD0632ABAD12E462178E3
:102698005046D847251D01372C463546B1E7732AE1
:1026A8004AD008D8662A56D06E2AAAD12E46236860
:1026B80004341F60F1E7752A0AD0782AA1D1A2F163
:1026C8005800424204F1040643464241102103E007
:1026D800261D434600220A21206807E020680028BA
:1026E80004F104061ADB434600220A21FFF7ACFD79
:1026F8003446CDF80080029B4A4659465046FEF7BC
:1027080014F807447DE7206800280EDB43460022C2
:102718000A210434FFF798FD3546EAE72D238DF8A2
:10272800143040420DF11503DEE72D238DF81430E7
:1027380040420DF11503EAE72E46236800934A4606
:10274800002359465046FDF7F0FF251D0744A3E72F
:102758002E4625215AE72E46073424F00703D3E9ED
:10276800000103F1080430F059F800EE100A404661
:10277800FFF7F2FCCDF80080029B4A4659465046C6
:10278800FDF7D3FF074488E76429BCD00CD8252976
:10279800DFD003D800293FF462AF7EE7582911D073
:1027A80063293FF474AF78E77329C6D005D8662942
:1027B800D2D06E293FF47BAF6FE775290DD0782909
:1027C8007FF46BAF58394A424A412068251D434679
:1027D8001021FFF739FD2C469EE7231D039320683F
:1027E800434600220A21FFF72FFD3546039C80E768
:1027F8000FB413B5084C0949206804AB53F8042BEF
:102808000193FFF7F4FE2068FFF7F8F802B0BDE87F
:10281800104004B0704700BF789800203D1A0008A7
:10282800F8B50C4C0C4E0D4F04F514752068FFF7E5
:1028380011F9616811B13046FFF7DAFFA16811B1EB
:102848003846FFF7D5FF1034FFF754F9AC42EDD105
:10285800F8BD00BF88AC0308B8B60308BEB60308C5
:1028680010B5074C0B46024606492068FFF7BFFE25
:102878002068FFF7C3F8BDE81040FFF73BB900BF79
:10288800789800203D1A00080FB407B504A951F83C
:10289800040B0191FFF7E4FF03B05DF804EB04B00B
:1028A80070472DE9F3471948194C1A4D1A4FDFF8AC
:1028B8006C80FFF7E9FF04F54076A379E27994F894
:1028C80008A005EB820205EB83032046D2F8189195
:1028D800D3F89430FEF70EFE00F141012046FEF7D2
:1028E800FFFD0246BAF1000F0AD0CDE900A9404623
:1028F800FFF7CAFF0C34A642DFD102B0BDE8F0876B
:10290800CDF800903846FFF7BFFFF3E7C4B60308D9
:10291800146100206C590308F0B60308E0B60308F8
:10292800F8B51048104D114E114FFFF7ADFF0024B8
:1029380074B9104BD3F8BC306FF003025A4312F548
:1029480080620BD055F824103046FFF79DFF03E056
:1029580057F82420002AF5D1202C01D00134E7E7CC
:10296800F8BD00BFFEB60308005A030814B70308F1
:1029780058170020981600201FB5074B0293074BE5
:102988000193074B0093074A074B08490848FFF78C
:102998007BFF05B05DF804FB4FB7030857B7030882
:1029A80060B7030828B7030822B7030832B703083B
:1029B80037B703082DE9F04F5348544D8DB0FFF752
:1029C80063FF0026B046B146514B1A680023934274
:1029D80023DB0136192E05F14805F5D14D49D1E91A
:1029E800020240090C68096940EAC2624FF47A732E
:1029F8004948B4FBF3F3FFF747FF0A2298FBF2F3C9
:102A080002FB138099FBF2F1009002FB11924348FC
:102A1800FFF73AFF0DB0BDE8F08F414951F8231098
:102A28008D4201D00133D2E7AC6A5CB107EE904A1F
:102A3800DFED3C6AF8EEE77A86EEA77AFDEEC77A14
:102A480017EE904AD5E90C727F0947EAC267520926
:102A5800D5E90EA30B922146E217CDE90812099A8F
:102A680063430AFB0233A4FB0A0141F2883B1BEBD8
:102A7800000B19444FF0000C4CEB010C4FF47A7228
:102A880000235846614630F077F80B9B099A0A9064
:102A9800634307FB0233A4FB070141F2883B1BEBAE
:102AA800000B19444FF0000C4CEB010C00234FF4C1
:102AB8007A725846614630F05FF8062E18BF0A9BB6
:102AC8000A9918BF99444FF47A722B6CB3FBF2F34E
:102AD80006934FF00A0318BF804490FBF3F203FB00
:102AE8001200CDE904200A9A92FBF3F203FB1213B9
:102AF800CDE90223CDE900A723462A680A483146D2
:102B0800FFF7C2FE65E700BF6CB70308F00E0020B0
:102B1800DC02001000000010E8B703080AB8030838
:102B2800E002001000247449B3B7030810B50C4C38
:102B380003461846FDF724FB30B10A4B0A48597979
:102B4800BDE8104001319FE61846FFF74BFA0138FF
:102B5800022804D8C0B205F037FA2346E9E710BDC9
:102B6800F9ED0308B832002038B8030810B50C4C4A
:102B780003461846FDF704FB30B10A4B0A48197999
:102B8800BDE8104001317FE61846FFF72BFA0138FF
:102B9800022804D8C0B205F026FA2346E9E710BD9A
:102BA800F9ED0308B832002040B8030838B50346E9
:102BB800FDF7E6FA90B3224BD3F884300133172B94
:102BC80022D820490C2202FB03121C4695684DB9F5
:102BD8001C4A0C210134172C18DD002401FB0420A9
:102BE8008568A5B1164BC3F8844019F0BFFF2A4683
:102BF80021461548FFF748FE0C235C43114B185D2E
:102C0800BDE838401AF0C8BA1C46E1E7E6D99C424C
:102C1800E0D10E48BDE83840FEF770BF1846FFF710
:102C2800E1F91728044606D8064A0C2303FB0023BB
:102C38009D68002DD6D121460548BDE8384023E6D9
:102C480000000020109C030875B803084BB803085F
:102C58005FB80308F7B50346FDF792FA044618B1C2
:102C6800FEF786FF03B0F0BD01AA1D491C4F1846A8
:102C780030F024FC2646254640B9052D18D91949B7
:102C8800052302461848FFF7FFFDEBE744B1012C86
:102C98000AD001AA39460020013430F00FFCEBE7D6
:102CA800FFF7A0F90546F4E7FFF79CF90646F0E7B9
:102CB800022C0DD1A6F57A73B3F57A7F05D94FF4B6
:102CC800FA634FF47A720949DCE7094B23F8156077
:102CD800074B084833F915202946FFF7D5FDC1E70A
:102CE800B6CC03088AB8030890B80308E7EF0308CE
:102CF80076450020ADB803082DE9F34104462FF0CE
:102D0800F9F804283DD1631E2546E11C13F8012F6C
:102D1800A2F16100192898BF203A8B421A70F5D1A8
:102D2800DFF87080271D15F8016B4046314632F0F8
:102D3800B0FD20B13146284632F0ABFD20B1FEF798
:102D480017FF02B0BDE8F081BD42ECD1204618F073
:102D580001F80E480E4CFEF77DFE0E4800231A19A6
:102D680002A952780A44195C02F8081C0133042BA2
:102D7800F5D10023694608488DF80430FFF784FD33
:102D8800DFE70028E5D0FEF7F3FEE2E7BAB803086C
:102D980070640020667A0308C1B603082DE9F74F6E
:102DA80080462FF0A7F8474DDFF844912F68044676
:102DB800F0B94548454EFFF71BFD012519F80430C9
:102DC800013B05FA03F33B4209EB040203D0916887
:102DD8003046FFF70DFD0C34B4F5847FEED117B9FA
:102DE8003B48FEF737FE03B0BDE8F04FFEF782BE62
:102DF800024638494046FFF7A9F8064670B93648F2
:102E0800324DFEF727FE09EB0603284699680C3673
:102E1800FFF7EEFCB6F5907FF5D1E4E798F80030BF
:102E28002D2B03BF08F1010804F1FF344FF0010A0C
:102E38004FF0000A00260C2303FB069B0193DBF8E6
:102E480008300093194622464046FFF77FF8019B59
:102E580000282ED1BAF1000F18D0162E0AD11F4B18
:102E68002B601F48FEF7F6FD00991E4803B0BDE829
:102E7800F04F09E5172E01D16B68F1E79BF8003098
:102E88005A1E012393401F432F60EAE7162E03D1F1
:102E9800C5F800A01448E5E7172E17BF9BF80030C7
:102EA8006F6003F1FF3201231EBF93409F432F60E1
:102EB800F0E70136182EBFD10C4803B0BDE8F04F3B
:102EC800FEF71CBE14440020C0B80308D1B803089C
:102ED800CAB80308D6B80308DBB80308FFFF3F00E9
:102EE800F3B80308D2B80308FCB80308E6B8030827
:102EF800109C03082DE9F84305462EF0FBFF044615
:102F0800D0B9304B30481D68304EDFF8D080FEF71E
:102F1800A1FD012756F8241051B10B7833B107FAF7
:102F280004F32B4202D04046FFF762FC0134F1E77C
:102F3800BDE8F843FEF7DEBD024625492846FFF7FF
:102F480005F878B92348244C244DFEF783FD54F83E
:102F5800041F0029ECD00B78002BF8D02846FFF787
:102F680047FCF4E72B78DFF864902D2B03BF01357D
:102F780004F1FF344FF001084FF00008002659F81B
:102F8800267027B91648BDE8F843FEF7B7BD2246B4
:102F980039462846FEF7DAFF90B90120B040B8F16B
:102FA800000F09D0FEF79EFE0E48FEF753FD394686
:102FB8000D48BDE8F84367E4FEF79CFE0B48F4E7CC
:102FC8000136DCE71837002004B90308D45A03088F
:102FD800D6B8030812B90308D05A03080EB9030873
:102FE800E6B80308F3B80308D2B80308FCB8030826
:102FF8002DE9FF410A480488856846888788D0F803
:103008000C8022F03BFC0097CDE9018033462A462C
:1030180021460448FFF738FC04B0BDE8F08100BF42
:10302800240500201EB903082DE9F347204E214846
:103038003768214CDFF89080DFF88490DFF88CA0A7
:10304800FEF75CFD0025BD4202DB02B0BDE8F0875B
:1030580033689D4229DCA288D3B2162B18D808EB16
:103068008303D3F8EC31002B08BF4B462168504648
:10307800FFF7BEFBE3885A040CD5E0890090A389CA
:10308800628921890D48FFF7FFFB01351034DAE723
:103098000B4BEBE71B0405D5D4E902120948FFF7EF
:1030A800F3FBF2E7FEF726FDEFE700239B88FFDE40
:1030B800D023002079B90308D01F0020B4B9030831
:1030C800F9ED0308C6B903086C590308A5B9030844
:1030D800F8B5447914F0C003054602D0402B17D048
:1030E800F8BD1BF013FD04F00F04062C064605D1AD
:1030F8000146BDE8F8401648FFF7C6BB28461BF056
:1031080031FD32460146BDE8F8401248FFF7BCBB26
:1031180083791148114E124F262B96BF114D002569
:1031280005EBC305FEF796FC00242B799C4203D3DC
:10313800BDE8F840FEF7DEBC14B13046FEF78AFC65
:103148002B68384653F82410FFF752FB0134ECE79C
:10315800D0B90308E0B90308F7B9030807BA0308A8
:10316800D2B80308609D030870B54379164603F08A
:103178000F028AB00546062A4CD8DFE802F004138D
:1031880016181B1D49000C7813F0C00344D0402BBF
:103198003CD1214628461BF0A1FC002856D0FFF759
:1031A80027FB33E091F90040EEE70C88ECE7B1F932
:1031B8000040E9E70C68E7E791ED000A01A8FEF78F
:1031C800CBFF01462648FFF713FBFEB16B7913F0DE
:1031D800C00F1BD128461BF0C5FC07EE900A01A8BA
:1031E800B8EEE70AFEF7B8FF01461E48FFF700FBF6
:1031F80028461BF08BFC07EE900A01A8B8EE670A78
:10320800FEF7AAFF01461748FFF7F2FA0AB070BDA9
:103218001348F9E70024B7E7042A0CBF12481348FB
:103228002146FFF7E5FA002EF0D06B7913F0C00FB6
:10323800ECD128461BF096FC044628461BF066FC99
:10324800214602460A48FFF7D3FADFE701A92846D4
:103258001BF06EFD01AA21460648FFF715FBD5E7CE
:10326800C1B60308D2B80308F4B90308E2C90308D1
:1032780009BA030810BA030838B50D4604461BF00E
:10328800CDFC2A4601462046BDE838406CE72DE9CA
:10329800F0470024DFF86090DFF860A08AB00746A6
:1032A80025464FF00A0808FB049601A930461BF092
:1032B8003FFD394601A832F03AFB78B101A95046E2
:1032C800FFF796FA00213046FFF7D6FFFEF712FC0B
:1032D8003046FFF7FDFEFEF70DFC01350134B4F56D
:1032E800AF7FE0D115B90348FEF708FC0AB0BDE886
:1032F800F08700BFE6B80308D46803086CBA03086F
:103308002DE9F04F2DED028B8BB080462EF0F2FDAB
:10331800054628B1012825D198F800302A2B21D15B
:103328008848DFF84082884FFEF7E8FB00244FF01A
:103338000A0909FB048601A930461BF0F9FC01A91A
:103348003846FFF755FA013429463046FFF794FF0F
:10335800FEF7D0FBB4F5AF7FEBD10BB0BDEC028B21
:10336800BDE8F08F3D21404632F093FA002800F086
:10337800E480034613F8012C202A03F1FF312ED0F4
:10338800A3EB0807441C2378202B04F1010228D062
:10339800DFF8D0B100264FF00A0A0AFB06B501A9EA
:1033A80028461BF0C5FC01A82EF0A4FD01A9814602
:1033B80002464046FEF7CAFDA8B9FBB2994512D1AC
:1033C8006B7903F00F08B8F1060F14D120462EF0E0
:1033D80091FD2146024628461BF02DFCBDE70B4611
:1033E800C8E71446CFE70136B6F5AF7FD5D15748C1
:1033F800FEF784FBB1E713F0C0030AD0402B5ED080
:103408005348FEF727FB2846FFF762FEFEF772FBDC
:10341800A3E72378002BF3D04E49204632F075FA03
:10342800064620462EF066FD8642E9D12046FDF785
:10343800D1F82846B0EE408A1BF094FB07EE900ABC
:10344800F8EEE77AF4EEC87AF1EE10FAD8D8284602
:103458001BF05CFB07EE900AF8EE677AF4EEC87A88
:10346800F1EE10FACCDBB8F1050F17D0B8F1040F64
:103478001FD1214614F8013B202BFAD0092BF8D094
:10348800013900230A2011F8012F303AD2B2092A53
:1034980002D800FB0323F6E708EE103A28461BF093
:1034A800BDFBB8F1050F35D8DFE808F031313D3DF7
:1034B80041442046FEF796FD08EE100AEEE7AB7988
:1034C8009FED258A262B96BF244E064606EBC3069B
:1034D800002796F804A03B46B946BA4500D91BB167
:1034E800B9F1000F8CD0D9E733686FF0004253F878
:1034F80027002146FEF72AFD002808BF08EE107AAB
:103508000ABF012300234FF001090137E5E718EE50
:10351800103A037001A91248FFF76AF900212846FA
:10352800FFF7AAFE19E718EE103A0380F2E780EDDC
:10353800008AEFE780ED008AECE74046FFF7A7FE38
:103548000BE700BF2DBA03086CBA0308E6B80308F6
:1035580058BA03083FBA030800000000609D03083A
:103568004DBA0308D46803082DE9F04F81468DB0A1
:1035780088460026464BF418464B1868FEF73EFA74
:1035880094F805B00BF030034B4549D120461BF0A9
:1035980023FBFEF795FB054620461BF0F3FAAA68C5
:1035A80001921718824620461BF038FB0BF00F01DA
:1035B8000546019A062968D8DFE801F0043A3F4336
:1035C800484C5A0012F80A200378D31AD3F1000A9B
:1035D8004AEB030A18F0200F02D0BAF1000F1FD1EE
:1035E80003A920461BF0A4FB18F0400F0DD0BAF138
:1035F800000F0AD103A92848FFF7FAF852462946CE
:103608002046FFF7B1FDFEF775FA03A92348FFF737
:10361800EFF8002239462046FFF7A6FDFEF76AFAC2
:103628000A3640F6AC539E42A4D10DB0BDE8F08FE7
:1036380012F90A2090F90030C7E732F80A20038807
:10364800C3E732F90A20B0F90030BEE752F80A2081
:103658000368BAE797ED007AD0ED007AB4EE677A9E
:10366800F1EE10FA0CBF4FF0010A4FF0000AB1E773
:1036780020461BF04BFA2946421C384632F01EF908
:10368800B0FA80FA4FEA5A1AA4E74FF0000AA1E705
:10369800D46803087898002067BA030868BA030852
:1036A800022810B50C460FD804F00CFB0748FEF7AB
:1036B80063FA074B074859790131FFF7E5F82146C6
:1036C8003020BDE810404FE710BD00BF72BA0308B4
:1036D800B832002082BA0308022810B50C4613D865
:1036E80004F008FB0948FEF747FA094B094819791D
:1036F8000131FFF7C9F821461020FFF735FF2146B1
:103708002020BDE810402FE710BD00BFB5F003082A
:10371800B83200208ABA03080CB407B510F040008C
:1037280009D069B92320FEF775F905A90498019114
:10373800FFF796F8012003B05DF804EB02B070477C
:103748000020F8E70CB4830607B500D551B905A9E0
:1037580004980191FFF784F8012003B05DF804EBA9
:1037680002B070470020F8E72DE9F04F824687B095
:1037780091460E4615460027337896F90280049341
:103788007378059396F803B0B8F1000F32D0B9F109
:10379800000F34D02B78049C6A7895F90210E878E9
:1037A8009C422AD1059C944227D1884525D1ABEB70
:1037B800000CDCF1000444EB0C04CDE90210CDE967
:1037C800003221463B460F4A5046FFF7A5FF059BAE
:1037D8000193049B0093CDE9028B3B46094A21469D
:1037E80050460137FFF7AEFF102F06F1040605F12A
:1037F8000405C1D107B0BDE8F08F0024DDE74C46D1
:10380800E5E700BF97BA03082DE9F0478AB00546F7
:103818002EF070FBC2B232B969490120FFF7A4FF4C
:103828000AB0BDE8F087052266492846FEF78EFBF8
:1038380088B91520FEF744FA10B16149FEF712FA6B
:10384800614B00221A60DA609A615A621A63DA637D
:103858009A645A65E4E707225C492846FEF776FB36
:103868000446002875D12021284632F012F8064671
:103878002EF040FBC5B285BB5548FEF7B9FF2C4674
:10388800544D214628460134FEF7B2FF172CF8D1D3
:10389800FEF730F94C4EDFF84C914F4FDFF8488176
:1038A800002421464846FEF7A3FFDFF840A1002583
:1038B80032680123AB40134214BF39464146504693
:1038C8000135FEF795FF172DF2D10134FEF712F9F5
:1038D800082C06F10C06E4D1A2E7304601AA3F49BC
:1038E8003E4E2FF0EBFD02AD00283DD0022C15D145
:1038F800029A072A2AD80399162927D80378722BFF
:1039080017D06E2B22D10C2353432F48012202FAE1
:1039180001F1C25822EA0102C25013E0FEF762FB2D
:1039280001AA45F82400314600202FF0C7FD0134D4
:10393800DAE70C23244C5343012000FA01F1E05844
:103948000843E0502148FFF75FFF69E7FEF710F9E9
:10395800F8E7284601AA2149204E2FF0AFFD0024A0
:1039680002AD78B1052C02D1FEF702F958E7FEF74F
:1039780039FB01AA45F82400314600202FF09EFDAE
:103988000134EEE7052CEFD1029A0F2AECD8039DFB
:10399800072DE9D8049C162CE6D8059800F17D037C
:1039A800FA2BE1D80699FF29DED8054B03F82250F7
:1039B80003EB820398705C70D9700948C3E700BFB5
:1039C80075440020ABBA0308B8440020B1BA030814
:1039D800C2B60308B9BA0308ECBA0308B6CC0308A0
:1039E800F9ED0308E2C90308CCE30308BEBA0308EB
:1039F8002DE9F04FDFF8FCB085B0804689461746C0
:103A08000E4615464FF0000A002F6ED072686B689C
:103A18009A4268D1B468AB6824F07F4423F07F43AE
:103A2800E31A5C425C4195F90A300393B5F9083012
:103A38000293B5F906300193B5F9043000935A465C
:103A4800534621464046FFF767FE96F90A3003932E
:103A5800B6F908300293B6F906300193B6F9043086
:103A680000935A465346214640460AF1010AFFF799
:103A780069FEBAF1080F06F10C0605F10C05C3D171
:103A880077B3002426460025012303FA05FA3A599C
:103A980059F8043053403AEA030314BF4FF0010BBE
:103AA8004FF0000B12EA0A0F06D000953346104A71
:103AB80059464046FFF730FE59F804301AEA030F1A
:103AC80006D0009533460A4A59464046FFF73AFE63
:103AD8000135172DD8D10136082E04F10C04D2D1A6
:103AE80005B0BDE8F08F00249DE73C46ADE700BF78
:103AF800D9BA0308C4BA03087FB50546FCF740FBEA
:103B0800002858D02D490022012004B0BDE870409B
:103B18006EE72D2B03D0A3F13002092A46D8042CD6
:103B280004DD04B0BDE87040FEF722B82846FEF771
:103B380059FA04AB621C03EB440424F80C0C15F886
:103B4800013F303B092BFAD914462B78002BE0D1E2
:103B5800052CE6D1BDF904309AB2072AE1D8BDF99F
:103B68000600A0F2EE2292B240F2DC54A242D8D86B
:103B7800BDF90810A1F2EE2292B2A242D1D8BDF945
:103B88000A209042CDDC9142CBDBBDF90C5005F107
:103B98007D04A4B2FA2CC4D8084C0C2606FB0343B7
:103BA8009880D9801A819D7204B070BD202BB8D13D
:103BB80001352246C8E70446C7E700BFB8440020DD
:103BC8002DE9F04F804685B00E4615468946924647
:103BD8000027002409EB040393F8C0300393002D59
:103BE80048D00AEB0403039A93F8C030D11AD1F1F4
:103BF800000B4BEB010BCDE90043204A3B465946ED
:103C08004046FFF789FD039B1C4ACDE9004359460E
:103C18003B4640460134FFF795FD062CDAD10137C3
:103C2800062F09F106090AF1060AD2D106F1E40ABB
:103C3800124E00241AF8019BF5B12B19404693F84F
:103C4800E430A9EB030257425741CDE9004332461D
:103C580006233946FFF760FDCDE9004906233246C1
:103C6800394640460134FFF76DFD0B2CE2D105B013
:103C7800BDE8F08FAB46C6E72F46EDE7EEBA03087E
:103C88007FB50346FCF77CFA044630B100221F4991
:103C98000120FFF795FF04B070BD6A461C491C4E11
:103CA80018462FF00BFC01ADC0B1032C02D1FDF773
:103CB8005FFFF0E7FEF796F96A4645F824003146BB
:103CC80000202FF0FBFB0134EEE70628EFD10A2A8B
:103CD800EDD80E48104480F8E43012E0032CE6D109
:103CE800039B0F2BE3D8DDE90112C8B20528ECD8F5
:103CF800052ADCD8054C062505FB0040104480F851
:103D0800C0300448FEF7C0FDC5E700BFD02C002036
:103D1800B6CC0308EEBA03082DE9FF47DFF86CA01C
:103D2800814690460E4615460027B8F1000F2AD066
:103D38002B8832889A4224D174886A88A21A5442FD
:103D48005441EA780292AA782146CDE900324846E1
:103D58003B465246FFF7E0FCF3780293B3780193B1
:103D680036F8043B009352463B4621464846013705
:103D7800FFF7E8FC102F05F10405D6D104B0BDE823
:103D8800F0870024DDE74446E6E700BF02BB0308EE
:103D98002DE9F0410646FCF7F3F9044628B1002264
:103DA80024490120BDE8F041B6E73046FEF71AF98C
:103DB8000F2805462EDC3046FDF73DF8DFF88480F5
:103DC8001D4F064620353046FEF70CF938F81430FA
:103DD800984227DC012C11D0022C13D027F825009B
:103DE80030462C2131F055FD064678B101360123C5
:103DF8000134BBB1032CE6D1BDE8F08107EB8503A4
:103E08009870EDE707EB8503D870E9E7A21E5342E7
:103E18005341EDE722460F2308490948BDE8F04120
:103E2800FEF732BD002347F82530BDE8F041FDF725
:103E38009FBE00BF502D0020D02C00208AB8030858
:103E480090B80308B45B03082DE9F04FDFF86880E9
:103E58008FB007468A46164600240DF124095AF801
:103E680024300293494602A820F0B2FB16B356F854
:103E78002430029D0393EB1A5D420DF1100B5D4156
:103E8800594603A820F0A4FBCDF800B023464246CB
:103E980029463846FFF740FC2346CDF800904246B5
:103EA800294638460134FFF74DFC202CD7D10FB0F6
:103EB800BDE8F08F3546EFE714BB03082DE9F04F56
:103EC80087B00546FCF75CF9044638B1002263491F
:103ED8000120FFF7B9FF07B0BDE8F08F2846FEF7CD
:103EE80081F81F28074600F3B1802846FCF7A3FF96
:103EF8005A4B009443F82740834625462646A04659
:103F0800A146A2460193564BE1B2E05C0DF10C0EBE
:103F18000023DC461BF8012B1AB1904211D00A2B62
:103F28000BD10DF1180E734490424FF0000E03F8B8
:103F38000CEC08D0FDF71CFECDE703F80E2001338A
:103F4800E7E70246EDE701390CF1010B03293FD8F9
:103F5800DFE801F05A2602730DF10B014FF0010E54
:103F680011F8013FC3B300223E4810F802C09C4537
:103F780003D00132072AF7D14A46542B53D04F2B8E
:103F880053D0422B53D04E2B53D0492B53D0572BC1
:103F980004D105230EFA03F348EA03089146DFE744
:103FA8000DF10B02012112F8013FABB14E2B30D0BD
:103FB800452B30D0532B30D0572B30D0552B30D009
:103FC800442BF0D1052301FA03F34AEA030AEAE78E
:103FD80003A8FEF707F806460134052C93D1009B89
:103FE80005F00F0545EA834545EA8A5A4AEA092950
:103FF800360149EA0838019BF6B248EA060643F852
:1040080027600DF0E7FA66E703A8FDF7EBFF054622
:10401800E2E70023D7E70123D5E70223D3E7032309
:10402800D1E70423CFE70023B4E70123B2E7022353
:10403800B0E70323AEE70423ACE703A8FDF7D2FFFC
:1040480003460F28C8BF00230093C5E71F23224655
:1040580005490648FEF718FC3DE700BFD02C0020B4
:10406800BA5B0308AEA903088AB8030890B8030826
:104078002DE9F347DFF868A081460F4690460226EF
:104088000024B8F1000F28D038F8243037F824106D
:1040980038F8062099421ED1BD5BA91A4D424D4100
:1040A800CDE900322946234652464846FFF734FBFD
:1040B800BB5B019337F824300093524623462946C8
:1040C80048460134FFF73EFB042C06F10406D8D11C
:1040D80002B0BDE8F0870025E2E74546E8E700BF03
:1040E8001EBB03082DE9F0410546FCF749F80646D2
:1040F80028B1002227490120BDE8F041B8E76FF058
:10410800004225492846FDF721FF70B9214B4FF49D
:104118007A714FF4FA6219805A809980DA8019818D
:104128005A819981DA81BDE8F0812846FDF75AFF66
:104138000328044626D82846FCF77DFE064670B1BB
:10414800FDF750FF012507463046FCF774FE10B115
:10415800FDF748FF2DB9BDE8F041FDF709BD05465B
:10416800F2E7A7F2EE2240F2DC539A42F3D8A0F22B
:10417800EE229A42EFD8074B23F8247003EB84030E
:104188005880D0E73246032304490548BDE8F0418A
:10419800FEF77ABB2C400020ABBA03082FBB0308FC
:1041A80090B803082DE9F04F2DED088BDFF80C913E
:1041B80097B0804692460D461446002695ED008A33
:1041C800B5EE408AF1EE10FA70D0D5ED019A95ED72
:1041D800029AD5ED038ABAF1000F3ED094ED000A99
:1041E80094ED01BAD4ED02AA94ED03AAB4EE408A84
:1041F800F1EE10FA5FD1F4EE4B9AF1EE10FA5AD1C3
:10420800B4EE6A9AF1EE10FA55D1F4EE4A8AF1EE5C
:1042180010FA0CBF0127002712A8FDF79DFFB0EE8A
:104228004B0A83460EA8FDF797FFB0EE6A0A059081
:104238000AA8FDF791FFB0EE4A0A049006A8FDF718
:104248008BFF059B049A03900292CDE900B34A467E
:10425800334639464046FFF75FFAB0EE480A12A8DF
:10426800FDF77AFFB0EE690A07460EA8FDF774FF5E
:10427800B0EE490A83460AA8FDF76EFFB0EE680A59
:10428800049006A8FDF768FF049B0390CDE901B3ED
:10429800009733464A46002140460136FFF752FA56
:1042A800062E05F1100504F1100487D117B0BDECF6
:1042B800088BBDE8F08F0027AEE700BF37BB0308C7
:1042C80070B50446FBF75CFF064628B100222E496C
:1042D8000120BDE8704065E705222C492046FDF71E
:1042E80035FE40B9284B00221A601A611A621A6317
:1042F8001A641A6570BD2046FDF774FE0528054648
:104308003AD82046FCF797FD064648B3FCF762F911
:104318001D4B03EB051383ED000A01243046FCF71F
:104328008AFD064638B1FCF755F9174B03EB051320
:1043380083ED010A01343046FCF77DFD064638B1AD
:10434800FCF748F9104B03EB051383ED020A01341F
:104358003046FCF770FD28B9BDE87040FDF708BC91
:104368000446DBE7FCF736F9074B032C03EB05158E
:1043780085ED030AAAD0EFE732460523044905482C
:10438800BDE87040FEF780BA40470020ABBA03088A
:104398008AB8030890B803082DE9F04F834687B020
:1043A80092460C46164600274FF019094FF46178DB
:1043B800BAF1000F4DD0B078A5783378727896F8B6
:1043C80003C096F804E07179854240D125789D4272
:1043D8003DD1657895423AD1E578654537D125795B
:1043E800754534D165798D4214BF0025012519FB27
:1043F800028219FB0383CDE9010303920091CDE901
:1044080004CE3B46144A29465846FFF785F92379D6
:104418000593E378049363780F4A19FB03830393A6
:10442800237819FB03830293A3780193637900939C
:1044380029463B4658460137FFF784F90C2F04F10B
:10444800060406F10606B3D107B0BDE8F08F0025D3
:10445800CDE75546DBE700BF4BBB03082DE9F74323
:104468008146FBF78DFE064638B100223749012008
:10447800FFF792FF03B0BDE8F0834846FDF7B2FDB1
:104488000B2804465BDC0625454309F101008DF83D
:104498000760FCF7D0FCDFF8B480814605EB08071D
:1044A800464638B1FDF79EFD03289EBF012378716B
:1044B8008DF807304846FCF7BEFC814660B1FDF731
:1044C80091FD0D2808D8062303FB046398709DF816
:1044D800073001338DF807300DF107023946484699
:1044E800FDF702FEFCF7A7FC814660B1FDF77AFDF7
:1044F800302808D89DF80730062202FB04620133F1
:10450800D0708DF807304846FCF795FC60B1FDF790
:1045180069FD0D2808D89DF80730062202FB0464BF
:10452800013320718DF807309DF80730062BA1D094
:10453800002345F80830BB80FDF71AFB9AE70B23E8
:10454800324603490348FEF79FF993E7CA4700201C
:104558008AB8030890B803082DE9F04F374FDFF801
:10456800E4A089B0814690460C46164602F1280B15
:1045780094F9025000230C2202FB03F1304809563B
:10458800A94256D00133052BF6D108365E4504F111
:104598000804EDD109B0BDE8F08F96F90230079311
:1045A8009D423288F178307996F806C096F805E091
:1045B8003DD1258895423AD1E5788D4237D1257984
:1045C800854234D1A579654531D16579A5EB0E03CE
:1045D8005D425D4157F82E3057F8211057F82000FA
:1045E800049357F82C300393CDE900210290079BE0
:1045F800524629464846FFF78FF8627994F9023007
:1046080057F822200492A27957F82220039222799F
:1046180057F822200292E27857F822200192228845
:104628000092294652464846FFF78CF8ADE7002528
:10463800D0E7B8F1000FB0D14546DEE7E8AE030891
:104648005465002069BB03082DE9F3410346FBF7D5
:1046580097FD30B135490022012002B0BDE8F04194
:104668007AE7CDE9000018465D1CFDF7BBFC44B2B3
:10467800204618F011FA064600283CD08DF8024072
:1046880001242846FCF7D7FB074628B1FDF7AAFC0A
:104698000134ADF80000E4B2DFF894800025384614
:1046A800FCF7C9FB0746F8B1FDF79CFC002258F857
:1046B80022108842D3B203D00132112AF7D1002345
:1046C80058F8232090420FD1022D1CD0032D1FD063
:1046D800012D12D05A1E0F2A03D88DF80330013449
:1046E800E4B20135042DDAD1052C17D802B0BDE8A3
:1046F800F041FDF73DBA0446C3E71A1F042AF0D873
:104708008DF80430EBE7082BEBD88DF80630E6E798
:104718005A1F052AE5D88DF80530E0E76B4603CB2C
:104728003060716002B0BDE8F08100BF2A650020EA
:10473800E8AE03082DE9F04F834685B092460D4652
:10474800164600274FF019094FF46178BAF1000FA7
:104758003ED032782C787178B378F078944235D19D
:104768006C788C4232D1AC789C422FD1EC78A4EB97
:10477800000CDCF1000444EB0C0419FB008019FB6D
:104788000383CDE90113039000923B46114A214669
:104798005846FEF7C1FFEB780E4A19FB03830393D3
:1047A800AB7819FB038302936B78019315F8043BEC
:1047B800009321463B4658460137FEF7C3FF142FA6
:1047C80006F10406C2D105B0BDE8F08F0024D4E795
:1047D8005446E0E786BB03082DE9F04F0F468DB03D
:1047E8007A490646FDF7CCFB0546002840F0AC8028
:1047F80077493046FDF7C4FB0546002840F0A680FF
:1048080074493046FDF7BCFB0546002840F0A080FF
:1048180071493046FDF7B4FB002805460ABF01245C
:10482800102435460FB144F020046C4B6C4E93F8BD
:10483800049093F805806B4F0193BE42C0F08A80C4
:10484800FDF760FA484603F055FA404603F03AFA95
:1048580065492846FDF794FB08B144F0400414F07C
:10486800110F00F0D1816148FDF786F90020FEF7AD
:1048780083F804F03003302B02D15D48FDF77CF952
:104888005C4D5D48DFF8A8A1DFF8A8B1FDF774F921
:104898005A48FDF771F9D5ED007A594AF5EE407A94
:1048A800F1EE10FA0CBF012100212046FEF74AFF65
:1048B8002A465449544D2046FFF774FC5348FDF7E7
:1048C8005BF995F90210524AB1FA81F1490920467B
:1048D800FEF738FF2A464F492046FEF745FF4E4867
:1048E800FDF74AF94D4A4E492046FFF781F84D48F1
:1048F800FDF742F94C4B1E684C4B1F684FF00008FF
:104908005AF828509DB32B78DBB14FF0010909FA0A
:1049180008F967EA060313EA090F14BF0121002109
:104928002B465A462046FEF7F7FE66EA070313EAC7
:10493800090F5A462B4614BF012100212046FEF7D5
:1049480001FF08F10108DBE701246BE7022469E7AE
:10495800042467E77388C3F30B021B04D6E901102C
:1049680048BF02EB42022EF015FC143665E7DFF86B
:10497800C8A0A84667EA060B2D4B53F82850002D0F
:104988005CD02B78FBB14FF0010909FA08F917EA56
:10499800090F0BD066EA070313EA090F52462B46A4
:1049A80014BF012100212046FEF7B6FE16EA090FC2
:1049B80009D01BEA090F2B46524614BF01210021DA
:1049C8002046FEF7BFFE08F10108D5E7AEBB030895
:1049D800B5F0030872BA030810EA0308B8320020D9
:1049E80078F7030824FB0308B5BB03086BF2030838
:1049F800C2BB030840470020FBF00308E1F10308AD
:104A0800FDBB030884480020754400200CBC030843
:104A180016BC0308A449002023BC0308B84400209E
:104A28004449002029BC03083C41002018370020D5
:104A3800D45A030831BC03083DBC03088948DFF891
:104A4800B892DFF8B882FDF797F8874B1E68874B56
:104A58001B687340DB4303934FF0010B039A0BFA77
:104A680005F31A4218BF5F46814A08BF0027334042
:104A780002934FF00C0303FB05233946D3F808A033
:104A88000CBF4A46424653462046FEF745FE029A68
:104A98005346002A14BF4A464246394620465D44DA
:104AA800FEF750FE162DD7D17248734E734FFDF79F
:104AB80063F800237248089304935D460BEB0602E3
:104AC8001BF8003012F8011C0CAA1A440DF1300C26
:104AD80002F8201C1BF8072094440CF8101C2DB178
:104AE800A3EB020CDCF1000545EB0C050BF1010B07
:104AF800BBF1050FE2D1002608AB624A8DF81460BD
:104B080029462046FEF708FE04AB5E4A29462046A1
:104B1800FEF718FE5C48FDF72FF85C4A5C49204612
:104B2800FFF71AFD5B48FDF727F85B4A5B4920460B
:104B3800FFF78AF95A48FDF71FF85A4A5A4920469A
:104B4800FFF7EAF85948FDF717F8534A5349204642
:104B5800FFF736F85648FDF70FF8564A56492046EB
:104B6800FFF7E8FD5548FDF707F8554A554920462F
:104B7800FFF712FC5448FCF7FFFF544A54492046FB
:104B8800FFF776FA5348FCF7F7FF4FF0FF331A4662
:104B9800514920461FF0C2FC5048FCF7EDFF304653
:104BA8002146FEF7E1FCE00643D5019B214630464D
:104BB8001F795D79FEF790FD21460120FEF78CFDF7
:104BC80021460220FEF788FD21463046FEF768FDA3
:104BD80021460120FEF764FD21460220FEF760FD14
:104BE800384603F087F8284603F06CF83C48FCF791
:104BF800C3FF791C3B48FDF747FE3B48691CFDF79E
:104C080043FE3A48FCF7B8FFA10704D5019B2146AB
:104C18001879FEF761FD620704D5019B2146587992
:104C2800FEF73EFD324C334B9C420DD30DB0BDE830
:104C3800F08F019B21461879FEF74EFD019B214616
:104C48005879FEF72DFDDFE76388C3F30B021B04D9
:104C5800D4E9010148BF02EB42022EF09BFA14345A
:104C6800E1E700BF68EE0308E4490020144400208F
:104C7800109C030848BC0308667A03087064002087
:104C8800709200204CBC03089EF103082A6500209E
:104C98004692002000B90308D02C0020743300206D
:104CA80058BC0308502D0020F433002053BC0308DF
:104CB8005EBC0308D8450020E448002062BC030815
:104CC800CA470020364800206BBC03082C4000204F
:104CD8001C40002073BC0308848F0020AEBB03086F
:104CE8007EBC030840B8030838B80308A1BC030811
:104CF80078F7030824FB0308A3BB030899BB030840
:104D0800012169E5002167E5F7B50746FBF738FAA1
:104D1800044630B1002222490120FFF70BFD03B001
:104D2800F0BD3846FDF75EF91328054630DC8600ED
:104D3800781C8DF80740FCF77EF8194C074640B1FF
:104D4800FDF750F923289EBF012304F825008DF8AC
:104D580007303846FCF76FF8074650B1FDF742F9BF
:104D68000D2806D8A31958709DF8073001338DF81F
:104D78000730B11C0DF1070221443846FDF7B4F99C
:104D88009DF80730042BCAD0002344F82530C6E725
:104D98001323224603490448FDF776FDBFE700BF09
:104DA800D84500208AB8030890B803080EB40FB598
:104DB80005AB019053F8042B0649039301A8FDF7AE
:104DC80016FC019B00221A7004B05DF804EB03B0D6
:104DD800704700BF290700082DE9F043344B8DB018
:104DE8000CAA1B8822F80E3D054609A81FF0F9FAFF
:104DF800BDF922203C2192FBF1F301FB132109B2FA
:104E08001EB2BDF824300029B8BF4942B3F5FA6F85
:104E18001AD39DF82630013B0B2B15D89DF8273067
:104E2800013B1E2B10D89DF82830172B0CD89DF865
:104E380029303B2B08D89DF82A303B2B04D8BDF8E5
:104E48002C30B3F57A7F30D300201A4B0993ADF894
:104E580028008DF82A00ADF82C000446002E9DF895
:104E680028709DF829C09DF82AE0BDF82C809DF88F
:104E780027000791B4BF4FF02D094FF02B09002EE2
:104E8800B8BF76420090BDF824209DF826300A4924
:104E9800CDE90596CDE903E8CDE9017C2846FFF781
:104EA80085FF20460DB0BDE8F0830124D6E700BF9A
:104EB8009065002000000101BABC03080FB437B5A3
:104EC8000B490C48096800680B4D06AB53F8042BD6
:104ED8000193FDF78CFB04462868FCF78AF9002843
:104EE800FAD0204603B0BDE8304004B0704700BF98
:104EF800D4230020D8230020C49800202DE9F04FA7
:104F080087B00346FBF73CF9064620B1FCF730FEB4
:104F180007B0BDE8F08F05AA5B49DFF89891DFF884
:104F280098A1DFF898B118462EF0C8FA344605461D
:104F3800B0464FF0FF37A5B9544B78B20C2606FBA4
:104F480005F2D118D256824200F081800135052D34
:104F5800F5D1B8F1000F34D14D483946FFF7AEFF0F
:104F6800D6E7012E0ED0022E11D01EB92846FDF725
:104F780039F8074605AA444900202EF09FFA013661
:104F88000546D8E72846FDF72DF88046F2E749465A
:104F9800284630F0CCFC20B93E49284630F0C7FC02
:104FA80008B144F001045146284630F0C0FC28B945
:104FB8005946284630F0BBFC0028DBD044F00204F8
:104FC800D8E7002C08BF03240023E4B20293CDE9FC
:104FD80000841A46194617F02BFC054610B93946C5
:104FE8002D48BBE7424639462C48FFF767FF39464C
:104FF8002B48FFF763FF2B4B1C68204617F0F8FB84
:10500800284617F0F5FB00201EF0C8FE2046FCF7E6
:10501800FCF860B101201EF0C1FE2046FCF7EFF855
:1050280001462846FCF7F4F800201EF0B7FE284693
:10503800FCF7EBF80028E9D001201EF0AFFE284667
:10504800FCF7DDF801462046FCF7E2F8DBE74D689F
:10505800002D3FF47EAF39461348FFF72FFF54B1B8
:105068006979A14207D022461048FFF727FFE1B22D
:105078002846FCF7BBF8EB6A002BB8D00C48FFF7C2
:105088001DFF0023EB62B2E7B6CC0308546500208D
:10509800E8BC030840C3030810BD03082FBD03087C
:1050A8009ABD03087C9800204CBD030864BD030822
:1050B80084BD0308F3E30308F4E2030838C30308D4
:1050C8002DE9F04F4FF0000C85B086460746804624
:1050D800054600F1400908F1100B2B463E4612E048
:1050E800F4EC016A1AED047AD3ED007AE6EEC77A99
:1050F800C3ED007AAC420AF1100AF1D104335B45E2
:1051080006F1040602D0B2464446F3E71E464E4571
:105118001CD006EB0C0BBA46B04607E0F8EC016A67
:105128001AED047AE6EEC77AC4ED047AD845D4EDD0
:10513800047A0AF1100AF1D1D5ED006A87EEA67A51
:10514800103617EE108A44F8108FE0E70CF1040CC3
:10515800BCF1100F05F1140507F104079846BAD100
:105168000023009301930293039302F1100705466D
:105178006C4652F8043B44F8043B6E467346AB4217
:1051880024D1BA420EF1100E03F11405F1D14030CA
:1051980004AE01F11003054656F8044D43F8044CDB
:1051A8001A1F0446AC42D2ED007A1AD150ED016ABA
:1051B80087EEA67A8A42A0F11400A4F110051346DE
:1051C80082ED007AE8D105B0BDE8F08FB6EC017A3F
:1051D80054ED017AF3EC016AE6EEC77A44ED017A00
:1051E800CDE7F4EC016AB3EC017AE6EEC77AC2EDDA
:1051F800007AD7E71FB50C46024669461030FFF71C
:105208005FFFDDED007AB6EE007A67EE877AC4EDCF
:10521800007ADDED017A67EE877AC4ED017ADDED7B
:10522800027A67EE877AC4ED027A04B010BDD1ED38
:10523800007A90ED066AD0ED095AB8EEE77AD0ED1B
:10524800047AE7EE077AB7EE005AC0ED047AD1ED9A
:10525800017AF8EEE76AD0ED057AE7EE267AC0ED36
:10526800057AD1ED027AF8EEE77AA7EE276A80EDA3
:10527800066A90ED076A36EE076A80ED076A90EDD8
:10528800086AA7EE266A80ED086A26EEA66A75EE19
:10529800865AA7EE076AC0ED095AD0ED0A5AE6EE1B
:1052A800A75AA7EEA76AC0ED0A5AD0ED0B5A75EEB9
:1052B800A65AC0ED0B5AD0ED0C5AE7EE275AC0EDAE
:1052C8000C5AD0ED0D5AE6EEA75AC0ED0D5AD0EDA6
:1052D8000E5AE7EEA75AC0ED0E5AD0ED0F5A75EEEA
:1052E800A75AC0ED0F5AD0ED105A75EE875AC0ED87
:1052F800105AD0ED115A75EEA65AC0ED115AD0EDDC
:10530800125A75EEA75AC0ED125AD0ED135A75EE1F
:10531800855AC0ED135AD0ED005AE7EE065A90EDC3
:10532800017AC0ED005AA6EE867A80ED017A90EDFA
:10533800027AA7EE867AD0ED037A80ED027A37EE0C
:10534800866A80ED036A704700F140010346002237
:105358001A615A619A61DA6110338B4240F8042B62
:10536800F6D17047024684B00068516801AB03C3A8
:1053780090681860DDE901329342C8BFCDE9012386
:10538800DDE902239A42C8BF0293DDE90132934264
:10539800C8BF0293029804B0704780EAE073A3EB99
:1053A800E0738B4206DB002801DD401A704702D00B
:1053B800084470470020704748F6A043984203DD30
:1053C800A0F50C40A03870470028B8BFC018704737
:1053D80044F25063984203DDA0F50C40A0387047B2
:1053E800034B9842BCBF00F50C40A030704700BF8B
:1053F800B0B9FFFF08B52DED028BB0EEC08AF0EE14
:10540800408AB7EE000A30EE480A2EF0C3FB9FED43
:105418000E7ADFED0E7AE8EE077A9FED0D7AA7EEA9
:10542800887ADFED0C7AE7EE087AF5EEC08ABDECF3
:10543800028BF1EE10FA27EE800A44BFDFED067A00
:1054480037EEC00A08BD00BF306E99BC2716983DDC
:10545800843459BEA40DC93FDB0F4940F0EEE06A21
:10546800B0EEC07AF4EEC76AF1EE10FAD4BFB0EE2F
:10547800476AB0EE666AB5EE406AF1EE10FA48D0B7
:10548800F4EEC76AF1EE10FA54BFF0EE475AF0EEA8
:10549800665AC5EE867A9FED206ADFED205A9FEDA9
:1054A800205AE7EE865A9FED1F6AA5EEA76ADFED40
:1054B8001E5AE6EE275A9FED1D6AA5EEA76ADFED94
:1054C8001C5AA7EEA55AF7EE005AE5EE275AB1EE98
:1054D800466AC6EE257AF4EEC76AF1EE10FA48BFBE
:1054E8009FED147AF5EEC00A48BF77EE677AF1EEC1
:1054F80010FA48BF9FED107AB5EEC00A48BF77EEA4
:10550800677AF1EE10FA48BFF1EE677AB0EE670AF3
:105518007047DFED0A7ABEE739094E3DE3B59EBE16
:1055280069A2163E88FA16BE45FE7FBFA7DFA8B45B
:1055380099FB243FDB0FC93FDB0F49400000000007
:10554800FDEEC07A17EE903A2033402B43D8DFEDBA
:10555800237A9FED237AB4EEE70AF1EE10FA28DCFD
:10556800DFED207A9FED1E7AB4EEE70AF1EE10FA2D
:1055780022D4DFED1D7AB4EEE70AF1EE10FA1EDD53
:1055880030EE670A37EEC00A60EE007ADFED176A80
:105598009FED177AA7EEA67ADFED166AE7EE876A1F
:1055A8009FED157AA7EEA67A20EE276AA6EE070ADF
:1055B800704730EE470ACEE730EE070AD4E79FED92
:1055C8000F7AB4EEC70AF1EE10FA44BF30EE270A9C
:1055D80037EE400AD8E79FED0A0A7047DB0F4940CB
:1055E800DB0FC940DB0F49C0DB0FC93F9A7C2E3661
:1055F800FAAF4FB93587083CA4AA2ABEDB0FC9BF4A
:1056080000000000DFED027A30EE270A98E700BFBD
:10561800DB0FC93F2DE9F74F15F0D6FB7B4C7C4BD0
:10562800A4F114079F42C0F09F807A4D287902F0B8
:1056380061FB687902F046FB77494B898A899A426F
:1056480024BF00234B810A8ACB899A42734A01926C
:1056580024BF0023CB811368988FDC8F8442704C61
:10566800704824BF00229A87237C627C9A4224BF18
:1056780000232374FCF736FB6B4B1A78012A04BF0E
:1056880000221A701B78012B02D14020FCF72AFB5C
:10569800AB790BB10123CB70644B1A68644B93430D
:1056A80010D111201EF05CFB054658B138201EF0C1
:1056B80057FB38B102682B689A4203D14FF4803007
:1056C800FCF710FB5B4FDFF880A100263546B94692
:1056D8004FF0FF08F25B530803F07733900800F0AF
:1056E8003330D31A1B1AD00800F011301B1A03EB01
:1056F800231312F0010103F00F3393FBF8F0C0EB12
:10570800002018BF0135A3EB000318BFEDB2012B31
:105718000ADD022B0ED111B112EA0A0F04D109EBEE
:10572800060028F0A9FA28B10836282ED2D1013D62
:10573800022D06D90D20FCF7C3FA10B13D49FCF73C
:1057480091FA3D4A3D4D938B518B643B8B42A8BFE8
:105758000B4653832B7A042B7FD8DFE813F07700AE
:10576800A401AB01B701BE0134F9123C002BA7BF5D
:105778004FF00008C1464FF003084FF001094FF001
:10578800000A09EB0A02D2B2904501D2143446E766
:105798002B4E3588002D00F0B7812A4B701998429E
:1057A80080F0B281052D40F2AF8134F8141CB6F8B0
:1057B80002C0C1F30B018C4526D1717901F00301B8
:1057C800914221D15146384696F804B0FCF76CFA5C
:1057D80034F8141CBBEB113F13D134F812CC54F835
:1057E800100CCCF30B01AA1F8A42A8BF0A461CF46E
:1057F800004F1CBF5FFA8AF501FB0500B11D2DF0B3
:10580800C9FC0AF1010ABCE70646C2E78CF703089F
:1058180024FB0308B83200200840002098A000208C
:10582800F83E00200063040670640020183700204A
:10583800400001002A650020689A0020C29A0020D2
:1058480001000E0800001008BC83FFFFEB88B3F5C9
:10585800F57FA8BF4FF4F573EB80002019F005FA27
:10586800AC4B1A68002800F0448122F080621A606C
:10587800A94BB5F800C0D3F800A06D889AF800705D
:10588800A5EB0C05642205FB07F393FBF2F3A34A8F
:1058980063441380BAB202EB82035B005242C7F141
:1058A8006409009392B200205FFA89F94FF00A0B5D
:1058B8004FF47A7813B2002B40F31E8149469AF8C8
:1058C800016003FB03FE06FB0EFEC6F1640611FB36
:1058D80001F19EFBF1F131444B43009993FBFBF33B
:1058E8000B441BB28E496B4393FBF8F3634421F8D6
:1058F800103001300A320B2892B2DBD1894D14F0F6
:1059080015FA3022002188482FF0ACFF19F048FB27
:105918002979864B6422C82012FB010199606979B4
:10592800A3F8308012FB0102DA6001210022C3E9EA
:105938000422C3E90622C3E9082283F8282083F851
:10594800292099715A859A85DA85B4F90430784DF9
:10595800002B40F0D580B4F90630002B40F0D08001
:10596800B4F90830002B40F0CB80B4F90A30B3F515
:10597800805F40F0C580B4F90C30B3F5805F40F02B
:10598800BF80B4F90E30B3F5805F40F0B9802B6862
:1059980023F400732B6014F003FA664ADFED667A8D
:1059A800B2F84411654B664C664F676307EE101AF0
:1059B800B8EEC77AB2F84611C7EE276A40F2055624
:1059C80004F11C002063268707EE101AB8EEC77A88
:1059D800C3ED006AC7EE276AB2F8481107EE101A3D
:1059E800B8EEC77AC3ED016AC7EE276AB2F84A1162
:1059F80092F84C211A74142207EE101AB8EEC77ADE
:105A0800C3ED026AC7EE276A0021C3ED036A2FF0CF
:105A180029FF04F1B40014220021C4E93207A4F8D4
:105A2800D0602FF01FFF04F5A670C4F86001C4F819
:105A38006471A4F86861142200212FF013FF2B6809
:105A4800DB0601D517F0CAFC019B9FED3F5A1A6887
:105A5800B2F9503007EE903AF8EEE77AF2EE044ADF
:105A680087EEA40A20EE050AFFF7CCFDB2F9523002
:105A780007EE903AF8EEE77AF0EE405A87EEA40A7D
:105A880020EE050AFFF7BEFD304B25EE800A002206
:105A980083ED000A2E4B1A702AF0B0FE03B0BDE861
:105AA800F04F15F075B9EB8840F63C729342A8BFE9
:105AB8001346D1E6EB88B3F5FA5FA8BF4FF4FA5363
:105AC800B3F5FA6FB8BF4FF4FA63C5E6EB88B3F5E0
