:020000040800F2
:1000000000000120E9CC06087DCD0608957804089B
:100010007DCD06087DCD06087DCD060800000000D8
:100020000000000000000000000000007DCD060878
:100030007DCD0608000000007DCD0608F9D1050839
:100040007DCD06087DCD06087DCD06087DCD060850
:100050007DCD06087DCD060825DB050839DB0508C2
:1000600035DB050831DB05082DDB0508B5880608FA
:10007000A18806088D88060879880608658806081C
:10008000518806083D8806087DCD06087DCD060806
:100090007DCD06087DCD06087DCD060829DB050847
:1000A000097F0608D17F0608F57E0608F97F060855
:1000B000BD7F0608A97F0608957F0608499E0608A9
:1000C00045BB06083D9E06083DBB06087DCD0608DB
:1000D0007DCD0608097E0608FD7D06087DCD060853
:1000E00021DB05087DCD06087DCD0608E17E0608EA
:1000F000457F06081D7F06086D7F060829880608CB
:100100007DCD06087DCD0608817F06087DCD0608D9
:10011000F17D06087DCD06087DCD060879600608CC
:100120001588060801880608ED870608D98706089D
:10013000C58706087DCD06087DCD06087DCD06085D
:100140007DCD06087DCD06087DCD0608A96E060882
:10015000B18706089D870608898706087DCD0608B1
:10016000319E060835BB06087DCD06087DCD060804
:100170007DCD06087DCD06087DCD06080000000077
:100180007DCD06087DCD0608E57D06087DCD0608F7
:100190007DCD06087DCD06087DCD06087DCD0608FF
:1001A00000000000000000007DCD06087DCD06089F
:1001B0007DCD06087DCD06087DCD06087DCD0608DF
:0801C0007DCD06087DCD060887
:0801C80058C806000100000008
:1001D0009C4402200208000001001400BC440220DC
:1001E0000117000000007600DC440220022B010011
:1001F00000035400FC4402200233000000021F00F0
:100200001C4502200134000000003C003C45022057
:1002100001320000000040005C4502200137000070
:10022000000020007C450220013800000000290069
:020000040801F1
:1000000009284FF00103F0B407D903EB83035B0029
:10001000B0FBF3F2092AF8D84BB30026DFF858C03A
:10002000ACFB03720D46B0FBF3F4002C03FB140091
:100030004FEAD202D4BF0027012756B94FB9092B86
:100040003E4612D8303405F8014B00232B70F0BC2B
:100050007047092C06F10106CCBF57213021092B2E
:100060000C4405F8014B2946EFD91346D8E70D4655
:1000700000232B70F0BC7047CDCCCCCCF0B5002366
:100080000E680DE0BCF1050F17D9BEF1050F18D8A9
:100090000A2C16D103EB830316F8010B04EB430380
:1000A000A0F13005A0F1610CA0F1410EA0F13704E0
:1000B000EFB2092FE6D82C46ECE7A0F157040A2C42
:1000C000E8D00E601360F0BD2DE9F04F02238A46A0
:1000D0008B462DED108B93B0DFEDBB8A0E9303465C
:1000E000109004330F9211934FEADA06109DDDF859
:1000F00044C04FEACA0305EB46110D96F0004FF0DD
:10010000000E01EB061437010390A6EB8602009463
:10011000029706EB460804EBC202041D381D06EBED
:1001200086072C44C6EBC60901972844019D02EBC3
:1001300046174FEAC909ED0001EBC60601954FEAE3
:10014000081504954FEAC80505950D9D4FEA451819
:10015000009DD1ED006AD64495ED007A96ED003A07
:10016000F34597ED004A1CED015A50ED017A14ED6C
:10017000016A75EE262AD2ED005A35EE665A76EE01
:10018000033A77EE876A36EE436A77EEC77A35EE42
:10019000847A75EEC45A72EEA64A72EEE62A76EEBC
:1001A000656A33EE874AF0EE451AA6EEE85A34EE59
:1001B000843A74EEC44A36EE256A0CED013AB0EE8C
:1001C000672AC1ED004AE6EEA81AD7ED015AB0EE53
:1001D000453AD5ED010AA6EE282A96ED015AE6EE3B
:1001E000687AD4ED006A33EEC76A92ED014AD0ED29
:1001F000004A76EEC53A34EE658A91ED010A76EE54
:10020000856A9CED007A34EEE05A34EE254A33EEEE
:10021000881A77EE405A74EEA04AF0EE450A73EE63
:10022000C83AA1EE685AE1EE280A37EE007AB0EE3D
:10023000651AE3EEE85AA3EEA81A76EE843A76EE53
:10024000C46A37EE244A37EE647A32EEA60A74EEB8
:10025000234A72EEE66A34EE634A77EE462ACCED24
:10026000004A36EE077A9C4481ED014A71EEA03ACD
:1002700000ED010A33EE054AC5ED006A71EEE04A71
:10028000C0ED002A33EE455A85ED017A31EE426A1F
:1002900035EEE77A44ED013A72EE016AC7ED004AA5
:1002A00077EEA57A86ED004A194482ED005A1D4486
:1002B00084ED006A1844C7ED016A1C4486ED017A9A
:1002C0001F44C2ED017A1E441A443FF642AF0D9A14
:1002D000072A40F2A081039A08F10808109F09F14B
:1002E00008000832019E049D94463A460836059C53
:1002F00042440835083402990A9207EB0C020C318B
:100300004FF000080992BA1908927A1907923A191F
:1003100006923A1805927A18039207F10C02049299
:10032000012202920E9ADDF80CC090440F9A049FAD
:1003300002EBC802059EA8EB880E069D02EBC801E1
:1003400092ED00DA079C01EBC802D1ED00CA0898D3
:1003500002EBC80192ED00CA01EBC802D1ED00BA70
:1003600002EBC80192ED00BA01EBC802D1ED00AA80
:10037000099902EB0E1E92ED00AA0A9A0EEBC8092B
:10038000DEED019A0B9209EBC80299ED019A0C91EE
:1003900002EBC80992ED018ADDF808E009EBC8021A
:1003A00099ED010A02EBC809D2ED010AD9ED017AF3
:1003B00009EBC802CDED007AD2ED017ADDE90B211F
:1003C000CDED017A02E000BFF304353FD0ED003AF5
:1003D000D64492ED007AD4ED007AF34595ED006AAB
:1003E000D6ED006A57ED014A1CED015A91ED004A25
:1003F00034EE872A74EEC74A97ED00FA35EE277A75
:1004000074EE232A35EE675A76EE267A72EE07EA04
:1004100036EE666A32EEA73A34EE634A32EE472A87
:100420007EEE836A34EE067AB0EE45EA47ED016A65
:1004300034EE464AD0ED016AA7EE685A91ED016AA2
:10044000A7EE28EAD6ED013AF0EE64DA95ED017AEE
:1004500076EE66FA92ED011A76EE266A37EE636A58
:100460007FEE415AE4EE28DA72EEE72ADCED007AFC
:10047000E4EE684A94ED014A37EE237A77EEC41A27
:100480007FEEC63A77EE847A3FEE866AB0EE654A32
:10049000E3EEE85A3FEE01FAA3EEA84AF0EE613A25
:1004A000E6EE681A36EE871AE6EE283A36EEC77A96
:1004B0003EEEC33A74EE4EEAB0EE616A7FEE271A62
:1004C0007FEE677A72EE076A31EEC1FA32EE477A52
:1004D00037EEE22A72EEA77A7DEEA32A7DEEE33AAA
:1004E00075EEC5DA35EE255A60EE0F5A63EE40FA26
:1004F0003EEE044AEBEE835A34EE86EA74EEC64AC8
:1005000026EEC96AEBEE8FFA9DED00FA71EE811AC4
:10051000B0EE653A69EE025AACEE826A9DED002AB1
:100520002FEE27FAC7ED001AECEEA65A82ED003A3C
:1005300027EE422AC2ED01FA69EEAE6A1F44AAEE26
:1005400087FA1A4422EEE97A8CED006AAAEEA72A0D
:10055000DDED017AEDEE226ADDED012AADEE2E7AB7
:100560004CED015A67EE847A9C4463EEE22A84EDF6
:1005700000FA6EEE60EAEAEE237A84ED012AEAEEF2
:10058000042AC1ED006AEBEE2DEA81ED017A60EEFE
:10059000AD3A1C4428EE054A194464EEC8DAEBEE85
:1005A0000E3AC6ED007AACEE244AC6ED012AECEE16
:1005B00005DA1E44C0ED003AC0ED01EA184485EDAD
:1005C000004AC5ED01DA1D443FF600AF0A99029AD0
:1005D000083101320A91099902920831099108996A
:1005E0000831089107990831079106990831069159
:1005F000059908310591049908310491039908314E
:1006000003910D9991427FF48DAE0E9B8A46DB00DB
:100610009BB20E9368E513B0BDEC108BBDE8F08F74
:1006200000B5034683B03221074A68468DF80010B2
:1006300019689B881268CDF80110ADF80530904715
:1006400003B05DF804FB00BFB81E0120204B2DE96C
:10065000F041002406465D6800F1070806E03946CF
:100660001B6898473C444645A4B214D016F8017B59
:1006700028467D21A7F17D03012B2B68EFD81B684D
:1006800098472B6887F0200128461B689847E9E7C0
:10069000E3B203EB1424FF2CFAD8C4F1FF04E4B254
:1006A000A4F17D03012B2B6805D9214628461B6840
:1006B000BDE8F041184728467D211B6898472B6804
:1006C00084F0200128461B68BDE8F041184700BFB0
:1006D000B81E01200A4AD369F0B41C680027566985
:1006E0004FF6F6751981611C9F81C3E900162070D1
:1006F000D36951691A689D81C3E90012F0BC704743
:10070000B81E0120084B542230B403F121052424E3
:1007100003F13201056083F8204003684160591CF1
:1007200001601A7030BC7047B81E0120F8B5CE1EAB
:100730000F464FF6FF730239421E0446064412F874
:10074000015F5B1BB2429BB2F9D14354C5191B0A2E
:10075000054E05F8013C14F8011B706B4CF0D2FDFE
:10076000A542F8D1F8B2F8BDB81E012070B50B460D
:1007700082B0082460F05F021E14ADF8023000253C
:100780001B0E214668468DF801208DF804608DF817
:1007900005308DF80040ADF80650FFF7C7FF02B0F6
:1007A00070BD00BF062260F05F0330B583B00D4618
:1007B000002411466846ADF802508DF801308DF8DE
:1007C0000020ADF80440FFF7B1FF03B030BD00BF1B
:1007D000264A274B11680B40002B0CBF012002203A
:1007E0004B07536848BF0430D90701D50A3080B29F
:1007F0009A0701D5143080B2D90501D5283080B2CE
:100800005A0701D5643080B2190701D5C83080B2CB
:100810009A0602D500F5C87080B2D90602D500F557
:100820007A7080B2DA040ED500F5FA5080B29904DD
:1008300003D542F21072024490B29A0509D50D4BCD
:10084000034498B2704719050AD500F5FA6080B2E2
:10085000EDE75B0503D544F62063034498B2704787
:100860005A06E4D500F57A6080B2E0E70000002087
:1008700080FFFF3F409CFFFF022805D0A0F1010050
:10088000B0FA80F040097047054B93F8403023B927
:10089000044B1868C0F380007047102036F040BC4D
:1008A000B81E01200000002070B40D4E05460468FB
:1008B000002206F123039C4205D913F8011BA34231
:1008C00082EA0102F9D1631C06492B6022702A6872
:1008D000B06F6A60521A296070BC4CF0F1BC00BF66
:1008E000B81E0120D81E0120014B93F87C007047F0
:1008F000B81E0120424B0138F0B4424CC825C4F860
:10090000803004F1850204F1BF014D2384F8845046
:1009100027E0DDB25BB2002B33DB6B00DDB25BB2F4
:10092000002B35DB6D00EBB26DB2002D37DB5D00C7
:10093000EBB26DB2002D39DB5D00EBB26DB2002D74
:100940003BDB5D00EBB26DB2002D3DDB5D00EBB239
:100950006DB25B00002DB8BF83F0D5038A42DBB2D5
:1009600038D010F8015F6B4002F8015B13F0800F84
:100970004FEA4303CDD083F0D5056BB2EDB2002B27
:10098000CBDA6D0085F0D5056BB2EDB2002BC9DA7C
:100990006B0083F0D5035DB2DBB2002DC7DA5B00DC
:1009A00083F0D5035DB2DBB2002DC5DA5B0083F0C6
:1009B000D5035DB2DBB2002DC3DA5B0083F0D50353
:1009C0005DB2DBB2002DC1DA5B0083F0D5035DB20E
:1009D000DBB2BEE70C4D402784F8BF30A5F14406DA
:1009E00084F8C0300FCE0FC50FCE0FC50FCE0FC588
:1009F00096E80F0085E80F0084F80471F0BC70479A
:100A0000C83E7BEAB81E01207C1F0120F8B5224CAD
:100A100094F80511621892F80821002A3AD00023B0
:100A20001E4D4A1C0133A5FB0261490801EBC101BF
:100A3000511A621892F808210AB1092BF1D1CBB2F0
:100A400084F8053102680C260025571C076001EB6D
:100A500041071670026801EB8701561C066015708D
:100A60000D2205680E4E6F1C314407602B7051F04B
:100A700077FB94F805110120084B0A182144A3FBC9
:100A8000025381F80801C34003EBC303D31A84F86F
:100A90000531F8BD0B46D5E7B81E0120398EE33885
:100AA000CC1F012038B50D460446FF2100682A46B8
:100AB00061F0CAFE22682A44226038BD02680E2115
:100AC00070B5561C7F250024066015700268551C01
:100AD00005601470FFF7E6FF012070BD30B5354C9E
:100AE00085B094F88931012B01D005B030BD94F860
:100AF0008A01022826D0A0F10100B0FA80F0400956
:100B000048B36368002BF0D1D4F88C21002AECD0D4
:100B100094F84800032594F84110002892F9040045
:100B200001954FF4614214BF0825002500921A4632
:100B3000002908BF45F00105202102952EF054FD43
:100B40006060D2E794F84030FBB91B4B1868C0F3E3
:100B500080000028D5D16268002AC6D0D4F894312C
:100B6000934217D0D4F8A0319A421CD0D4F8AC31BB
:100B70009A420ED0D4F8B8319A4216D0D4F8C43183
:100B80009A4214D000236360AFE7102036F0C8FA11
:100B9000B6E7022000EB4000002104EB8003D162A5
:100BA000C3E96511EEE70120F4E70320F2E7042032
:100BB000F0E700BFB81E01200000002070B51C4EF9
:100BC000632200211B4D96F8D4014CF03BFCB6F893
:100BD000F831194E0446333B0922002186FB03609D
:100BE000DB17C3EB20104CF02DFC6421AA68C0F188
:100BF000090301FB0340910784B202D504F57A741E
:100C0000A4B2D20702D504F5FA64A4B22B685B073C
:100C100001D4204670BD152036F082FA0028F8D0A5
:100C20006B6813F4016FF4D104F57A64A4B2F0E7B1
:100C3000B81E0120000000201F85EB512DE9F04770
:100C4000754C82B0E56900AFD5E900535B1B002B02
:100C500040F3A080002384F81432704D4FF0000C54
:100C6000A5F1140205F1800305F5C07E2561164645
:100C7000C4F80452C4F80852C4F81CE0C4E90532B0
:100C8000C4E9E633421800F10109C4E9029203788D
:100C90005909012940F0868003F00F0813F0100372
:100CA00011D1BCF1000F00F0968094F8A913013126
:100CB00001F00F0141457ED01846083784F8143200
:100CC000BD46BDE8F087821CC31C25694FF0000CAF
:100CD000A2604278A3608078AB18356042407360B0
:100CE00084F8141284F8A8233081A6F80CC0D4E943
:100CF0000292A2EB0902A3EB050AD5B25FFA8AFAC7
:100D0000EB1DAA4503F4FC73ADEB030D68D252460C
:100D10004946684661F054FB09EB0A0352463046E7
:100D20006946A36051F01CFA2369306894F8A8233F
:100D30008342C6E9003009D001333360984213F88A
:100D4000011C82EA0102F7D184F8A823A3681B786A
:100D5000934233D12169002370603A1D3160E1690B
:100D600060690B8148608B81A06984F814327B60D4
:100D700038F0DCFE013047D07B680BB1002098478B
:100D8000E3690120616908371A68C3E90012BD46AA
:100D9000BDE8F08794F814C2BCF1000F3FF45DAFDA
:100DA000A6696FE700210846FFF794FC0120083789
:100DB000BD46BDE8F087D6E900539AE70023B6F9AF
:100DC0000810012084F81432FFF784FC0120083752
:100DD000BD46BDE8F08760460837BD46BDE8F087F0
:100DE0002A464946684661F0EBFA09EB05033046AE
:100DF0002A466946A36051F0B3F90020083784F809
:100E0000A983BD46BDE8F087E26902211368581C3A
:100E100010601970B0E700BFB81E0120D02001207B
:100E20002DE9F04F324D83B0324C1F46B5F9AA136D
:100E3000B5F8B0C384FB0164C9171646B5F8ACA376
:100E4000C1EBA4018CB2A44518D1D5F8B8234FF05A
:100E5000000CD5F8BC13B6EB0208DFF89CB0B5F86F
:100E6000C02363EB0109CC4508BFC34534BF012350
:100E70000023524518BF43F00103A3B30368342194
:100E80000022019003F1010CC0F800C01970214646
:100E9000036803F1010CC0F800C01A7051F08EF91C
:100EA0005146019851F08AF947F6FF71019851F0C7
:100EB00085F947F6FF71019851F080F947F6FF7107
:100EC000019851F07BF947F6FF71019851F076F9DE
:100ED00001980221FFF7E6FD0123A5F8B043A5F82C
:100EE000C0A3C5E9EE67184603B0BDE8F08F00BFA8
:100EF000B81E01206766666680841E00604AD3685B
:100F00002DE9F041054613F0800000F09B809068C9
:100F100010F0020000F09680DFF874E19EF8D41122
:100F2000052940F29380632900F28E80002089B267
:100F3000544F0646A7FB013CC3B20C4601304FEAB2
:100F4000DC0C9A00092C0CEB8C03A1EB43031FFA79
:100F50008CF19BB203FA02F346EA0306EAD8F6B232
:100F6000DEF8E031484AD91782FB0323C1EB633333
:100F700099B2002900F082800024DFF808C12046E1
:100F8000ACFB0138E3B20F4601344FEAD8089A00AF
:100F9000092F08EB8803A1EB43031FFA88F19BB2EA
:100FA00003FA02F340EA0300EAD8C4B24FF4F36252
:100FB000BEF8F031354942F20F7713FB02F381FBA3
:100FC0000312D917C1EBA21189B2B94241D8D1B1EC
:100FD0000020DFF8B0E00746AEFB0138C3B28C4614
:100FE00001304FEAD8089A00BCF1090F08EB8803DA
:100FF000A1EB43031FFA88F19BB203FA02F347EA1D
:101000000307E9D8B9B22B68172000225F1C2F60B4
:10101000187028462B685F1C2F601A7051F0CEF8AC
:101020004FF0FF31284651F0B3F82B6828460621CF
:101030005A1C2A601E702B685A1C2A601C70FFF70D
:1010400031FD0120BDE8F081992689E70020BDE847
:10105000F0810020DFF82CC00146ACFB0732D2083B
:1010600002EB8203A7EB430397B29BB283400430A9
:10107000102841EA0301F0D189B2C4E70C4695E794
:1010800000000020CDCCCCCC89B5F814D34D621033
:10109000B81E0120C64AD3682DE9F04F814613F0EF
:1010A000800083B000F07781906810F0020000F0BB
:1010B0007281DFF81CA39AF8D431052B40F27281BB
:1010C000DAF8D831BB4C002B0093BB48B8BF5B4269
:1010D000BA49A4FB0352920D00FB023302EB8202D9
:1010E000C3EB031302EB82029B0084FB0354DD1766
:1010F000C5EBA45500FB053305EB820581FB0321FD
:10110000ADB2DB17C3EBA111C5B10020AC4F044653
:10111000A7FB053CC3B22E4601304FEADC0C9A0017
:10112000092E0CEB8C03A5EB43031FFA8CF59BB245
:1011300003FA02F344EA0304EAD8250489B2C1B1F0
:1011400000209F4F0446A7FB013CC3B20E4601306E
:101150004FEADC0C9A00092E0CEB8C03A1EB430345
:101160001FFA8CF19BB203FA02F344EA0304EAD8B3
:101170002543DAF8DCB18F4C8BEAEB738E488F4A4B
:10118000A3EBEB73A4FB0361890D00FB013301EBBF
:101190008101C3EB031301EB81019B0084FB03641A
:1011A000DE17C6EBA45600FB063306EB810682FB76
:1011B0000312B6B2DB17C3EBA212CEB10021804FEF
:1011C0000846A7FB063ECBB2344601314FEADE0E9D
:1011D0004FEA830C092C0EEB8E03A6EB43031FFA98
:1011E0008EF69BB203FA0CF340EA0300E9D806043A
:1011F00092B2CAB10021724F0846A7FB023ECBB2A1
:10120000144601314FEADE0E4FEA830C092C0EEB37
:101210008E03A2EB43031FFA8EF29BB203FA0CF388
:1012200040EA0300E9D80643DAF8E031644A002BCB
:1012300018460193B8BF5842624C6349A2FB003084
:10124000030AA4FB0343DB0901FB03F1C1EBD0015B
:1012500089B2C1B1002496462746AEFB013CE3B2F9
:101260000A4601344FEADC0C9800092A0CEB8C0387
:10127000A1EB43031FFA8CF19BB203FA00F347EA98
:101280000307EAD8B9B2BAF8F281B8F1000F1AD060
:101290000024DFF82CE12746AEFB083CE3B24246CF
:1012A00001344FEADC0C9800092A0CEB8C03A8EB04
:1012B00043031FFA8CF89BB203FA00F347EA0307D3
:1012C000EAD81FFA87F8BAF8F8313D4AA2FB0307BB
:1012D000FF08632F28BF6327092B67D94FF0000C45
:1012E00092466046AAFB073E5FFA8CF33A460CF141
:1012F000010C4FEADE0E9C00092A0EEB8E03A7EBD1
:1013000043031FFA8EF79BB203FA04F340EA03008B
:10131000E8D8C4B2009B019A002BCCBF39233823F4
:10132000BBF1000F4FEA226738DD27F07F07274A1D
:101330003B43934543F00207C8BF43F00607D9F883
:1013400000301620002203F1010CC9F800C018700B
:101350004846D9F8003003F1010CC9F800C01A70F2
:1013600050F02CFF2946484650F012FF31464846BF
:1013700050F00EFF4846414650F020FFD9F80030AB
:1013800001201A18C9F800201C70D9F800301A186A
:10139000C9F800201F7003B0BDE8F08F27F07F0769
:1013A0001F43CCE7002003B0BDE8F08F0024B1E775
:1013B000000000206BCA5F6B806967FFD34D62102D
:1013C000CDCCCCCCC55A7C0AA0860100FFC99A3B83
:1013D000B81E0120036800224FF6FF7170B57E250C
:1013E0005E1C044606601D7003685D1C05601A7073
:1013F00050F0C0FE0D4B93F8463083B128F0BAFF91
:101400000146204650F0B6FE204647F6FF7150F0E8
:10141000B1FE20460821FFF745FB012070BD28F0F2
:10142000BFFF0146204650F0A5FEEDE7B81E0120A3
:10143000154BDB68C3F3022310B4C3F107041A1D74
:10144000042C28BF0424062A4FF0FF328CBF033B34
:101450000023A240002821EA020101FA03F108DB7F
:1014600009010A4BC9B2034483F800135DF8044B29
:10147000704700F00F000901054BC9B2034419760B
:101480005DF8044B704700BF00ED00E000E100E0B4
:10149000FCEC00E038B50D4B0D4A1B68A2FB0323A2
:1014A0009B09013BB3F1807F09D20A4AF0250A4C1F
:1014B00000200721536084F82350906011600021C0
:1014C0004FF0FF30FFF7B4FF002038BD00000120CF
:1014D000D34D621010E000E000ED00E02E4A002342
:1014E0002E4910B4C2F8DC334CF25034D2F8E00389
:1014F00004E0D2F8E0331B1AA34210D8CB68DB0318
:10150000F7D4CC6814F0F2040DD1C86810F00100D3
:1015100002D001232046CB605DF8044B70470320C6
:101520005DF8044B7047CB689B0705D5D2F8DC33D8
:1015300043F02003C2F8DC33184BDB68DC0605D52A
:10154000D2F8DC3343F01003C2F8DC33134BDB6812
:10155000980605D5D2F8DC3343F00803C2F8DC3333
:101560000E4BDB68590605D5D2F8DC3343F0040393
:10157000C2F8DC33094BDB681B0605D5D2F8DC3337
:1015800043F00203C2F8DC33044BF22201205DF881
:10159000044BDA60704700BFB81E0120003C0240D7
:1015A00070B40D4D0646046804E0D5F8E0339B1A8C
:1015B0000A2B06D8A36931EA0303F6D1002070BCD8
:1015C000704700232022032086F8412086F840300F
:1015D00086F8423070BC7047B81E012070B41C4DB4
:1015E0000646046804E0D5F8E023521A0A2A25D8F2
:1015F000A36913F02003F6D010222023E261E361F7
:10160000A3699A0701D50023A362A369DB0710D55C
:10161000636804250F4A20210120134000226360E3
:10162000756486F8402086F8411086F8422070BC28
:101630007047A36943F00103A361E9E72022032077
:1016400086F8403086F8412086F8423070BC7047FA
:10165000B81E012000E800FE70B5134E04460D468A
:101660000AE09B69DB0602D5FFF7B8FFC8B9D6F8D8
:10167000E0335B1B0A2B07D82368294620469A696A
:101680009207EED5002070BD636C2021002203205C
:101690000B4384F84020636484F8411084F84220AE
:1016A00070BD012070BD00BFB81E012070B5134E83
:1016B00004460D460AE09B69DB0602D5FFF78EFF64
:1016C000C8B9D6F8E0335B1B0A2B07D82368294634
:1016D00020469A699206EED5002070BD636C2021E9
:1016E000002203200B4384F84020636484F84110F7
:1016F00084F8422070BD012070BD00BFB81E0120DB
:10170000014B5860704700BF50280040044BD3F88D
:101710000026B3F8043651694B405361704700BF4F
:10172000B81E01200146024881F001014CF09CB92D
:10173000B82401204309012200F01F00023B02FAF5
:1017400000F0032B07D8DFE803F0020C11070A4B67
:101750005A6C104358647047074B5A6B10435863D8
:101760007047054B1A6C104318647047024B1A6B94
:1017700010431863704700BF0038024007EE900A1C
:101780009FED477AB1F5C87F9FED466AF8EE677A1C
:10179000DFED455ACBBF78224FF496723223642393
:1017A000C7EE273A07EE901A13449FED405AA2F174
:1017B000320004EE900AB8EEE77A07EE903AF0EEC7
:1017C000086AB8EEE74AC6EE077AF8EEE44AB7EEE2
:1017D000006AF1EE032AA3EEA55AE3EEE64AB6EE5E
:1017E000003A30B4B0EE457A82B00124A3EEA67A76
:1017F00037EEC75A35EE475A2146013407EE904A74
:10180000B8EEE77A27EE237AC5EE077AC4EE076AC8
:10181000C4EE875A77EEC67A87EEA27A76EEC66A6B
:1018200077EE837AFCEEE55AFCEEE66AFCEEE77AA8
:10183000CDED015ACDED006A9DF8042017EE905AC7
:101840009DF800300F2A98BF0F2BBCEEC77A94BFCB
:101850000122002217EE103A581EEB1A80B2013B0B
:10186000FF288CBF002202F001029BB20AB1FF2BBD
:1018700005D90F2CC0D1002002B030BC704743EA1C
:10188000017316EE902A43EA002015EE903A1205F5
:101890001B0402F07F6203F47F0310431843EBE75D
:1018A000286B6E4E002474490000000000002A439B
:1018B000F0B5ADF5815D00230F46014681B0FD26F0
:1018C00014463A460DF5815004AD03930095CDE9D9
:1018D00001036846ADF8086050F042FC009B694681
:1018E00002222046CDE900532BF05EFA0DF5815D12
:1018F00001B0F0BD2DE9F047041E0D4612DB092CA6
:1019000026DC0B46814A82480021A0FB0460597006
:10191000C00800EB8000A4EB4000125C28461A705F
:10192000BDE8F08764422D23092C01F8013B24D83F
:10193000764A774B0020A3FB046348702846DB08F7
:1019400003EB8303A4EB4303D35C0B70BDE8F08788
:101950006F4B632CA3FB04264FEAD60621DC0B4613
:101960006A4A6B49A1FB0601C90801EB8101A6EB9C
:101970004101515C03F8011BC5E7654A632CA2FBDA
:1019800004364FEAD60637D8604A614BA3FB0603FC
:10199000DB0803EB8303A6EB4303D35C01F8013BB5
:1019A000C7E7A3FB0627B4F57A7F4FEAD7070DD226
:1019B0000B46564A5649A1FB0701C90801EB8101B4
:1019C000A7EB4101515C03F8011BCAE7A3FB072801
:1019D00042F20F7294424FEAD80836D80B464B4A6F
:1019E0004B49A1FB0801C90801EB8101A8EB4101AA
:1019F000515C03F8011BDDE7A2FB0637B4F57A7FE3
:101A00004FEAD7070CD2414A414BA3FB0703DB083F
:101A100003EB8303A7EB4303D35C01F8013BB4E77B
:101A2000A2FB073942F20F739C424FEAD90921D831
:101A3000364A374BA3FB0903DB0803EB8303A9EB0F
:101A40004303D35C01F8013BDEE7A3FB0829314ADD
:101A500094424FEAD90921D80B462C4A2C49A1FBC4
:101A60000901C90801EB8101A9EB4101515C03F8AF
:101A7000011BB5E7A2FB093A264B9C424FEADA0A62
:101A800021D8224A224BA3FB0A03DB0803EB830382
:101A9000AAEB4303D35C01F8013BCAE7A3FB09238C
:101AA0001D4A94424FEAD30A21D80B461849174AD7
:101AB000A1FB0A01C90801EB8101AAEB4101515CBC
:101AC00003F8011BCAE7A2FB0A38134B9C424FEAFA
:101AD000D80813D80E4B0D4AA3FB0803DB0803EB11
:101AE0008303A8EB4303D35C01F8013BCAE70A2256
:101AF000BAFBF2F050F086F80346D7E70A22B8FBAB
:101B0000F2F050F07FF80146E4E700BF64BE07083A
:101B1000CDCCCCCC9F8601003F420F002DE9F04791
:101B20001D4688B0531C0F4603931178002900F01E
:101B3000D28000240646A0460BE0701C01D030463F
:101B4000B8470134039A531C03931178002900F01D
:101B5000C3802529F1D1931CCDE9033850782D2875
:101B600000F0AF804FF0000A302800F09180A0F123
:101B700030034FF00009DBB2092B40F296806C284D
:101B800035D0782800F2F480572827D9A0F15803DF
:101B9000202B00F2ED80DFE813F00501EB00EB00F5
:101BA000EB00EB00EB00EB00EB00EB00EB00EB00DD
:101BB000DD00ED00EB00C400EB00EB00EB00EB0000
:101BC000EB00EB00EB00E600EB00EB00EB00EB00C2
:101BD000B600EB00A300EB00EB00050100287BD072
:101BE000252840F0C580731CABD02521A7E7039BB7
:101BF0005A1C039219787829A5D8572967D9A1F1D9
:101C00005803202B9FD801A050F823F0811D010814
:101C1000471B0108471B0108471B0108471B010818
:101C2000471B0108471B0108471B0108471B010808
:101C3000471B0108471B0108551D0108991D010894
:101C4000471B0108231D0108471B0108471B01080A
:101C5000471B0108471B0108471B0108471B0108D8
:101C6000471B0108691D0108471B0108471B0108A4
:101C7000471B0108471B0108071D0108471B0108F6
:101C8000E11C0108471B0108471B0108811D0108D1
:101C9000039B4FF0010903EB090203921878A0F1AE
:101CA0003003DBB2092B3FF66AAF04AA03A9FEF7A3
:101CB000E5F9BAF1000F3FF462AF049B5B42049375
:101CC0005DE7D31C4FF0010A039390784CE719B1FC
:101CD000252988D037E70C46204608B0BDE8F087B4
:101CE00005A955F8040BFEF78BF905AB3A464FF002
:101CF000FF3130460193CDF80090049B50F020FB5B
:101D0000039A04441FE755F804CB3A46049B4FF06E
:101D1000FF313046CDE9008C50F012FB039A0444A9
:101D200011E7073525F00705F5E802015AF09EFC9A
:101D300000EE100A05A84FF0F3FE05AB3A464FF04F
:101D4000FF313046CDE90093049B50F0F9FA039A35
:101D50000444F8E6721C3FF4F4AE55F8041B304618
:101D6000C9B2B847EDE6039A55F8043B1C60EAE6B1
:101D7000039AE8E605A955F8040B4FF05BFFB4E7BA
:101D8000A1F1580205AB102155F8040BB2FA82F20A
:101D900052094FF095FFA8E705A955F8040B4FF03D
:101DA00049FFA2E7A0F1580205AB102155F8040B3A
:101DB000B2FA82F252094FF083FF96E72DE9F84F0D
:101DC00006464068AB4F9146D0F810C08846D6F81A
:101DD0000CA0CCF30322DAF8043057F8224014F5B3
:101DE000803F00F0A4803A19B4F1000EA24992F8A5
:101DF000205018BF4FF0010E591A5A5918BF01212F
:101E000022F001025A51002940F08280BEF1000FF9
:101E10007ED19A4A00214FF0210E116051609160ED
:101E2000D1601161C2F814E05A5922F060625A512F
:101E30003F229A605FFA8CF3427907EB8303D3F871
:101E400028B0032A00F2BC81DFE802F05F5C59028F
:101E50000568403550463C4456F06EFC0A23AAF80B
:101E60001C30D6F80CA0504656F066FC844B03217B
:101E70009AF91400CAF80C30CAF81860FFF7D8FABB
:101E80009AF9140059F062FEF26894F82030506814
:101E90007C49C458C21821407B4C0C437B49C45038
:101EA000546944F0070C7468C2F814C050F803C0B9
:101EB0002CF0C07C40F803C050F803C02CF4C00CD8
:101EC00040F803C0C2F80C8095605568294041EA8B
:101ED00009015160C25822F0606242EA0B02C2500E
:101EE000A379326813F0040F637950681F4497F8A0
:101EF000481017D058F0ECFD0120BDE8F88F0568B8
:101F00003C35A7E705683835A4E705683435A1E70F
:101F10005F4A9A1A18BF0122BEF1000F18D1BAB950
:101F20005C4A77E758F06EFE0120BDE8F88F524A10
:101F3000934229D0564A93427FF47CAF564B1A699C
:101F400042F480021A611A6922F480021A6171E770
:101F5000B4F1010E18BF4FF0010EF9B9BEF1000F38
:101F60001CD14E4A00214FF0210E1160516091604A
:101F7000D1601161C2F814E05A5922F060625A51DE
:101F80004FF474629A6055E7434B1A6942F40012A9
:101F90001A611A6922F400121A614BE722B9BEF1E4
:101FA000000F01D13E4ADDE7B4F1020E18BF4FF039
:101FB000010EA9B9BEF1000F12D13A4A00214FF02B
:101FC000210E116051609160D1601161C2F814E07E
:101FD0005A5922F060625A514FF47C129A6029E7F4
:101FE00022B9BEF1000F01D12F4AE7E7B4F1030E89
:101FF00018BF4FF0010EA9B9BEF1000F12D12B4A44
:1020000000214FF0210E116051609160D16011618B
:10201000C2F814E05A5922F060625A514FF07462CB
:102020009A6007E722B9BEF1000F01D1204AE7E725
:10203000B4F1040E18BF4FF0010EA1B9BEF1000FAC
:1020400011D11C4A00214FF0210E116051609160A6
:10205000D1601161C2F814E05A5922F060625A51FD
:102060003F22DA60E6E64ABBBEF1000F26D1124AF3
:10207000E8E700BF902B07080060024010600240B4
:10208000794D06081F80FCFF405402000000FFFF4E
:1020900000640240106402400038024028600240A0
:1020A00028640240406002404064024058600240A0
:1020B000586402407060024070640240B4F1050E42
:1020C00018BF4FF0010EA9B9BEF1000F12D13D4A61
:1020D00000214FF0210E116051609160D1601161BB
:1020E000C2F814E05A5922F060625A514FF47462F7
:1020F000DA609FE622B9BEF1000F01D1324AE7E76C
:10210000B4F1060E18BF4FF0010EA9B9BEF1000FD1
:1021100012D12E4A00214FF0210E116051609160C2
:10212000D1601161C2F814E05A5922F060625A512C
:102130004FF47C12DA607DE622B9BEF1000F01D1C6
:10214000234AE7E7234A934214D1072C12D1224AAB
:1021500000214FF0210E116051609160D16011613A
:10216000C2F814E05A5922F060625A514FF074627A
:10217000DA605FE6194A00214FF0210E11605160CC
:102180009160D1601161C2F814E05A5922F0606286
:102190005A51002C3FF44CAE012C3FF4F1AE022C0E
:1021A0003FF41AAF032C3FF439AF042C3FF458AF7F
:1021B000052C9BD0062CBBD0072C7FF43BAED5E77B
:1021C000002547E68860024088640240A060024023
:1021D000A064024000600240B8600240B86402405F
:1021E000014B5868704700BF502800400E48D0F897
:1021F000BC3910B5A3B190F8B44700F2A470D3F87D
:10220000042234B100244023012153F0D7FF20469B
:1022100010BD4FF40073012153F0D0FF204610BDD4
:102220000224204610BD00BFB81E01202DE9F04752
:10223000BF4B0321BF4C4FF0A04088B0402584F82D
:10224000911D1A6BC4F8D809042042F00102C4F8A9
:10225000DC0904F2A4701A631A6B04F6D813C4F8EC
:10226000D40D4FF4C05002F00102C4F8D439022357
:10227000C4F8EC59029200250A220691029903A99A
:10228000C4F8F039C4F8E439C4F8085AC4F8E85975
:10229000C4F8F859C4F8F459C4F8045AC4F8FC59FD
:1022A00005950792CDE90303A34859F011F9D4F835
:1022B000043A012B00F094819D4B062143205A6B78
:1022C00042F080025A635A6B02F080020092009A38
:1022D0005A6C42F480425A645B6C03F4804301936D
:1022E000019BFFF7A5F8D4F8D8590822934B9A60C0
:1022F000AB68D4F8F02923F00103D4F8E869012A87
:10230000AB6040F03981AA6B8D4B22F48032D4F857
:102310000C1AAA630129EA6803EA0203EB60EB687E
:1023200023F44013EB6000F05681284658F070F912
:10233000012E07D1AB6843F00603AB60AB6843F0F6
:102340002003AB60D4F8D83932200125DA6822F0B6
:10235000C042DA60DA6842F08042DA6059F004FC88
:10236000784A00211346084683F83810D98701318E
:1023700083F839500F2983F83B00D864C3E9100073
:1023800003F11C03F0D10021D4F8D839084682F8B3
:10239000F81101F14005D187013103EB850582F881
:1023A000F9010F2982F8FB01C2F80C02C2E9800092
:1023B00002F11C026860EAD19A6BD4F8046A42F414
:1023C0000012D4F8DC59D4F8E4E9D4F8E8C9D4F818
:1023D000F019D4F8F4799A635EB99A6B22F400127A
:1023E0009A631A6842F040021A601A6842F080024A
:1023F0001A600020012903F50062C3F8000ED3F82B
:102400000008C3F8000800F0D1800329D3F80018B1
:1024100038D041F00301C3F800184FF484604A49F2
:10242000186101E0013902D018698006FAD4102041
:102430004549186101E0013902D01869C006FAD493
:1024400000214FF0FF30116151619061D1610DB3F6
:1024500003F510604FF0904A4FF0FF098E4609E0F7
:10246000C0F800E00131C0F810E0C0F8089020305A
:10247000A94253D0D0F80080B8F1000FF0DAC0F8CC
:1024800000A0EFE7BEF1000FC5D041F00101C3F895
:102490000018C2E71169BCF1010F21F480711161CC
:1024A00075D000206FF0804198615961BCF1000F38
:1024B00003D1996941F01001996198692349014359
:1024C00099611FB1996941F008019961012E03D109
:1024D00098691F49014399610120D4F8FC19814290
:1024E00084F8910D69D05368032043F002035360D0
:1024F00059F03AFBD4F8D839802200205A625A6A3F
:1025000042F480029A625A6A996A02EB114242F4DA
:102510000002C3F8042108B0BDE8F087002003F5ED
:1025200030614FF0904A4FF0FF0986461CE000BF33
:1025300000380240B81E01200000024000E100E027
:10254000BFFFBDFF90280120400D030000383C80F4
:1025500004000040C1F800E00130C1F810E0C1F80B
:1025600008902031A84295D0D1F80080B8F1000F32
:10257000F0DAC1F800A0EFE7EB68284643F040032B
:10258000EB6058F045F84FF48033AB63D0E6194860
:102590000025194910636FF08040D2F830C04CEA32
:1025A00001011163116B9D61586186E7D3F8001832
:1025B000BEF1000F7FF469AF2DE70020C4F8CC1DF9
:1025C0000E4984F8C40D986940F000609861586D18
:1025D0000143596587E7EB6843F48013EB60A4E699
:1025E0004FF4007303A906480393CDE9045558F04E
:1025F0006FFF61E60001800003000100030000108E
:1026000000000240037870B433B30246C0F1010504
:10261000531912F8014FDBB2002CF9D101335B00E2
:10262000DAB20F4C03250B8084F8D82D84F8D95DDD
:10263000017879B1022300265A1CE518023354FAB6
:1026400082F285F8D81DDBB282F8D86D10F8011F30
:102650000029F1D170BC704702221346E1E700BFA8
:10266000B81E012070B500200124FFF75BF80D4B68
:102670004FF406760C4D184601211BB1DE801C720A
:102680004AF0FAFE032C08D055F824300121013419
:102690001846002BF2D1032CF6D10020BDE8704083
:1026A000FFF740B8B8240120DC2B070899B10A6B6A
:1026B000824216D9154BD3F8042F914221D34C39BD
:1026C00091421ED30B6B9842F9D38B6B9842F6D88C
:1026D0000B46184670470D4BD3F8041F0A6B904207
:1026E00012D30B680BB9F4E70A6B90420B4602D386
:1026F0008A6B9042EDD951F84C3F002BF4D118462B
:1027000070470023184670470A46D8E7B81E0120D4
:102710002DE9F047CC0143D1034622494FF0FF3267
:10272000022443F8081B7E2642601846DFF87880B2
:102730002644051D6FF07047D8F8089F4FF0010A36
:10274000013E494608E0A3421CD0631C45F8043C06
:10275000321B1C460435CAB10B6BA34202D88B6BEB
:10276000A34204D22046FFF7A1FF014690B10A79A7
:102770004B6B002AE7D1A34204D0E6D2631C45F894
:10278000042CE5E7631C45F8047CE1E7C8F8081F62
:10279000BDE8F087321B631C494645F804ACD8E716
:1027A0008026C3E7F8FFFF0FB81E012090F9103014
:1027B000144A03EB830370B50C46816802EB830374
:1027C00005468A075E6810D5A3683046D4E9001232
:1027D00055F06CFF3046E168D4E9042355F066FFFC
:1027E000AB689B0708D5012070BD40694AF03EFEEA
:1027F00008204AF0E9FCE7E728464BF0DBFA012025
:1028000070BD00BF000001200023034A0360426046
:102810008360C360704700BF83F9223E10B405494E
:102820000024054A054B046041605DF8044B82605A
:10283000C36070475B128B3A6F12033B8943273F9B
:10284000804BB3FBF2F399420DD300234FF07E523D
:10285000436002608360C36003610023836143615E
:102860000362C361704707EE902A9FED777AF8EE16
:10287000676A07EE901AF8EE677A66EE876A66EE88
:10288000A76AFDEEE67A17EE903A2033402B00F26D
:10289000CA80DFED6E7AF4EEE76AF0EE667AF1EE6A
:1028A00010FA0CDDDFED6A5A9FED6A6AB0EE677AC6
:1028B00077EEE57AB4EEC67AF1EE10FAF6DC9FED2B
:1028C000667AF4EEC77AF1EE10FA0CD5DFED605AB5
:1028D0009FED626AB0EE677A77EEA57AB4EEC67ABB
:1028E000F1EE10FAF6D49FED5E7AF4EEC77AF1EECF
:1028F00010FA00F390809FED5B7AF4EEC77AF1EE68
:1029000010FA03D59FED547A77EE677A27EEA76A1F
:10291000DFED555ADFED554AB6EE007A9FED545A79
:10292000E6EE254ADFED535A27EE864AA6EE245AF4
:10293000E6EE055AE4EE257A27EE877A9FED486A9F
:1029400076EE867AFDEEE75A15EE903A2033402B6C
:1029500066D8F4EEC66AF1EE10FA0CDDDFED3C5AF3
:102960009FED3C6AF0EE676A77EEE57AF4EEC66AB0
:10297000F1EE10FAF6DCDFED386AF4EEE67AF1EE0D
:1029800010FA0CD5DFED325A9FED346AF0EE676A2B
:1029900077EEA57AF4EEC66AF1EE10FAF6D4DFED22
:1029A000306AF4EEE67AF1EE10FA3FDDDFED276AE9
:1029B00076EEE77A67EEA76A9FED2B6A9FED2B5ABA
:1029C000F8EE004ADFED2A5AA6EE865A9FED296AF4
:1029D00027EEA64AE6EE855AA6EEA56AE4EE067A4A
:1029E00067EEA47AC7EE006AB7EE006A76EE865A02
:1029F00076EE666A86EE257A67EE277A80ED007AB3
:102A000066EE876A80ED027AC0ED017AC0ED037A46
:102A1000C0ED046A21E79FED0D7A77EE677A75E7DE
:102A2000DFED157ADEE79FED147A87E7DFED0D6ABB
:102A3000F4EEE67AF1EE10FABCD5DFED076A76EE39
:102A4000E77AB7E720A1070027D4D236DB0F494049
:102A5000DB0FC940E4CB1641DB0F49C0E4CB16C104
:102A6000DB0FC93FDB0FC9BF9A7C2E36FAAF4FB9D7
:102A70003587083CA4AA2ABE000000006428034B46
:102A8000B8BF6420C3F80C04704700BF00000120E9
:102A9000034B64281B69B8BF6420D860704700BF2F
:102AA000000000202DE9F04790B00E460746914601
:102AB00001A83C2200219A461A9DDDE918485FF0E2
:102AC000C3FE2E4B8DF80460CDF834800293002EA7
:102AD0004FD0B31E012B4ED9042E14BF0022032267
:102AE000DFF89C8001238DF80520D8F8502F03943F
:102AF00014448DF83130CDE905570494B9F1000F35
:102B00002CD198F8563F0022012B0E921BD898F832
:102B100055CF013301ACCCEB0C1588F8563FBCFA0D
:102B20008CFC08EB85054FEA5C1C05F658750FCC4C
:102B30000FC50FCC0FC50FCC0FC594E8070085E873
:102B4000070088F855CF3B6883B153464A46314663
:102B5000384610B0BDE8F0472AF070BC52464946EE
:102B600007A85FF02DFC8DF830A0CAE710B0BDE8D3
:102B7000F0870522B4E70222B2E700BFC82D01208A
:102B8000B81E0120F0B541F22833224DEE5C2EB97B
:102B900000230360436083603046F0BD41F2303C67
:102BA0000B6841F2343705F6D47E55F80C40012A03
:102BB000EF59A3EB04044B68DEEDD67A9FED166A5D
:102BC000A3EB070307EE104A67EE866A07EE903A1A
:102BD000B8EEC77AF8EEE77A27EE067A67EEA67ABD
:102BE00080ED007AC0ED017A0CD041F238328B686A
:102BF000AA589B1A07EE903AF8EEE77AC0ED027AEF
:102C00003046F0BDD1ED027AF8EEE77AC0ED027AF7
:102C10003046F0BDB81E01202C7D8E3F70B541F2CC
:102C20002833204E04460D46F35C2DED028B93B302
:102C300041F2303041F2343141F2383206F6D47389
:102C400030587158B25893EDD68AA260C4E9000199
:102C5000DFED158A95ED000A80EE280A5CF028FB6E
:102C6000236895ED010A184428EE288A206080EE3A
:102C7000080A5CF01DFB636895ED020A1844606069
:102C80005CF016FBA36841F228320344B05CA360F9
:102C9000BDEC028B70BDB7EE008A8360C0E90033E3
:102CA000D6E700BFB81E01202C7D8E3F00230360B5
:102CB000704700BF174B0021174A184870B403F63D
:102CC000B8041226002583F87818C3F8AC4803F539
:102CD000086142F6F824C3F8A028114A83F88068F6
:102CE000C3F89C080120C3F8B828C3F8BC28C3F86F
:102CF000C028C3F8C428C3F8C828C3F8CC28C3F830
:102D0000D028C3F8D428C3F8D828C1E9024570BC3C
:102D1000704700BFB02F0120016A0308F56903085E
:102D2000E003E003074B4FF478710748D3F8AC2871
:102D3000C3F89C08931E223223F8021F9342FBD152
:102D4000704700BFB02F012075600308F0B54FF445
:102D50007871244C1122244E4FF4787004F50E63E0
:102D6000C4F820194FF47871204D002784F880288A
:102D700004F50862C4F89C6841F60B2685B0C4F8D7
:102D8000A058C3E90001C3E90201C3E90401C3E992
:102D90000601C3E90801C3E90A01C3E90C01C3E95B
:102DA0000E014020C2E902672CF0D4FCB8B194F8BF
:102DB0002B290023032190F90400012A0C4A0191D8
:102DC0004FF040010CBF08251D4600920295094AAC
:102DD0002CF00AFCC4F84409003818BF012005B0E3
:102DE000F0BD00BFB02F0120016C0308F96C03088F
:102DF000A06806002D79030864281C4B28BF6420B6
:102E000000EB800070B54600A3FB06235D095B095B
:102E100022D0002401349F204BF0E6F9E3B29D421A
:102E2000F8D80A2D00D170BD1148C5EB85136C1C74
:102E3000A0FB0620C5EB8303000966381844C0B226
:102E40004BF0D2F9092DEED001349A204BF0CCF999
:102E5000E4B20A2CF8D170BD05480124A0FB06306D
:102E600000096638C0B24BF0BFF9EDE71F85EB51A2
:102E7000CDCCCCCCF0B41A4F97F84839042B2CD8D1
:102E80000C2202FB037202F5156252F8041C013396
:102E9000CC07DBB20DD501420BD092F900600021C6
:102EA000104C94F900500C34B5420BD00131052977
:102EB000F7D1052B02F10C02E7D1002087F8483941
:102EC000F0BC704701EB4101074A87F8483902EB33
:102ED0008101F0BCD1F8940170470020F0E700BFF9
:102EE000B02F012048200120B81E01200144884253
:102EF00019D030B4441E4D1E002041F2210114F8B7
:102F0000012F082380EA022010F4004F4FEA40020C
:102F100081EA40000CBF90B280B2013BF4D1AC42D8
:102F2000EDD130BC70470020704700BF10B52DEDCB
:102F3000088B70EE60BA90ED01AA0378F0EE408A3B
:102F4000F0EE419A04462BEE8AAAB0EE618AB0EE0A
:102F500042BAF0EE62AA002B42D1D0ED0C7A77EEA5
:102F6000E07A94ED0A7A87EEA90AC4ED0C0AB5EE70
:102F7000C07AF1EE10FA38DCD4ED032A60EE227A42
:102F800094ED050A67EEAA2A94ED0B7A68EE808A22
:102F900078EE877A77EE8A7A77EEA27AF4EEC87ABC
:102FA000F1EE10FA2ED487FECB0A70EE677A94ED1C
:102FB000046AD4ED026A84ED0D7A67EE867A84EDB8
:102FC0000EAAC4ED108AC4ED0F2AEBEEA67A84EDAA
:102FD000110AA9EEA77ABDEC088B84ED0B7A10BD1F
:102FE0000023DFED0A7A0370BBE794ED039AF0EE5D
:102FF000470AB0EE691A04F118005FF0B5FD69EEFA
:10300000007ABDE7B0EE480ACFE700BF000000003D
:10301000344870B490F88C39A3F13001092958D89C
:1030200000F68C1400F69B10224612F8015FA5F101
:103030003001092904D88242F7D1002070BC7047C2
:10304000141B022C4BDD2848002101E010F8013B45
:1030500001EB8101161A044603EB4103022EA3F192
:10306000300303F0FF01F1DC204B03FB01F1A2422E
:103070004FF000030ED903EB830314F8016B5B00E0
:10308000A242A3F13003334403F0FF03F3D1184805
:1030900000FB03F32E2D06D01648A0FB032370BCC3
:1030A00001EB9300704701320425002404EB8404F3
:1030B0001078013D303864000928A4B2204401D8BA
:1030C000013284B215F0FF05F0D1642202FB043313
:1030D000E2E700211D4600F68C120B46DAE70021DC
:1030E000054CC4E7B02F01203D390120809698009F
:1030F00040420F00ABAAAAAA3C39012080EAE07343
:10310000A3EBE0738B420ADB00280ADD431A4FF47D
:10311000FA72501A02FB03F393FBF0F070470020A1
:103120007047FDD000F5FA734FF4FA70411A00FBB6
:1031300003F090FBF1F0A0F5FA7070479B1A00FBCA
:1031400003F393FBF1F18818704700BF71EEC11AC9
:1031500061EE801A81EEA00A30EE010A704700BFCE
:10316000094BD3F89C09D3F8A029D3F8A43982429B
:1031700002DB114602460846984204DD9A42B8BF77
:103180001A46104670477047B02F0120144A30B4D9
:10319000D2F8A809D2F8AC39D2F8B0498342D2F8B3
:1031A000B419D2F8B82902DB1D46034628468A42E4
:1031B00002DB15460A4629468842A8BF08469342C4
:1031C000B8BF1346A04202DC2246044610468342A2
:1031D00003DAA342B8BF2346184630BC704700BF8D
:1031E000B02F01200B6810B414681B1B03605468D7
:1031F0004B681B1B5DF8044B43608B6892689B1AFD
:10320000836070472DE9F043164685B08046084636
:103210004EF0DEFE4FF47A720546002389463C24C8
:1032200059F082FBB6F900C00746494628464FF4DC
:103230007A7200230CFB0477002559F075FB4FF4DC
:103240007A7394B201A8C3FB07452B4622464EF081
:1032500003FE404B93F8BE39012B2FD0022B10D127
:103260009DF80670FB1E082B0BD83B1F062B1BD9A5
:103270003946BDF804004EF083FD032F36D00B2FE6
:1032800041D022462B4640464EF0E6FD05B0BDE853
:10329000F083032F55D00A2FF3D19DF80870B7FAA9
:1032A00087F77F09002FECD02B4B0022E4183388DE
:1032B00003F13C0342EB05053380E2E79DF806701D
:1032C000FB1E072BDDD83B1F052BEDD93946BDF87A
:1032D00004004EF055FD9DF807309842D9D0033FC9
:1032E00018BF0127002FDFD1CBE707380E28FCDC01
:1032F0009DF80730834212D0CCBF01270027002F52
:10330000D2D1BEE707380728FCDC9DF8073083429E
:103310000ED0B4BF01270027002FC5D1B1E79DF81B
:103320000870012F94BF00270127002FBCD1A8E708
:103330009DF80870012F8CBF00270127002FB3D103
:103340009FE79DF80870003F18BF0127002FABD101
:1033500097E700BFB02F012080EE360030B504683B
:1033600085B0E4692CB10DF10F050095A04705B0BB
:1033700030BD204605B030BD38B52321094C0A4D7B
:10338000D5F8C0094DF0AAFE14F8011F0029F7D1A5
:1033900006484DF0DDFE95F8C43913B1012385F8D8
:1033A000C53938BD8CBE0708B02F012098BE07086C
:1033B0002DE9F04F9946D34389B006466FEA090BD1
:1033C000DB0F002505924FEADB7B07910693059BF7
:1033D000AB4207D0069B2BB10135042DF7D109B0C4
:1033E000BDE8F08FFA23244A0799002403FB05F374
:1033F000224F01EB030802EB030AA1452B463A4694
:10340000304602D0BBF1000F31D13AF814C038F881
:1034100014100CF01F0E1CF4006FA1EB0C01CCF388
:10342000441CCDF804E018BF4FF0560EB1FA81F1FC
:1034300008BF4FF0480E00944909CDE902CE04912F
:1034400046F07CFD38F81430049913F4006FC3F390
:10345000441203F01F0C009414BF562048202B4642
:1034600003903046CDE901C23A4646F081FD013471
:103470007D2CC2D1B0E700BF78390120A8BE070873
:103480002DE9F04F3F4B41F63C1589463E4C5E5DC1
:1034900041F63D113D4A4D46DFF8FCB08BB0002EA1
:1034A00008BF22463A4C002680465956394845F016
:1034B00059FAB9F1000F47D02F782378D5F804C016
:1034C000BB4243D0D5E902E0002195F816A033466F
:1034D0005A460991CDF81CA0B5F914A0CDF818A052
:1034E000B5F912A0CDF814A0B5F910A00097CDE958
:1034F000030ACDE901CE404646F020FD0999A07DA2
:103500003346B4F914A00136B4F912E05A46B4F9BE
:1035100010C01835E76807904046CDF818A0D4F8D9
:1035200008A0CDF814E0D4F804E0CDF810C014F8E9
:1035300018CBCDE902A7CDE900CE46F019FD3C2E0F
:10354000B7D10BB0BDE8F08F4946D8E76368D5F82E
:1035500008E0634501D0E868B6E7A368E86873450A
:10356000B2D1E3688342AFD122692B699A42ABD1D1
:1035700062696B6922F07F4223F07F439A42A3D1B4
:103580000121A2E7B81E0120C4BE0708E4C3070852
:1035900054320120C8BE0708D8BE07081C4A2DE9CE
:1035A000F00354691B4E002CD6F8003403600DDD87
:1035B0001832002306F5806501E09C4206D052F8DF
:1035C000041B0133A942F8D1012200E00022D6F801
:1035D0000C340271836096F810240F4B4271D6F8B8
:1035E000302453F8041C5209D6F828744E0942EAD4
:1035F000C162F3E80289D3E90045C0E90489876222
:10360000C0E90826C0E90645BDE8F003704700BFE1
:10361000000000200000012038040120014BD3F8F5
:103620008000704700000120014BD3F8580170471B
:1036300000000120014BD3F8C800704700000120B2
:103640000C46054608B52BF0A5FF20462BF0A2FF3F
:103650000020FEF767F803E0204649F02DFEE0B9B0
:10366000284649F029FE0028F6D00120FEF75AF836
:10367000284649F019FE0646204649F019FE002862
:10368000FAD03146204649F03DFE0020FEF74AF8C8
:10369000204649F011FE0028E2D00120FEF742F852
:1036A000204649F001FE0646284649F001FE002862
:1036B000FAD02846314649F025FE0020FEF732F8C0
:1036C000CEE700BFF0B5002289B0DFF898C004AFA4
:1036D00013460A613E46C1E90022C1E9022202689E
:1036E000C2F3855040FA03F43546E40704D513F8D5
:1036F0000C4005F8014B2E460133062BF2D1174D35
:10370000C2F303240023C2F305302C4405F1680CF6
:1037100033700DF1190694F860408DF8184040FAA6
:1037200003F43546E40704D513F80C4005F8014BC3
:103730002E460133062BF2D10023C2F3834506AC9B
:103740000846337002F00F030549C2F303120097D5
:10375000CDE901454EF040FD09B0F0BD902B0708C2
:10376000F8BE0708E82B0708414A10B492F8A530C4
:10377000D2F88410023BD2E92240062B74D8DFE84D
:1037800003F05A5C605006550400644249424042CE
:1037900080EAE0739FED376AA3EBE07307EE103A1F
:1037A00084EAE473A3EBE473B8EEC77A06EE903ACA
:1037B00081EAE17327EE066AF8EEE66AA3EBE173AD
:1037C00007EE903AB4EEE66AF8EEE77AF1EE10FA18
:1037D00004DDB4EEE76AF1EE10FA34DC9FED256A01
:1037E00026EE866AB4EE467AF1EE10FA04D5B4EE0F
:1037F000676AF1EE10FA2DDC9FED1E6A67EE867A9D
:10380000B4EE677AF1EE10FA2BD5F4EE676AF1EEBA
:1038100010FA26D50029CCBF042005205DF8044B02
:1038200070474B42404221461C46B1E7634240424A
:103830000C461946ACE74942AAE74B4261421C4696
:10384000A6E76442A4E700285DF8044BCCBF002043
:1038500001207047002C5DF8044BCCBF02200320F0
:1038600070474FF0FF30D9E723460C4619468FE7E3
:1038700000000020ABAA2A3F30B5284C83B0DFED12
:10388000286A94F82D39D4F8D45D07EE903A94F86C
:103890002E39F8EEE77A07EE103A94F8B03DB8EE1C
:1038A000C77A67EEA67A04EB4302013327EE267A45
:1038B000B2F8B41DFDEEE77AA2F8B40D401A03F099
:1038C0000F0317EE902AFDEEC77A284484F8B03D26
:1038D00017EE901AC4F8D40D00098A4211DC114683
:1038E00080B217EE902A40F2FF35002300954FF08A
:1038F00097FB2A46002149F0A5FDA4F8D80D03B096
:1039000030BD80B28142D4BF401A0020824202DB27
:10391000101A80B2E7E70020E5E700BFB02F0120D2
:1039200014AE2341834A936813F4003070B440F01E
:10393000AE8002F20C64804ED2ED583AD4ED007A9B
:10394000D6F8905E92ED593A67EEA32AD2ED5A4A24
:1039500092ED574A27EE832A67EEA41AD2ED636AE6
:1039600022EEA47AD6F8941E67EE847A62EE845A28
:103970008B7AA1EEA37A24EE276A5E42E1EE835AA7
:1039800005EE106AA1EEA46AB8EEC55A36EE877A43
:10399000F2EE041AE7EEA35AA2EE447AF0EE466A7B
:1039A00025EE215AE2EE436AB0EE656AA7EEC37ACD
:1039B000A2EE246AF0EE477AB0EE667AF4EEC57AAB
:1039C000A2EEE37AF1EE10FA07D406EE903AB8EEE2
:1039D000E65A25EE215A85FE675A82ED635AF2EEC9
:1039E000045ACB7A95ED375A5E42D2EDF36A07EE70
:1039F000906AE5EE066AF8EEE77A67EEA57AF4EEED
:103A0000E76AF1EE10FA07D407EE903AF8EEE77A9B
:103A100067EEA57AC7FEE67AC2EDF37A0B7BC8B9EA
:103A20005A42F2EE046A07EE902AF8EEE77A67EE61
:103A3000A67AF4EEC77AF1EE10FA07DC07EE903AB8
:103A4000F8EEE77A67EEA67AC7FEC77AC4ED007A89
:103A500070BC70475A42D5ED365AD4ED006AB2EECA
:103A6000046A07EE902AE5EE876AF8EEE77A67EED9
:103A7000867AF4EEE76AF1EE10FAE7D407EE903AB0
:103A8000F8EEE77A67EE867AC7FEE67ADEE792ED31
:103A9000593AD2ED583A63EE037A9FED287AE3EE75
:103AA000A37AF4EEC77AF1EE10FAD1D8D2F86C31DD
:103AB000214E9B0639D506F56263D6F8905E93EDEC
:103AC000056ADFED1F6A9FED1F7AB4EEE60ADFEDAF
:103AD0001E7A86FE476A86FE276AF1EE10FA53D4F4
:103AE000DFED1B7AB4EEE70AF1EE10FA00F379810C
:103AF000F0EEE00ADFED1D4A70EEA47A74EEC04AE3
:103B0000BDEEE77A17EE103A2033402B00F27081B9
:103B1000BDEEE47AF1EE406A17EE101ABDEEE67AD9
:103B2000203117EE104A203444E0D6F8905E95ED2F
:103B3000356AC6E700000020B02F0120CE8BD33EAF
:103B4000920A86BF0080BB4500009643368D274011
:103B5000920A863FE12E6542DB0FC9BFE4CB1641D6
:103B6000DB0F49C0DB0FC940E4CB16C1DB0FC93FF7
:103B7000DB0F49409A7C2E36FAAF4FB93587083CA7
:103B8000A4AA2ABE8F2A7544B0EE660A21242221F7
:103B90005FED124A5FED126AF0EEE00A5FED0D7A1A
:103BA00070EEA77ABDEEE77A17EE103A2033402B7D
:103BB00000F22D811FED127AF4EEC77AF1EE10FAC1
:103BC0000CDD1FED185A5FED1B5AB0EE677A77EEE9
:103BD000C57AB4EEE57AF1EE10FAF6DC1FED207A44
:103BE000F4EEC77AF1EE10FA0CD51FED225A5FED14
:103BF000225AB0EE677A77EE857AB4EEE57AF1EE86
:103C000010FAF6D41FED277AF4EEC77AF1EE10FA27
:103C100040F3DA801FED2A7A77EE677A67EEA75ACB
:103C20001FED2C7A5FED2C2A1FED2C4AE5EE872A3A
:103C30001FED2D5A27EEA52A1FED3A7AA5EEA24ACE
:103C4000A5EE845AE2EE057A27EE877A402C00F240
:103C50009F805FED397AF4EEE76AF1EE10FA0CDD41
:103C60001FED405A5FED435AF0EE667A76EEC56A74
:103C7000F4EEE57AF1EE10FAF6DC5FED477AF4EE59
:103C8000E76AF1EE10FA0CD51FED4A5A5FED4A5A79
:103C9000F0EE667A76EE856AF4EEE57AF1EE10FAE9
:103CA000F6D45FED4E7AF4EEE76AF1EE10FA7EDDBF
:103CB0005FED517A77EEE66A66EEA67A5FED535ACB
:103CC0001FED534A1FED535AA7EEA54A5FED545A14
:103CD00066EEA72AA7EE845AE7EE855AE2EEA56AB9
:103CE000402952D85FED647AB4EEE70AF1EE10FA9B
:103CF0000CD51FED645A5FED675AF0EE647A74EEEE
:103D0000C54AF4EEE57AF1EE10FAF6DC5FED6C7A76
:103D1000F4EEE74AF1EE10FA0CD51FED6E5A5FEDA6
:103D20006E5AF0EE647A74EE854AF4EEE57AF1EEBE
:103D300010FAF6D45FED737AF4EEE74AF1EE10FA7A
:103D400029DD5FED757A77EEE44A64EEA47A5FEDE3
:103D5000775A1FED774A1FED775AA7EEA54A5FED18
:103D6000785A64EEA72AA7EE845AE7EE855AE2EE67
:103D7000A54AC6EEA47A5FED7D6A264C67EEA66A78
:103D8000C6EE867A67EE877ADEE5DFED234AF0E756
:103D9000DFED216AA4E7DFED217AF4EEE74AF1EEE8
:103DA00010FAD2D5DFED1E7A77EEE44ACDE7DFEDEB
:103DB0001B7AF4EEE76AF1EE10FA7FF57DAFDFEDE6
:103DC000187A77EEE66A77E79FED147AF4EEC77A11
:103DD000F1EE10FA7FF522AF9FED117A77EE677A58
:103DE0001CE7B0EE670A1F242021DFED0E4AD3E660
:103DF000FDEEE47A9FED087AF1EE406A17EE901A34
:103E0000FDEEE67A203117EE904A20341EE79FED52
:103E1000027A32E70C06002000000000DB0FC9BF69
:103E2000DB0F49C0920A063F2DE9F047084D95F88F
:103E3000C9392DED048B82B0062B00F20F84DFE828
:103E400013F081056905210409001F047604660545
:103E5000000000207F4C042394ED8E7AD4ED907AFC
:103E6000D4ED926A67EE072A27EEA73A94ED947A8A
:103E7000D4ED967A66EEA63AD4ED8D1A27EE074A6F
:103E800094ED8F2A67EEA74AD4ED986AE1EEA12A55
:103E900094ED9A7AA2EE023AD4ED9C7A26EEA65AD6
:103EA00094ED911A67EE075AD4ED931A27EEA76A9C
:103EB00094ED952AE1EE013AD4ED9E6AA1EEA14A75
:103EC00094EDA07AE2EE024AD4EDA27A66EEA66AFA
:103ED00094ED971A27EE077AD4ED991A67EEA77A30
:103EE00094ED9B2AA1EE015AE1EEA15A94ED9D1AA0
:103EF000A2EE026AD4ED9F1A94EDA12AE1EE016AC6
:103F0000A1EEA17AE2EE027AB1EEE22AF1EEC32A44
:103F1000B1EEE33AF1EEC43A84ED6D2AB1EEE44A33
:103F2000C4ED6E2AF1EEC54A84ED6F3AB1EEE55A62
:103F3000C4ED703AF1EEC65A84ED714AB1EEE66A0C
:103F4000C4ED724AF1EEC76A84ED735AB1EEE77AB6
:103F5000C4ED745A84ED756AC4ED766A84ED777A9F
:103F600094EDA47AD4EDA67A67EE075AD4EDA86A48
:103F700027EEA76A94EDAA7AD4EDAC7A66EEA66A2B
:103F8000D4EDA34A27EE077A94EDA55A67EEA77AF7
:103F9000E4EEA45A94EDA74AA5EE056AD4EDA94A29
:103FA00094EDAB5AE4EE046AA4EEA47A85F8C9391C
:103FB000E5EE057AB1EEE55AF1EEC65AB1EEE66AE3
:103FC000F1EEC76A84ED785AB1EEE77AC4ED795A1A
:103FD00084ED7A6AC4ED7B6A84ED7C7A95F8622B75
:103FE0000F2A00F37785002302F16D019FED1A7A05
:103FF00004EB81011E461846D1ED007A38B951ED27
:10400000016AF4EEE67AF1EE10FA09DDD6B2B4EE0A
:10401000E77A0120F1EE10FA02D5B0EE677AD3B25A
:1040200001320431102AE7D104EB8302591C0F2B13
:10403000D2ED6D7A07EE101A06F1010267EEA76A5B
:10404000B8EEC77A66EEA77A27EE277A00F06D8180
:1040500004E000BF300800200000000005EB8301F1
:104060005E1C04EB830001F50361D0ED6E6A91EDF7
:104070006D6AF4EEC66AF1EE10FA40F1568166EE12
:10408000065A05EE106A0F2EB8EEC55A25EE866A5E
:10409000A5EE067A77EE867A00F02D850146981C0B
:1040A00091ED6F6AB4EEE66AF1EE10FA40F13D81EF
:1040B00066EEA65A05EE100A0F28B8EEC55A65EE50
:1040C000A66AA5EE267A77EEA67A00F01685D1EDDF
:1040D000706AD81CF4EEC66AF1EE10FA40F1258140
:1040E00066EE065A05EE100A0F28B8EEC55A25EE00
:1040F000866AA5EE067A77EE867A00F0008591ED65
:10410000716A181DB4EEE66AF1EE10FA40F10D8105
:1041100066EEA65A05EE100A0F28B8EEC55A65EEEF
:10412000A66AA5EE267A77EEA67A00F0EA84D1EDAB
:10413000726A581DF4EEC66AF1EE10FA40F1F5808D
:1041400066EE065A05EE100A0F28B8EEC55A25EE9F
:10415000866AA5EE067A77EE867A00F0E68091ED23
:10416000736A981DB4EEE66AF1EE10FA40F1DD8054
:1041700066EEA65A05EE100A0F28B8EEC55A65EE8F
:10418000A66AA5EE267A77EEA67A00F0CE80D1ED6B
:10419000746AD81DF4EEC66AF1EE10FA40F1C580DB
:1041A00066EE065A05EE100A0F28B8EEC55A25EE3F
:1041B000866AA5EE067A77EE867A00F0B68091EDF3
:1041C000756A03F10800B4EEE66AF1EE10FA40F108
:1041D000AC8066EEA65A05EE100A0F28B8EEC55A56
:1041E00065EEA66AA5EE267A77EEA67A00F09D80A7
:1041F000D1ED766A03F10900B4EEE66AF1EE10FA49
:1042000040F3938066EE065A05EE100A0F28B8EECA
:10421000C55A25EE866AA6EE057A77EE867A00F014
:10422000848091ED776A03F10A00F4EEC66AF1EE3C
:1042300010FA7ADD66EEA65A05EE100A0F28B8EEDF
:10424000C55A65EEA66AA6EE857A77EEA67A6CD098
:10425000D1ED786A03F10B00B4EEE66AF1EE10FAE4
:1042600063DD66EE065A05EE100A0F28B8EEC55A51
:1042700025EE866AA6EE057A77EE867A55D091ED20
:10428000796A03F10C00F4EEC66AF1EE10FA4CDD27
:1042900066EEA65A05EE100A0F28B8EEC55A65EE6E
:1042A000A66AA6EE857A77EEA67A3ED0D1ED7A6A36
:1042B00003F10D00B4EEE66AF1EE10FA35DD66EEBC
:1042C000065A05EE100A0F28B8EEC55A25EE866A82
:1042D000A6EE057A77EE867A27D091ED7B6A03F118
:1042E0000E00F4EEC66AF1EE10FA1EDD66EEA65A76
:1042F00005EE100A0F28B8EEC55A65EEA66AA6EEBE
:10430000857A77EEA67A10D0D4ED7C6AF4EEC66A90
:10431000F1EE10FA09D566EE066AF2EE0E5A26EEB6
:10432000866AA6EE257A77EE867A934240F34F812D
:1043300005EB8301581E04EB830601F50361D6EDFE
:104340006C6A91ED6D6AF4EEC66AF1EE10FA40F116
:104350003E81591C66EE065A904205EE101A25EE73
:10436000866AB8EEC55A77EE867AA5EE067A40F3ED
:104370002E8196ED6B6A991EB4EEE66AF1EE10FAA4
:1043800040F1258166EEA65A914265EEA66A05EED9
:10439000903AF8EEE55A77EEA67AA5EEA67A40F3C3
:1043A00016813746DE1ED7ED6A6AF4EEC66AF1EE74
:1043B00010FA40F10C8126EE065A05EE900A96425C
:1043C000F8EEE55A25EE066AA5EE867A77EE867A4D
:1043D00040F3FD8097ED696A181FB4EEE66AF1EECE
:1043E00010FA40F1F48026EEA65A05EE901A90429B
:1043F000F8EEE55A65EE266AA5EEA67A77EEA67A7D
:1044000040F3E580D7ED686A591FF4EEC66AF1EE15
:1044100010FA40F1DC8026EE065A05EE906A9142D1
:10442000F8EEE55A25EE066AA5EE867A77EE867AEC
:1044300040F3CD8097ED676A9E1FB4EEE66AF1EE19
:1044400010FA40F1C48026EEA65A05EE900A964274
:10445000F8EEE55A65EE266AA5EEA67A77EEA67A1C
:1044600040F3B580D7ED666AD81FF4EEC66AF1EE68
:1044700010FA40F1AC8026EE065A05EE901A9042F2
:10448000F8EEE55A25EE066AA5EE867A77EE867A8C
:1044900040F39D8097ED656AA3F10801B4EEE66AEA
:1044A000F1EE10FA40F1938026EEA65A05EE906ADE
:1044B0009142F8EEE55A65EE266AA5EEA67A77EE09
:1044C000A67A40F38480D7ED646AA3F10906F4EE7E
:1044D000C66AF1EE10FA7AD526EE065A05EE900A73
:1044E0009642F8EEE55A25EE066AA5EE867A77EE54
:1044F000867A6CDD97ED636AA3F10A00B4EEE66A92
:10450000F1EE10FA63D526EEA65A05EE901A904207
:10451000F8EEE55A65EE266AA5EEA67A77EEA67A5B
:1045200055DDD7ED626AA3F10B01F4EEC66AF1EE38
:1045300010FA4CD526EE065A05EE906A9142F8EE36
:10454000E55A25EE066AA5EE867A77EE867A3EDD96
:104550003E46A3F10C0796ED616AB4EEE66AF1EE11
:1045600010FA34D526EEA65A05EE900A9742F8EED8
:10457000E55A65EE266AA5EEA67A77EEA67A26DDDE
:10458000D6ED606A0D3BF4EEC66AF1EE10FA1ED568
:1045900026EE065A05EE901A9342F8EEE55A25EEFD
:1045A000066AA5EE867A77EE867A10DD94ED6E6A5D
:1045B000B4EEE66AF1EE10FA09D526EEA66AF0EE40
:1045C000085A66EE266AA6EEA57A77EEA67AF5EE8A
:1045D000C07AF1EE10FA40F3728287EE278AD4EDAA
:1045E000CD7A95F8CAA9B7EE007A38EE478A28EE58
:1045F000278AB5F8680B57F0EFFC064618EE100A4C
:104600000F4657F00BFD80468946304639464246F4
:104610004B4657F0E1FF08B946464F46394630460B
:1046200058F024F800EE100A0AEBCA0304EB8300EA
:1046300000F52D705EF08CFA95F8CA29BCEEC00A20
:1046400095F8C93902F5C87205EB420210EE100A5E
:10465000B2F83018A2F83008A2F836185A1CB44B39
:10466000A3FB0213D11A03EB51039B08C3EBC30353
:10467000D31A85F8C93902B0BDEC048BBDE8F087C8
:10468000AC4CABE4AC4CAB4EB0EE006AB5F8CC1918
:10469000F6EE006AD6ED6E7A3346D6ED6D5A0139E4
:1046A00077EEA77AD5F8E02904EBC100B0EE664AB0
:1046B0001032B0EE677A0838D5EE867AA5EE867AA3
:1046C00067EEA67A27EE267AC6ED8E7A86ED8D7A8B
:1046D000D0ED036A0139D0ED027A02F10802D3ED80
:1046E000705AA0F10800D3ED6F4A03F1080335EECC
:1046F000E67A12ED036A37EEE45A77EEA47A76EEA4
:10470000A56A52ED045AA6EE057AE5EE857AA5EE85
:10471000E67AE6EE267A27EE047A67EE847A83ED6F
:104720008E7AC3ED8D7AD3D195F8C93996E795F88D
:10473000CA2902F5C87305EB4303B3F83018B3F880
:1047400036388B4206D0012385F85D2BA5F85E1B19
:1047500085F85C3B0132794B0621A3FB020385F807
:10476000C91903F4FF7101EB5303D21A85F8CA2962
:1047700095F844386F4C9E1DC3F1200306EB42129E
:1047800013F0FC0FC3F38501DFB204EB820600F0E7
:10479000AD81013106F110022346080106EB01113B
:1047A00012ED026A103293EDD17A103352ED076A9E
:1047B00052ED057A26EE076AD3EDCC4A12ED087A5F
:1047C0008A4293EDCB5A66EEA46AD3EDCE5A27EE19
:1047D000057A83ED6B6A67EEA57AC3ED6A6A83EDAD
:1047E000697AC3ED6C7ADBD1554BA0F11001A3F5CA
:1047F000C4720E440B44114417F003021BD0D6EDD3
:10480000007A013A93ED007A67EE877AC1ED007A7B
:1048100011D0D6ED017A012A93ED017A67EE877AFD
:10482000C1ED017A07D0D6ED027A93ED027A67EEF8
:10483000877AC1ED027A95F84468002E3FF474AF90
:10484000CF3795F8CA39B00804EB870C04EBC313D3
:10485000ACF5C47C04EB870403F1180734D00130B5
:1048600007F1100304F110010CF110024FEA001ED1
:1048700007EB001013ED046A103351ED047A103287
:1048800053ED066A103126EE276A51ED067A13EDD4
:10489000077A51ED075A66EEA76A53ED057A83420F
:1048A00002ED086A27EE257A11ED056A42ED066AE7
:1048B00067EE867A02ED077A42ED057ADAD1AEF13B
:1048C00010031F441C449C4416F003033FF42CAF18
:1048D000D7ED007A013B94ED007A67EE877ACCED54
:1048E000007A3FF421AFD7ED017A012B94ED017AE4
:1048F00067EE877ACCED017A3FF416AFD7ED027AF6
:1049000094ED027A67EE877ACCED027A0CE795F89F
:10491000CA292DE7084CD5F8D4292046B5F8D8196E
:1049200057F050F995F8C939013385F8C939AAE625
:104930002549922430080020E4090020ABAAAAAA45
:104940006C0B0020B5F8CC396F4C5908D5F8D0293C
:1049500004EB8308DB084FEA810004EB810E00F0D2
:10496000A0805E1C10300EF1100302F1100C0EEB53
:10497000061E404408F11007A4F5DA7657ED047AD4
:10498000103396ED6D1A0CF1100C50ED041A103620
:1049900013ED086A71EE278A57ED032A31EE671A84
:1049A00010ED032A36EE218A57ED013A71EEC61A50
:1049B00013ED064A103753ED054A103057ED066ADD
:1049C00053ED075A50ED067A10ED057A35EE820A5E
:1049D00096ED6B3A72EE655A96ED6A5A74EE270AB6
:1049E00096ED6C6A77EEC47AC6ED698A35EE229A46
:1049F00036EE232A35EE625A73EE268A86ED6A9ADF
:104A000074EE872A86ED6C2A37EE647AC6ED6B8ADF
:104A100073EE666A43ED052A36EE636A03ED088A93
:104A200003ED070A43ED060A73455CED074A1CEDEA
:104A3000084A24EEC12A24EE653A65EE242AA5EE42
:104A4000042A61EE843AB0EE435AE1EE042AE5EE20
:104A5000A43AA1EEA45A07ED072A47ED082A40ED33
:104A6000073A00ED085A5CED055A1CED065A26EE91
:104A7000253A65EEE63A27EE854A65EE474AE6EEC8
:104A8000053AA6EE853AA7EE254AE7EEA54A07EDD8
:104A9000063A47ED053A00ED054A40ED064A7FF437
:104AA0006DAF89B220460191FBF70EFB019940469C
:104AB000D5F8D029FBF708FB95F8C939CEE595F86C
:104AC000CAA905EB4A03B3F8563B08EE103AB8EE14
:104AD000488A8EE5D4ED6D7A0122002327EEA77A6D
:104AE00067EE277AB0EE677AFFF7B8BA04F5DA71A5
:104AF00004F54F7380E60E2317E40D2315E40C2311
:104B000013E40B2311E400BFE4090020064B93F8E3
:104B1000E52F22B903F5965393ED020A7047034B34
:104B200093ED020A704700BFB81E012090310120AA
:104B30002DE9F04F2DED028B87B0354D0446B0EED8
:104B4000408A03901046D5F8989E0E4617469B461D
:104B500057F0F8F80146D9F800C04FF0000821449A
:104B600089F80B6048463B4689F80A1032462146D0
:104B7000CDF80080DCF814409DF848A09DF84C90DA
:104B8000A0479FED240A5346424604A828EE000A97
:104B9000CDF804B0CDF80080FDEEC07A17EE901A83
:104BA00013F056FDD5F89C3E13B11B784B452BD026
:104BB000D5F8A83E13B11B784B4525D0D5F8B43EA7
:104BC00013B11B784B451FD0D5F8C03ED3B11B782D
:104BD000A3EB0909B9FA89F94FEA5919384657F090
:104BE000B1F8039C04AB32460134CDF80090211893
:104BF000D5F8980EC9B249F001F807B0BDEC028BA8
:104C0000BDE8F08F9946E9E74FF00109E6E700BFFC
:104C1000B02F01200000C84230B41C7884B1012CB0
:104C20000CD1B3F902408AB1157B94FBF5F4047002
:104C3000B3F90430527B93FBF2F30B7030BC704736
:104C40009A780270DB7830BC0B707047054AE51724
:104C500082FB04241222C5EB64040470B3F904300F
:104C6000E9E700BFABAAAA2A30B41C784CB1012CEA
:104C700005D1B3F90220B3F9043002600B6030BCF7
:104C800070479C7852B1157BDB7815FB04F4046007
:104C9000527B03FB02F330BC0B60704704EB44040F
:104CA000DB781222A4000460F3E700BF30B50C46A5
:104CB00083B0054601920FF077FC019B22462946FE
:104CC00049F056F80B4991F9CC3E5A1C01EB4303CD
:104CD00052B283F8D05E83F8D14E352A05DD002329
:104CE000012081F8CC3E03B030BD012081F8CC2EEC
:104CF00003B030BDB02F012041F28403104A30B51B
:104D0000D45C83B00346012C10D904220D888C7822
:104D100074200DEB02018DF80430ADF805508DF8CC
:104D200007402AF031FE012003B030BD02D0002040
:104D300003B030BD41F28500125C622AE5D8F6E787
:104D4000B02F0120F8B5214D1D260C46074605F869
:104D50004C6C28F033FF002028F0B0FE082028F02B
:104D6000ADFE0E2028F0AAFE304628F0A7FE042053
:104D700028F0A4FE042028F0A1FE002028F09EFECA
:104D8000302028F09BFE002028F098FE204628F0D6
:104D900095FE002028F092FE28F0EEFEA5F14800D6
:104DA00028F0ECFD00B9F8BD15F8473C0BB1302BED
:104DB0000AD115F8482C15F8463C134304D115F8D0
:104DC000453C01203B70F8BD0120F8BDA840012002
:104DD0002DE9F04F0023DFF8FC8200240025424635
:104DE00019462DED028B87B0E2E8024502F8331038
:104DF0000133122BFAD1B44CDFF8DC9204F5407584
:104E000004F13807DFF8D4A22E469FEDB08A05E002
:104E100000232B6018340835A64247D094F901309E
:104E2000002B05DB07EBC303D3F8C832002BEFD010
:104E30002378002BECD02B79DA07EBD4A16820790A
:104E400027F00CFD21698346207B27F007FDA2781F
:104E50000346282ADCD8DFE812F05C007600450023
:104E60009400DA017E00430089006002690270024A
:104E70007B02840258008A028C0262009C00A1001E
:104E8000AD00C000D300F100FD000D01E4010102FE
:104E90000E021B022802360251028F021A01430140
:104EA00051017A018C019E01C7016E0097F8D83339
:104EB00013B197F8DA3323B907B0BDEC028BBDE824
:104EC000F08F97F8D9234021D7F8DC0349F0C4F8D4
:104ED000002387F8DA3307B0BDEC028BBDE8F08F12
:104EE00040F282639B45D4BF4FF0000B4FF0010BA3
:104EF0005A46237DC5F800B0DB078BD5002A89D040
:104F00002B7943F001032B7184E7BBF1000F00F014
:104F100041820122237D2A60DA07F1D47AE700FB7F
:104F20000BF047F6FF72494648F08CFA021E8346A2
:104F300018BF0122DDE7002840F03082BBF10002FB
:104F400018BF0122D5E7ABEB000BBBFA8BFB4FEA96
:104F50005B1B5A46CDE7ABF2355BBBF5A77F2CBF99
:104F60004FF0000B4FF0010B5A46C2E7031E18BF6B
:104F70000123BBF1000F14BF9B464FF0000B5A46B4
:104F8000B7E78345ACBF4FF0000B4FF0010B5A461B
:104F9000AFE70028D2D09BFBF0F0C2E75FFA8BF0BE
:104FA0001946019327F014FC019B1A1E9B4618BF5B
:104FB00001229EE75FFA8BFB0190584627F022FC06
:104FC000019B0246584603EB020B594627F000FCB2
:104FD000BBF1000218BF01228BE75FFA8BFB019047
:104FE000584627F00FFC019B02465846A2EB030BE4
:104FF000594627F0EDFBBBF1000218BF012278E70C
:105000005FFA8BFCBCF1070F00F2CD811A1EC1B212
:105010004FF0010E97F8D90318BF012200399B46C3
:105020000EFA0CFC18BF012187F8DAE34B4243402B
:1050300003EA0C03434087F8D9335AE7D8F8003025
:105040000121227D0B432960C8F80030D3077FF58A
:10505000E1AE55E71E4A0121D8F80030C2F8E4BCA1
:10506000227D43F002032960D007C8F800303FF5E5
:1050700047AFCFE6D8F800300121227D43F004038A
:105080002960D107C8F800303FF53AAFC2E607EE15
:1050900090BA0028B8EEE70A08BF4FF4FA730193FC
:1050A00020EE080A4EF08AF9019B07EE903AF8EEDE
:1050B000E77A27EE800AFDEEC07A17EE90BABBF1D0
:1050C000000218BF012214E77040012035FA8E3C1F
:1050D00000000020F00B00200080FFFF1F85EB5137
:1050E00007EE90BA0028B8EEE70A08BF4FF4FA734B
:1050F000019320EE080A4EF089F8D5E707EE90BA42
:105100000028F8EEE78A08BF4FF4FA73019368EEBF
:10511000888AB0EE680A4EF051F9F0EE407AB0EEAF
:10512000680AF0EE678A4EF071F8019B07EE903A3C
:10513000B8EEE77AC8EE807A67EE877AFDEEE77A16
:1051400017EE90BABBF1000218BF0122D1E61A4651
:1051500058460021019348F075F9019B0022194639
:105160004FF47A73FDF7EAFF021E834618BF01224F
:10517000BFE64FF47A7200210190584648F062F978
:105180000022019B4FF47A71FDF7D8FF021E83467F
:1051900018BF0122ADE61122002101900BF1FF3072
:1051A00048F050F9019B8646DFF828C24FF0010B0A
:1051B00018460CEBCE034FF4FA624FF47A7183F881
:1051C000F8BB019348F03EF9D8F80020217D42F465
:1051D0008072019BC907C5F800B0C3F8FC0BC8F882
:1051E00000203FF58DAE15E6642000FB0BF04DF07E
:1051F00043FF8AFB003BC017C0EB6B1B0FFA8BF021
:105200002DF0A2FABBF1000218BF012271E640F2B4
:1052100034539B45CCBF4FF0000B4FF0010B5A4667
:1052200067E66C4BD3F8EC2C93453FF4F1AD02A943
:10523000D7F8C80347F0F8FE00286CD058469DF810
:105240000A20012148F0FEF8624B021E8346C3F893
:10525000EC0C18BF012287F8CE034AE6D8F80030DC
:105260000121227D43F008032960D207C8F80030ED
:105270003FF546AECEE5D8F800300121227D43F05F
:1052800010032960C8F80030D3073FF539AEC1E5F7
:10529000D8F800300121227D43F020032960D00797
:1052A000C8F800303FF52CAEB4E5D8F80030BBF1BB
:1052B0000002484943F0400318BF0122C1F8FCBC7A
:1052C000C8F8003015E6434BD3F8002D93453FF462
:1052D0009FAD02A9D7F8C80347F0A6FED8B158463B
:1052E0000522012148F0AEF83A4B021E8346C3F86E
:1052F000000D18BF012287F8CC03FAE5354BD3F82F
:10530000042D93453FF484AD02A9D7F8C80347F0B4
:105310008BFE00284CD128607CE55BEA030314BFB8
:105320004FF0010B4FF0000B5A46E2E5BBEB000BD0
:1053300018BF4FF0010B5A46DBE5B0FA80F35B096A
:10534000BBF1000F14BF9B464FF0010B5A46D0E54E
:105350005BEA03030CBF4FF0010B4FF0000B5A4602
:10536000C7E5BBFA8BFB4FEA5B1B5A46C1E55844C5
:10537000D7E5ABEB0000D4E5D8F80030BBF1000274
:10538000144943F0800318BF0122C1F808BDC8F8D2
:105390000030AEE5D8B9D5F800B0CFE59BFBF0F012
:1053A00003FB10B0BDE5021E834618BF0122A0E535
:1053B00058460822012148F045F8064B021E834654
:1053C000C3F8040D18BF012287F8CD0391E5C5F895
:1053D00000B01FE500000020164991F88C2932B377
:1053E000F0B4064600200346074602E092F88C29F6
:1053F000DAB100EB80002E2A4FEA400004D10133DD
:10540000CA18324482F88C79CA18A0F1300592F893
:105410008C29A2F13004092C98BF50190E2B03F1EE
:10542000010301EB0302E1D90020F0BC704700202A
:10543000704700BFB02F012070B5174D0646D5F854
:10544000E00303791E3B012B02D9002147F05AFFEC
:10545000002E09DD114C264414F8011BD5F8E00399
:1054600047F050FFA642F7D195F837346BB90C4A94
:105470000021B5F84034D2F8500F0133094AC5F87D
:105480003804A5F84034516070BD0021D5F8E00320
:1054900047F038FFEBE700BFA84001208C44012013
:1054A000B81E0120E044012038B5084CB4F8BA54C5
:1054B0002CF090FE854205DDB4F8BA24044BA3F825
:1054C000322D38BDBDE8384008F050BEA84001205C
:1054D00000000020036813F0400004D013F4057F9F
:1054E00014BF0120002070472DE9F043264D85B000
:1054F000264C804605F124090F461646C4F8AC58E0
:10550000C4F8B098FDF70EFC214804F508614FF08F
:10551000120C42F6F8220023C4F8A008402084F8B8
:1055200080C8C1E902232AF015F9044630B3FFF719
:10553000D1FF98F800C0B0F100083F7894F904005A
:105540004B4614BF03220122BCF1000F00960192CA
:105550004FF040010CBF07240624012F0D4AA5F28D
:10556000D4450CBF08260026344302942AF03CF8A8
:10557000B8F1000F05D1003818BF012005B0BDE813
:10558000F083C5F83805F6E77C450120B02F0120EF
:1055900005620308D97103080348044A00F62B1179
:1055A00000F62A10A0E700BFB02F0120400D030035
:1055B0000348044A00F62B1100F62A1094E700BFB6
:1055C000B02F0120A0860100F0B5C34C85B0D4F8FF
:1055D0003C652EB13046FFF77DFF002840F06B811F
:1055E00094F84805FBF748F994F84035054683429E
:1055F0001CD0002800F07C81C6B1B84B02214FF4CA
:10560000165296F9040093F84150002301910421A9
:10561000B5FA85F500921A466D09029529F0E4FF66
:10562000C4F8440510B1012384F8403594F84905C5
:10563000FBF722F994F84A35054683421ED000282C
:1056400000F01681D4F84C35C3B1A44D032193F971
:105650000400002395F848504FF496420191082128
:105660009D4200921A4618BF0D46029529F0BCFFD4
:10567000C4F8500510B1012384F84A35FBF72EFA1F
:10568000D4F854552DB12846FFF724FF002840F0E8
:10569000F88094F86005FBF7EFF894F85835064663
:1056A000834231D0002800F02C818C4E96F84B308C
:1056B000012B00F03481022B0CBF894A894AC4F8BF
:1056C0005C250DB32A7A002A00F02681022A00F018
:1056D0002A81012A40F03581814A4FF49663C4F84B
:1056E0005C2595F904000221002500930191102109
:1056F0002B462A46029529F077FFB06720B1012397
:1057000084F8615584F8583594F86205FBF7B4F8CD
:1057100094F863350546834235D0002800F09F8019
:10572000D4F86435CBB11A7A002A00F0F2806E49C1
:1057300001EB8202126F93F904000321002300920F
:1057400001914FF480711A46029329F04DFFC4F87D
:10575000680510B1012384F86335604A634BB2F8E1
:10576000701092F8725092F87300A3F8D21792F862
:10577000741092F8752083F8D65783F8DA0783F807
:10578000DB1783F8DC2794F86C05FBF775F894F8C1
:105790006D350546834227D058B34FF4FA70FDF7B4
:1057A0006DF9D4F87035FBB11A6802F41072B2F5D5
:1057B000107F19D093F904000821032200234FF42D
:1057C000E135029101924FF400711A46009529F0DB
:1057D0000BFFC4F8780538B1404901220023486323
:1057E00084F86D2584F8743594F87C556DB105B056
:1057F000F0BDD4F8780529F0DBFEC4F8785584F8BC
:105800006D5594F87C55002DF1D1D4F88015002900
:10581000EDD0032291F90400334E2B46CDE901254A
:105820000F7A2A464FF4002106EB8706366F009662
:1058300029F0DAFEC4F884050028D8D0274942F2BE
:1058400010730122C4F88C55D1F8501F84F890557C
:105850000B4484F87C25C4F8883505B0F0BDD4F835
:10586000680529F0A5FEC4F8685584F863558AE7F1
:10587000D4F8500529F09CFEC4F8505584F84A55D8
:10588000FCE694F85835002B7FF43EAFD4F8383559
:10589000002B3FF439AF114A92F84B10936701295E
